:020000040800F2
:10000000000400201B060008290600082B06000833
:100010002D0600082F060008310600080000000029
:10002000000000000000000000000000330600088F
:1000300035060008000000003706000839060008F1
:100040003B0600083B0600083B0600083B0600088C
:100050003B0600083B0600083B0600083B0600087C
:100060003B0600083B0600083B0600083B0600086C
:100070003B0600083B0600083B0600083B0600085C
:100080003B0600083B0600083B0600083B0600084C
:100090003B0600083B0600083B0600083B0600083C
:1000A0003B0600083B0600083B0600083B0600082C
:1000B0003B0600083B0600083B0600083B0600081C
:1000C0003B0600083B0600083B0600083B0600080C
:1000D0003B0600083B0600083B0600083B060008FC
:1000E0005F0200083B0600083B0600083B060008CC
:1000F0003B0600083B0600083B0600083B060008DC
:100100003B0600083B0600083B0600083B060008CB
:100110003B0600083B0600083B0600083B060008BB
:100120003B0600083B0600083B0600083B060008AB
:1001300000F002F800F03AF80AA090E8000C8244BF
:100140008344AAF10107DA4501D100F02FF8AFF29C
:10015000090EBAE80F0013F0010F18BFFB1A43F0A5
:10016000010318477CB100009CB10000103A24BF85
:1001700078C878C1FAD8520724BF30C830C144BF0C
:1001800004680C607047000000230024002500264E
:10019000103A28BF78C1FBD8520728BF30C148BFEA
:1001A0000B6070471FB51FBD10B510BD04F06AFD90
:1001B0001146FFF7F7FF00F00FF804F088FD03B4D5
:1001C000FFF7F2FF03BC04F089FD000030BF72B6F8
:1001D00062B680F308887047092000F0C1F9482012
:1001E00000F064F800F05DFE012321A20021102040
:1001F00001F01BFC012323A210210A2001F015FCB1
:10020000012323A220210A2001F00FFC00F0E3FECD
:1002100004F03EF922E021492148006806F0CCF8BC
:10022000054606F02DF804460123224610215020F1
:1002300001F0AEFE19491B48006806F0BDF80546FE
:1002400006F01EF80446012322462021502001F02A
:100250009FFE00F0C0FE0A2000F05EF8DBE710B55C
:1002600004F05CF94FF480400F49086010BD0000B5
:100270004D5055BDC7B6C8CFD4CABE28444D50292D
:10028000000000005069746368BDC7B6C83A00003A
:10029000526F6C6C20BDC7B6C83A00000000204108
:1002A0006800002064000020140401404FF0E021A9
:1002B000096921F004014FF0E0221161C21700EB3F
:1002C0005272D210224B1A701946097801EB410282
:1002D000C2EBC1114FF6FF7202EAC1011D4A118043
:1002E000704701461A4A12784A434FF0E0235A6198
:1002F00000229A6101221A6100BF4FF0E0221069CA
:1003000010F0010F02D010F4803FF6D000224FF021
:10031000E0231A619A61704701460E4A12884A43E7
:100320004FF0E0235A6100229A6101221A6100BF56
:100330004FF0E022106910F0010F02D010F4803F5E
:10034000F6D000224FF0E0231A619A617047000056
:100350000000002002000020A24A0A400243A24BF3
:100360001A6070470146072323EA010212029E4BDE
:100370001B1D18684FF6FF0318409C4B1843104391
:10038000994B1B1D186070472DE9F04107468846C0
:1003900014461D462846FFF7E5FFC5F1040007FA9D
:1003A00000F60F20284100EA0800064306F00F0679
:1003B000202C0CDA8E4800684FF0010101FA04F19C
:1003C00040EA01004FF0E021C1F800010DE089484A
:1003D0000068A4F120014FF0010202FA01F240EAA4
:1003E00002004FF0E021C1F804018348005D40EABB
:1003F0000610C1B280480155BDE8F08170B50446D1
:100400000B46CE1701EB9676B010CE1701EB967621
:10041000B610A1EB8606B606350E784B9B6943F005
:100420000103764EB3614FEAB63353F820300F26FE
:10043000AE40B343724E46F82030334653F8203076
:1004400004FA05F633436E4E46F820306D4B1E68B5
:1004500001238B401E436B4B1E6012F0010F08D02E
:10046000684B0C331B6801268E403343654E0C36B7
:10047000336012F0020F08D0624B08331B6801266C
:100480008E4033435F4E0836336070BD00B50020A8
:100490005A490861C8601420486100208861C86119
:1004A0000846006840F00100086008464068564968
:1004B00008405249486008460068544908404F497E
:1004C00008600846006820F48020086008464068FC
:1004D00020F4FE0048600020886000214FF000609A
:1004E000FFF73AFF00BD10B53F480830006840F004
:1004F00004003D49083108604048C06940F0805020
:100500003E49C8614248406840F4807040494860B4
:100510000846006840F0040008600846006840F0A3
:1005200002000860FFF752FE10BD3048001D2E4942
:10053000091D0860704701464906304A926942F039
:1005400001022E4B9A612E4A083A526822F0E0626C
:100550002B4B083B5A601A4652680A435A60704750
:1005600030B504460025FFF791FF2448006840F4A9
:1005700080302249086000BF20480068400CFBD052
:100580004FF480601D494860A01EC4B20846406810
:1005900040EA844048600846406840F48030486043
:1005A0001C48006840F032001A490860134800688F
:1005B00040F080701149086000BF10480068400E8C
:1005C000FBD00E48406840F002000C49486005E04E
:1005D0000A484068C0F3870505F00305022DF7D1EE
:1005E00030BD000080FFFF1F08ED00E00000FA05AD
:1005F00000E100E004E100E000E400E0001002405F
:1006000008000140000401400000FFF8FFFFF6FE73
:10061000007000400020024070470B4880470B49A3
:1006200081F308880A480047FEE7FEE7FEE7FEE799
:10063000FEE7FEE7FEE7FEE7FEE7FEE705480649C0
:10064000044A064B7047000019060008F00C002011
:1006500031010008F0040020F00C0020F00400201C
:10066000FE48806940F01000FC498861FC48406801
:1006700020F47F00FA4948600846406840F44C1076
:1006800048600846C06840F03000C8607047F448D1
:10069000406820F47000F24948600846406840F421
:1006A000401048600120EF490860EF49C1F8B401EB
:1006B000EE49086008604FF00000EA4908600860F1
:1006C000EA490860E849C1F8B0017047E448406869
:1006D00020F47000E24948600846406840F4401049
:1006E00048600020E1490860DF49C1F8B001DD49F8
:1006F000086008604FF00100DC4908600860D949D3
:100700000860D949C1F8B401704700B50022002043
:10071000D64908604FF00100D349C1F8B401C1F8CF
:10072000B401CF48406820F47000CD4948600846C5
:10073000406840F4000048604FF00100CB49086079
:10074000086007E0501CC2B2FA2A03DDFFF7BEFFC3
:10075000002000BDC64800680028F3D1C3490860E6
:100760004FF00100F5E70020C0490860BE49C1F81C
:10077000B001BB48406820F47000B94948600846A1
:10078000406840F4401048604FF00000B5490860F0
:1007900008604FF00100B549086008604FF00000A4
:1007A0000860B149C1F8B00170470020AF49086046
:1007B000AD49C1F8B001AA48406820F47000A849CA
:1007C00048600846406840F4401048604FF001001F
:1007D000A44908600860A549086008604FF000005F
:1007E0000860A149C1F8B001704701469C4A5268AF
:1007F00022F470029A4B5A601A46526842F4401230
:100800005A60002016E00022984B1A604FF08002D8
:1008100042FA00F20A4203D00122924B1A6002E02F
:100820000022904B1A604FF00102904B1A6000F1C9
:100830000102D0B20828E6DB00228C4B1A60704718
:1008400000210020864A526822F47002844B5A60CC
:100850001A46526842F400025A6000BF25E00022A6
:10086000824B1A60804BC3F8B021804B1A601A602B
:100870001A601A601A601A601A601A604FF001025A
:100880001A601A601A601A601A601A601A60764B51
:10089000C3F8B0214FEA40624FEA1260744A12680E
:1008A0000AB140F001004A1CD1B20829D7DB00226E
:1008B0006E4B1A60704710B56948406820F47000AC
:1008C000674948600846406840F44010486001208D
:1008D000644908606449C1F8B0014FF00200FFF7B5
:1008E00000FD00205F4908604FF00200FFF7F9FCAF
:1008F00000205D49C1F8B0010220FFF7F2FC10BDF5
:1009000010B55748406820F47000554948600846C3
:10091000406840F4401048600020544908604FF09F
:100920000200FFF7DEFC00204F49C1F8B4010220AD
:10093000FFF7D7FC01204D4908604FF00200FFF798
:10094000D0FC01204849C1F8B4010220FFF7C9FCDE
:1009500010BD10B500244248406820F470004049A2
:1009600048600846406840F40000486000203F4965
:1009700008604FF00200FFF7B4FC01203A49C1F8CB
:10098000B4010220FFF7ADFC0120384908604FF0A8
:100990000200FFF7A6FC07E0601CC4B2FA2C03DDDE
:1009A000FFF7AEFF002010BD314800680028F3D1EA
:1009B0002E4908604FF00200FFF793FC0120F2E798
:1009C00010B50020294908604FF00200FFF789FCAC
:1009D0002348406820F47000214948600846406878
:1009E00040F44010486000201F49C1F8B4010220C3
:1009F000FFF777FC01201D4908604FF00200FFF768
:100A000070FC00201849C1F8B0010220FFF769FC12
:100A100010BD10B50020154908604FF00200FFF727
:100A200060FC0F48406820F470000D49486008469B
:100A3000406840F44010486001200B49C1F8B401FF
:100A40000220FFF74EFC0120084908604FF0020029
:100A5000FFF747FC002004490CE0000000100240B2
:100A600000100140B401224200002242B0012242A3
:100A700034012242C1F8B0010220FFF732FC10BD60
:100A800070B505469A48406820F47000984948605F
:100A90000846406840F44010486000241BE00020F5
:100AA000944908604FF00200FFF71BFC80202041B2
:100AB000284203D001209049086002E000208E49BE
:100AC00008604FF001008B4908604FF00200FFF70B
:100AD00008FC601CC4B2082CE1DB002085490860DA
:100AE0004FF00200FFF7FDFB70BD70B5002500243C
:100AF0007F48406820F470007D494860084640689F
:100B000040F40000486000BF16E00020794908600A
:100B10004FF00200FFF7E5FB01207849C1F8B00172
:100B20000220FFF7DEFB6006040E7548006808B17E
:100B3000601CC4B2681CC5B2082DE6DB00206D49FC
:100B400008604FF00200FFF7CCFB204670BD70B587
:100B500006460C461546FFF79AFD2846FFF745FE68
:100B600000BFFFF7D2FD0028FBD03046FFF73DFE67
:100B700000BFFFF7CAFD0028FBD02046FFF735FE77
:100B800000BFFFF7C2FD0028FBD0FFF79FFD052047
:100B9000FFF7C2FB012070BD70B506460C46154636
:100BA000FFF789FE2846FFF76BFF00BFFFF7D1FE76
:100BB0000028FBD03046FFF763FFFFF7CAFE204650
:100BC000FFF75EFFFFF7C5FEFFF79AFE0520FFF770
:100BD000A3FB012070BD70B505460C460026FFF74B
:100BE00056FD2046FFF701FE00BFFFF78EFD0028EF
:100BF000FBD02846FFF7F9FD00BFFFF786FD002870
:100C0000FBD0FFF744FD611CC8B2FFF7EEFD00BF4B
:100C1000FFF77BFD0028FBD0FFF712FE0646FFF72B
:100C2000C4FDFFF753FD304670BD2DE9F04180460D
:100C30000D4616461F46FFF72AFD3046FFF7D5FD45
:100C400000BFFFF762FD0028FBD04046FFF7CDFD57
:100C500000BFFFF75AFD0028FBD0002409E0385DF3
:100C6000FFF7C3FD00BFFFF750FD0028FBD0601C5D
:100C7000C4B2AC42F3DBFFF729FDBDE8F0812DE9FA
:100C8000F04180460D4616461F46FFF700FD3046F0
:100C9000FFF7ABFD00BFFFF738FD0028FBD0404653
:100CA000FFF7A3FD00BFFFF730FD0028FBD0FFF7E3
:100CB000EEFC711CC8B2FFF798FD00BFFFF725FDE1
:100CC0000028FBD000240CE0FFF7BAFD3855681E61
:100CD000A04202D1FFF769FD01E0FFF744FD601C6F
:100CE000C4B2AC42F0DBFFF7F1FCBDE8F0810000DC
:100CF00000100140B0012242B40122420000224211
:100D000034012242A448406820F47060A24948603F
:100D10000846406840F44070486000209F490860E1
:100D20009F49C1F8A8014FF001009C4908609C4907
:100D3000C1F8A801704700B500229748406820F428
:100D40007060954948600846406840F4006048601B
:100D50000120944908609249C1F8AC0107E0501C99
:100D6000C2B2FA2A03DDFFF7CDFF012000BD8E4895
:100D700000680028F3D18949086000BFF6E710B584
:100D800003468548406820F47060834948600846FF
:100D9000406840F440704860002080490860044684
:100DA00012E0D8097F4908604FEA43604FEA1063B8
:100DB0004FF001007A49C1F8AC014FF000007749CB
:100DC000086004F10100C4B2082CEADBFFF7B3FFAE
:100DD00010BD7148406820F470606F494860084653
:100DE000406840F44070486001206E4908606C49DA
:100DF000C1F8AC014FF000006A4908606849C1F8C9
:100E0000AC01704710B50446FFF7E3FF7820FFF709
:100E1000B6FF0020FFF7B3FF2046FFF7B0FFFFF754
:100E200071FF10BD30B504460D4605F1B001C8B2E2
:100E3000FFF7E8FF102141EA1410FFF7E3FF04F089
:100E40000F00FFF7DFFF30BD10B50446FFF7C1FF0D
:100E50007820FFF794FF4020FFF791FF2046FFF72F
:100E60008EFFFFF74FFF10BD70B50646002415E05A
:100E700004F1B001C8B2FFF7C5FF0120FFF7C2FFC0
:100E80001020FFF7BFFF002504E03046FFF7DCFF2E
:100E9000681CC5B2802DF8DB601CC4B2082CE7DBEF
:100EA00070BD10B54148806940F001003F4988613C
:100EB0000846806940F0100088613748406820F497
:100EC0007F40354948600846406840F44C504860CF
:100ED0000846C06840F44060C8606420FFF71CFA10
:100EE000AE20FFF78FFF0020FFF78CFF1020FFF7E9
:100EF00089FF4020FFF786FF8120FFF783FFCF2087
:100F0000FFF780FFA120FFF77DFFC820FFF77AFFE2
:100F1000A620FFF777FFA820FFF774FF3F20FFF719
:100F200071FFD320FFF76EFF0020FFF76BFFD52086
:100F3000FFF768FF8020FFF765FFD920FFF762FF0A
:100F4000F120FFF75FFFDA20FFF75CFF1220FFF7C9
:100F500059FFDB20FFF756FF4020FFF753FF20200B
:100F6000FFF750FF0220FFF74DFF8D20FFF74AFFEC
:100F70001420FFF747FFA420FFF744FFA620FFF748
:100F800041FFAF20FFF73EFF0020FFF76DFF00217C
:100F90000846FFF747FF10BD00100140AC01224298
:100FA00000002242A80122422801224200100240F1
:100FB00070B5044621460020FFF734FF002507E006
:100FC000F84901EBC411485DFFF73EFF681CC5B24C
:100FD000802DF5DB70BD10B50020FFF7E9FF012083
:100FE000FFF7E6FF0220FFF7E3FF0320FFF7E0FF34
:100FF0000420FFF7DDFF0520FFF7DAFF0620FFF7EB
:10100000D7FF0720FFF7D4FF10BD00200FE000211D
:1010100009E0E54A02EB8012525CE24B03EBC0139D
:101020005A544A1CD1B24029F3DB421CD0B20828E2
:10103000EDDB704770B503461546802B00DB70BDB5
:10104000402900DBFBE7CC1001F00702D54E06EB90
:10105000C416F05C25B1012D06D0022D0ED108E09A
:1010600001269640B0430AE0012696400643F0B2BE
:1010700005E0012696404640F0B200E000BF00BF08
:10108000C84E06EBC416F05400BFD8E72DE9FF4F59
:1010900081B08046894615460498012803D18346CD
:1010A0004FF0000A03E04FF0000B4FF0010A202D33
:1010B00001DB7F2D00DD2025A5F12000C5B2002435
:1010C00037E0002631E005EBC500B84901EB8000B0
:1010D00004EB440106EB8101405C0090002720E016
:1010E000009810F0800F0BD009EB070202EBC4024E
:1010F000D1B208EB0602D0B25A46FFF79BFF0AE0D6
:1011000009EB070202EBC402D1B208EB0602D0B22F
:101110005246FFF78FFF00984006000E0090781CA3
:10112000C7B2082FDCDB701CC6B20C2ECBDB601CF8
:10113000C4B2032CC5DB05B0BDE8F08F2DE9FF4F2D
:1011400081B08046894615460498012803D183461C
:101150004FF0000A03E04FF0000B4FF0010A202D82
:1011600001DB7F2D00DD2025A5F12000C5B2002484
:1011700037E0002631E0C5EB05108D4901EB40005A
:1011800004EB840106EB4101405C0090002720E065
:10119000009810F0800F0BD009EB070202EBC4029D
:1011A000D1B208EB0602D0B25A46FFF743FF0AE07D
:1011B00009EB070202EBC402D1B208EB0602D0B27F
:1011C0005246FFF737FF00984006000E0090781C4B
:1011D000C7B2082FDCDB701CC6B20A2ECBDB601C4A
:1011E000C4B2032CC5DB05B0BDE8F08F2DE9FF4F7D
:1011F0000746884615460398012803D182464FF0DA
:10120000000903E04FF0000A4FF00109202D01DB37
:101210007F2D00DD2025A5F12000C5B2002424E0AB
:10122000644800EB051010F804B0002619E01BF02C
:10123000800F08D008EB0402D1B2BA19D0B25246DE
:10124000FFF7F8FE07E008EB0402D1B2BA19D0B2FA
:101250004A46FFF7EFFE4FEA4B604FEA106B701CF7
:10126000C6B2082EE3DB601CC4B2102CD8DBBDE88C
:10127000FF8F2DE9FF4F0746884615460398012842
:1012800003D182464FF0000903E04FF0000A4FF00F
:101290000109202D01DB7F2D00DD2025A5F1200097
:1012A000C5B2002426E0C5EBC500434901EB400070
:1012B00010F804B0002619E01BF0800F08D008EBEE
:1012C0000402D1B2BA19D0B25246FFF7B3FE07E01A
:1012D00008EB0402D1B2BA19D0B24A46FFF7AAFE0F
:1012E0004FEA4B604FEA106B701CC6B2072EE3DB6F
:1012F000601CC4B20E2CD6DBBDE8FF8F2DE9FF4F7A
:101300000746884615460398012803D182464FF0C8
:10131000000903E04FF0000A4FF00109202D01DB26
:101320007F2D00DD2025A5F12000C5B2002426E098
:1013300005EB4500214901EB800010F804B00026C0
:1013400019E01BF0800F08D008EB0402D1B2BA19E3
:10135000D0B25246FFF76EFE07E008EB0402D1B2AE
:10136000BA19D0B24A46FFF765FE4FEA4B604FEA22
:10137000106B701CC6B2062EE3DB601CC4B20C2CD2
:10138000D6DBBDE8FF8F2DE9FC4F80460E461546A3
:101390009B460096BBF1010F12D14FF0010A4FF0AE
:1013A000000911E06C0000208E67000826980008F4
:1013B000E68C0008E6860008A6810008267D000865
:1013C0004FF0000A4FF00109202D01DB7F2D00DDD9
:1013D0002025A5F12000C5B2002427E005EB8500FB
:1013E000FE490844005D01900098C6B2002719E04C
:1013F000019810F0010F08D0F219D1B208EB0402E5
:10140000D0B25246FFF716FE07E0F219D1B208EB50
:101410000402D0B24A46FFF70DFE01984010019039
:10142000781CC7B2072FE3DB601CC4B2052CD5DBE8
:10143000BDE8FC8F2DE9FF4F85B080468A46934674
:101440004FF000090020029003E00298401CC0B257
:10145000029002981BF800000028F6D10898012895
:1014600003D100900020019003E0002000900120B3
:10147000019000BF1BF80900049009F101001BF85E
:10148000000003900498802872DD002717E007EB26
:10149000870000EB4710D24911F8101004988142E0
:1014A0000BD107EB870000EB4710CD4901EB400063
:1014B00041780398814200D103E0781CC7B2022F23
:1014C000E5D300BF00266CE007EB870000EB471078
:1014D000C34901EB4000801C06EB4601455C00243B
:1014E00012E015F0800F01D0009B00E0019B1A462E
:1014F0000AEB0603D9B208EB0403D8B2FFF79AFD52
:101500006806050E601CC4B2082CEADB07EB8700F6
:1015100000EB4710B24901EB4000801C06EB46018E
:10152000491C455C002413E015F0800F01D0009B9E
:1015300000E0019B1A460AEB0603D9B208EB04034C
:101540000833D8B2FFF776FD6806050E601CC4B2FA
:10155000082CE9DB07EB870000EB4710A04901EB03
:101560004000801C06EB4601891C455C002414E009
:1015700022E015F0800F01D0009B00E0019B1A468D
:101580000AEB0603D9B208EB04031033D8B2FFF715
:1015900051FD6806050E601CC4B2082CE9DB701C06
:1015A000C6B2182E90DB09F1020000F0FF0908F125
:1015B000180000F0FF080DE051464046089B049AD1
:1015C000FFF764FD09F1010000F0FF0908F10C00CC
:1015D00000F0FF0802988145FFF64CAF09B0BDE866
:1015E000F08F2DE9FF4F85B007468A4693464FF0AE
:1015F00000090020029003E00298401CC0B2029053
:1016000002981BF800000028F6D10898012803D1A1
:1016100000900020019003E0002000900120019044
:1016200000BF1BF80900049009F101001BF800003D
:1016300003900498802872DD002613E0C6EB461064
:10164000684911F810100498814209D1C6EB461080
:10165000644901EB400041780398814200D103E0E6
:10166000701CC6B2022EE9D300BF00256CE0C6EBA9
:1016700046105C4901EB4000801C05EB450110F869
:101680000180002413E018F0800F01D0009B00E0DF
:10169000019B1A460AEB0503D9B23B19D8B2FFF7F2
:1016A000C9FC4FEA48604FEA1068601CC4B2082CBD
:1016B000E9DBC6EB46104B4901EB4000801C05EB13
:1016C0004501491C10F80180002414E018F0800F37
:1016D00001D0009B00E0019B1A460AEB0503D9B23A
:1016E0003B190833D8B2FFF7A5FC4FEA48604FEA30
:1016F0001068601CC4B2082CE8DBC6EB4610394900
:1017000001EB4000801C05EB4501891C10F80180AD
:10171000002415E018F0800F02D0009B01E01DE0CE
:10172000019B1A460AEB0503D9B23B191033D8B214
:10173000FFF780FC4FEA48604FEA1068601CC4B2B3
:10174000042CE7DB681CC5B2142D90DB09F1020004
:1017500000F0FF0907F11400C7B20CE0514638460B
:10176000089B049AFFF7EAFC09F1010000F0FF0969
:1017700007F10A00C7B202988145FFF652AF09B0DF
:10178000BDE8F08F2DE9FF4F84B0074691464FF03A
:1017900000080020029003E00298401CC0B20290B2
:1017A000029819F800000028F6D10798012803D103
:1017B00000900020019003E00020009001200190A3
:1017C00000BF19F808A008F1010019F80000039003
:1017D000BAF1800F70DD002518E00000467B00089C
:1017E000B27A0008367A000805EB0510FB4911F8BB
:1017F0001000504508D105EB051001EB4000417881
:101800000398814200D103E0681CC5B2022DEBD3DE
:1018100000BF002445E005EB0510F04901EB400056
:10182000801C10F814B0002613E01BF0800F01D0CC
:10183000009B00E0019B1A46059B2344D9B2BB19CB
:10184000D8B2FFF7F7FB4FEA4B604FEA106B701C02
:10185000C6B2082EE9DB05EB0510E04901EB4000BC
:10186000801C012101EB440110F801B0002614E0B6
:101870001BF0800F01D0009B00E0019B1A46059BE6
:101880002344D9B2BB190833D8B2FFF7D3FB4FEAD0
:101890004B604FEA106B701CC6B2082EE8DB601C70
:1018A000C4B2102CB7DB08F1020000F0FF0807F10A
:1018B0001000C7B20DE0FFE752463846079B059976
:1018C000FFF794FC08F1010000F0FF0807F10800A1
:1018D000C7B202988045FFF674AF08B0BDE8F08F3C
:1018E0002DE9FF4F84B0074691464FF000080020D5
:1018F000029003E00298401CC0B20290029819F8CE
:1019000000000028F6D10798012803D1009000209C
:10191000019003E0002000900120019000BF19F821
:1019200008A008F1010019F800000390BAF1800F37
:1019300068DD002511E0C5EB0510A94911F810007C
:10194000504508D1C5EB051001EB400041780398E4
:10195000814200D103E0681CC5B2092DEBD300BF62
:10196000002445E0C5EB05109D4901EB4000801CBB
:1019700010F814B0002613E01BF0800F01D0009B7C
:1019800000E0019B1A46059B2344D9B2BB19D8B28B
:10199000FFF750FB4FEA4B604FEA106B701CC6B26A
:1019A000082EE9DBC5EB05108D4901EB4000801CDA
:1019B000012101EB440110F801B0002614E01BF0F6
:1019C000800F01D0009B00E0019B1A46059B234439
:1019D000D9B2BB190833D8B2FFF72CFB4FEA4B60E2
:1019E0004FEA106B701CC6B2062EE8DB601CC4B256
:1019F0000E2CB7DB08F1020000F0FF0807F10E0023
:101A0000C7B20BE052463846079B0599FFF731FCF9
:101A100008F1010000F0FF08F81DC7B202988045E8
:101A2000FFF67DAF08B0BDE8F08F2DE9FF4F84B021
:101A3000804692464FF000090020029003E0029891
:101A4000401CC0B2029002981AF800000028F6D19B
:101A50000798012803D100900020019003E00020A6
:101A600000900120019000BF1AF809B009F10100AF
:101A70001AF800000390BBF1800F6FDD002615E01F
:101A800006EB860000EBC600564911F810005845D9
:101A90000AD106EB860000EBC60001EB400041785E
:101AA0000398814200D103E0701CC6B2972EE7D3A1
:101AB00000BF002446E006EB860000EBC600494963
:101AC00001EB4000801C10F81470002512E017F0A4
:101AD000800F01D0009B00E0019B1A46059B234428
:101AE000D9B208EB0503D8B2FFF7A4FA7806070EBF
:101AF000681CC5B2082DEADB06EB860000EBC600C9
:101B0000384901EB4000801C012101EB4401475C96
:101B1000002513E017F0800F01D0009B00E0019B2F
:101B20001A46059B2344D9B208EB05030833D8B203
:101B3000FFF780FA7806070E681CC5B2042DE9DBB2
:101B4000601CC4B20C2CB6DB09F1020000F0FF09E6
:101B500008F10C0000F0FF080EE0FFE75A4640468F
:101B6000079B0599FFF7CAFB09F1010000F0FF0987
:101B700008F1060000F0FF0802988145FFF674AFF7
:101B800008B0BDE8F08FF0B505460E4614461F4676
:101B900008E022783B4631462846FFF7F4FB641CF8
:101BA000A81DC5B220780028F3D1F0BD2DE9F04181
:101BB00004460D4616461F46AC4202DDA8462546A1
:101BC000444606E03A4631462046FFF733FA601CA9
:101BD000C4B2AC42F6DBBDE8F0810000F279000847
:101BE000E47800088E6900082DE9F04180460C4633
:101BF00015461E46AC4202DD2F4625463C4606E011
:101C0000324621464046FFF715FA601CC4B2AC428A
:101C1000F6DBBDE8F0812DE9F04F85B004460D46B6
:101C200092469B46DDF83890002003900290AAEB84
:101C3000040007B2ABEB05000FFA80F8002F02DDBD
:101C4000012001900EE057B909F0FF030BF0FF02ED
:101C5000E9B2E0B2FFF7C8FF05B0BDE8F08F4FF082
:101C6000FF300190B8F1000F02DD012000900EE07E
:101C7000B8F1000F08D109F0FF03EAB20AF0FF0142
:101C8000E0B2FFF793FFE7E74FF0FF300090381E18
:101C900001DB014600E041420FB2B8F1000001DB78
:101CA000014600E041420FFA81F8474501DD3E461A
:101CB00000E0464609F0FF02E9B2E0B2FFF7BAF9E8
:101CC0000020049025E009F0FF02E9B2E0B2FFF73E
:101CD000B1F90398384400B203900298404400B22E
:101CE00002900398B04206DD0398801B00B2039077
:101CF0000198204404B20298B04206DD0298801B8D
:101D000000B202900098284405B20498401C00B22A
:101D10000490711C04988842D5DD00BF9CE72DE932
:101D2000F84180460D4616461F46079CB04501DC2B
:101D3000BD4201DDBDE8F8812B46324629464046CA
:101D40000094FFF768FF3B46324639464046009410
:101D5000FFF761FF3B464246294640460094FFF7A5
:101D60005AFF3B463246294630460094FFF753FF60
:101D700000BFDFE72DE9F04306460F469046B8F175
:101D80001F0F02DCB8F1000F01D1BDE8F083002481
:101D900045464FEA4800C0F103000FFA80F958E0C9
:101DA0003A1BD1B2721BD0B20122FFF743F93A1BA2
:101DB000D1B27219D0B20122FFF73CF97A19D1B22F
:101DC000321BD0B20122FFF735F93A1BD1B2721B98
:101DD000D0B20122FFF72EF97A1BD1B2321BD0B25A
:101DE0000122FFF727F93A19D1B27219D0B20122B4
:101DF000FFF720F97A1BD1B23219D0B20122FFF7D6
:101E000019F97A19D1B23219D0B20122FFF712F9B9
:101E10003A19D1B2721BD0B20122FFF70BF9601C44
:101E200004B2B9F1000F05DAA000801D48440FFA92
:101E300080F907E0601B80000A3048440FFA80F9FF
:101E4000681E05B27A19D1B23219D0B20122FFF759
:101E5000F1F8AC42A4DD00BF97E72DE9F047054655
:101E60000E4617469846DDF820A0BD4201DC4645E7
:101E700001DDBDE8F0872C460EE0B14608E0524691
:101E800049462046FFF7D6F809F1010000F0FF09A6
:101E9000C145F4DB601CC4B2BC42EEDB00BFE8E726
:101EA000024600200BE0002105E0A04B03EBC0132D
:101EB0005A544B1CD9B28029F7DB431CD8B20828EE
:101EC000F1DB70472DE9FC430746884614461E4661
:101ED000DDF824900025002C06DA64422D222846E5
:101EE000691CCDB20DF80020B4F57A7F0FDB4FF4FA
:101EF0007A7094FBF0F00A2190FBF1F201FB1200E2
:101F00003030C2B22846691CCDB20DF80020632CD7
:101F10000EDD642094FBF0F00A2190FBF1F201FB4E
:101F200012003030C2B22846691CCDB20DF8002034
:101F3000092C0EDD0A2094FBF0F00A2190FBF1F24F
:101F400001FB12003030C2B22846691CCDB20DF838
:101F500000200A2094FBF0F100FB11403030C2B2A7
:101F60002846691CCDB20DF8002004E020200DF8B1
:101F70000500681CC5B2B542F8DB00200DF805006D
:101F80004B466A4641463846FFF74FFDBDE8FC83A5
:101F90002DE9FC4106460F46154698460024002DC3
:101FA00006DA6D422D222046611CCCB20DF80020CD
:101FB000B5F57A7F0FDB4FF47A7095FBF0F00A21CC
:101FC00090FBF1F201FB12003030C2B22046611CDE
:101FD000CCB20DF80020632D0EDD642095FBF0F0EF
:101FE0000A2190FBF1F201FB12003030C2B2204610
:101FF000611CCCB20DF800200A2095FBF0F00A21FC
:1020000090FBF1F201FB12003030C2B22046611C9D
:10201000CCB20DF800202E222046611CCCB20DF867
:1020200000200A2095FBF0F100FB11503030C2B2C5
:102030002046611CCCB20DF8002004E020200DF8F1
:102040000400601CC4B2052CF8DB00200DF804006D
:1020500043466A4639463046FFF7E7FCBDE8FC8157
:10206000FCB506460F4615460024002D06DA6D42E3
:102070002D222046611CCCB20DF80020B5F57A7FE8
:102080000FDB4FF47A7095FBF0F00A2190FBF1F230
:1020900001FB12003030C2B22046611CCCB20DF8F8
:1020A0000020632D0EDD642095FBF0F00A2190FBEB
:1020B000F1F201FB12003030C2B22046611CCCB2FA
:1020C0000DF800200A2095FBF0F00A2190FBF1F2B8
:1020D00001FB12003030C2B22046611CCCB20DF8B8
:1020E00000202E222046611CCCB20DF800200A20D0
:1020F00095FBF0F100FB11503030C2B22046611C5C
:10210000CCB20DF8002004E020200DF80400601C83
:10211000C4B2042CF8DB00200DF8040001236A4649
:1021200039463046FFF72FFDFCBD00006C00002053
:102130002DE9F04105460E4617469846FEF7A7FAE8
:10214000002141EA4501C8B2FEF74FFB00BFFEF790
:10215000DCFA0028FBD03046FEF747FB00BFFEF755
:10216000D4FA0028FBD000240AE018F80400FEF797
:102170003CFB00BFFEF7C9FA0028FBD0601CC4B2CC
:10218000BC42F2DBFEF7A2FA0020BDE8F0812DE9A7
:10219000F04106460F4614461D46FEF778FA002128
:1021A00041EA4601C8B2FEF720FB00BFFEF7ADFAD8
:1021B0000028FBD03846FEF718FB00BFFEF7A5FA53
:1021C0000028FBD0FEF763FA012101EB4601C8B2FB
:1021D000FEF70BFB00BFFEF798FA0028FBD00FE0DC
:1021E000012C05D1FEF72CFB2870FEF7DEFA04E087
:1021F000FEF726FB2870FEF7B6FA6D1C601EC4B20F
:10220000002CEDD1FEF762FA0020BDE8F08110B598
:10221000C8234FF48062F84940F6F63002F096FB8E
:1022200010BD10B586B00446F4A000680390F4A079
:1022300000680290F3A000680190F3A0006800908D
:1022400004F0030003A9085C8DF8140003A8C4F38C
:10225000C101405C8DF8150003A8C4F38111405CF6
:102260008DF8160004F0030002A9085C8DF8100038
:1022700002A8C4F3C101405C8DF8110002A8C4F3A8
:102280008111405C8DF8120005AA032140F226401E
:1022900002F061FA18B14FF0FF3006B010BD04AA89
:1022A000032140F22A4002F056FA10B14FF0FF30FD
:1022B000F3E7019805900098049014F0040F0BD0F8
:1022C0009DF8140040F001008DF814009DF81000F6
:1022D00040F001008DF8100014F0200F0BD09DF895
:1022E000150040F001008DF815009DF8110040F038
:1022F00001008DF8110014F4807F0BD09DF81600BA
:1023000040F001008DF816009DF8120040F0010029
:102310008DF8120005AA03214FF4886002F01BFA21
:1023200010B14FF0FF30B8E704AA032140F231406A
:1023300002F011FA10B14FF0FF30AEE7B34804815C
:102340000020AAE71FB50446B048007A00F0030059
:1023500054F820000190AD48007A10F0040F02D02C
:10236000019840420190A948007AC0F3C10054F896
:1023700020000290A548007A10F0200F02D00298A9
:1023800040420290A148007AC0F3811054F8200026
:1023900003909E48008910F4807F02D00398404249
:1023A00003909B49019880FB0101800F40EA810066
:1023B00001909749029880FB0110820042EA9170D7
:1023C00002909349039880FB0110820042EA9170C9
:1023D00003900198000E8DF800000198000C8DF814
:1023E00001000198000A8DF802000198C0B28DF832
:1023F00003006A4604214FF4747002F0ACF918B17E
:102400004FF0FF3004B010BD0298000E8DF80000B0
:102410000298000C8DF801000298000A8DF8020065
:102420000298C0B28DF803006A4604214FF475701B
:1024300002F091F910B14FF0FF30E3E70398000E7E
:102440008DF800000398000C8DF801000398000A35
:102450008DF802000398C0B28DF803006A4604218B
:102460004FF4767002F077F9CCE770B588B0064685
:1024700001A801F0F9F8BDF804000021C90341EA00
:102480005045C4036148007A00F0030056F820006C
:1024900005905E48007A10F0040F02D00598404283
:1024A00005905A48007AC0F3C10056F82000069003
:1024B0005648007A10F0200F02D00698404206904D
:1024C0005248007AC0F3811056F8200007904F4818
:1024D000008910F4807F02D0079840420790059849
:1024E000C117A0FB042301FB043100FB0510810090
:1024F00041EA927005900698C117A0FB042301FBE6
:10250000043100FB0510810041EA927006900798A3
:10251000C117A0FB042301FB043100FB051081005F
:1025200041EA927007900598000E8DF80800059812
:10253000000C8DF809000598000A8DF80A0005982E
:10254000C0B28DF80B000698000E8DF80C000698AE
:10255000000C8DF80D000698000A8DF80E00069804
:10256000C0B28DF80F000798000E8DF81000079884
:10257000000C8DF811000798000A8DF812000798DA
:10258000C0B28DF8130002AA0C214FF4257002F09E
:10259000E2F808B070BD30B585B004461DA207CA88
:1025A00002AB07C3C82C03DD4FF0FF3005B030BDD0
:1025B000C82090FBF4F0401E85B2280A8DF8000078
:1025C000E8B28DF801006A46022140F2162002F0BE
:1025D000C2F810B14FF0FF30E8E702AA0C2140F634
:1025E000C12002F0B8F810B14FF0FF30DEE7074825
:1025F00084810020DAE70000A6A500084CCD6C001D
:102600000CC92C0036567600264666006C04002065
:1026100009E3CA02FEF2ABC4AAF1DFDFBBAFDFDF22
:102620000146FC4880890880002070472DE9FC475E
:1026300006460F4616F0070F02D0B7F5C86F03DD48
:102640004FF0FF30BDE8FC87384603F06DFE814651
:10265000F14903F01FFD8046684601F0EFFC9DF84C
:102660000000022806D0042816D0082826D01028FA
:1026700048D135E04FF08D41404603F09DFE814644
:1026800003F01AFE84B2E549404603F095FE814608
:1026900003F012FE85B238E04FF08C41404603F063
:1026A0008BFE814603F008FE84B2DD49404603F00C
:1026B00083FE814603F000FE85B226E04FF08B4199
:1026C000404603F079FE814603F0F6FD84B2D54919
:1026D000404603F071FE814603F0EEFD85B214E042
:1026E0004FF08A41404603F067FE814603F0E4FD67
:1026F00084B2CD49404603F05FFE814603F0DCFD25
:1027000085B202E04FF0FF309CE700BF20128DF849
:102710000400E0B28DF8050028128DF80600E8B23A
:102720008DF8070016F0010F14D001AA02214FF412
:10273000EA7002F010F810B14FF0FF3082E70DF1AF
:10274000060202214FF4927002F005F810B14FF02A
:10275000FF3077E716F0020F14D001AA02214FF4E0
:10276000EC7001F0F8FF10B14FF0FF306AE70DF1A7
:10277000060202214FF4947001F0EDFF10B14FF00A
:10278000FF305FE716F0040F14D001AA02214FF4C6
:10279000EE7001F0E0FF10B14FF0FF3052E70DF1A5
:1027A000060202214FF4967001F0D5FF10B14FF0F0
:1027B000FF3047E7002045E738B504460020009089
:1027C00014F0010F04D09DF8000040F0300000909C
:1027D00014F0020F04D09DF8000040F00C000090AF
:1027E00014F0040F04D09DF8000040F003000090A6
:1027F0006A4601214FF4A47001F0ADFF38BD38B531
:102800000446012C01DA012402E0042C00DD04243A
:10281000601EC0B200906A46012140F24F1001F0E4
:102820009AFF38BD38B50446052094FBF0F085B218
:1028300028128DF80000E8B28DF801006A460221E6
:102840004FF4EF7001F087FF38BD38B5044605201E
:1028500094FBF0F085B228128DF80000E8B28DF8F4
:1028600001006A4602214FF4ED7001F074FF38BD9B
:10287000F8B505460E464FF47A7095FBF0F000FB74
:1028800006F4200E8DF80000200C8DF80100200ABF
:102890008DF80200E0B28DF803006A4604214FF47F
:1028A000AE7001F058FFF8BD38B50446052094FB22
:1028B000F0F084B220128DF80000E0B28DF8010033
:1028C0006A4602214FF4AD7001F045FF38BD38B5BE
:1028D0000446052094FBF0F084B220128DF800002D
:1028E000E0B28DF801006A4602214FF4AC7001F0AD
:1028F00032FF38BD38B5044614B94FF0FF3038BD4B
:102900006A4604214FF4587001F086FF10B14FF071
:10291000FF30F4E79DF8000000069DF8011040EA42
:1029200001409DF8021040EA01209DF80310084381
:1029300020600020E3E738B50446200E8DF8000043
:10294000200C8DF80100200A8DF80200E0B28DF80D
:1029500003006A4604214FF4587001F0FCFE38BDB4
:1029600038B5044614B94FF0FF3038BD6A4604212B
:102970004FF4717001F050FF10B14FF0FF30F4E7E9
:102980009DF8000000069DF8011040EA01409DF806
:10299000021040EA01209DF80310084300EB80007C
:1029A000800020600020E0E738B504461420B4FB26
:1029B000F0F4200E8DF80000200C8DF80100200AA4
:1029C0008DF80200E0B28DF803006A4604214FF44E
:1029D000717001F0C0FE38BD38B5044664B12020E6
:1029E0008DF8000028208DF8010030208DF80200BD
:1029F00038208DF8030004E0A3220421684602F089
:102A000061F86A46042140F69E2001F0A4FE00F021
:102A1000B9FA38BD6C04002000004843000040466D
:102A20000000C045000040450000C04438B50446E1
:102A300064B1C0208DF80000C2208DF80100C420D0
:102A40008DF80200C6208DF8030004E08B220421DB
:102A5000684602F037F86A46042140F6982001F0F3
:102A60007AFE00F08FFA38BD3EB504466CB1FCA189
:102A7000D1E900208968CDE9002002916A46092148
:102A80004FF4976001F067FE3EBDF8A2D2E9001056
:102A90009268CDE9010200916A4609214FF49760DE
:102AA00001F059FEF0E73EB5044602208DF8000023
:102AB000CA208DF80100E3208DF8020009208DF86E
:102AC00003006A460421682001F045FEA3208DF82A
:102AD000000014F0400F09D0C0208DF80100C8207C
:102AE0008DF80200C2208DF8030006E0A3208DF8C7
:102AF00001008DF802008DF8030014F4C07F09D0A6
:102B0000C4208DF80400CC208DF80500C6208DF877
:102B1000060006E0A3208DF804008DF805008DF86E
:102B20000600A3208DF807008DF808008DF8090035
:102B30006A460A2140F6A72001F00DFE14F0030FAB
:102B400003D020208DF8000002E0D8208DF800008E
:102B50006A46012140F6B62001F0FDFD14F0200F79
:102B600003D00120FFF780FF02E00020FFF77CFF89
:102B700014F4C07F21D014F4807F0CD0B2208DF8E3
:102B800000008B208DF80100B6208DF802009B20FC
:102B90008DF803000BE0B0208DF8000080208DF848
:102BA0000100B4208DF8020090208DF803006A46E1
:102BB000042140F6A22001F0CEFD14F0010F24D034
:102BC000F8208DF800006A4601214FF40B6001F0F7
:102BD000C2FDFA210720FFF729FD0720FFF7ECFDD2
:102BE0000120FFF70CFE6420FFF71CFE4FF4FA7083
:102BF000FFF72BFEC821A048FFF73AFE2820FFF779
:102C000053FE0A20FFF763FE08E0D8208DF800008D
:102C10006A4601214FF40B6001F09DFD14F0020F94
:102C200003D0D9208DF8000002E0D8208DF80000F4
:102C30006A46012140F23D7001F08DFD14F0040F51
:102C400003D00120FFF7F2FE02E00020FFF7EEFEC6
:102C500014F0100F03D00120FFF7BEFE02E00020A9
:102C6000FFF7BAFE44F008008449488100F08AF971
:102C700000208249887314F0400F03D00846807BFF
:102C8000801D887314F4C07F04D07C48807B801D35
:102C90007A49887314F0140F04D07848807B103080
:102CA0007649887314F0030F04D07448807B001DAC
:102CB0007249887300203EBD0146704840890880F3
:102CC000002070472DE9F0410446E07800F0C0068E
:102CD000E07800F03F05607810F0010F13D0EF109E
:102CE0002846E91705EB5171C910A5EBC101491C34
:102CF00001F0FF086148006820B160484146026861
:102D00003846904700BF607810F0080F06D05B4847
:102D1000406818B1B011594A516888470020BDE891
:102D2000F08110B586B0044655A207CA03AB07C3AD
:102D300056A207CA8DE80700012C09D0022C0ED13B
:102D400003AA0B2140F6822001F005FD06B010BD5C
:102D50006A460B2140F6822001F0FDFCF6E74FF0B9
:102D6000FF30F3E72DE9F04F8DB007468846154652
:102D70009B46DDE9166A0024002030803F49887BAD
:102D8000524605A901F085FD18B1601E0DB0BDE8E1
:102D9000F08F3A48807A10F0140F7DD09DF814001F
:102DA00000069DF8151040EA01409DF8161040EA13
:102DB00001209DF81710084328609DF818000006B0
:102DC0009DF8191040EA01409DF81A1040EA0120D0
:102DD0009DF81B10084368609DF81C0000069DF8D4
:102DE0001D1040EA01409DF81E1040EA01209DF8A8
:102DF0001F100843A8609DF8200000069DF82110D0
:102E000040EA01409DF8221040EA01209DF823107D
:102E10000843E86004F11000C4B22868001401906F
:102E2000686800140290A86800140390E868001411
:102E3000049001984043029901FB0100039901FBB2
:102E40000100049901FB0109B9F1706F02DBB9F1CE
:102E5000885F22DD00F096F800203080401E95E764
:102E6000B8AAB38DB4980D355D000000B8AAAAAA1F
:102E7000B088C3C5C700000009E3CA026C04002083
:102E8000D8B1B9F38BA391B609B4D900DAB1B9F3CB
:102E90008BA391B6DAB4DA0005E0B6F9000040F48D
:102EA0008070308000BF3348807A10F0400F24D00B
:102EB00005A9601C085C095D40EA012000B2A8F881
:102EC000000005A9E01C095C05AAA01C105C41EAF1
:102ED000002000B2A8F8020005A9601D095C201DB1
:102EE000105C41EA002000B2A8F80400A01DC4B2A2
:102EF000B6F9000040F0080030801E48408910F408
:102F0000C07F21D005A9601C085C095D40EA012052
:102F100000B2388005A9E01C095C05AAA01C105C61
:102F200041EA002000B2788005A9601D095C201DDF
:102F3000105C41EA002000B2B880A01DC4B2B6F90E
:102F4000000040F0700030800A48807A10F0030FD3
:102F500003D005A90819FFF7B5FE002016E70146C2
:102F6000044801600020704701460248416000208B
:102F7000704700006C04002010B50446A0B2FDF7B5
:102F8000CBF910BD08B5F848807A10B94FF0FF3082
:102F900008BD00200090F44A1268D17BF24A5268C2
:102FA00010786B460122FFF7C3F810B14FF0FF30E5
:102FB000EEE7ED4A12685179EB4A526810786B4699
:102FC0000122FFF7B5F810B14FF0FF30E0E7E64A15
:102FD00012681179E44A526810786B460122FFF7B3
:102FE000A7F810B14FF0FF30D2E7DF4890F8240087
:102FF000002853D00C200090DB4A12681179DA4A7D
:10300000526810786B460122FFF792F810B14FF02A
:10301000FF30BDE73220FFF7AFFFC0200090D2485D
:10302000807A10F0010F04D09DF8000040F02000DD
:103030000090CD4A12681179CB4A526810786B46DD
:103040000122FFF775F810B14FF0FF30A0E7C64836
:10305000407C10B10220009001E000200090C24AA4
:103060001268D17BC04A526810786B460122FFF784
:103070005FF810B14FF0FF308AE700200090BA4AA5
:1030800012685179B84A526810786B460122FFF7EE
:103090004FF8002855D04FF0FF3079E7042000901A
:1030A000B14A12681179B04A526810786B46012211
:1030B000FFF73EF810B14FF0FF3069E7AA48807C77
:1030C00020B9A948807A10F0010F02D14020009069
:1030D00001E060200090A44A12681179A24A526867
:1030E00010786B460122FFF723F810B14FF0FF3044
:1030F0004EE73220FFF740FF9B48407C10B1012093
:10310000009001E000200090974A1268D17B964A17
:10311000526810786B460122FFF70AF810B14FF0A1
:10312000FF3035E7904A126851798F4A526810781B
:103130008D4B10330122FEF7FBFF10B14FF0FF3033
:1031400026E7002024E738B50446874890F8240095
:10315000C0B114B10220009001E000200090824A2A
:103160001268D17B804A526810786B460122FEF7C4
:10317000DFFF10B14FF0FF3038BD9DF800107A48E6
:10318000417423E07848807A10B94FF0FF30F3E7BC
:1031900024B17548407C08B10020EDE714B101204E
:1031A000009001E0002000906F4A1268D17B6E4AC7
:1031B000526810786B460122FEF7BAFF10B14FF04B
:1031C000FF30D9E79DF80010674841740020D3E72D
:1031D00038B504466448807A10B94FF0FF3038BDE6
:1031E000BC2C02DB0120009015E0622C02DB0220E7
:1031F000009010E02A2C02DB032000900BE0142C3E
:1032000002DB0420009006E00A2C02DB052000907F
:1032100001E0062000905448C07A9DF800108842D2
:1032200001D10020DBE7504A126891784E4A52687B
:1032300010786B460122FEF77BFF10B14FF0FF3094
:10324000CDE79DF800104848C1720020C7E770B56F
:103250000446002624F00104434890F8240008B1F5
:10326000002070BD4048807A10B94FF0FF30F8E779
:103270003D48057C807A20403B4908740846007C24
:10328000A04202D04FF0FF3600E0002614B93648C5
:10329000007D18B10120FFF756FF02E00020FFF784
:1032A00052FF3CB1FFF76EFE20B12F4805744FF07E
:1032B000FF30D6E73046D4E738B504462A4890F8C0
:1032C0002300A04201D1002038BD14B1302000906D
:1032D00001E0002000902448807C20B19DF800008F
:1032E00040F002000090204890F8220020B19DF8A4
:1032F000000040F0800000901B4A1268117D1A4ABD
:10330000526810786B460122FEF712FF10B14FF0A1
:10331000FF30D9E7144880F823400020D4E738B5BF
:103320000446282C02DD4FF0FF3038BDF4B90020F0
:10333000FFF7C2FF00208DF8000007208DF8010084
:10334000094A1268917C084A526810786B4602223A
:10335000FEF7EEFE10B14FF0FF30E6E70021024825
:1033600001750020E1E70000240000200120FFF7A4
:10337000A3FF20208DF80000012C06D100208DF83D
:1033800001000520FFF724FF17E0052C06DC0120D3
:103390008DF801000520FFF71BFF0EE0142C06DC62
:1033A00002208DF801000A20FFF712FF05E003203C
:1033B0008DF801001420FFF70BFF9DF80100072195
:1033C00001EB8010C0B28DF80100FC4A1268917CBC
:1033D000FA4A526810786B460222FEF7A9FE10B135
:1033E0004FF0FF30A1E70821F448817200210173FA
:1033F000012101750020FFF72AFF002095E738B56D
:103400000446EE48807A10B94FF0FF3038BDEB48E3
:1034100090F8240010B14FF0FF30F7E7E748007D47
:1034200050B134B1282C04DCE0B2FFF778FF002063
:10343000ECE70020FFF773FF042C01DA042404E01A
:10344000B4F57A7F01DD4FF47A744FF47A7090FB13
:10345000F4F0401EC0B20090D84A12685178D74AA2
:10346000526810786B460122FEF762FE10B14FF0F1
:10347000FF30CBE79DF80000401C4FF47A7191FBC0
:10348000F0F081B2CD48C1810146C9894810FFF7EB
:103490009FFE0020BAE738B50446C848807CA042A9
:1034A00001D1002038BD002C46D0C44A12681179E1
:1034B000C24A526810786B460122FEF768FE10B1CE
:1034C0004FF0FF30EEE79DF8000020F02000009064
:1034D000BA4A12681179B94A526810786B460122CB
:1034E000FEF726FE10B14FF0FF30DBE70320FFF7B9
:1034F00043FD02200090B14890F8220020B19DF8D1
:10350000000040F080000090AC4890F8230020B10B
:103510009DF8000040F030000090A84A1268117D2C
:10352000A64A526810786B460122FEF701FE002879
:1035300051D04FF0FF30B5E7A04A126811799F4A89
:10354000526810786B460122FEF721FE10B14FF051
:10355000FF30A7E79948807A10F0010F05D09DF859
:10356000000040F02000009004E09DF8000020F0F2
:1035700020000090914A12681179904A52681078A0
:103580006B460122FEF7D4FD10B14FF0FF3089E702
:103590000320FFF7F1FC894890F8220010B1802049
:1035A000009001E000200090844890F8230020B1B2
:1035B0009DF8000040F030000090804A1268117DB4
:1035C0007E4A526810786B460122FEF7B1FD10B1B9
:1035D0004FF0FF3066E779488474002062E738B521
:1035E0000446764890F82400A04201D1002038BD5E
:1035F00024B3724890F8250010B94FF0FF30F6E779
:103600000020FFF7A0FD0020FFF745FF6B49C88CA5
:10361000FFF7F5FE002000906849496808786B467E
:1036200001222321FEF784FD0121644880F8241043
:103630000120FFF788FDFFF7A5FC13E00020FFF74E
:1036400082FD5E48007C00905C49496808786B46C2
:1036500001222321FEF76CFD0021584880F8241038
:10366000FFF790FC0020C2E701465448407A30B191
:10367000012808D002280AD0032810D10BE04FF40B
:10368000804008800EE041F69C7008800AE04FF40C
:103690008050088006E04FF40060088002E04FF0A0
:1036A000FF30704700BF4548C07C10B1088840100B
:1036B00008800020F5E701464048007A30B1012833
:1036C00007D0022808D003280CD108E03C48086045
:1036D0000BE03C48086008E03B48086005E03B48D8
:1036E000086002E04FF0FF30704700BF0020FBE7AA
:1036F00038B5044614F0700F02D00120009005E0A8
:1037000014B10020009001E0402000902B4A126884
:10371000917C2A4A526810786B460122FEF708FD18
:1037200020B1002125488172481E38BD9DF8000057
:1037300020F04001214801730020009014F0400F58
:1037400004D19DF8000040F00400009014F0200F18
:1037500004D19DF8000040F00200009014F0100F1A
:1037600004D19DF8000040F00100009014F0080F13
:1037700004D19DF8000040F0380000900F4A126814
:10378000D17C0E4A526810786B460122FEF7D0FCBD
:1037900020B1002109488172481EC6E724B1082CD7
:1037A00002D00020FFF788FD0448847200210175D3
:1037B0003220FFF7E1FB0020B7E7000024000020E3
:1037C0000000034300008342333303423333834119
:1037D00038B50446FB48807A10B94FF0FF3038BD49
:1037E000022C06D0042C07D0082C08D0102C0CD1A9
:1037F00008E0002000900BE00820009008E0102076
:10380000009005E01820009002E04FF0FF30E6E75E
:1038100000BFEC48407A9DF80010B0EBE10F01D1F9
:103820000020DCE7E74A1268D179E64A526810784E
:103830006B460122FEF77CFC10B14FF0FF30CEE763
:103840009DF80000C110DF4841720020C7E738B57D
:103850000446DC48807A10B94FF0FF3038BDFA2CAE
:1038600009D0B4F5FA7F09D0B4F57A7F09D0B4F560
:10387000FA6F0CD108E0002000900BE008200090C7
:1038800008E01020009005E01820009002E04FF0C2
:10389000FF30E3E700BFCB48007A9DF80010B0EBA3
:1038A000E10F01D10020D9E7C64A12689179C54AD3
:1038B000526810786B460122FEF73AFC10B14FF0C7
:1038C000FF30CBE79DF80000C010BE490872002011
:1038D000C4E72DE9F04F85B006460F460025B949EB
:1038E0004968087804AB03220D21FEF750FC18B19B
:1038F000072005B0BDE8F08F9DF8100000F01F0014
:103900008DF810009DF8110000F01F008DF81100D7
:103910009DF8120000F01F008DF8120000245FE0F7
:1039200056F8240057F82410B0EB010B01D4594687
:1039300001E0CBF10001084602F0DEFC4FF08F41C0
:10394000039002F0A7FB814604A8005DB8B39E492E
:10395000086802F0E9FC834659469C4802F09AFB4D
:10396000804604E09A49404602F026FD804604A8BD
:10397000005D401E10F0FF0004A90855F2D1414639
:10398000484602F087FB83464FF07E5102F012FE5C
:1039900082468D49886902F0E3FACDE9020150467A
:1039A00002F0DEFA21F00041CDE90001DDE9022359
:1039B00002F0C4F813D20120A04005430FE0FFE756
:1039C00081480169484602F0C3FC05D37E4841693D
:1039D000484602F0BDFD02D20120A0400543641C10
:1039E000032C9DDB284684E77CB50546754949686C
:1039F000087801AB04220D21FEF7C9FB08B10720AE
:103A00007CBD9DF80700C0F301109DF8041001F083
:103A1000E00140EAE1008DF800009DF80700C0F3E6
:103A200081009DF8051001F0E00140EAE1008DF809
:103A300001009DF8070000F003009DF8061001F05A
:103A4000E00140EAE1008DF8020000241CE01DF8CE
:103A5000040018B9002045F8240013E05D4845F83B
:103A6000240006E055F824005B4902F0A5FC45F867
:103A700024001DF80400401E10F0FF000DF80400A3
:103A8000F0D100BF601CC4B2032CE0DB0020B7E71C
:103A90002DE9F04F85B006468946002502A8FFF7BC
:103AA000A3FF00244AE056F8240059F82410471ACE
:103AB00001D4394600E07942084602F01DFC8046F8
:103AC0004FF08F4102F0E6FA824602A951F8240035
:103AD000002102F0A1FB21D002A850F8241050468A
:103AE00002F0D8FA07464FF07E5102F063FD83469C
:103AF0003549486A02F034FA07468846584602F0CB
:103B00002FFA21F000413A464346CDE9000102F088
:103B100015F812D20120A04005430EE02A48C169E1
:103B2000504602F015FC05D32748016A504602F0C2
:103B30000FFD02D20120A0400543641C032CB2DB20
:103B4000284605B0BDE8F08F2DE9F04F8DB0054651
:103B50000C46914601208DF8140000208DF81500C8
:103B6000184A1268917C174A5268107805AB0222F5
:103B7000FEF7DEFA20B14FF0FF300DB0BDE8F08F58
:103B8000C820FFF7F9F900208DF814000D4A1268DB
:103B9000D17B0C4A5268107805AB0122FEF7C8FAB7
:103BA00010B14FF0FF30E8E7064A12685179054A34
:103BB0005268107805AB0122FEF7BAFA70B14FF0E7
:103BC000FF30DAE724000020C4B1000800B04C4503
:103BD00054E3853F7B14AE3E1D5A843FF94A126878
:103BE000917CF84A5268107805AB0122FEF7A0FAE2
:103BF00010B14FF0FF30C0E7F24A1268D17DF14AB0
:103C00005268107805AB0122FEF792FA10B14FF01E
:103C1000FF30B2E7EB4A12681179EA4A526810782D
:103C200005AB0122FEF784FA10B14FF0FF30A4E794
:103C30000C208DF81400E34A12681179E14A5268A9
:103C4000107805AB0122FEF773FA10B14FF0FF3088
:103C500093E70F20FFF790F9DA48806A407A8DF8F1
:103C60001400D84A12689178D64A5268107805AB89
:103C70000122FEF75DFA10B14FF0FF307DE7D14829
:103C8000806A007A8DF81400CE4A12685178CD4AC5
:103C90005268107805AB0122FEF74AFA10B14FF0D6
:103CA000FF306AE7B9F1000F07D0C648806A807A12
:103CB00040F0E0008DF8140004E0C248806A807A89
:103CC0008DF81400BF4A12689179BE4A5268107884
:103CD00005AB0122FEF72CFA10B14FF0FF304CE794
:103CE000B9F1000F07D0B748806AC07A40F0E00011
:103CF0008DF8140003E0B448C07A8DF81400B14A7E
:103D00001268D179AF4A5268107805AB0122FEF7EC
:103D10000FFA10B14FF0FF302FE7B9F1000F02D0CA
:103D2000C820FFF729F940208DF81400A54A126831
:103D30001179A44A5268107805AB0122FEF7F8F910
:103D400010B14FF0FF3018E778208DF814009D4A2D
:103D5000126851799B4A5268107805AB0122FEF730
:103D6000E7F910B14FF0FF3007E797498889FFF76F
:103D700003F900208DF81400924A12685179914A93
:103D80005268107805AB0122FEF7D2F910B14FF05E
:103D9000FF30F2E68B4A1268917A8A4A52681078AC
:103DA00005AB0222FEF7F3F910B14FF0FF30E4E665
:103DB0009DF815009DF8141040EA012A50464FEA7C
:103DC000EA710AEBD161C1F347160020A860686070
:103DD0002860A06060602060834665E0794A1268D0
:103DE000D17A784A5268107805AB2022FEF7CFF9D5
:103DF00010B14FF0FF30C0E69DF815009DF814108B
:103E000040EA012000B2ADF80C009DF817009DF8C3
:103E1000161040EA012000B2ADF80E009DF819001E
:103E20009DF8181040EA012000B2ADF81000BDF96D
:103E30000C10206808442060BDF90E10606808442A
:103E40006060BDF91010A0680844A0609DF81B00D8
:103E50009DF81A1040EA012000B2ADF804009DF868
:103E60001D009DF81C1040EA012000B2ADF80600CC
:103E70009DF81F009DF81E1040EA012000B2ADF829
:103E80000800BDF90410286808442860BDF9061030
:103E9000686808446860BDF90810A8680844A8600C
:103EA0000BF1010000F0FF0BB34597DB4648D0F85B
:103EB00000C02868C117090441EA1041070462469E
:103EC0000023384600F0AEFD32460023CDE9020162
:103ED00000F0A8FD28603C48D0F800C06868C11711
:103EE000090441EA1041070462460023384600F005
:103EF00099FD32460023CDE9020100F093FD686090
:103F00003148D0F800C0A868C117090441EA10413F
:103F1000070462460023384600F084FD3246002341
:103F2000CDE9020100F07EFDA8602748D0F804C06A
:103F30002068C117090441EA1041070462460023C2
:103F4000384600F06FFD32460023CDE9020100F053
:103F500069FD20601C48D0F804C06068C1170904DE
:103F600041EA1041070462460023384600F05AFD3A
:103F700032460023CDE9020100F054FD6060124892
:103F8000D0F804C0A068C117090441EA1041070431
:103F900062460023384600F045FD32460023CDE955
:103FA000020100F03FFDA060A068002804DDA068C9
:103FB000A0F58030A06003E0A06800F58030A0602C
:103FC0000020DAE524000020C4B100080146F948C9
:103FD000007C0870002070470146F64890F82400E5
:103FE00010B14FF0FF307047F248C08908800020C0
:103FF000F9E70146EF48C07A082817D2DFE800F059
:104000001704070A0D101318BC20088013E0622063
:10401000088010E02A2008800DE0142008800AE0C3
:104020000A20088007E00520088004E000BF00BFE8
:104030000020088000BF00BF002070470146DD4817
:10404000407A30B1012807D0022808D003280CD1CB
:1040500008E0022008700BE00420087008E0082047
:10406000087005E01020087002E04FF0FF30704744
:1040700000BFD048C07C18B108784006000E087018
:104080000020F4E70146CB48007A30B1012807D080
:10409000022809D003280FD10AE0FA2008800EE098
:1040A0004FF4FA7008800AE04FF47A70088006E056
:1040B0004FF4FA60088002E00020088000BF00BFD3
:1040C000002070472DE9F04F8DB083460F46022047
:1040D0000C90B84890F8240020B10020FFF77FFA38
:1040E000012600E0002603A8FFF7CCFF05A8FFF794
:1040F000A5FF01A8FFF77DFF02A8FFF76DFFAD4800
:1041000090F80AA004A8FFF761FF002407E000224E
:1041100039465846FFF718FD00B902E0641C022C2E
:10412000F5DB00BF022C01D1002528E0002407E0C8
:10413000012206A909A8FFF707FD00B902E0641CE7
:10414000022CF5DB00BF022C01D1002517E006A9E7
:104150003846FFF79DFC00F0FF0809A95846FFF715
:10416000B8FB00F0FF090025B9F1000F01D145F0BF
:104170000105B8F1000F01D145F0020500BFFF2095
:104180008C490872FF218B484172C1724FF6FF7152
:10419000C181FF218172017401210173BDF80C00FE
:1041A000FFF755FB9DF81400FFF712FBBDF8040064
:1041B000FFF70EF8BDF80800FFF721F95046FFF7AA
:1041C00097FA9DF81000FFF742F816B10120FFF7AB
:1041D00006FA28460DB0BDE8F08FF0B589B0044668
:1041E0000020049005900690019002900390012C0D
:1041F00005D101A904A8FFF765FF054600BF08A87F
:10420000FFF759FA049802F077F80746089902F088
:10421000D3F8064602F034F80490059802F06CF8E2
:104220000746089902F0C8F8064602F029F80590FA
:10423000069802F061F80746089902F0BDF80646B4
:1042400002F01EF8069004A8FEF77CF807A8FFF716
:104250000BFABDF81C10019848430190BDF81C10E2
:10426000029848430290BDF81C10039848430390FD
:1042700001A8FEF7FAF809B0F0BD014691F9002057
:10428000002A01DD00201EE091F90020002A01DA59
:10429000042018E091F90120002A01DD012012E03C
:1042A00091F90120002A01DA05200CE091F90220A1
:1042B000002A01DD022006E091F90220002A01DA3D
:1042C000062000E00720704770B505462846FFF736
:1042D000D4FF0446E81CFFF7D0FF44EAC00084B2D4
:1042E000A81DFFF7CAFF44EA801084B2204670BDC3
:1042F0001CB5304A126811782E4A526810786B4605
:104300000122FDF744FF08B101201CBD9DF800000B
:10431000682801D00220F8E780208DF80000254AA7
:104320001268917C234A526810786B460122FDF78F
:10433000FFFE08B10320E8E76420FEF71DFE002021
:104340008DF800001B4A1268917C1A4A5268107856
:104350006B460122FDF7ECFE08B10420D5E7154AB3
:104360001268917D134A526810786B460622FDF759
:104370000EFF08B10520C8E79DF80500C007400FF3
:104380009DF8031001F0010140EA41009DF8011081
:1043900001F0010140EA010484B1012C03D10121A3
:1043A0000448C17427E0022C06D100210148C174E1
:1043B00021E00000240000200620A6E7FC4A126845
:1043C000D178FB4A526810786B460122FDF7DFFE78
:1043D00008B1072099E79DF8000000F00F040CB920
:1043E000052092E7042C03D10121F148C17402E0B9
:1043F0000021EF48C174FF21ED488172FF20EC4994
:104400000872FF21EA484172C1724FF6FF71C18103
:10441000FF21017481740121017380F822100021B1
:1044200080F823104175017516300160416081608C
:10443000163880F8241080F82510C1844FF4FA60F3
:10444000FFF705FA08B110205FE70220FFF7C0F977
:1044500008B1112059E72A20FEF7BAFE08B1122050
:1044600053E73220FEF7CBFF08B113204DE70020C1
:10447000FEF7EDFE08B1142047E70020FFF70BF828
:1044800008B1152041E70020FFF732F900203CE792
:1044900010B5FCF7E5F8C748806940F01000C54941
:1044A00088610846806940F001008861C248406820
:1044B00020F07060C04948600846406840F00060E5
:1044C000486001220E210220FBF798FF02232822D8
:1044D00000210846FBF758FFFFF70AFF7820FFF797
:1044E00007F97820FEF7B3FEC820FEF788FFFDF736
:1044F0008EFEB248FFF7E8FE0446FDF792FE40F25A
:104500007310FEF7D0FAC820FEF745F80020FFF739
:1045100064FE0120FFF763F8002010BD2DE9F04F85
:1045200089B0A748A749A84BA84ACDE90010A849D7
:10453000A848FEF717FCA348008810F4807F7DD0C0
:10454000A249086801F0D8FE04464FF09D4101F0F1
:10455000A1FDA14908609D49486801F0CDFE0446CF
:104560004FF09D4101F096FD9C490860974988688D
:1045700001F0C2FE04464FF09D4101F08BFD9849C9
:1045800008609249C86801F0B7FE04464FF09D41AB
:1045900001F080FD934908608F4801684FF080402A
:1045A00001F00AFF06908E480168069801F004FFAA
:1045B00082468A4801684FF0404001F0FDFE0690B7
:1045C00088480168069801F0F7FE8346514601F0DD
:1045D000F3FC079001F0C4FC064600F0F7FB8046B0
:1045E0004FF06632804B01F0ABF9044600F026FF35
:1045F0007E4908607A4801684FF0804001F0DCFE97
:10460000039077480168039801F0D6FE824673480C
:1046100001684FF0404001F0CFFE03906F48016801
:10462000039801F0C9FE8346514601F0C3FF81465D
:104630004FF07E5101F0C0FC044600E088E001F03C
:104640008FFCCDE90401644801684FF0804001F01F
:10465000B3FE834661480168584601F0ADFE8146CD
:104660005F4801684FF0804001F0A6FE83465D4838
:104670000168584601F0A0FE8246494601F09CFCC4
:10468000044601F06DFC0746DDE9042300F0EEFD71
:1046900081F000414FF06632534BCDE9060101F045
:1046A0004FF9054600F0CAFE514908604D480168BF
:1046B000006801F081FE039049480168006801F03C
:1046C0007BFE029045480168006801F075FE834654
:1046D00041480168006801F06FFE5946019001F001
:1046E0006BFC8246029901F065FF8146039901F057
:1046F00061FF044601F034FCCDE90401394801684A
:104700003548006801F058FE824635480168334854
:10471000006801F051FE8346514601F04DFC814690
:104720004FF0804101F048FE044601F019FC0746B5
:10473000DDE9042300F09AFD4FF066322A4BCDE903
:10474000060101F0FDF8054600F078FE29490860F1
:1047500009B0BDE8F08FF8B504460D46164616B907
:104760004FF0FF30F8BD1248807A10B94FF0FF309B
:10477000F8E720128DF80000E0B28DF801009DF8F6
:10478000010028440A4949684989884202DD4FF0FE
:10479000FF30E7E7064A1268117E054A5268107832
:1047A0006B460222FDF7C4FC30B34FF0FF30D9E76F
:1047B00024000020001002400010014004000020EE
:1047C0006200002060000020500000207C040020D7
:1047D0005A00002054000020100000201400002087
:1047E000180000201C00002066A64C406800002035
:1047F0006400002020000020EAB2884B1B68597D2D
:10480000864B5B6818783346FDF792FC10B14FF089
:10481000FF30A7E70020A5E7F8B504460D46164689
:1048200016B94FF0FF30F8BD7C48807A10B94FF0D0
:10483000FF30F8E720128DF80000E0B28DF801009B
:104840009DF801002844754949684989884202DD7C
:104850004FF0FF30E7E7714A1268117E6F4A5268E5
:1048600010786B460222FDF763FC10B14FF0FF3069
:10487000D9E7EAB2694B1B68597D684B5B681878C9
:104880003346FDF784FC10B14FF0FF30CBE700203A
:10489000C9E7F8B504460F461646604890F824006C
:1048A00010B94FF0FF30F8BD5C48807A10B94FF076
:1048B000FF30F8E7594A1268917A584A52681078DE
:1048C0006B460222FDF763FC10B14FF0FF30EAE7C0
:1048D0009DF801009DF8001040EA0125A54203DA89
:1048E00000203070401EDEE74C4840684088B5EB41
:1048F000600F17DD494A1268517C484A52681078A7
:104900006B460122FDF743FC10B14FF0FF30CAE7C0
:104910009DF8000010F0100F04D0FEF733FB6FF08D
:104920000100C0E7E2B23D4B1B68D97A3B4B5B68A4
:1049300018783B46FDF72BFC10B14FF0FF30B2E783
:1049400095FBF4F0401E30700020ACE72DE9F043F9
:1049500085B005460E4690469946304890F82500A9
:1049600020B14FF0FF3005B0BDE8F08316B94FF02D
:10497000FF30F8E7002423E0281B102801DD102079
:1049800000E0281B87B2321939462046FFF7E3FEC4
:1049900010B14FF0FF30E6E701AA39462046FFF795
:1049A0003BFF10B14FF0FF30DDE730193A4601A967
:1049B00000F05CF810B16FF00100D4E7E01984B2A8
:1049C000AC42D9DB4FEA28208DF8000008F0FF0048
:1049D0008DF80100114A1268917E104A52681078D1
:1049E0006B460222FDF7A4FB10B14FF0FF30BAE78F
:1049F00001210A4880F82510A0F826900020B2E78F
:104A000070B50446204601F077FC05460449284667
:104A100001F0D2FC0546284670BD000024000020AD
:104A200082E2C73B10B54C1084EA530404D54042DF
:104A3000C1F1000138BF491E1B4204D55242C3F1E7
:104A4000000338BF5B1E00F048F814F0804F04D01C
:104A50004042C1F1000138BF491E14F0004F04D09C
:104A60005242C3F1000338BF5B1E10BD40EA010390
:104A700010B59B070FD1042A0DD310C808C9121F07
:104A80009C42F8D020BA19BA884201D9012010BD41
:104A90004FF0FF3010BD1AB1D30703D0521C07E00E
:104AA000002010BD10F8013B11F8014B1B1B07D172
:104AB00010F8013B11F8014B1B1B01D1921EF1D1E3
:104AC000184610BD02F0FF0343EA032242EA024205
:104AD00000F087B870477047704753EA020C00F047
:104AE00069802DE9F04B4FF00006002B1FBFB3FA91
:104AF00083F503FA05F424FA05F65E4012BF164367
:104B0000B2FA82F502FA05F4C5F120051EBF22FAB9
:104B100005FC44EA0C04203556EA044C4FEA1444E0
:104B200018BF641C4FF000084FF00009904271EB71
:104B3000030C39D3002919BFB1FA81F701FA07F63E
:104B4000B0FA80F700FA07F6C7F120071EBF20FA77
:104B500007FC46EA0C062037B6FBF4FCA7EB05077A
:104B6000103F07F01F0BCBF120060CFA0BFB2CFAC1
:104B700006F644BFB3460026202FA4BF5E464FF082
:104B8000000B5BEA060C08BF4FF0010B19EB0B0999
:104B9000ABFB027C48EB0608C01B06FB02CC0BFB00
:104BA00003CC71EB0C01C1E70B4602464146484677
:104BB000BDE8F08B13B54FF000004FF00001AFF3EC
:104BC0000080BDE81C40704710B500F02BF800686D
:104BD00010BD10B5044600F025F8046010BD4FF07C
:104BE00000020429C0F0128010F0030C00F02080B5
:104BF000CCF1040CBCF1020F18BF00F8012BA8BFC8
:104C000020F8022BA1EB0C0100F012B85FEAC17C86
:104C100024BF00F8012B00F8012B48BF00F8012B3E
:104C200070470000004870478C0400204FF00002DD
:104C300000B5134694469646203922BFA0E80C5092
:104C4000A0E80C50B1F12001BFF4F7AF090728BF6D
:104C5000A0E80C5048BF0CC05DF804EB890028BFE9
:104C600040F8042B08BF704748BF20F8022B11F012
:104C7000804F18BF00F8012B7047000000487047B4
:104C80008C0400207546FFF7F9FFAE460500694623
:104C9000534620F00700854618B020B5FBF7CEFC40
:104CA000BDE820404FF000064FF000074FF000082D
:104CB0004FF0000B21F00701AC46ACE8C009ACE8AE
:104CC000C009ACE8C009ACE8C0098D46704704468D
:104CD000AFF300802046FBF772FA0000014918206C
:104CE000ABBEFEE7260002007047490050EAC12033
:104CF00018BF04204A0D18BF40F0010040F2FF72B7
:104D0000B2EB515F08BF40F00200012808BF052048
:104D100070472DE9F0414F1E00EBC7010446D1E971
:104D2000000115461E4637F006020DD02A463346CE
:104D300000F006FE7F1E04EBC703D3E9002300F05A
:104D4000AFFB37F00602F1D1022F25D0042F13D08C
:104D5000062F18BFBDE8F0812A46334600F0F0FD6B
:104D6000D4E90A2300F09CFB2A46334600F0E8FD14
:104D7000D4E9082300F094FB2A46334600F0E0FD16
:104D8000D4E9062300F08CFB2A46334600F0D8FD18
:104D9000D4E9042300F084FB2A46334600F0D0FD1A
:104DA000D4E9022300F07CFB2A46334600F0C8FD1C
:104DB000D4E90023BDE8F04100F072BB024A0020B4
:104DC000110701F09EBC000001FDFFFF2DE9F04D31
:104DD000904F21F0004A86B005460C46BA4530DBBC
:104DE000AAEB070028430CD08B48824501DC1CD17C
:104DF000DDB106B02846BDE8F04D4FF0010201F0EC
:104E000080BC864A864B284600F09AFD07460E462F
:104E1000844A854B2846214600F092FD06B03A466A
:104E20003346BDE8F04D00F03BBB0120FFF7D1FE5B
:104E300006B00022BDE8F04D13461046114600F0C2
:104E4000EBBB7A48824542DABAF1795F0BDA284641
:104E5000FFF74BFF042808BFFFF7B0FF284606B056
:104E60002146BDE8F08D2A460B46104600F068FD4D
:104E7000834602466E480E460B4606217844FFF7ED
:104E800048FF5A46334600F05BFD804669488A4633
:104E90005A46334604217844FFF73BFF5A463346CF
:104EA00000F04EFD00223B4600F0FAFA02460B46A7
:104EB0004046514600F0B0FB2A46234600F040FD34
:104EC00006B02A462346BDE8F04D00F0E9BA284670
:104ED00024F0004100223D463B4600F065FE4FF0C5
:104EE000FF3201F00EFC0646024653480F460B46C1
:104EF00006217844FFF70DFF32463B4600F020FDC7
:104F0000CDE900014D4832463B4604217844FFF785
:104F100000FF32463B4600F013FD00222B4600F016
:104F2000BFFA834602913046394600F05FFA804668
:104F300043480D46504517DCDDE900015A46029B07
:104F400000F06AFB42462B4600F0FAFC42462B4634
:104F500000F0A6FA012201F0D4FB304A304B00F0F9
:104F600015FF304A304B4CE04FF0000A52460B46DA
:104F7000404600F095FACDE9031052462B46104604
:104F8000194600F0DDFC32463B4600F00DFEDDE93F
:104F9000033200F041FB06460F46DDE900015A46A8
:104FA000029B00F039FB83460091012230463946CE
:104FB00001F0A7FB194A1A4B00F0F6FD06460F4612
:104FC00001224046294601F09CFB5A46009B00F016
:104FD000B7FC32463B4600F0D9FE07460E4601229A
:104FE0005046294601F08DFB0E4DDFF858802A46C9
:104FF000434600F0D9FD3A46334600F0D5FD2A4637
:10500000434600F0D1FD002CD8BF81F0004106B02E
:10501000BDE8F08D0000F03F0000F07F075C143326
:1050200026A6913C182D4454FB21F93F0000E03F97
:105030007063000086630000FA62000010630000E5
:105040003333EF3FFB21E93F2DE9F84F04460D468E
:1050500021F0004000917449884213DB7349884273
:1050600001DC08D13CB120462946BDE8F84F4FF09D
:10507000010201F046BB6E48002DCCBF6D496E4960
:10508000BDE8F88F6D49884211DA6D498842A8BFA2
:105090004FF0FF366DDA20462946FFF726FE04283A
:1050A00008BFFFF78BFE20462946BDE8F88F65490B
:1050B000654F25F00045884233DA6449884219DAA1
:1050C000002632464FF080432046294600F0E8F99A
:1050D00080468A4601222046294601F012FB002222
:1050E0003B4600F053FE4246534600F095FA044614
:1050F0000D463EE001260022BA463B4620462946A0
:1051000000F0CEF980460F4600225346204629463D
:1051100000F03CFE42463B4600F07EFA04460D4657
:1051200027E04B4988421BDADFF82881022600225B
:1051300043462046294600F003FC00223B4600F08F
:10514000AFF907468A46002243462046294600F02A
:105150001DFE3A46534600F05FFA04460D4608E04D
:10516000032622462B4600203B4900F055FA044610
:105170000D4622462B461046194600F0E1FB8B46B1
:10518000824602460B4600F0DBFB074602463348E8
:1051900088460B4606217844FFF7BBFD52465B4626
:1051A00000F0CEFB82462E488B463A464346052108
:1051B0007844FFF7AEFD3A46434600F0C1FB024695
:1051C0000B46002E504659460CDA00F069F922468B
:1051D0002B4600F0B5FB01B022462B46BDE8F04F50
:1051E00000F0E2BC00F05CF922462B4600F0A8FB80
:1051F0001C4A7A4402EBC603D3E9002300F0C6FD43
:1052000022462B4600F0C2FD174A7A4402EBC60341
:10521000D3E9002300F0C8FC009A002AB8BF81F04F
:105220000041BDE8F88F0000000010440000F07F4E
:10523000182D4454FB21F93FFB21F9BF0000DC3F4E
:105240000000203E0000F33F0000F03F0000E63F7A
:10525000008003400000F83F0000F0BF0E61000036
:10526000CC6000006A600000326000002DE9F04D63
:105270009446CCF1000423F000464CEA0404524F5B
:1052800046EAD4749A46884621F00042BC4206D8C9
:10529000454240EA050442EAD474BC4204D9BDE860
:1052A000F04D624600F0FCB8AAF14055A5F17F65CB
:1052B00055EA0C040BD0022404EAAA74434DDFF82B
:1052C00010E144EAD87452EA000B04D00CE0BDE8C7
:1052D000F04DFFF7B9BE002C14BF012CBDE8F08DD6
:1052E000022C30D0032C32D056EA0C0B0AD0BE422E
:1052F00020D1BA4209D126F0804622F080423346BE
:10530000114617E000291ADB25E0DFF8C8B0FB449E
:10531000002C04BFDBE90001BDE8F08D012C02BFC9
:10532000DBE9000181F00041BDE8F08D022C0AD0DC
:10533000032C0CD0BA4212D1B8F1000F0BDA23487B
:105340002549BDE8F08D28462449BDE8F08D284662
:105350007146BDE8F08D1D482149BDE8F08D921BD6
:1053600012153C2AC4BF19481D490EDCBAF1000FC2
:10537000BEBF12F13C0F0020014606DB624600F082
:105380004BF921F00041FFF75FFE002C08BFBDE89C
:10539000F08D012C04BF81F00041BDE8F08D114A71
:1053A000114B022C07D000F0F1FC2A46BDE8F04D6D
:1053B0000A4B00F0EBBC00F0E9FC2A46BDE8F04DDA
:1053C000064B00F0F1BB00000000F07F182D4454A4
:1053D000FB2109C0C65F0000FB21F9BFFB2109408A
:1053E000FB21F93F075C143326A6A13C2DE9F041CF
:1053F00006460F4600F0E4FB04000D4618BF0120EE
:10540000284320F00040C0F17F6000F1E040C00F71
:105410000FD0002E14BF01200020384320F00040A0
:10542000C0F17F6000F1E040C00F04BF0120FFF732
:10543000D0FB20462946BDE8F081000021F0004263
:10544000A2F16052B2F5801F01F0004328BFD2F1F3
:105450007F6C0BD95FEA001C43EAC20242EB50703A
:1054600018BF704728BF20F001007047B2F5801FB9
:10547000BCBF184670474FEA410C1CF5001F02D212
:10548000084601F060B870B500F004FB0000008928
:10549000FFF7F6BF4FF00040A0F580007047000016
:1054A00010B591EA030F48BF83F0004300F1768402
:1054B000841A71EB030C05D2121943EB0C03001B89
:1054C00061EB0C01DFF824E14FEA1154A4EB135C0B
:1054D0001EEA430F18BF9EEA445F73D023EA0E030F
:1054E000DCF1200E21EA045143F4801332D322FA76
:1054F0000CFE10EB0E0023FA0CFE41EB0E01CCF17A
:10550000200E03FA0EFE10EB0E0051F10001B1F572
:10551000801FCCF1200E32D201EB045112FA0EF2B0
:10552000BDE8104058BF7047401C38BF5FEA4202D8
:1055300018BF7047002814BF20F0010041F100019E
:105540004FEA410313F5001F38BF7047A1F1C04176
:1055500000F0EEBA012A43EB0302ACF1200CDCF1BF
:105560001F0E32BF4FF0000E23FA0CF310EB0300B6
:1055700041EB0451B4EB115FD0D0A1EB045101F524
:10558000801149085FEA300001EB04510ED350F15D
:10559000000038BF12FA0EFE08D1BDE81040C9E77E
:1055A000401C38BF5FEA4202CAD1C3E7BDE81040E1
:1055B0004FEA410313F5001F38BF7047A1F1C04106
:1055C00000F0B6BA9EEA445F08D011EA5E0FBDE86B
:1055D000104004BF01F0004100207047BDE81040BA
:1055E00070B500F057FA00BF64FBBE3E0000E0FF5C
:1055F00002494FF0000001F052B800BF0000F87FF0
:10560000491058BFC1F140415B1058BFC3F140433E
:105610008B42EFF3008070472DE9C04130B4DFF8D2
:10562000A0C23CEA111418BF3CEA131400F0EC804D
:1056300081EA03051CEA111444EAD57418BF1CEA78
:10564000131500F0C780A4EB05044FF0004545EAB0
:10565000C12145EAC32341EA505143EA525304F1C0
:105660007F74994204F500344FEAC0204FEAC22209
:1056700008BF904200F09C804FEA13650FF240167D
:10568000765D4FEA134506FB05F7C7F1807706FB09
:1056900007F74FEAD737A7FB03687642C8F580388B
:1056A000A7FB06CE38BFA8F1010807FB08E64FF0BC
:1056B000000EA6FB028CE6FB03CEDCF1000CCEF163
:1056C000004E38BFAEF1010EA6FB0C584FF000079C
:1056D0004FF00005E6FB0E87A1FB08C6A0FB07CE36
:1056E00016EB0E0645F10005E1FB076515F1E04EEE
:1056F0007EBFA4F580345FEA46066D4116F180074F
:1057000045F100054FEA17274FEA066647EA0567A5
:10571000A6F1DE46B6F1805F4FEA15251FD938465F
:1057200024F0010C05EBC471BCF1FE6F01EB0C1110
:1057300002D8F0BCBDE8008124425CBF01F5801EA8
:105740009EEAC47F02D4F0BCBDE80081244238D474
:10575000F0BCA1F1C041BDE8004100F0E9B94FEA59
:10576000D22242EA43524FEAD323A7FB02864FEAF2
:10577000D02040EA415007FB03661EEA0E0F4FEAB5
:10578000D12105FB026658BFA6EB0056B6EB0056CA
:105790004FEA520E4EEAC37E18EB0E0E56EB530E36
:1057A000BDD518EB02085E417F1C55F10005B6E738
:1057B0004FF480154FF000074FF000064FF000083F
:1057C000ADE7F0BC4FF0000001F1C04101F0004135
:1057D000BDE8008111EA0C1F0CEA131500D00CE0A3
:1057E00013EA0C1F00F025804FF00000F0BC81EAA6
:1057F000030101F00041BDE80081F0BCBDE80041BB
:1058000081EA030100F094B9F0BCBDE8004170B535
:1058100000F040F9097EFC3E00F007B881EA030180
:105820004FF0000001F00041704781EA030100F0F1
:105830007FB9F0BCBDE800414FF00000214970473E
:10584000FFFDFBF9F7F5F4F2F0EEEDEBE9E8E6E445
:10585000E3E1E0DEDDDBDAD8D7D5D4D3D1D0CFCDCC
:10586000CCCBCAC8C7C6C5C4C2C1C0BFBEBDBCBB05
:10587000BAB9B8B7B6B5B4B3B2B1B0AFAEADACAB00
:10588000AAA9A8A8A7A6A5A4A3A3A2A1A09F9F9EDA
:105890009D9C9C9B9A99999897979695959493938C
:1058A000929191908F8F8E8E8D8C8C8B8B8A898923
:1058B00088888787868585848483838282818180A6
:1058C0000000FF070000F87F51EA030C17D41CF515
:1058D000801F58BFBCF5801F00F10680994218BF99
:1058E000704708BF9042704707D711F5801F58BF17
:1058F00013F5801F19D499427047894270471CF5EF
:10590000801F08D5BCF5801FF7D58B4218BF7047A4
:1059100008BF824270474FF4001C1CEB410F38BF98
:105920001CEB430F01D28B42704770B500F0B2F808
:10593000922449004FF000514FF08053FFF760BEB2
:10594000DFF848C170B51CEA111E1EBF1CEA131512
:105950009EEA0C0F95EA0C0F00F06F8081EA0304B9
:1059600023EA4C134EEAD47E21EA4C1141F4801113
:1059700043F48013AE44A1FB024CA0FB0365AEF1DF
:105980007F7E361955EB0C05A1FB034C4CF100034F
:10599000A0FB021C16EB0C06654153F10003094203
:1059A00018BF46F0010613F4007F0BD14FEA033114
:1059B0004FEA0530340341EA155140EA16506FF0C2
:1059C00003020AE04FEAC3214FEAC520F40241EA8C
:1059D000555140EA56506FF0020202EB2E4201EBA5
:1059E000025585EACE710AD05FEA440C18BF24F054
:1059F000004450F1000041F1000120EAD47040F26F
:105A0000FE7C624500D270BDA84214BF4FF08044B6
:105A10004FF04044002E08BF0024BEF1806FA8BFA5
:105A2000A1F1C041BDE8704080F282804FF00000DB
:105A300001F1C04101F0004170479EEA0C0F0CEAF1
:105A4000131518BF95EA0C0F06D04FF0000081EA3D
:105A5000030E0EF0004170BD00F01CF88900013EFD
:105A600000F007B800F009B84FEA430C5FEA5C5C4D
:105A700008D081EA030100F05BB84FEA410C5FEA0D
:105A80005C5CF6D14FF00000014970470000FF0751
:105A90000000F87F0EF1020E2EF0030E5EF8046B8C
:105AA000364205D4012A43EB030515F5001F12D831
:105AB000012841EB010C1CF5001F0CD80ED14FEA58
:105AC000D17C15F5001F0CEB4C0C0CF1020C08BF3F
:105AD0004CEBD37C04E04FF0080C01E04FEAD37CA0
