:020000040800F2
:1000000000040020EF260008FD260008FF26000857
:10001000012700080327000805270008000000004A
:10002000000000000000000000000000072700089A
:1000300009270008000000000B2700080D27000812
:100040000F2700080F2700080F2700080F270008B8
:100050000F2700080F2700080F2700080F270008A8
:100060000F2700080F2700080F2700080F27000898
:100070000F2700080F2700080F2700080F27000888
:100080000F2700080F2700080F2700080F27000878
:100090000F2700080F2700080F2700080F27000868
:1000A0000F2700080F2700080F2700080F27000858
:1000B0000F2700080F2700080F2700080F27000848
:1000C0000F2700080F2700080F2700080F27000838
:1000D0000F2700080F2700080F2700080F27000828
:1000E0000F2700080F2700080F2700080F27000818
:1000F0000F2700080F2700080F2700080F27000808
:100100000F2700080F2700080F2700080F270008F7
:100110000F2700080F270008151B00080F270008ED
:100120000F2700080F2700080F2700080F270008D7
:1001300000F002F800F05EF80AA090E8000C82449B
:100140008344AAF10107DA4501D100F053F8AFF278
:10015000090EBAE80F0013F0010F18BFFB1A43F0A5
:1001600001031847489200006892000010F8013B14
:100170000A4413F0030408BF10F8014B1D1108BF17
:1001800010F8015B641E05D010F8016B641E01F8C5
:10019000016BF9D1002D15D010F8014B03F00C03C1
:1001A0000C2BA1EB04040ABF10F8013BA4EB831451
:1001B000A4EB032405F1010314F8016B5B1E01F8A5
:1001C000016BF9D5914238BF10F8013BD1D370478C
:1001D0000023002400250026103A28BF78C1FBD850
:1001E000520728BF30C148BF0B6070471FB51FBD05
:1001F00010B510BD04F041FC1146FFF7F7FF00F009
:100200000FF804F05FFC03B4FFF7F2FF03BC04F047
:1002100063FC000030BF72B662B680F30888704796
:10022000092002F007FA022002F0EFF95C4840686A
:1002300040F480705A494860012002F0E6F94820F5
:1002400002F09EF803F06CFA03F035F802F065FF57
:1002500000231A461946184603F084F802F036FBCC
:1002600001F0A8FE02F042F801F0B5FF01F0ECFF4A
:1002700002F0EAFA02F05EFA02F0FCFC03F0C9F9BF
:1002800003F065FB03F049FB0020464908804880E5
:100290008880012044490870482141F2883002F0EA
:1002A000F3FA02204149087001204149088076E0B4
:1002B00003F033FB3F480078002870D03E480078B8
:1002C0000F2829D2DFE800F0080B0E1114151619BB
:1002D0001C281F232422250000F07CF81DE000F0DC
:1002E000B9FA1AE000F0E9FC17E000F070FE14E043
:1002F00013E012E001F05BF80FE001F078F90CE098
:1003000001F0A0FA09E001F082FB06E000BF00BFA7
:1003100000BF00F042F900E000BF00BF0020254907
:10032000087026480088002804DD24480088401E04
:1003300022490880042002F053FB21490860084646
:10034000006800EB401000EB400101EBC000000B27
:100350001B4908601848007818B117480078012830
:100360001DD1174800681749B1F90010884213D20F
:1003700015480088B0F5167F05DA13480088401C40
:10038000114908800BE00A200B49087000200F4932
:1003900008700F49086002E000200B49088087E7D9
:1003A00000000140480700200E0000201207002036
:1003B0001407002008070020030000200A00002086
:1003C000040000201000002012000020F40600208D
:1003D0000407002008B5F8480078012878D10020EB
:1003E00004F000FAF5480078C0EBC00101EB4010C2
:1003F000F3490844F349B1F9001001EB810303EB21
:10040000C101421801230021182003F0B0FFED487C
:10041000B0F90000C0EBC000EB4901EBC0020123C2
:100420000D21002003F0A3FFE648B0F90000C0EB67
:10043000C000E54901EBC000C21D01230D2142208F
:1004400003F095FFDF48B0F90000C0EBC000DE49C3
:1004500001EBC00000F10E0201231A21002003F07D
:1004600086FFD848B0F90000C0EBC000D64901EBC8
:10047000C00000F1150201231A21422003F077FF8A
:10048000D048B0F90000C0EBC000CF4901EBC0007C
:1004900000F11C0201232721002003F068FFC74858
:1004A0000078C0EB8010C9490844C649B1F9001072
:1004B000C1EBC10101EB41014218012334210020AD
:1004C00003F055FF0120C24908700020BA490870A6
:1004D000C0480078012820D10020BF49C8610861C8
:1004E000086248620021BC48416481638164C16440
:1004F000C166016601674167C0F89410C0F88810B2
:10050000C0F89810C0F89C100D20AC49087001206C
:10051000A94908700020AF490870AE480078022849
:100520000CD10020AD490870AD4908600120A349F5
:100530000870A14908700020A649087001200090A9
:10054000A848B0F9062005230D21202004F05CF90D
:1005500001200090A348B0F9042005230D2162205A
:1005600004F052F9012000909E48B0F900200523C4
:100570001A21202004F048F9012000909948B0F990
:10058000022005231A21622004F03EF996482A2110
:1005900002681E2004F006FA08BD08B586480078F7
:1005A000012879D1002004F01DF984480078C0EBBF
:1005B000C00101EB4010824908448249B1F90010A2
:1005C00001EB810303EBC101421801230021182034
:1005D00003F0CDFE7B48B0F90000C0EBC0007A49C3
:1005E00001EBC00201230D21002003F0C0FE75487D
:1005F000B0F90000C0EBC000734901EBC000C21DA0
:1006000001230D21422003F0B2FE6E48B0F9000034
:10061000C0EBC0006C4901EBC00000F10E020123E9
:100620001A21002003F0A3FE6648B0F90000C0EBD9
:10063000C000654901EBC00000F1150201231A2139
:10064000422003F094FE5F48B0F90000C0EBC00008
:100650005D4901EBC00000F11C02012327210020AD
:1006600003F085FE5748B0F90000C0EBC00000EB76
:10067000400156483F300A1801233421002003F07E
:1006800076FE02205249087001205449087000206B
:1006900053490860484908704E480078012815D130
:1006A00000204E4908704E49086044480078401CBC
:1006B00042490870084600780E2801D100200870D1
:1006C00001203D4908700020424908700120009037
:1006D0004448B0F9062005230D21202004F094F8A9
:1006E000012000903F48B0F9042005230D2162202D
:1006F00004F08AF8012000903A48B0F90020052360
:100700001A21202004F080F8012000903548B0F92B
:10071000022005231A21622004F076F832482A21AB
:1007200002681E2004F03EF908BD10B50446012CF5
:1007300006D101233E220F21002003F0C6FA05E076
:10074000012320220F21002003F0BFFA022C06D142
:1007500001233E221C21002003F0B7FA05E001230B
:1007600020221C21002003F0B0FA032C06D1012323
:100770003E222921002003F0A8FA05E001232022CF
:100780002921002003F0A1FA042C06D101233E22E6
:100790003621002003F099FA05E0012320223621BA
:1007A000002003F092FA052C20D101233E220F21D4
:1007B000452003F08AFA1FE00E000020030000200D
:1007C000150000200C0000205E020020060300201F
:1007D0000E0700200200002070070020F406002011
:1007E000040700201E07002004000020012320220F
:1007F0000F21452003F069FA062C06D101233E2281
:100800001C21452003F061FA05E0012320221C2170
:10081000452003F05AFA072C06D101233E22292154
:10082000452003F052FA05E001232022292145202A
:1008300003F04BFA082C06D101233E223621452035
:1008400003F043FA05E0012320223621452003F07E
:100850003CFA10BD10B5FE48007801287DD100207B
:1008600003F0C0FFFB480078C0EBC00101EB401073
:10087000F9490844F949B1F9001001EB810303EB90
:10088000C101421801230021182003F070FDF34834
:10089000B0F9000000EB400101EBC000F04901EBB2
:1008A000C00201230D21062003F061FDEB48B0F9E1
:1008B000000000EB400101EBC000E94901EBC00082
:1008C00000F10B0201230D214B2003F050FDE34802
:1008D000B0F9000000EB400101EBC000E04901EB82
:1008E000C00000F1160201231A21062003F03FFD8B
:1008F000DA48B0F9000000EB400101EBC000D84934
:1009000001EBC00000F1210201231A214B2003F06A
:100910002EFDD248B0F9000000EB400101EBC00011
:10092000CF4901EBC00000F12C0201232721062052
:1009300003F01DFDC948B0F9000000EB400101EBD8
:10094000C000C74901EBC00000F137020123272195
:100950004B2003F00CFDC14800E02DE0B0F9000091
:1009600000EB400101EBC000BD4901EBC00000F10C
:10097000420201233421062003F0F9FCB748B0F904
:10098000000000EB400101EBC000B54901EBC000E5
:1009900000F14D02012334214B2003F0E8FC032039
:1009A000B04908700120B04908700020AF490860C4
:1009B000AF490860A6490870AC48006896280CDD6D
:1009C0000020AA490860A8480078401EA64908707F
:1009D0000846007808B908200870A448006810F19B
:1009E000960F0DDA0020A14908609F480078401C4E
:1009F0009D49087008460078092801D10120087037
:100A0000994800780A2878D2DFE800F09D05182B75
:100A10003E5164789D8B9748007801280DD10020C5
:100A2000954908709549086002208A49087001209C
:100A30008749087000208F49087085E08D4800784C
:100A400001280DD100208C4908708C4908600320D2
:100A50008049087001207E4908700020854908708F
:100A600072E08448007801280DD100208249087086
:100A70008249086004207749087001207449087091
:100A800000207C4908705FE07A48007801280DD189
:100A90000020794908707949086005206D4908707F
:100AA00001206B4908700020724908704CE07148C1
:100AB000007801280DD100206F4908706F49086047
:100AC00006206449087001206149087000206949C6
:100AD000087039E06748007801280DD10020664988
:100AE00008706649086007205A4908700120584973
:100AF000087000205F49087026E024E05D48007817
:100B000001280DD100205C4908705C49086008206C
:100B10005049087001204E4908700020554908705E
:100B200012E05448007801280CD100205249087086
:100B30005249086047490870012045490870002063
:100B40004C49087000E000BF00BF47480078FFF73D
:100B5000ECFD10BD10B5002409E004F10A00C2B29A
:100B600001236A21162003F0C3FC601CC4B2102CC0
:100B7000F3DB3A48B0F90000C0EB0010404901EB4C
:100B8000800200231A21162003F0F1FB1C2409E047
:100B900004F10A00C2B201236A21162003F0A8FC66
:100BA000601CC4B22C2CF3DB10BD38B53549086885
:100BB00004F042FB04462C480078012801D00120B3
:100BC00000E00020032322460D210090242003F0A2
:100BD0001BFE2C49886804F02FFB0446224800784D
:100BE000022801D0012000E00020032322460D212D
:100BF0000090482003F008FE2249486904F01CFBDD
:100C0000044619480078032801D0012000E00020A4
:100C1000032322460D2100906C2003F0F5FD1248BD
:100C20000078042801D0012000E0002003460B4892
:100C3000B0F9000000EBC00101EB001012490844BC
:100C400000F10F023421062003F091FB06481DE05D
:100C50000E00002003000020150000200C000020E2
:100C6000840300200E07002008000020FC0600205E
:100C70000007002002000020F406002004070020E6
:100C8000D7040020700700208C040020007805287D
:100C900001D0012000E000200346FE48B0F900002A
:100CA00000EBC00101EB0010FB49084400F1140205
:100CB0003421622003F05BFB38BD10B5F7480078A3
:100CC00001283CD1002003F08DFDF5480078C0EBF1
:100CD000C00101EB4010F3490844EE49B1F900109E
:100CE00001EB810303EBC10142180123002118200D
:100CF00003F03DFBE748B0F9000000EBC00101EB59
:100D00000010E549421801230D21002003F02FFBBC
:100D10000123E5A20D21182003F029FB01F003FABD
:100D2000FFF743FF0320E54908700120E4490870FC
:100D30000020E4490860E4490860D8490870E148A7
:100D4000006896280CDD0020DE490860DC48007849
:100D5000401EDB4908700846007808B90520087075
:100D6000D848006810F1960F0DDA0020D5490860C8
:100D7000D3480078401CD2490870084600780628FD
:100D800001D101200870FFF710FFCD480078062838
:100D90007ED2DFE800F0AA032C558098CA4800688C
:100DA00064280ADDC94908684FF07E5104F0A2F9B1
:100DB000C64908600020C4490860C348006810F1B3
:100DC000640F10DAC1490868002104F07DFB07D2E6
:100DD000BE4908684FF07E5104F0A8FBBB4908608B
:100DE0000020B94908600020B94908807EE0B64873
:100DF000006864280ADDB54988684FF07E5104F028
:100E000079F9B24988600020AF490860AE480068AF
:100E100010F1640F10DAAD498868002104F054FB2A
:100E200007D2AA4988684FF07E5104F07FFBA7499A
:100E300088600020A44908600020A549088055E08A
:100E4000A148006864280ADDA04948694FF07E5136
:100E500004F050F99D49486100209B4908609A4878
:100E6000006810F1640F10DA98494869002104F015
:100E70002BFB07D2954948694FF07E5104F056FB91
:100E8000924948610020904908600020904900E0A4
:100E90002BE008802AE08F480078012812D101F069
:100EA00015F9FFF757FE01F04DFA00207C49087054
:100EB00001207A4908700020864908708649087028
:100EC0008649086012E08348007801280CD1002090
:100ED00081490870814908607149087001206F4993
:100EE000087000207B49087000E000BF00BF10BD03
:100EF00010B504467A48C068401C0BD1012C01D0C3
:100F0000012000E00020034676A20D21242003F0FA
:100F10002EFA0AE0012C01D0012000E00020034657
:100F200072A20D21242003F022FA6D488068401C33
:100F30000BD1032C01D0012000E00020034669A260
:100F40000D21662003F013FA0AE0032C01D00120E2
:100F500000E00020034665A20D21662003F007FA99
:100F60005F480068401C0BD1022C01D0012000E03A
:100F7000002003465BA21A21242003F0F8F90AE0BE
:100F8000022C01D0012000E00020034657A21A21C4
:100F9000242003F0ECF952484068401C0BD1042C8B
:100FA00001D0012000E0002003464EA21A21662055
:100FB00003F0DDF90AE0042C01D0012000E000205C
:100FC00003464AA21A21662003F0D1F910BD10B5DC
:100FD0003248007801285BD1002003F003FC304840
:100FE0000078C0EBC00101EB40102E4908442949AC
:100FF000B1F9001001EB810303EBC1014218012399
:101000000021182003F0B3F92248B0F90000C0EB2A
:10101000C000384901EBC00201230D21002003F07C
:10102000A6F91C48B0F90000C0EBC000314901EB43
:10103000C000C21D01230D21422003F098F915487C
:10104000B0F90000C0EBC0002A4901EBC00000F17C
:101050000E0201231A21002003F089F90D48B0F98E
:101060000000C0EBC000234901EBC00000F11502F5
:1010700001231A21422003F07AF901F037F91048D0
:101080000078FFF735FF03200C490870012033E09A
:101090003BE000000C0000208C0400200E0000202B
:1010A000030000201500002050A3BA20202049A3EF
:1010B000BA20202044A3BA20200000000E07002000
:1010C00008000020FC060020000700207007002018
:1010D0000000002002000020F40600200407002089
:1010E00060070020D5FDCFF200000000B7B4CFF2BA
:1010F000000000005E020020FE4908700020FE494A
:101100000860FE490860FE490870FB4800689628A0
:101110000CDD0020F8490860F6480078401EF549CB
:1011200008700846007808B906200870F248006880
:1011300010F1960F0DDA0020EF490860ED480078B5
:10114000401CEC49087008460078052801D10120B0
:101150000870E8480078FFF7CBFEE64800780728DB
:1011600071D2DFE800F0EE04336292C1DC00E348A4
:101170000068642810DD01F097FDE248C068401C5B
:1011800003D10120DF49C86003E04FF0FF30DD49A3
:10119000C8600020D9490860D848006810F1640F81
:1011A00010DA01F081FDD748C068401C03D101204E
:1011B000D449C86003E04FF0FF30D249C860002036
:1011C000CE4908600020D0490880BBE0CB480068C9
:1011D000642810DD01F068FDCA480068401C03D196
:1011E0000120C849086003E04FF0FF30C54908609E
:1011F0000020C2490860C148006810F1640F10DA8D
:1012000001F052FDBF480068401C03D10120BD49D8
:10121000086003E04FF0FF30BA4908600020B7498A
:1012200008600020B84908808CE0B4480068642851
:1012300011DD01F039FDB3488068401C04D1012064
:10124000B049886004E07CE04FF0FF30AD49886031
:101250000020AA490860A948006810F1640F10DA5C
:1012600001F022FDA7488068401C03D10120A54958
:10127000886003E04FF0FF30A249886000209F495A
:1012800008600020A04908805CE09C480068642851
:1012900010DD01F009FD9B484068401C03D101208E
:1012A0009849486003E04FF0FF30964948600020BD
:1012B000924908609148006810F1640F10DA01F05B
:1012C000F3FC90484068401C03D101208D494860E0
:1012D00003E04FF0FF308B494860002087490860E9
:1012E0000020894908802DE088480078012815D120
:1012F00000F0CAFFFFF72EFC642001F077F801F040
:1013000021F800208249087001207D4908700020E2
:101310007E4908707F4908707F49086012E07B4869
:10132000007801280CD100207A4908707A490860B9
:1013300077490870012072490870002073490870CD
:1013400000E000BF00BF10BD10B50446012C06D15F
:10135000012372A20D21062003F009F806E0012303
:10136000AFF2AC220D21062003F001F8022C06D1C9
:1013700001236AA21A21062002F0F9FF06E00123E8
:10138000AFF2CC221A21062002F0F1FF032C06D185
:10139000012362A22721062002F0E9FF06E00123D3
:1013A000AFF2EC222721062002F0E1FF10BD10B5BC
:1013B00053480078012836D1002003F013FA54482E
:1013C0000078C0EBC00101EB401055490844554975
:1013D000B1F9001001EB810303EBC10142180123B5
:1013E0000021182002F0C3FF01234FA20D21182075
:1013F00002F0BDFF01234FA21A21182002F0B7FF0F
:1014000001234FA22721182002F0B1FF03204E49EB
:1014100008700120374908700020374908603749B3
:101420000860374908703448006896280CDD0020B1
:10143000314908602F480078401E2E490870084640
:10144000007808B9032008702B48006810F1960F47
:101450000DDA00202849086026480078401C2549FC
:10146000087008460078042801D10120087021483E
:101470000078012804D002281ED0032839D165E065
:1014800022480078012816D10020224908702249FC
:1014900008602449088000F085FE642000F0A6FF63
:1014A00000F050FF00201A4908700120144908700C
:1014B00000201649087067E014480078012817D109
:1014C000002014490870144908600120154908805B
:1014D00000F068FE642000F089FF00F033FF002078
:1014E0000B49087001200649087000200749087060
:1014F0004AE048E008000020FC0600200007002029
:101500000E000020600700200000002002000020E4
:1015100003000020F4060020040700203E00000025
:10152000150000200C000020BCF2CCE5D6D0CEC4C3
:1015300000000000B7B1F377D6D0CEC400000000A1
:10154000456E676C697368000E070020FE480078DE
:10155000012817D10020FD490870FD4908600220CC
:10156000FC49088000F01EFE642000F03FFF00F000
:10157000E9FE0020F84908700120F84908700020B1
:10158000F149087000E000BF00BFF5480078FFF7A0
:10159000DBFE10BD10B5002409E004F10A00C2B260
:1015A00001236A21162002F0A3FF601CC4B2102C94
:1015B000F3DBE848B0F90000C0EB0010E94901EBAB
:1015C000800000F11E0200231A21162002F0CFFE37
:1015D0001C2409E004F10A00C2B201236A2116208A
:1015E00002F086FF601CC4B22C2CF3DB10BD10B5DA
:1015F000DA480078012831D1002003F0F3F8D6480A
:101600000078C0EBC00101EB4010D7490844D14934
:10161000B1F9001001EB810303EBC1014218012372
:101620000021182002F0A3FECA48B0F9000000EB28
:101630008000CE4901EB800201231A21032002F031
:1016400096FE0320CA4908700120C5490870002091
:10165000C8490860C8490860C0490870C5480068A2
:1016600096280CDD0020C3490860BD480078401E64
:10167000BB4908700846007808B902200870BD48C8
:10168000006810F1960F0DDA0020BA490860B448DE
:101690000078401CB249087008460078032801D140
:1016A00001200870AE480078012802D002287DD1C0
:1016B0002FE0A548007801280CD10020A34908702C
:1016C000A3490860A44908700120A44908700020BB
:1016D0009D4908709F48B0F9000002280CDA0023E9
:1016E000A6A234211E2002F042FE0123A4A234212E
:1016F000562002F03CFE0BE00023A2A234211E2063
:1017000002F035FE0123A0A23421532002F02FFE67
:101710006EE08D48007801284AD14FF083409B4904
:101720000860002088604FF0814048614FF083409E
:1017300088620021954801634FF08141C1634FF0F9
:101740008340924908650021904881654FF08141AE
:1017500041664FF083408D49886700218B48C0F86F
:1017600080104FF08141C0F88C100120884908603A
:1017700048608860C86000207649088000F0A6FCB8
:1017800000F082FDFFF706FF642000F02FFE00F05E
:10179000D9FD00206D4908706D4908606E490870D8
:1017A00001206E4908700020674900E01FE00870C2
:1017B0006848B0F9000002280CDA01236FA2342136
:1017C0001E2002F0D4FD00236DA23421562002F029
:1017D000CEFD0BE001236BA234211E2002F0C7FDD9
:1017E000002369A23421532002F0C1FD00E000BFB4
:1017F00000BF10BD10B55A480078012801D0012063
:1018000000E0002003466348B0F900201121582071
:1018100003F060F852480078032801D0012000E06E
:10182000002003464B48B0F9000000EBC00101EB7B
:1018300000105949084400F10F023421062002F03B
:1018400096FD10BD10B545480078012828D100202C
:1018500002F0C8FF40480078C0EBC00101EB401027
:10186000414908443B49B1F9001001EB810303EB06
:10187000C101421801230021182002F078FD00F078
:10188000E3FCFFF7B7FF0320394908700120344912
:101890000870002037490860374908602F490870F0
:1018A0003448006896280CDD0020324908602C4836
:1018B0000078401E2A4908700846007808B90420BC
:1018C00008702C48006810F1960F0DDA00202949A5
:1018D000086023480078401C2149087008460078B9
:1018E000052801D101200870FFF784FF1C4800780B
:1018F000012806D0022858D0032857D0042870D1D8
:1019000070E01D48006864280DDD2248B0F9000031
:10191000782805DA1F480088401C00B21D4908805D
:101920000020154908601448006810F1640F38DA87
:101930001848B0F90000462805DD16480088401E0A
:1019400000B21449088029E002000020F4060020BB
:10195000040700200C000020030000200E000020DF
:1019600008000020D704002015000020B706002042
:101970000E070020FC06002000070020B7F1000041
:10198000CAC700004E4F00005945530070070020A1
:1019900060070020100000208C040020002039493E
:1019A00008600020384908802FE02EE03748007892
:1019B000012815D100F02FFCFFF7CCF8642000F0CF
:1019C00015FD00F0BFFC00203149087001203149AD
:1019D000087000202D4908702F4908702F490860B1
:1019E00013E011E02948007801280CD100202A4991
:1019F00008702A49086026490870012025490870A6
:101A000000202249087000E000BF00BF10BD10B5E3
:101A1000002409E004F10A00C2B201236A21162061
:101A200002F066FD601CC4B2102CF3DB1C48B0F958
:101A30000000C0EB00101B4901EB800000F12D02FB
:101A400000231A21162002F092FC1C2409E004F164
:101A50000A00C2B201236A21162002F049FD601C6F
:101A6000C4B22C2CF3DB10480088801E0E4908807D
:101A70000846008828B9002005490870012005495A
:101A8000087010BD000700200000002002000020A8
:101A9000030000200E000020F406002004070020B0
:101AA0000C000020D70400201200002070B506466C
:101AB0000D4614462946304603F006FD01D228465D
:101AC00070BD2146304603F0FFFB01D22046F7E708
:101AD0003046F5E710B543420B441344FE4C2468EE
:101AE0006343FE4C2360431A1344FB4CA4686343D6
:101AF000FA4CA36043425B1A1344F74C6468634397
:101B0000F64C636043181344F34CE4686343F34CAE
:101B1000E36010BD2DE9FF5FF148008A10F0010F6E
:101B20007ED0F0480078082804DAEE480078401C9F
:101B3000EC490870EB480078042809D101F03CFE1C
:101B400018B90120E849087002E00020E649087051
:101B5000E448007808283BD1E348007878B301F0E6
:101B600089FE062001F0A9FEE0490880052001F069
:101B7000A4FEDE494880072001F09FFEDB498880F3
:101B80000846B0F90000C0F17F0000EB40000521DD
:101B900090FBF1F5D548B0F902007F3800EB40002A
:101BA00090FBF1F6D148B0F90400A0F17F0404EBFA
:101BB000D470421029463046FFF78CFF05E0FFE75E
:101BC000002211461046FFF785FF0020C549087026
:101BD000C7480078401CC6490870084600780428A9
:101BE0007ED10020087001F0A2FAC24800780028D7
:101BF00077D00020C04908700EE1C048BE4909787E
:101C000030F91100B549BC4A127851F82210401A37
:101C1000B949097801EB8101B94A02EBC10100E041
:101C20009CE10862B449097801EB810102EBC10132
:101C3000086A03F01DFB0446AF48007800EB800003
:101C4000AF4A52F83010204603F072FBAA490978D7
:101C500001EB8101AA4A02EBC1014860A64909785B
:101C600001EB810102EBC101086A03F017F8064697
:101C70000F46A149097801EB8101A14A02EBC1019C
:101C8000886803F00BFA80469E4A9F4B03F01EF8CB
:101C900032463B46CDE9000103F018F804460D46F4
:101CA0009549097801EB8101954A02EBC101086968
:101CB00003F0F4F9824622462B4602F047FFCDE9B5
:101CC000020102F011FF8C49097801EB81018C4A75
:101CD00002EBC10108618849097801EB810101E04B
:101CE000F2E0B9E002EBC101884A08698849FFF7D0
:101CF000DDFE8149097801EB8101814A02EBC101D6
:101D000008617D49097801EB810102EBC101096A93
:101D1000794A127802EB8202794B03EBC202526AD3
:101D2000881A02F0BBFF04460D467349097801EB9F
:101D30008101734A02EBC101486903F0AFF98246A1
:101D4000704A714B02F0C2FF064622462B4602F053
:101D5000BDFF804602F0C8FE6749097801EB8101AA
:101D6000674A02EBC10188616348007800EB80009C
:101D7000114601EBC000006A5F49097801EB81015F
:101D800002EBC10148625C4A127802EB82025C4BB2
:101D900003EBC2021169584A127802EB820203EB8C
:101DA000C202506803F0A6F905465348007800EBDC
:101DB0008000534A02EBC0008169284603F09AF97B
:101DC00004464D48007800EB80004D4A02EBC0000D
:101DD000C169204603F08EF94749097801EB81017A
:101DE000474A02EBC101C8614349097801EB81010F
:101DF00002EBC101474AC8694749FFF757FE3E4910
:101E0000097801EB81013E4A02EBC101C8613A4801
:101E10000078401C38490870374800780428FFF6DD
:101E2000ECAE3749D1F8940003F006FA0446344981
:101E3000C86E03F001FA05463149486C03F0FCF91D
:101E400006462F49C86903F0F7F9074623462A4694
:101E5000314601F087FA05E000231A461946184674
:101E600001F080FA2548B0F900002C4909680844BF
:101E70002A4908602148B0F9020029490968084444
:101E8000274908602548006841F28831884202DD10
:101E9000084622490860214800682249884202DA3F
:101EA00008461E4908601E48006841F28831884291
:101EB00002DD08461A490860194800681949884235
:101EC00002DA08461649086000F059FF00F091FC5C
:101ED00015480068401C29E06007002050070020DA
:101EE00000100040F9060020FA06002048070020F4
:101EF000F8060020F4060020F50600201E0700204A
:101F0000700700209A9999999999A93F000048C3B0
:101F10000000484300B88FC500B88F45FC0600207C
:101F20000007002078ECFFFF040700205B490860F1
:101F300008460068FA2801D30020086001205849AB
:101F400008705848006850B957480088B0F5967F27
:101F500028DA55480088401C5349088022E052483E
:101F600000881E280DDD50480088B0F5967F08DAFD
:101F700001204E49087003204D49087001204D4949
:101F8000088049480088B0F5967F08D1022047496B
:101F90000870032046490870012046490880002047
:101FA000414908804448008A20F0010042490882E3
:101FB000BDE8FF9F10B500F0B6F8404908684049F9
:101FC00003F006F90BD03D4988683D4903F000F95C
:101FD00005D03A4948693A4903F0FAF839D14FF047
:101FE000834036490860002088604FF08140486196
:101FF0004FF0834088620021304801634FF08141F7
:10200000C1634FF083402D49086500212B4881654D
:102010004FF0814141664FF0834028498867002195
:102020002648C0F880104FF08141C0F88C10012084
:102030002449086048608860C86000202249088000
:1020400000F044F800F020F9642000F0CFF900F02F
:1020500079F9002019490861002118488163016657
:10206000C0F8881000201549C86100211348416458
:10207000C166C0F8941000201049086200210F4882
:1020800081640167C0F8981000200C494862002163
:102090000A48C1644167C0F89C1010BD04070020C5
:1020A000080700200001224200000020020000205A
:1020B00012070020140700200010004070070020C5
:1020C00000FF7F47600700200C00002010B586B09D
:1020D00000240A2201A9A44800F038FDA349086899
:1020E00003F0AAF882B22146641C01A820F811204E
:1020F0009E49886803F0A0F882B22146641C01A8BA
:1021000020F811209949486903F096F882B22146D7
:10211000641C01A820F811200A2201A9924800F0AD
:1021200026FD06B010BD10B586B000240A2201A914
:102130008D4800F00BFD2246641C01A931F8120005
:1021400003F0AEF8894908602246641C01A931F801
:10215000120003F0A5F8854988602246641C01A995
:1021600031F8120003F09CF8804948610846006885
:1021700088620846816801638168C16300687B49A1
:10218000086508468168816541694166006877494C
:10219000886708468168C0F880104169C0F88C10D3
:1021A00006B010BD10B586B000240A2201A96E4801
:1021B0003C3000F0CBFC6E48008882B22146641CA3
:1021C00001A820F811200A2201A967483C3000F03C
:1021D000CEFC06B010BD10B586B000240A2201A9BD
:1021E00061483C3000F0B2FC2146641C01A830F884
:1021F000110000B25E4908800846B0F900000228CC
:1022000004DC0846B0F90000002802DA0020584932
:10221000088006B010BD10B586B000240A2201A9BE
:102220005148463000F092FC5248008882B2214664
:10223000641C01A820F811200A2201A94A4846304E
:1022400000F095FC06B010BD10B586B000240A223F
:1022500001A94548463000F079FC2146641C01A8DC
:1022600030F8110000B2434908800846B0F9000078
:10227000782804DC0846B0F90000412802DA46203C
:102280003C49088006B010BD1CB50422694636489A
:10229000283000F05BFC38480068012801D001209C
:1022A00000E00020ADF8000033484068012801D06C
:1022B000012000E00020ADF802002F4880680128CE
:1022C00001D0012000E00020ADF804002A48C068D9
:1022D000012801D0012000E00020ADF80600042212
:1022E00069462148283000F042FC1CBD1CB5042280
:1022F00069461D48283000F029FCBDF8000008B9E7
:10230000012001E04FF0FF301B490860BDF80200DA
:1023100008B9012001E04FF0FF3017494860BDF8CF
:10232000040008B9012001E04FF0FF301249886035
:10233000BDF8060008B9012001E04FF0FF300E495A
:10234000C8601CBD10B50D48006820F008000B499E
:1023500008604FF4617000F049F80848006840F0E8
:1023600008000649086010BD28D00008700700204A
:102370000C00002010000020600700200004014035
:102380004FF0E021096921F004014FF0E0221161D2
:10239000C21700EB5272D210224B1A7019460978FC
:1023A00001EB4102C2EBC1114FF6FF7202EAC1011B
:1023B0001D4A1180704701461A4A12784A434FF06D
:1023C000E0235A6100229A6101221A6100BF4FF096
:1023D000E022106910F0010F02D010F4803FF6D017
:1023E00000224FF0E0231A619A61704701460E4ABD
:1023F00012884A434FF0E0235A6100229A61012279
:102400001A6100BF4FF0E022106910F0010F02D0F6
:1024100010F4803FF6D000224FF0E0231A619A6159
:10242000704700000A0700200C070020A24A0A405B
:102430000243A24B1A6070470146072323EA0102B8
:1024400012029E4B1B1D18684FF6FF0318409C4B51
:1024500018431043994B1B1D186070472DE9F0413C
:102460000746884614461D462846FFF7E5FFC5F196
:10247000040007FA00F60F20284100EA080006438E
:1024800006F00F06202C0CDA8E4800684FF0010190
:1024900001FA04F140EA01004FF0E021C1F8000127
:1024A0000DE089480068A4F120014FF0010202FA12
:1024B00001F240EA02004FF0E021C1F80401834834
:1024C000005D40EA0610C1B280480155BDE8F081C8
:1024D00070B504460B46CE1701EB9676B010CE17BA
:1024E00001EB9676B610A1EB8606B606350E784B54
:1024F0009B6943F00103764EB3614FEAB63353F85C
:1025000020300F26AE40B343724E46F8203033469B
:1025100053F8203004FA05F633436E4E46F8203067
:102520006D4B1E6801238B401E436B4B1E6012F0E7
:10253000010F08D0684B0C331B6801268E403343D3
:10254000654E0C36336012F0020F08D0624B083330
:102550001B6801268E4033435F4E0836336070BDE2
:1025600000B500205A490861C86014204861002065
:102570008861C8610846006840F0010008600846AC
:102580004068564908405249486008460068544926
:1025900008404F4908600846006820F48020086021
:1025A0000846406820F4FE00486000208860002152
:1025B0004FF00060FFF73AFF00BD10B53F4808300C
:1025C000006840F004003D49083108604048C06997
:1025D00040F080503E49C8614248406840F48070F5
:1025E000404948600846006840F00400086008461A
:1025F000006840F002000860FDF70CFE10BD304896
:10260000001D2E49091D0860704701464906304AE1
:10261000926942F001022E4B9A612E4A083A5268A2
:1026200022F0E0622B4B083B5A601A4652680A437C
:102630005A60704730B504460025FFF791FF2448E3
:10264000006840F480302249086000BF20480068DC
:10265000400CFBD04FF480601D494860A01EC4B2FE
:102660000846406840EA844048600846406840F4B4
:10267000803048601C48006840F032001A49086009
:102680001348006840F080701149086000BF10488E
:102690000068400EFBD00E48406840F002000C4934
:1026A000486005E00A484068C0F3870505F0030567
:1026B000022DF7D130BD000080FFFF1F08ED00E0C4
:1026C0000000FA0500E100E004E100E000E400E0C1
:1026D0000010024008000140000401400000FFF823
:1026E000FFFFF6FE007000400020024070470B48DC
:1026F00080470B4981F308880A480047FEE7FEE758
:10270000FEE7FEE7FEE7FEE7FEE7FEE7FEE7FEE7A1
:1027100005480649044A064B70470000ED260008AC
:10272000801C00203101000880140020801C002043
:10273000801400203F48806940F001003D498861D5
:102740000846806940F0200088613B48006820F41A
:102750007060394908600846006840F440700860BD
:1027600035480C30006840F0200033490C310860D7
:102770007047324800880A2190FBF1F201FB1200F9
:1027800038B92F48006808B9012000E000202C4922
:102790000860704729480088282803D1002028496C
:1027A000086016E025480088322803D1012024491A
:1027B00008600EE0214800883C2803D10020204911
:1027C000086006E01D480088462802D101201C4907
:1027D000086070471948008818B900201849086037
:1027E00006E016480088642802D1012014490860D8
:1027F000704700B513480078012804D0022805D09E
:10280000032809D105E0FFF7E5FF06E0FFF7C2FF67
:1028100003E0FFF7AEFF00E000BF00BF07480088FD
:10282000401C0649088008460088C82801DB0020B3
:10283000088000BD00100240001401401007002075
:10284000888122420E0700200D48806940F0010077
:102850000B4988610846806940F01000886109488A
:10286000006820F00F00074908600846006840F043
:10287000080008600846C06840F00100C860704762
:10288000001002400010014070B505460C460D488E
:10289000C06940F010000B49C8610B48858504856C
:1028A000808940F00100084988810846008840F08E
:1028B000010008800223362203210120FFF7CEFD0C
:1028C00070BD0000001002400010004055488069B3
:1028D00040F00400534988615348006820F4702098
:1028E000514908604F48806940F400704D49886143
:1028F0000846C06840F40070C8600846C06820F40C
:102900000070C8600846406820F4404048600846AF
:10291000406840F40040486044480068444908402A
:10292000424908600846006808600846006820F4CC
:1029300080700860081D006820F00200091D086012
:102940000846006820F4602008600846006840F4EB
:10295000602008600846006840F48010086008465F
:10296000006820F40060086030482830006820F4D7
:1029700070002E49283108600846006808602B481E
:102980000C30006820F0030028490C31086008462C
:10299000006840F0380008602448001D006840F0DE
:1029A00001002249091D08600846006840F008003F
:1029B000086000BF1D48001D006810F0080FF9D125
:1029C0001A48001D006840F004001849091D0860FD
:1029D00000BF1648001D006810F0040FF9D17047C1
:1029E000014612483030006820F01F000F4A303294
:1029F000106010460068084310600C48001D006815
:102A000040F48000094A121D106000BF0748001FF3
:102A1000006810F0020FF9D004484830006880B216
:102A200070470000001002400008014004240140EB
:102A3000FFFFF0008A488B4948608B484860704728
:102A40008848006940F080008649086170478548E1
:102A5000C16811F0010F01D00120704711F0040F7F
:102A600001D00220F9E711F0100F01D00320F4E7A4
:102A70000020F2E770B5044600BFFFF7E8FF054607
:102A8000012D00D006E00120FFF795FC601E84B206
:102A9000002CF2D100BF04B9FF25284670BD70B5E7
:102AA0000546002445F6FF70FFF7E4FF0446C4B96D
:102AB0006C48006940F002006A49086108464561B7
:102AC000006940F04000086145F6FF70FFF7D2FF53
:102AD0000446012C05D06348006920F002006149DA
:102AE0000861204670BD70B505460E46FF20FFF711
:102AF000C1FF044694B95B48006940F001005949A0
:102B000008612E80FF20FFF7B5FF0446012C05D099
:102B10005448006920F0010052490861204670BD08
:102B20000146088870472DE9F04105460E461746D4
:102B3000002407E036F814102846FFF7D4FFAD1C38
:102B4000601C84B2BC42F5DBBDE8F08130B50346C1
:102B50000C461546002207E01846FFF7E1FF24F86F
:102B600012009B1C501C82B2AA42F5DB30BD2DE93D
:102B7000F05F80468A461746B8F1006F02D33B48A3
:102B8000804501D3BDE8F09FFFF754FFA8F1006B2B
:102B90004FEADB25CBF34909C9F58064A74200DC85
:102BA0003C464EE04FF0006101EBC5204A1430492D
:102BB000FFF7CCFF00260BE009EB06002C4931F8AB
:102BC0001000A0F57F41FF3900D003E0701C86B2F1
:102BD000A642F1DB00BFA6421BDA4FF0006101EB19
:102BE000C520FFF75CFF002608E03AF8160006EB68
:102BF00009011F4A22F81100701C86B2A642F4DBBC
:102C00004FF0006101EBC5204A141949FFF78BFF13
:102C100004E0224651464046FFF785FFA74200D117
:102C200010E06D1C4FF000090AEB440A08EB440861
:102C3000381B87B2B7F5806F02DD4FF4806400E087
:102C40003C46AFE700BFFFF7FBFE00BF9AE713B5B6
:102C50000446012201A92046FFF789FF1CBD0000A0
:102C60002301674500200240AB89EFCD0000080832
:102C7000100800205848806940F0010056498861DA
:102C80000846806940F0080088615448006820F4D4
:102C90007020524908600846006840F440300860DF
:102CA00000204F490860704700204E4908800520E9
:102CB0004D49087070474B4800880A2802D100200F
:102CC000474908607047474800880A2190FBF1F2A5
:102CD00001FB1200012807D14148006808B9012012
:102CE00000E000203E49086070473E480088012807
:102CF00002D13B4908600AE03A480088052806D11D
:102D00000020374908603749088037490870704704
:102D100034480088282803D10120314908601AE08E
:102D200030480088322803D100202D49086012E085
:102D30002C4800883C2803D10120294908600AE07A
:102D400028480088462806D10020254908602549E2
:102D5000088025490870704722480088012802D160
:102D60001F4908600AE01F480088192806D1002082
:102D70001B4908601B4908801B490870704700B553
:102D800019480078062813D2DFE800F0120306097C
:102D90000C0FFFF7E1FF0CE0FFF7BAFF09E0FFF7C8
:102DA000A4FF06E0FFF78FFF03E0FFF784FF00E0DA
:102DB00000BF00BF0B480088002804DD09480088D8
:102DC000401C0849088007480088642802DB00206E
:102DD0000449088000BD000000100240040C0140BE
:102DE000B08121421407002012070020F448C06976
:102DF00040F00100F249C8610846C06940F0040093
:102E0000C8610846806940F008008861ED480068A4
:102E100020F07F40EB4908600846006840F0884099
:102E200008600020E84908804FF6FF70091D0880FF
:102E3000E5482838008820F44070E34928390880A4
:102E40000846008820F060000880DF4810380088BD
:102E500040F00100DC49103908800846008840F441
:102E600080700880D8480838008820F00200D649D1
:102E7000083908800846008820F020000880D248E1
:102E80001038008840F03000CF49103908800846DB
:102E9000008840F440500880CB482038008840F03B
:102EA0000300C94920390880C7482838008840F005
:102EB0000100C549283908807047C148C06940F001
:102EC0000100BF49C8610846C06940F00200C861FE
:102ED0000846806940F004008861BC48006820F022
:102EE0007F40BA4908600846006840F088400860A2
:102EF0000020B74908804FF6FF70091D0880B448CC
:102F00002838008820F44070B149283908800846E4
:102F1000008820F060000880AD481038008840F03C
:102F20000100AB49103908800846008840F48070E1
:102F30000880A7480838008820F00200A449083912
:102F400008800846008820F020000880A04810383B
:102F5000008840F030009E491039088008460088FB
:102F600040F4405008809A482038008840F0030020
:102F700097492039088096482838008840F0010099
:102F800093492839088070478D48C06940F0010096
:102F90008B49C8610846806940F004008861084692
:102FA000806940F0080088618848001D006820F0B2
:102FB00070408649091D08600846006840F080405E
:102FC00008608048006820F470407E490860084628
:102FD000006840F48040086000204FF08041088580
:102FE0004FF6FF7088850846008820F440700880FE
:102FF0000846008820F0600008800846008B40F0FA
:10300000010008830846008B40F48070088308465E
:10301000008C20F0020008840846008C20F020007C
:1030200008840846008B40F0300008830846008B77
:1030300040F4405008830846008940F003000881AE
:103040000846008840F00100088070475C48C0696D
:1030500040F001005A49C8610846806940F40050B8
:1030600088610846806940F010008861594800680E
:1030700020F07F40574908600846006840F08840CB
:1030800008600020544908804FF6FF70091D088031
:1030900051482838008820F440704F49283908806A
:1030A0000846008820F0600008804B4810380088EF
:1030B00040F001004849103908800846008840F473
:1030C0008070088044480838008820F00200424997
:1030D000083908800846008820F0200008803E4813
:1030E0001038008840F030003B491039088008460D
:1030F000008840F44050088037482038008840F06D
:10310000030035492039088033482838008840F0CA
:103110000100314928390880704700B5FFF796FF54
:10312000FFF732FFFFF7C9FEFFF760FE00BD4FF06B
:103130008040808C00B22949088000204FF08041F7
:1031400088842548001F008800B224494880002058
:103150002149091F08801E48001F008800B21F492E
:10316000888000201A49091F08801748001F00881E
:1031700000B21A49C88000201349091F0880184866
:10318000008816490988084400B215490880084695
:10319000408812494988084400B2114948800846CD
:1031A00080880E498988084400B20D498880084605
:1031B000C0880A49C988084400B20949C8807047D4
:1031C00000100240000C01402808004000080140A7
:1031D0002804004000100140283401401E07002050
:1031E00016070020924AD26942F00802904BDA6139
:1031F0001A46926942F004029A618E4A12686FF38D
:103200000F028C4B1A601A4612684BF6BB331A43F6
:10321000884B1A60884A1080121F1180864A143A1F
:10322000128842F06002844B143B1A801A461288BE
:1032300042F4C0421A801A1D128842F060021B1D1F
:103240001A801A46128842F4C0421A801A1F128845
:1032500042F008021B1F1A801A46128842F40062CC
:103260001A801A1D128842F008021B1D1A801A4685
:10327000128842F400621A801A1D128842F001027C
:103280001B1D1A801A46128842F010021A801A4634
:10329000128842F480721A801A46128842F48052D0
:1032A0001A80DA13644B2C3B1A801A46128842F0BB
:1032B00001021A80704700B5012141F29310FFF717
:1032C00091FF00205C4908310880091D0880091D14
:1032D0000880091D08805648806940F01000544954
:1032E00088615648006856490840544908600846B5
:1032F000006854490843514908600846C06840F0D6
:103300003C00C8604A48806940F004004849886130
:103310004A48406820F0FF00484948600846406835
:1033200040F0330048600846C06840F44070C86010
:103330003F48806940F008003D4988614248006884
:1033400020F47F00404908600846006840F44C10B3
:1033500008603D480C30006840F030003A490C31BC
:10336000086000BD30B500280ADD0024374D2C6010
:103370004FF00104364DC5F89041364D28800BE0E2
:103380000124324D2C604FF00004314DC5F89041BE
:10339000C0F100042F4D2C8000290ADD00242E4DA1
:1033A0002C604FF001042A4DC5F888412B4D29802F
:1033B0000BE00124284D2C604FF00004244DC5F88B
:1033C0008841C1F10004254D2C80002A0ADD00242B
:1033D000234D2C604FF00104224DC5F89041224D41
:1033E0002A800BE001241E4D2C604FF000041D4D7F
:1033F000C5F89041C2F100041B4D2C80002B0ADD62
:1034000000241A4D2C604FF00104114DC5F8A44161
:10341000174D2B800BE00124144D2C604FF000045D
:103420000B4DC5F8A441C3F10004114D2C8030BDF3
:1034300000100240000801402C0C00400010014028
:10344000FF0000FF00333300000C014094012242D2
:1034500000002242380C00408C012242340C004013
:103460009481214200802142400C0040A001224270
:103470003C0C0040A448406820F47060A2494860B9
:103480000846406840F44070486000209F4908604A
:103490009F49C1F8A8014FF001009C4908609C4970
:1034A000C1F8A801704700B500229748406820F491
:1034B0007060954948600846406840F40060486084
:1034C0000120944908609249C1F8AC0107E0501C02
:1034D000C2B2FA2A03DDFFF7CDFF012000BD8E48FE
:1034E00000680028F3D18949086000BFF6E710B5ED
:1034F00003468548406820F4706083494860084668
:10350000406840F4407048600020804908600446EC
:1035100012E0D8097F4908604FEA43604FEA106320
:103520004FF001007A49C1F8AC014FF00000774933
:10353000086004F10100C4B2082CEADBFFF7B3FF16
:1035400010BD7148406820F470606F4948600846BB
:10355000406840F44070486001206E4908606C4942
:10356000C1F8AC014FF000006A4908606849C1F831
:10357000AC01704710B50446FFF7E3FF7820FFF772
:10358000B6FF0020FFF7B3FF2046FFF7B0FFFFF7BD
:1035900071FF10BD30B504460D4605F1B001C8B24B
:1035A000FFF7E8FF102141EA1410FFF7E3FF04F0F2
:1035B0000F00FFF7DFFF30BD10B50446FFF7C1FF76
:1035C0007820FFF794FF4020FFF791FF2046FFF798
:1035D0008EFFFFF74FFF10BD70B50646002415E0C3
:1035E00004F1B001C8B2FFF7C5FF0120FFF7C2FF29
:1035F0001020FFF7BFFF002504E03046FFF7DCFF97
:10360000681CC5B2802DF8DB601CC4B2082CE7DB57
:1036100070BD10B54148806940F001003F498861A4
:103620000846806940F0100088613748406820F4FF
:103630007F40354948600846406840F44C50486037
:103640000846C06840F44060C8606420FEF7CEFEC3
:10365000AE20FFF78FFF0020FFF78CFF1020FFF751
:1036600089FF4020FFF786FF8120FFF783FFCF20EF
:10367000FFF780FFA120FFF77DFFC820FFF77AFF4B
:10368000A620FFF777FFA820FFF774FF3F20FFF782
:1036900071FFD320FFF76EFF0020FFF76BFFD520EF
:1036A000FFF768FF8020FFF765FFD920FFF762FF73
:1036B000F120FFF75FFFDA20FFF75CFF1220FFF732
:1036C00059FFDB20FFF756FF4020FFF753FF202074
:1036D000FFF750FF0220FFF74DFF8D20FFF74AFF55
:1036E0001420FFF747FFA420FFF744FFA620FFF7B1
:1036F00041FFAF20FFF73EFF0020FFF76DFF0021E5
:103700000846FFF747FF10BD00100140AC01224200
:1037100000002242A8012242280122420010024059
:103720006848806940F00100664988610846806900
:1037300040F00800886164480068644908406249B4
:10374000086008460068624908435F49086070479E
:1037500070B50546012400205E49487000BF28E08E
:103760002C4203D001205C49086002E000205A4945
:1037700008604FF00100594908604FF00A00FEF759
:103780001AFE00205649C1F8B4010A20FEF713FEC4
:1037900001205349C1F8B4010846D0F8240120B1F2
:1037A0004C48407820434B4948704FF6FF7000EA80
:1037B0004404FF2CD4DD70BD10B5002049490860D9
:1037C00049490878FFF7C4FF47494878FFF7C0FF29
:1037D00001204349C1F8A0013E484078732801D137
:1037E000002010BD0120FCE770B500240125002059
:1037F0003C4908603C490878FFF7AAFF3A494878F5
:10380000FFF7A6FF022425E001251CE00120334933
:1038100008604FF000003249C1F8B4014FF00A00CF
:10382000FEF7C9FD01202E49C1F8B4010846D0F8C1
:10383000240120B12748005D2843264908554FF64A
:10384000FF7000EA4505FF2DE0DD0A20FEF7B3FD1D
:10385000601CC4B2092CD7DB01202249086070BD6E
:10386000002004E000211B4A1154411CC8B2092861
:10387000F8DB704710B5FFF7F3FFFFF7B5FF15480A
:10388000C0781449097940EA0120184908800024C9
:103890000FE0174810F81400401E012101FA00F053
:1038A00012490988084202D1601CC0B210BD601CD8
:1038B000C4B2102CEDDB0020F8E701460548405C5F
:1038C0007047000000100240040C014000FF0F0F81
:1038D0008300303010100020BC812142B48121428D
:1038E00000802142A0812142260700204E070020AF
:1038F0002807002070B5044621460020FFF74AFE45
:10390000002507E0F84901EBC411485DFFF754FEBC
:10391000681CC5B2802DF5DB70BD10B50020FFF727
:10392000E9FF0120FFF7E6FF0220FFF7E3FF032096
:10393000FFF7E0FF0420FFF7DDFF0520FFF7DAFFC8
:103940000620FFF7D7FF0720FFF7D4FF10BD0020A8
:103950000FE0002109E0E54A02EB8012525CE24BE5
:1039600003EBC0135A544A1CD1B24029F3DB421C6A
:10397000D0B20828EDDB704770B503461546802BA2
:1039800000DB70BD402900DBFBE7CC1001F0070233
:10399000D54E06EBC416F05C25B1012D06D0022DE4
:1039A0000ED108E001269640B0430AE00126964079
:1039B0000643F0B205E0012696404640F0B200E032
:1039C00000BF00BFC84E06EBC416F05400BFD8E7D6
:1039D0002DE9FF4F81B0804689461546049801289D
:1039E00003D183464FF0000A03E04FF0000B4FF085
:1039F000010A202D01DB7F2D00DD2025A5F120000F
:103A0000C5B2002437E0002631E005EBC500B84917
:103A100001EB800004EB440106EB8101405C009067
:103A2000002720E0009810F0800F0BD009EB070270
:103A300002EBC402D1B208EB0602D0B25A46FFF73D
:103A40009BFF0AE009EB070202EBC402D1B208EBCC
:103A50000602D0B25246FFF78FFF00984006000ED4
:103A60000090781CC7B2082FDCDB701CC6B20C2E8D
:103A7000CBDB601CC4B2032CC5DB05B0BDE8F08F06
:103A80002DE9FF4F81B080468946154604980128EC
:103A900003D183464FF0000A03E04FF0000B4FF0D4
:103AA000010A202D01DB7F2D00DD2025A5F120005E
:103AB000C5B2002437E0002631E0C5EB05108D4982
:103AC00001EB400004EB840106EB4101405C0090F7
:103AD000002720E0009810F0800F0BD009EB0702C0
:103AE00002EBC402D1B208EB0602D0B25A46FFF78D
:103AF00043FF0AE009EB070202EBC402D1B208EB74
:103B00000602D0B25246FFF737FF00984006000E7B
:103B10000090781CC7B2082FDCDB701CC6B20A2EDE
:103B2000CBDB601CC4B2032CC5DB05B0BDE8F08F55
:103B30002DE9FF4F0746884615460398012803D113
:103B400082464FF0000903E04FF0000A4FF00109F0
:103B5000202D01DB7F2D00DD2025A5F12000C5B241
:103B6000002424E0644800EB051010F804B000269F
:103B700019E01BF0800F08D008EB0402D1B2BA198B
:103B8000D0B25246FFF7F8FE07E008EB0402D1B2CC
:103B9000BA19D0B24A46FFF7EFFE4FEA4B604FEA40
:103BA000106B701CC6B2082EE3DB601CC4B2102C74
:103BB000D8DBBDE8FF8F2DE9FF4F07468846154645
:103BC0000398012803D182464FF0000903E04FF02B
:103BD000000A4FF00109202D01DB7F2D00DD20259B
:103BE000A5F12000C5B2002426E0C5EBC50043497D
:103BF00001EB400010F804B0002619E01BF0800F24
:103C000008D008EB0402D1B2BA19D0B25246FFF77D
:103C1000B3FE07E008EB0402D1B2BA19D0B24A46AB
:103C2000FFF7AAFE4FEA4B604FEA106B701CC6B25A
:103C3000072EE3DB601CC4B20E2CD6DBBDE8FF8F81
:103C40002DE9FF4F0746884615460398012803D102
:103C500082464FF0000903E04FF0000A4FF00109DF
:103C6000202D01DB7F2D00DD2025A5F12000C5B230
:103C7000002426E005EB4500214901EB800010F807
:103C800004B0002619E01BF0800F08D008EB0402F6
:103C9000D1B2BA19D0B25246FFF76EFE07E008EB78
:103CA0000402D1B2BA19D0B24A46FFF765FE4FEA14
:103CB0004B604FEA106B701CC6B2062EE3DB601C33
:103CC000C4B20C2CD6DBBDE8FF8F2DE9FC4F80463B
:103CD0000E4615469B460096BBF1010F12D14FF0E0
:103CE000010A4FF0000911E01910002016560008D3
:103CF0002C860008EC7A0008EC740008AC6F000811
:103D00002C6B00084FF0000A4FF00109202D01DB59
:103D10007F2D00DD2025A5F12000C5B2002427E07D
:103D200005EB8500FE490844005D01900098C6B28D
:103D3000002719E0019810F0010F08D0F219D1B254
:103D400008EB0402D0B25246FFF716FE07E0F21964
:103D5000D1B208EB0402D0B24A46FFF70DFE01983B
:103D600040100190781CC7B2072FE3DB601CC4B27F
:103D7000052CD5DBBDE8FC8F2DE9FF4F85B08046D3
:103D80008A4693464FF000090020029003E0029813
:103D9000401CC0B2029002981BF800000028F6D127
:103DA0000898012803D100900020019003E0002032
:103DB00000900120019000BF1BF80900049009F158
:103DC00001001BF8000003900498802872DD002792
:103DD00017E007EB870000EB4710D24911F81010ED
:103DE000049881420BD107EB870000EB4710CD49C7
:103DF00001EB400041780398814200D103E0781C38
:103E0000C7B2022FE5D300BF00266CE007EB8700A6
:103E100000EB4710C34901EB4000801C06EB460154
:103E2000455C002412E015F0800F01D0009B00E0FB
:103E3000019B1A460AEB0603D9B208EB0403D8B279
:103E4000FFF79AFD6806050E601CC4B2082CEADB79
:103E500007EB870000EB4710B24901EB4000801CE4
:103E600006EB4601491C455C002413E015F0800F69
:103E700001D0009B00E0019B1A460AEB0603D9B271
:103E800008EB04030833D8B2FFF776FD6806050E89
:103E9000601CC4B2082CE9DB07EB870000EB47107D
:103EA000A04901EB4000801C06EB4601891C455CE3
:103EB000002414E022E015F0800F01D0009B00E008
:103EC000019B1A460AEB0603D9B208EB0403103330
:103ED000D8B2FFF751FD6806050E601CC4B2082C6D
:103EE000E9DB701CC6B2182E90DB09F1020000F06D
:103EF000FF0908F1180000F0FF080DE051464046A8
:103F0000089B049AFFF764FD09F1010000F0FF0926
:103F100008F10C0000F0FF0802988145FFF64CAF55
:103F200009B0BDE8F08F2DE9FF4F85B007468A46FE
:103F300093464FF000090020029003E00298401CD5
:103F4000C0B2029002981BF800000028F6D1089831
:103F5000012803D100900020019003E00020009090
:103F60000120019000BF1BF80900049009F1010035
:103F70001BF8000003900498802872DD002613E0EF
:103F8000C6EB4610684911F810100498814209D117
:103F9000C6EB4610644901EB40004178039881422A
:103FA00000D103E0701CC6B2022EE9D300BF002589
:103FB0006CE0C6EB46105C4901EB4000801C05EB51
:103FC000450110F80180002413E018F0800F01D0A3
:103FD000009B00E0019B1A460AEB0503D9B23B198E
:103FE000D8B2FFF7C9FC4FEA48604FEA1068601C7E
:103FF000C4B2082CE9DBC6EB46104B4901EB40008C
:10400000801C05EB4501491C10F80180002414E0D8
:1040100018F0800F01D0009B00E0019B1A460AEBCC
:104020000503D9B23B190833D8B2FFF7A5FC4FEA14
:1040300048604FEA1068601CC4B2082CE8DBC6EB8D
:104040004610394901EB4000801C05EB4501891CF5
:1040500010F80180002415E018F0800F02D0009BBA
:1040600001E01DE0019B1A460AEB0503D9B23B199A
:104070001033D8B2FFF780FC4FEA48604FEA10686F
:10408000601CC4B2042CE7DB681CC5B2142D90DBA5
:1040900009F1020000F0FF0907F11400C7B20CE0BB
:1040A00051463846089B049AFFF7EAFC09F10100E3
:1040B00000F0FF0907F10A00C7B202988145FFF638
:1040C00052AF09B0BDE8F08F2DE9FF4F84B007462D
:1040D00091464FF000080020029003E00298401C37
:1040E000C0B20290029819F800000028F6D1079893
:1040F000012803D100900020019003E000200090EF
:104100000120019000BF19F808A008F1010019F87A
:1041100000000390BAF1800F70DD002518E0000068
:104120004C690008B86800083C68000805EB0510F9
:10413000FB4911F81000504508D105EB051001EBC3
:10414000400041780398814200D103E0681CC5B269
:10415000022DEBD300BF002445E005EB0510F0492C
:1041600001EB4000801C10F814B0002613E01BF097
:10417000800F01D0009B00E0019B1A46059B234461
:10418000D9B2BB19D8B2FFF7F7FB4FEA4B604FEA41
:10419000106B701CC6B2082EE9DB05EB0510E04978
:1041A00001EB4000801C012101EB440110F801B03B
:1041B000002614E01BF0800F01D0009B00E0019B63
:1041C0001A46059B2344D9B2BB190833D8B2FFF76E
:1041D000D3FB4FEA4B604FEA106B701CC6B2082E3F
:1041E000E8DB601CC4B2102CB7DB08F1020000F061
:1041F000FF0807F11000C7B20DE0FFE7524638464E
:10420000079B0599FFF794FC08F1010000F0FF08F7
:1042100007F10800C7B202988045FFF674AF08B0F6
:10422000BDE8F08F2DE9FF4F84B0074691464FF06F
:1042300000080020029003E00298401CC0B20290E7
:10424000029819F800000028F6D10798012803D138
:1042500000900020019003E00020009001200190D8
:1042600000BF19F808A008F1010019F80000039038
:10427000BAF1800F68DD002511E0C5EB0510A949F2
:1042800011F81000504508D1C5EB051001EB4000B6
:1042900041780398814200D103E0681CC5B2092D22
:1042A000EBD300BF002445E0C5EB05109D4901EBB1
:1042B0004000801C10F814B0002613E01BF0800FA3
:1042C00001D0009B00E0019B1A46059B2344D9B214
:1042D000BB19D8B2FFF750FB4FEA4B604FEA106BA7
:1042E000701CC6B2082EE9DBC5EB05108D4901EB49
:1042F0004000801C012101EB440110F801B00026B0
:1043000014E01BF0800F01D0009B00E0019B1A46D7
:10431000059B2344D9B2BB190833D8B2FFF72CFB55
:104320004FEA4B604FEA106B701CC6B2062EE8DBFA
:10433000601CC4B20E2CB7DB08F1020000F0FF08CD
:1043400007F10E00C7B20BE052463846079B0599AD
:10435000FFF731FC08F1010000F0FF08F81DC7B2BB
:1043600002988045FFF67DAF08B0BDE8F08F2DE9DB
:10437000FF4F84B0804692464FF000090020029023
:1043800003E00298401CC0B2029002981AF80000A4
:104390000028F6D10798012803D100900020019051
:1043A00003E0002000900120019000BF1AF809B03E
:1043B00009F101001AF800000390BBF1800F6FDDD6
:1043C000002615E006EB860000EBC600564911F802
:1043D000100058450AD106EB860000EBC60001EB41
:1043E000400041780398814200D103E0701CC6B2BE
:1043F000922EE7D300BF002446E006EB860000EBD8
:10440000C600494901EB4000801C10F814700025DB
:1044100012E017F0800F01D0009B00E0019B1A46CC
:10442000059B2344D9B208EB0503D8B2FFF7A4FAE1
:104430007806070E681CC5B2082DEADB06EB86007D
:1044400000EBC600384901EB4000801C012101EB64
:104450004401475C002513E017F0800F01D0009B5A
:1044600000E0019B1A46059B2344D9B208EB0503E3
:104470000833D8B2FFF780FA7806070E681CC5B279
:10448000042DE9DB601CC4B20C2CB6DB09F1020080
:1044900000F0FF0908F10C0000F0FF080EE0FFE754
:1044A0005A464046079B0599FFF7CAFB09F10100F0
:1044B00000F0FF0908F1060000F0FF0802988145AE
:1044C000FFF674AF08B0BDE8F08FF0B505460E46B4
:1044D00014461F4608E022783B4631462846FFF73F
:1044E000F4FB641CA81DC5B220780028F3D1F0BDF0
:1044F0002DE9F04104460D4616461F46AC4202DD4A
:10450000A8462546444606E03A4631462046FFF78F
:1045100033FA601CC4B2AC42F6DBBDE8F0810000A7
:10452000F8670008EA660008165800082DE9F0410F
:1045300080460C4615461E46AC4202DD2F462546F7
:104540003C4606E0324621464046FFF715FA601C1D
:10455000C4B2AC42F6DBBDE8F0812DE9F04F85B086
:1045600004460D4692469B46DDF8389000200390A5
:104570000290AAEB040007B2ABEB05000FFA80F83B
:10458000002F02DD012001900EE057B909F0FF0372
:104590000BF0FF02E9B2E0B2FFF7C8FF05B0BDE8DB
:1045A000F08F4FF0FF300190B8F1000F02DD0120D5
:1045B00000900EE0B8F1000F08D109F0FF03EAB255
:1045C0000AF0FF01E0B2FFF793FFE7E74FF0FF309B
:1045D0000090381E01DB014600E041420FB2B8F105
:1045E000000001DB014600E041420FFA81F8474537
:1045F00001DD3E4600E0464609F0FF02E9B2E0B2C6
:10460000FFF7BAF90020049025E009F0FF02E9B2B3
:10461000E0B2FFF7B1F90398384400B20390029872
:10462000404400B202900398B04206DD0398801B1C
:1046300000B203900198204404B20298B04206DD13
:104640000298801B00B202900098284405B204989A
:10465000401C00B20490711C04988842D5DD00BF54
:104660009CE72DE9F84180460D4616461F46079CFB
:10467000B04501DCBD4201DDBDE8F8812B46324684
:10468000294640460094FFF768FF3B4632463946CC
:1046900040460094FFF761FF3B46424629464046AC
:1046A0000094FFF75AFF3B463246294630460094B5
:1046B000FFF753FF00BFDFE72DE9F04306460F4643
:1046C0009046B8F11F0F02DCB8F1000F01D1BDE830
:1046D000F083002445464FEA4800C0F103000FFA7A
:1046E00080F958E03A1BD1B2721BD0B20122FFF719
:1046F00043F93A1BD1B27219D0B20122FFF73CF94B
:104700007A19D1B2321BD0B20122FFF735F93A1B28
:10471000D1B2721BD0B20122FFF72EF97A1BD1B2AF
:10472000321BD0B20122FFF727F93A19D1B2721920
:10473000D0B20122FFF720F97A1BD1B23219D0B2E0
:104740000122FFF719F97A19D1B23219D0B2012238
:10475000FFF712F93A19D1B2721BD0B20122FFF75A
:104760000BF9601C04B2B9F1000F05DAA000801D3E
:1047700048440FFA80F907E0601B80000A30484483
:104780000FFA80F9681E05B27A19D1B23219D0B287
:104790000122FFF7F1F8AC42A4DD00BF97E72DE955
:1047A000F04705460E4617469846DDF820A0BD4264
:1047B00001DC464501DDBDE8F0872C460EE0B14640
:1047C00008E0524649462046FFF7D6F809F10100B5
:1047D00000F0FF09C145F4DB601CC4B2BC42EEDB53
:1047E00000BFE8E7024600200BE0002105E0A04BF7
:1047F00003EBC0135A544B1CD9B28029F7DB431C7E
:10480000D8B20828F1DB70472DE9FC4307468846FB
:1048100014461E46DDF824900025002C06DA64427A
:104820002D222846691CCDB20DF80020B4F57A7F00
:104830000FDB4FF47A7094FBF0F00A2190FBF1F259
:1048400001FB12003030C2B22846691CCDB20DF80F
:104850000020632C0EDD642094FBF0F00A2190FB15
:10486000F1F201FB12003030C2B22846691CCDB211
:104870000DF80020092C0EDD0A2094FBF0F00A212F
:1048800090FBF1F201FB12003030C2B22846691CE5
:10489000CDB20DF800200A2094FBF0F100FB11408E
:1048A0003030C2B22846691CCDB20DF8002004E0B9
:1048B00020200DF80500681CC5B2B542F8DB0020C9
:1048C0000DF805004B466A4641463846FFF74FFD56
:1048D000BDE8FC832DE9FC4106460F461546984687
:1048E0000024002D06DA6D422D222046611CCCB238
:1048F0000DF80020B5F57A7F0FDB4FF47A7095FB49
:10490000F0F00A2190FBF1F201FB12003030C2B24C
:104910002046611CCCB20DF80020632D0EDD642012
:1049200095FBF0F00A2190FBF1F201FB1200303010
:10493000C2B22046611CCCB20DF800200A2095FBC3
:10494000F0F00A2190FBF1F201FB12003030C2B20C
:104950002046611CCCB20DF800202E222046611C9E
:10496000CCB20DF800200A2095FBF0F100FB1150AD
:104970003030C2B22046611CCCB20DF8002004E0F9
:1049800020200DF80400601CC4B2052CF8DB0020C8
:104990000DF8040043466A4639463046FFF7E7FC07
:1049A000BDE8FC81FCB506460F4615460024002DE7
:1049B00006DA6D422D222046611CCCB20DF8002093
:1049C000B5F57A7F0FDB4FF47A7095FBF0F00A2192
:1049D00090FBF1F201FB12003030C2B22046611CA4
:1049E000CCB20DF80020632D0EDD642095FBF0F0B5
:1049F0000A2190FBF1F201FB12003030C2B22046D6
:104A0000611CCCB20DF800200A2095FBF0F00A21C1
:104A100090FBF1F201FB12003030C2B22046611C63
:104A2000CCB20DF800202E222046611CCCB20DF82D
:104A300000200A2095FBF0F100FB11503030C2B28B
:104A40002046611CCCB20DF8002004E020200DF8B7
:104A50000400601CC4B2042CF8DB00200DF8040034
:104A600001236A4639463046FFF72FFDFCBD0000A2
:104A700019100020704770477047754600F028F8FD
:104A8000AE4605006946534620F00700854618B03B
:104A900020B5FDF73DFEBDE820404FF000064FF089
:104AA00000074FF000084FF0000B21F00701AC4663
:104AB000ACE8C009ACE8C009ACE8C009ACE8C00982
:104AC0008D4670470446AFF300802046FBF79BFB02
:104AD000004870471C14002001491820ABBEFEE7B7
:104AE000260002007047000021F00042A2F160524F
:104AF000B2F5801F01F0004328BFD2F17F6C0BD9C3
:104B00005FEA001C43EAC20242EB507018BF7047D4
:104B100028BF20F001007047B2F5801FBCBF1846C7
:104B200070474FEA410C1CF5001F02D2084600F006
:104B3000C6BC70B500F074F900000089FFF7F6BF3D
:104B40004FF00040A0F580007047000010B591EADA
:104B5000030F48BF83F0004300F1BE81841A71EB5C
:104B6000030C05D2121943EB0C03001B61EB0C0183
:104B7000DFF824E14FEA1154A4EB135C1EEA430F63
:104B800018BF9EEA445F73D023EA0E03DCF1200EC7
:104B900021EA045143F4801332D322FA0CFE10EBC5
:104BA0000E0023FA0CFE41EB0E01CCF1200E03FAAD
:104BB0000EFE10EB0E0051F10001B1F5801FCCF19B
:104BC000200E32D201EB045112FA0EF2BDE8104071
:104BD00058BF7047401C38BF5FEA420218BF704799
:104BE000002814BF20F0010041F100014FEA410309
:104BF00013F5001F38BF7047A1F1C04100F05EB946
:104C0000012A43EB0302ACF1200CDCF11F0E32BF92
:104C10004FF0000E23FA0CF310EB030041EB0451AC
:104C2000B4EB115FD0D0A1EB045101F5801149081C
:104C30005FEA300001EB04510ED350F1000038BFA1
:104C400012FA0EFE08D1BDE81040C9E7401C38BF7B
:104C50005FEA4202CAD1C3E7BDE810404FEA410310
:104C600013F5001F38BF7047A1F1C04100F026B90D
:104C70009EEA445F08D011EA5E0FBDE8104004BF11
:104C800001F0004100207047BDE8104070B500F011
:104C9000C7F800BF64FBBE3E0000E0FF10F000421A
:104CA00048BF4042B0FA80F310FA03F10AD0C3F1D2
:104CB0001D0303F580634FEA415002EB035202EB00
:104CC000D12170474FF0000070470000DFF848C165
:104CD00070B51CEA111E1EBF1CEA13159EEA0C0FCC
:104CE00095EA0C0F00F06F8081EA030423EA4C136D
:104CF0004EEAD47E21EA4C1141F4801143F4801332
:104D0000AE44A1FB024CA0FB0365AEF17F7E3619D9
:104D100055EB0C05A1FB034C4CF10003A0FB021C5E
:104D200016EB0C06654153F10003094218BF46F02B
:104D3000010613F4007F0BD14FEA03314FEA05302F
:104D4000340341EA155140EA16506FF003020AE0BD
:104D50004FEAC3214FEAC520F40241EA555140EA27
:104D600056506FF0020202EB2E4201EB025585EA2B
:104D7000CE710AD05FEA440C18BF24F0004450F111
:104D8000000041F1000120EAD47040F2FE7C62454F
:104D900000D270BDA84214BF4FF080444FF0404491
:104DA000002E08BF0024BEF1806FA8BFA1F1C04152
:104DB000BDE8704080F282804FF0000001F1C041F8
:104DC00001F0004170479EEA0C0F0CEA131518BF62
:104DD00095EA0C0F06D04FF0000081EA030E0EF0AA
:104DE000004170BD00F01CF88900013E00F007B8DA
:104DF00000F009B84FEA430C5FEA5C5C08D081EA36
:104E0000030100F05BB84FEA410C5FEA5C5CF6D14D
:104E10004FF00000014970470000FF070000F87FD5
:104E20000EF1020E2EF0030E5EF8046B364205D42E
:104E3000012A43EB030515F5001F12D8012841EBA9
:104E4000010C1CF5001F0CD80ED14FEAD17C15F5D2
:104E5000001F0CEB4C0C0CF1020C08BF4CEBD37C8C
:104E600004E04FF0080C01E04FEAD37C0CEB4C055A
:104E700026FA05F606F00706B6F1040C06D20EEB8C
:104E8000860CBDE870404CF0010C6047DFE80CF088
:104E9000090B02024FF000414FF00000A1F5002184
:104EA00070BD19461046012851EB010418BFD4F516
:104EB000001484BF002001F0004170BD0808A0F577
:104EC00000114FEA3101704710B591EA030F48BF56
:104ED00083F000433FF542AE841A71EB030C07D216
:104EE00012198CF0004C43EB0C03001B61EB0C011E
:104EF000DFF8A4E14FEA1154A4EB135C1EEA430F60
:104F000018BF9EEA445F00F0B08023EA6E0352426D
:104F100021EA0451C3EB6E0338BF5B1EDCF1200EA7
:104F200025D322FA0CFE10EB0E0043FA0CFE41EBE7
:104F30000E01CCF1200E03FA0EFE10EB0E0051F123
:104F40000001CCF1200E29D412FA0EF201EB04512B
:104F5000BDE8104058BF7047401C1CBFB2F1004F65
:104F6000704700280CBF491C20F00100704712EB6D
:104F7000020E43EB030218BF4FF0010E4EEA42024D
:104F8000ACF1200CDCF11E0E54D943FA0CFE10EBF0
:104F90000E0051F1FF31CCF11E0ED5D50EF1010EF0
:104FA00012FA0EFE404141EB010101EB445C5FEA65
:104FB0005C5C10D910EBDE7001EB045138BFBEF120
:104FC000004FBDE8104018BF704700280CBF491CB7
:104FD00020F00100704730D24FEAD42C11F50011B7
:104FE00024F400641BD0B1FA81F20B3AA41AA41E77
:104FF000D2F12003914030FA03F31943904001EBC2
:10500000CC71002C01EB0451BDE81040A8BF7047E3
:1050100001F1C0414FF0000001F000417047B0FACB
:1050200080F310FA03F100D110BDE41A173C4805D3
:10503000C90AE4E701EB045110BD491001EB04512A
:10504000BDE810404FEA300002E04FF00001704729
:105050004A0008BF0042F8D0B2F5001F28BF7047D1
:1050600001F000414FF0000070479EEA445F07D016
:1050700011EA5E0FBDE8104004BF00210020704718
:10508000BDE8104070B5FFF7CBFE00BF40DFF63E35
:1050900083F00041104670470000E0FF43004FEAF4
:1050A000D30C4FEA3C0C43401FBF40070CF160514A
:1050B00013F0FE4F70471CF0006F03D100200CF07E
:1050C000004170470CF0004343EA507010B540EACD
:1050D000CC0000F0AEF900BF000000924FEA0001E2
:1050E000FFF7ECBE4FF000414FF00000A1F50021AA
:1050F0007047000090EA010F48BF81F0004100F1C5
:105100001C82421A3CBF801A89184FEAD0524FF0D5
:105110007F4C1CEA410FA2EBD15318BF9CEA026FEF
:1051200000F03B804FF0004C4CEA00204CEA01219B
:1051300021FA03FC10EB0C0C1ED202F1FF325FEAE5
:105140001C2040EBC25038BF70471CF07F0F4FEA65
:10515000400C18BFBCF17F4F38BF7047C3F120032C
:10516000994008BF20F00100BCF17F4F38BF704765
:10517000A0F1C04000F0A3B94FEA3C00000A40EBA8
:10518000C25028BF1CF0FF0F4FEA400CE6D018BFFA
:10519000BCF17F4F38BF7047EAE79CEA026F05D049
:1051A00010EA5C0F08BF00F00040704710B500F037
:1051B00040F900BF64FBBE3E401058BFC0F1404004
:1051C000491058BFC1F140418142EFF30080704760
:1051D00050EA010C00F113801CF5000F58BFBCF51C
:1051E000000F01D48842704707D710F5000F58BF51
:1051F00011F5000F15D488427047894270471CF59D
:10520000000F04D5BCF5000FF7D5814270474FF071
:10521000807C1CEB400F38BF1CEB410F01D2814258
:10522000704710B500F005F9922449004FF0005086
:105230004FF08051FFF7C0BF41000B0ED3F19E022B
:1052400008D950F400034FEA032323FA02F048BFC1
:105250004042704710B500F0ECF800BF499224803E
:10526000002070476FF0004282EA20007047000083
:1052700010F0004148BF4042B0FA80F310FA03F248
:10528000C3F19D030BD051EAC35101EB1220530629
:1052900038BF704700F1010008BF20F001007047DF
:1052A000B0FA80F310FA03F2C3F19D030AD0D905D6
:1052B00001EB1220530638BF704700F1010008BF10
:1052C00020F001007047000050EA010C00F113804B
:1052D0001CF5000F58BFBCF5000F01D48842704781
:1052E00007D710F5000F58BF11F5000F15D48842ED
:1052F0007047894270471CF5000F04D5BCF5000FBC
:10530000F7D5814270474FF0807C1CEB400F38BFCF
:105310001CEB410F01D28142704710B500F089F8B3
:10532000922449004FF000504FF08051FFF744BFE6
:105330004FF47F0C1CEAD0121EBF1CEAD11392EA74
:105340000C0F93EA0C0F00F0478090EA010F48BF62
:1053500042F480724FF0004C4CEA00204CEA0121EC
:1053600002EB0302A0FB0113A2F50002002918BF03
:1053700043F001035B0028BF4FEA330342EB2242B4
:105380005FEA132C4CEBC2502EBFBCEB436FB2F55F
:105390007C0F70474FEA036CBCF1004F08BF20F050
:1053A0000100B2F57C0F38BF70470BD582F0FF02C9
:1053B00012F5803FC8BF704700F1C040D8BF00F071
:1053C0000040704700F5000C5FEA4C0C48BF704786
:1053D000B0F1C04000F073B890EA010F0CEAD113AD
:1053E00048BF42F48072624538BF634504D280EA08
:1053F000010000F00040704710B500F01AF800BF3F
:105400008900013E00F007B800F009B85FEA410CDE
:105410005FEA1C6C08D080EA010000F050B85FEA37
:10542000400C5FEA1C6CF6D14FF00040A0F5800004
:1054300070470EF1020E2EF0030E5EF8044B24426C
:1054400004D44FEA4102B2F17F4F11D84FEA400332
:10545000B3F17F4F0CD80ED14FEAD07CB2F17F4F21
:105460000CEB4C0C0CF1020C08BF4CEBD17C04E0B3
:105470004FF0080C01E04FEAD17C0CEB4C0324FA0E
:1054800003F404F00704B4F1040C06D20EEB840C10
:10549000BDE810404CF0010C6047DFE80CF0070855
:1054A00002024FF00040A0F5800010BD0846420007
:1054B00018BFD2F1807288BF00F0004010BDFF21FC
:1054C00041EAD050C005704751EA000C00F113804A
:1054D0001CF5000F58BFBCF5000F01D48142704786
:1054E00007D711F5000F58BF10F5000F15D48142F2
:1054F0007047894270471CF5000F04D5BCF5000FBA
:10550000F7D5884270474FF0807C1CEB410F38BFC5
:105510001CEB400F01D28842704780EA010081EA0B
:10552000000180EA0100FFF7F8BE000090EA010FD9
:1055300048BF81F000413FF5E4AD421A04D882F043
:105540000042A0EB020011444FEAD0524FF07F4CD2
:105550001CEA410FA2EBD15318BF9CEA026F4AD05C
:105560004FF0004C4CEA00204CEA012121FA03FCE8
:10557000B0EB0C0C0FD412F0FE0F36D05FEA4C00EB
:105580001DD5001240EBC25038BF70471CF03F0FD2
:1055900018BF70470BE0A2F101025FEA1C2040EB4C
:1055A000C25038BF70471CF07F0F18BF7047C3F15F
:1055B0002003994014BF401E20F00100704780086E
:1055C0004FEA122308BF7047B0FA80FCA2EB0C022E
:1055D000CCF1280C60FA0CF093EA122F04BF00EB18
:1055E000C25070474FEAC3707047130A5FEADC107D
:1055F00008BF7047F6E79CEA026F04D010EA5C0F20
:1056000008BF0020704710B5FFF713FF40DFF63EDC
:1056100081F0004070470000000000000000000022
:1056200000000000000000000000C0E0E0E0C0005A
:1056300000000080F8FCFCFCF88000000000C0E0E6
:10564000E0E0C000000000000000000000000000DA
:10565000000000000000000000000000000000004A
:105660000000C0F0F0F0E0E0C0E0F1FFFF7F3F1F7E
:105670001F0F0F0F8FEFFFCF0F0F0F0F1F1F3F7F5A
:10568000FFFFF1E0C0E0E0F0F0F0C000000000003B
:10569000000000000000000000000000000000000A
:1056A00080C0C0C1C3F3FFFFFF1F0701000000C09F
:1056B000E0787C6763616061676E7C7060C08000C9
:1056C0000001071FFFFFFFF3C3C1808080000000BF
:1056D00000000000000000000000000000000000CA
:1056E0000707070F0F3FFFFFFFE08070381E07011D
:1056F00000848E8EC6C6FEFE86868CFC780103066C
:105700001C3800C0FFFFFF3F0F0F07070700000016
:105710000000000000000000000000000000000089
:1057200000000C3E3E3F1F1F0F1F3FFEFCF8F0E045
:10573000E7DFD9D8989898F8F0C1C1C1E0E0F0F857
:10574000FCFE3F1F0F1F1F3F3E3E0C0000000000ED
:105750000000000000000000000000000000000049
:105760000000000000000000000C1E1F3F1F0F077C
:10577000030303077FFFFFFF7F1F7BE3C3030F1FAD
:105780003F3F1E0C00000000000000000000000071
:105790000000000000000000000000000000F0F029
:1057A000303030300080800080000080C0C08080B9
:1057B000000080C0C0808000F0F000000100B0B0A8
:1057C000000080808080800000F0F00080C0C00079
:1057D00000000000000000000000000000001F1F8B
:1057E00003030300001F1F0101000F1F1A1A1A0BE9
:1057F000000F1F1A1A1A0B001F1F181818001F1F5E
:1058000000001F1F01011F1F001F1F070F1D180091
:10581000000000000000B7B403C07C00400040005E
:105820007FC0504050404880450042004D80B060ED
:10583000B5E708000800FF8088808880FF808880A6
:105840008880FF808820082007E0D1B900007FE031
:1058500040004200420042005FC04200428042409D
:105860004200BFE0A3BA00000000000000003000CA
:105870003000000000003000300000000000BBFAE3
:10588000200027802480F480248074806C80A48091
:10589000248024A028A03060D7F308000800FFE08F
:1058A0000800100010001FC02200220042008200E9
:1058B0003FE0D3D204000400FFE00800080010001D
:1058C0001FC03040504090401FC01040CBD98200D4
:1058D0005FE002001FC0D24052405FC047004A80D4
:1058E00052404200BFE0B6C802007FE048807FE03F
:1058F00048804F8040005FC04840448043009CE0A7
:10590000BDC720003F00410082007FC044407FC0EF
:1059100044407FC04440444080C0C6F404000200BC
:105920003FE0202020203FE020003FE030205020BA
:105930005FE09020B6AF01007100010003E0F920A4
:105940002120412051208920FA20022004C0C9E8EA
:105950004780248004800480E86020002FC0244019
:105960002280310022800C60D6C37FC04A407FC0B5
:105970000400FFE004003F802080208024802480F9
:10598000FFE0D6B522002FE042004FC0C8404FC014
:1059900048404FC048404FC048405FE0C6BD00008F
:1059A0007FC004004440244024800400FFE0040041
:1059B000040004000400BAE228004EE092003F0018
:1059C00055E0DF4055405F4044405F404A4051C091
:1059D000D7AA41004100EFC04200A200AFE0F400AE
:1059E00027C03040E68021802040CFF20800100020
:1059F000FFE0802080209F209120912091209F20F7
:105A0000802080E0CDCB4FC028400FC00840EFC0C1
:105A10002A2029402A802C40284050008FE0B3F6ED
:105A200004004440444044407FC0040004008420FB
:105A300084208420FFE00020C4A322802FE0228065
:105A4000F7C0244067C07440A7C021002FE0228027
:105A50002C60CABD014001200100FFE001000100EF
:105A60007D001100108010A01E60E020B4FD110028
:105A7000210047C091002FE06080AFE020802480AB
:105A8000228020802380CEE401007D40012001009F
:105A9000FFE0110011005D00508050A05C60E0202C
:105AA000BABA80005FC0084008408840488004803F
:105AB00005002200450088803060B7C90000FE0064
:105AC000024002800300028002400100012000A089
:105AD00000600020C1EE04000A0011002080C860B0
