:020000040800F2
:10000000000400205B270008692700086B27000810
:100010006D2700086F270008712700080000000006
:10002000000000000000000000000000732700082E
:1000300075270008000000007727000879270008CE
:100040007B2700087B2700087B2700087B27000808
:100050007B2700087B2700087B2700087B270008F8
:100060007B2700087B2700087B2700087B270008E8
:100070007B2700087B2700087B2700087B270008D8
:100080007B2700087B2700087B2700087B270008C8
:100090007B2700087B2700087B2700087B270008B8
:1000A0007B2700087B2700087B2700087B270008A8
:1000B0007B2700087B2700087B2700087B27000898
:1000C0007B2700087B2700087B2700087B27000888
:1000D0007B2700087B2700087B2700087B27000878
:1000E0007B2700087B2700087B2700087B27000868
:1000F0007B2700087B2700087B2700087B27000858
:100100007B2700087B2700087B2700087B27000847
:100110007B2700087B270008191C00087B270008A4
:100120007B2700087B2700087B2700087B27000827
:1001300000F002F800F05EF80AA090E8000C82449B
:100140008344AAF10107DA4501D100F053F8AFF278
:10015000090EBAE80F0013F0010F18BFFB1A43F0A5
:1001600001031847209500004095000010F8013B5E
:100170000A4413F0030408BF10F8014B1D1108BF17
:1001800010F8015B641E05D010F8016B641E01F8C5
:10019000016BF9D1002D15D010F8014B03F00C03C1
:1001A0000C2BA1EB04040ABF10F8013BA4EB831451
:1001B000A4EB032405F1010314F8016B5B1E01F8A5
:1001C000016BF9D5914238BF10F8013BD1D370478C
:1001D0000023002400250026103A28BF78C1FBD850
:1001E000520728BF30C148BF0B6070471FB51FBD05
:1001F00010B510BD04F0C1FC1146FFF7F7FF00F089
:100200000FF804F0DFFC03B4FFF7F2FF03BC04F0C7
:10021000E3FC000030BF72B662B680F30888704716
:10022000092002F03DFA022002F025FA61484068F8
:1002300040F480705F494860012002F01CFA4820B9
:1002400002F0D4F810235C4A5C495D4802F074FB6C
:100250004FF41651242002F081FD03F00CF903F055
:100260003CF800231A461946184603F05BF902F0E1
:1002700097FB01F0E5FE02F06FF801F0E2FF02F0FB
:1002800019F802F017FB02F08BFA02F0D3FD03F02D
:10029000A0FA03F052FB03F036FB00204949088026
:1002A00048808880012048490870482141F2883000
:1002B00002F020FB022045490870012044490880D3
:1002C00076E003F020FB43480078002870D04248D5
:1002D00000780F2829D2DFE800F0080B0E11141562
:1002E00016191C281F232422250000F083F81DE086
:1002F00000F02AFB1AE000F056FD17E000F015FFB1
:1003000014E013E012E001F0E9F80FE001F0D9F990
:100310000CE001F038FB09E001F0EEFB06E000BF65
:1003200000BF00BF00F07CF900E000BF00BF00206C
:100330002849087029480088002804DD27480088DB
:10034000401E26490880042002F0B4FB24490860BE
:100350000846006800EB401000EB400101EBC000D4
:10036000000B1F4908601C48007818B11A48007833
:1003700001281DD11A4800681A49B1F900108842B5
:1003800013D219480088B0F5167F05DA16480088A0
:10039000401C154908800BE00A200F490870002016
:1003A000124908701249086002E000200E490880D6
:1003B00087E7000000000140F013002004480040DF
:1003C00030000240280700200E0000201207002005
:1003D0001407002008070020030000200A00002066
:1003E000040000201000002012000020F40600206D
:1003F0000407002008B5FE48007801287ED10020BF
:1004000004F0E6F9FB480078C0EBC00101EB4010B6
:10041000F9490844F949B1F9001001EB810303EBF4
:10042000C101421801230021182003F096FFF34870
:10043000B0F90000C0EBC000F14901EBC00201239C
:100440000D21002003F089FFEC48B0F90000C0EB5B
:10045000C000EB4901EBC000C21D01230D21422069
:1004600003F07BFFE548B0F90000C0EBC000E449B1
:1004700001EBC00000F10E0201231A21002003F05D
:100480006CFFDE48B0F90000C0EBC000DC4901EBB6
:10049000C00000F1150201231A21422003F05DFF84
:1004A000D648B0F90000C0EBC000D54901EBC00050
:1004B00000F11C0201232721002003F04EFFCF484A
:1004C000B0F90000C0EBC000CD4901EBC00000F165
:1004D000230201232721422003F03FFFC548007873
:1004E000C0EB8010C7490844C449B1F90010C1EB02
:1004F000C10101EB41014218012300E009E0342170
:10050000002003F02AFF0120BF4908700020B849ED
:100510000870BE480078012820D10020BC49C8617D
:100520000861086248620021B948416481638164BE
:10053000C164C166016601674167C0F89410C0F8E4
:100540008810C0F89810C0F89C100B20A9490870BA
:100550000120A74908700020AC490870AB4800781A
:1005600002280CD10020AB490870AB49086001207B
:10057000A04908709E4908700020A4490870012015
:100580000090A648B0F9062005230D21202004F094
:1005900031F901200090A148B0F9042005230D2174
:1005A000622004F027F9012000909C48B0F9002057
:1005B00005231A21202004F01DF9012000909748FE
:1005C000B0F9022005231A21622004F013F994489F
:1005D0002A2102681E2004F0DBF99248007878B9DD
:1005E0008648B0F90000C0EBC000854901EBC000AF
:1005F00000F12A0201232721622003F0AEFE0EE063
:100600007E48B0F90000C0EBC0007D4901EBC0009E
:1006100000F1310201232721622003F09EFE08BD74
:1006200008B57348007801287ED1002004F0D0F886
:1006300070480078C0EBC00101EB40106E490844DF
:100640006E49B1F9001001EB810303EBC1014218BF
:1006500001230021182003F080FE6848B0F9000053
:10066000C0EBC000664901EBC00201230D21002050
:1006700003F073FE6148B0F90000C0EBC0006049B0
:1006800001EBC000C21D01230D21422003F065FED5
:100690005A48B0F90000C0EBC000594901EBC00056
:1006A00000F10E0201231A21002003F056FE5348E8
:1006B000B0F90000C0EBC000514901EBC00000F1EF
:1006C000150201231A21422003F047FE4B48B0F9DE
:1006D0000000C0EBC0004A4901EBC00000F11C0261
:1006E00001232721002003F038FE4448B0F9000020
:1006F000C0EBC000424901EBC00000F1230201231E
:100700002721422003F029FE3C48B0F90000C0EB4D
:10071000C00000EB40013B483F300A180123342160
:10072000002003F01AFE00E00AE0022036490870BB
:100730000120384908700020374908602C490870AA
:1007400032480078012815D100203249087032491A
:10075000086028480078401C264908700846007840
:100760000C2801D1002008700120214908700020C8
:1007700026490870012000902848B0F9062005237A
:100780000D21202004F036F8012000902348B0F914
:10079000042005230D21622004F02CF80120009094
:1007A0001E48B0F9002005231A21202004F022F869
:1007B000012000901948B0F9022005231A21622077
:1007C00004F018F816482A2102681E2004F0E0F808
:1007D0001448007840BB0948B0F90000C0EBC000E5
:1007E000074901EBC00000F12A02012327211CE088
:1007F0000E00002003000020150000200C00002047
:100800005E020020060300200E07002002000020E8
:1008100050070020F4060020040700201E070020D7
:10082000040000202607002003E0622003F095FD6D
:100830000EE0F948B0F90000C0EBC000F74901EB49
:10084000C00000F1310201232721622003F085FD61
:1008500008BD10B50446012C06D101233E220F210C
:10086000002003F028FA05E0012320220F210020B8
:1008700003F021FA022C06D101233E221C21002084
:1008800003F019FA05E0012320221C21002003F0C7
:1008900012FA032C06D101233E222921002003F065
:1008A0000AFA05E0012320222921002003F003FA9F
:1008B000042C06D101233E223621002003F0FBF94F
:1008C00005E0012320223621002003F0F4F9052C55
:1008D00006D101233E220F21452003F0ECF905E06B
:1008E000012320220F21452003F0E5F9062C06D133
:1008F00001233E221C21452003F0DDF905E0012300
:1009000020221C21452003F0D6F9072C06D1012313
:100910003E222921452003F0CEF905E001232022C3
:100920002921452003F0C7F9082C06D101233E22D6
:100930003621452003F0BFF905E0012320223621AE
:10094000452003F0B8F910BD10B5B548007801286E
:100950007DD1002003F03CFFB2480078C0EBC0011D
:1009600001EB4010B0490844AB49B1F9001001EB6C
:10097000810303EBC101421801230021182003F079
:10098000ECFCA548B0F9000000EB400101EBC00011
:10099000A64901EBC00201230D21062003F0DDFC76
:1009A0009D48B0F9000000EB400101EBC0009F49F9
:1009B00001EBC00000F10B0201230D214B2003F0DD
:1009C000CCFC9548B0F9000000EB400101EBC00001
:1009D000964901EBC00000F1160201231A210620FE
:1009E00003F0BBFC8C48B0F9000000EB400101EBC8
:1009F000C0008E4901EBC00000F1210201231A2141
:100A00004B2003F0AAFC8448B0F9000000EB400141
:100A100001EBC000854901EBC00000F12C0201236D
:100A20002721062003F099FC7B48B0F9000000EB79
:100A3000400101EBC0007D4901EBC00000F137022D
:100A4000012327214B2003F088FC734800E02DE0B0
:100A5000B0F9000000EB400101EBC000734901EB6D
:100A6000C00000F1420201233421062003F075FC8E
:100A70006948B0F9000000EB400101EBC0006B4990
:100A800001EBC00000F14D02012334214B2003F0A3
:100A900064FC032066490870012066490870002044
:100AA00065490860654908605D49087062480068EA
:100AB00096280CDD0020604908605E480078401EE2
:100AC0005C4908700846007808B9082008705A4840
:100AD000006810F1960F0DDA00205749086055485C
:100AE0000078401C5349087008460078092801D155
:100AF000012008704F4800780A2878D2DFE800F01B
:100B0000B805182B3E516478B8A64D4800780128E6
:100B10000DD100204B4908704B4908600220414923
:100B2000087001203E490870002045490870A0E087
:100B30004348007801280DD10020424908704249FD
:100B400008600320374908700120354908700020EB
:100B50003B4908708DE03A48007801280DD100200B
:100B6000384908703849086004202E49087001206F
:100B70002B4908700020324908707AE0304800782C
:100B800001280DD100202F4908702F490860052049
:100B90002449087001202249087000202849087063
:100BA00067E02748007801280DD10020254908700A
:100BB0002549086006201B49087001201849087063
:100BC00000201F49087054E01D48007801280DD10D
:100BD00000201C4908701C49086007201149087052
:100BE00001200F49087000201549087041E03FE0DE
:100BF0001348007801280DD10020124908701249CD
:100C00000860082007490870012005490870002085
:100C10000B4908702DE000000C0000205E0200204F
:100C20000E00002003000020150000208403002097
:100C30000E07002008000020FC060020000700200E
:100C400002000020F406002004070020FA48007883
:100C500001280CD10020F9490870F9490860F949C8
:100C600008700120F84908700020F349087000E07E
:100C700000BF00BFF5480078FFF7EBFD10BD10B5D1
:100C8000002409E004F10A00C2B201236A211620FF
:100C900003F024FC601CC4B2102CF3DBEC48B0F968
:100CA0000000C0EB0010EB4901EB800200231A2189
:100CB000162003F052FB1C2409E004F10A00C2B222
:100CC00001236A21162003F009FC601CC4B22C2CFD
:100CD000F3DB10BD38B5E049086804F0EFFB0446CB
:100CE000DA480078012801D0012000E00020032329
:100CF00022460D210090242003F07CFDD64988680F
:100D000004F0DCFB0446D1480078022801D0012021
:100D100000E00020032322460D210090482003F02C
:100D200069FDCD49486904F0C9FB0446C74800780D
:100D3000032801D0012000E00020032322460D21DA
:100D400000906C2003F056FDC0480078042801D0C4
:100D5000012000E000200346BD48B0F9000000EB90
:100D6000C00101EB0010BD49084400F10F0234211D
:100D7000062003F0F2FAB5480078052801D00120DA
:100D800000E000200346B248B0F9000000EBC001CB
:100D900001EB0010B149084400F114023421622033
:100DA00003F0DBFA38BD10B5A748007801283CD124
:100DB000002003F00DFDA3480078C0EBC00101EB5B
:100DC0004010A7490844A249B1F9001001EB810382
:100DD00003EBC101421801230021182003F0BDFAE2
:100DE0009B48B0F9000000EBC00101EB00109B49EB
:100DF000421801230D21002003F0AFFA012399A22C
:100E00000D21182003F0A9FA01F0C3F9FFF762FFE2
:100E100003209949087001208C49087000209749E7
:100E200008609749086088490870944800689628C7
:100E30000CDD00209149086084480078401E8349F9
:100E400008700846007808B9052008708B480068CB
:100E500010F1960F0DDA0020884908607B48007871
:100E6000401C7A49087008460078062801D1012004
:100E70000870FFF72FFF7548007806287ED2DFE85C
:100E800000F0AA032C5580987D48006864280ADD8C
:100E9000714908684FF07E5104F0ACF96E49086062
:100EA0000020774908607648006810F1640F10DA76
:100EB00069490868002104F069FC07D2664908689E
:100EC0004FF07E5104F09EFC6349086000206C499D
:100ED000086000206B4908807EE06948006864284B
:100EE0000ADD5D4988684FF07E5104F083F95A4964
:100EF00088600020624908606148006810F1640F52
:100F000010DA55498868002104F040FC07D25249A4
:100F100088684FF07E5104F075FC4F4988600020CE
:100F20005749086000205749088055E05448006838
:100F300064280ADD484948694FF07E5104F05AF9A7
:100F40004549486100204E4908604D48006810F14D
:100F5000640F10DA40494869002104F017FC07D2F9
:100F60003D4948694FF07E5104F04CFC3A494861D4
:100F70000020434908600020424900E02BE008803F
:100F80002AE02D480078012812D101F0D5F8FFF7AA
:100F900076FE01F00DFA00202A49087001202A4946
:100FA000087000202449087024490870244908600A
:100FB00012E02148007801280CD100201F49087058
:100FC0001F4908601F49087001201F490870002050
:100FD0001949087000E000BF00BF10BD10B50446FD
:100FE0002948C068401C0BD1012C01D0012000E031
:100FF0000020034625A20D21242003F0AEF90AE0CB
:10100000012C01D0012000E00020034621A20D2187
:10101000242003F0A2F91C488068401C3ED1032C18
:1010200001D0012000E00020034618A20D21662017
:1010300003F093F93EE0000002000020F4060020D7
:1010400004070020030000200E00002008000020FC
:101050000C000020D7040020500700208C04002042
:101060001500002050A3BA20202049A3BA20202038
:1010700044A3BA20200000000E070020FC06002038
:10108000000700200000002040070020D5FDCFF21F
:1010900000000000B7B4CFF200000000032C01D024
:1010A000012000E000200346AFF218020D21662067
:1010B00003F053F9FA480068401C0CD1022C01D00F
:1010C000012000E000200346AFF240021A21242054
:1010D00003F043F90BE0022C01D0012000E00020D6
:1010E0000346AFF250021A21242003F036F9EC48EF
:1010F0004068401C0CD1042C01D0012000E00020ED
:101100000346AFF278021A21662003F026F90BE0BD
:10111000042C01D0012000E000200346AFF28C0235
:101120001A21662003F019F910BD10B5DD480078CA
:10113000012863D1002003F04BFBDB480078C0EBB3
:10114000C00101EB4010D9490844D949B1F9001058
:1011500001EB810303EBC101421801230021182098
:1011600003F0FBF8D248B0F90000C0EBC000D14951
:1011700001EBC00201230D21002003F0EEF8CC4862
:10118000B0F90000C0EBC000CA4901EBC000C21DAD
:1011900001230D21422003F0E0F8C548B0F900001A
:1011A000C0EBC000C34901EBC00000F10E020123F7
:1011B0001A21002003F0D1F8BD48B0F90000C0EBBF
:1011C000C000BC4901EBC00000F1150201231A2147
:1011D000422003F0C2F801F0BFF8B7480078FFF7EB
:1011E000FDFE0320B54908700120B34908700020B6
:1011F000B3490860B3490860AA490870B04800685C
:1012000096280CDD0020AE490860AB480078401EEF
:10121000A94908700846007808B906200870A8484F
:10122000006810F1960F0DDA0020A5490860A24869
:101230000078401CA049087008460078052801D1B4
:10124000012008709C480078FFF7C8FE9A48007893
:10125000072871D2DFE800F0EE04336292C1DC00AF
:1012600098480068642810DD01F0FEFD8C48C068D5
:10127000401C03D101208A49C86003E04FF0FF30D1
:101280008749C86000208F4908608E48006810F1C7
:10129000640F10DA01F0E8FD8148C068401C03D1FA
:1012A00001207F49C86003E04FF0FF307C49C860EF
:1012B000002084490860002083490880BBE0814801
:1012C0000068642810DD01F0CFFD75480068401CFF
:1012D00003D101207249086003E04FF0FF307049EC
:1012E00008600020774908607648006810F1640FB4
:1012F00010DA01F0B9FD6A480068401C03D10120F2
:101300006749086003E04FF0FF306549086000203E
:101310006C49086000206C4908808CE069480068CE
:10132000642811DD01F0A0FD5D488068401C04D1F7
:1013300001205B49886004E07CE04FF0FF305849B1
:10134000886000205F4908605E48006810F1640F03
:1013500010DA01F089FD52488068401C03D1012059
:101360004F49886003E04FF0FF304D49886000200E
:10137000544908600020544908805CE051480068E6
:10138000642810DD01F070FD45484068401C03D121
:1013900001204349486003E04FF0FF304049486076
:1013A0000020484908604748006810F1640F10DACF
:1013B00001F05AFD3A484068401C03D101203849E9
:1013C000486003E04FF0FF303549486000203D4958
:1013D000086000203C4908802DE03C480078012846
:1013E00015D100F087FFFFF74AFC642001F034F8C4
:1013F00000F0DEFF00202C49087001202949087008
:10140000002032490870324908703249086012E001
:101410002E48007801280CD100202D4908702D4954
:1014200008602149087001201E49087000202749E2
:10143000087000E000BF00BF10BD10B50446012CCD
:1014400006D1012324A20D21062002F086FF06E02A
:101450000123AFF2E0320D21062002F07EFF022CC4
:1014600006D101231CA21A21062002F076FF06E015
:101470000123AFF200421A21062002F06EFF032C76
:1014800006D1012314A22721062002F066FF06E000
:101490000123AFF220422721062002F05EFF10BD9B
:1014A000400700200E00002003000020150000204F
:1014B0000C0000205E020020080000200E07002023
:1014C000FC06002000070020000000200200002091
:1014D000F4060020040700203E00000010B5F94883
:1014E0000078012836D1002003F072F9F648007820
:1014F000C0EBC00101EB4010F4490844F449B1F9D4
:10150000001001EB810303EBC1014218012300210C
:10151000182002F022FF0123EEA20D21182002F074
:101520001CFF0123EEA21A21182002F016FF01234E
:10153000EEA22721182002F010FF0320ED490870C9
:101540000120ED4908700020EC490860EC49086072
:10155000DC490870E948006896280CDD0020E7495E
:101560000860E5480078401EE349087008460078A6
:1015700008B903200870E148006810F1960F0DDAF1
:101580000020DE490860DC480078401CDA49087019
:1015900008460078042801D101200870D648007858
:1015A000012804D002281ED0032856D138E0D5489F
:1015B0000078012816D10020D3490870D34908606B
:1015C000C349088000F024FE642000F045FF00F0CD
:1015D000EFFE0020BC4908700120BA4908700020C5
:1015E000C84908703AE0C7480078012817D10020A0
:1015F000C5490870C54908600120B549088000F058
:1016000007FE642000F028FF00F0D2FE0020AE4963
:1016100008700120AB4908700020BA4908701DE02D
:10162000B8480078012817D10020B7490870B74999
:1016300008600220A649088000F0EAFD642000F05E
:101640000BFF00F0B5FE00209F49087001209D4966
:1016500008700020AB49087000E000BF00BFA6483A
:101660000078FFF7EAFE10BD10B5002409E004F190
:101670000A00C2B201236A21162002F02FFF601C6B
:10168000C4B2102CF3DB9248B0F90000C0EB00109C
:101690009F4901EB800000F11E0200231A21162051
:1016A00002F05BFE1C2409E004F10A00C2B201232F
:1016B0006A21162002F012FF601CC4B22C2CF3DB4E
:1016C00010BD10B57F480078012831D1002003F00B
:1016D0007FF87D480078C0EBC00101EB40107B49EA
:1016E00008447B49B1F9001001EB810303EBC10110
:1016F000421801230021182002F02FFE7448B0F98F
:10170000000000EB8000834901EB800201231A21D5
:10171000032002F022FE032076490870012076495A
:1017200008700020754908607549086065490870AF
:101730007248006896280CDD0020704908606E48E9
:101740000078401E6C4908700846007808B90220ED
:1017500008706A48006810F1960F0DDA002067499A
:10176000086065480078401C6349087008460078A6
:10177000032801D1012008705F480078012802D0B9
:1017800002287DD12FE05F48007801280CD100208D
:101790005D4908705D4908604B490870012049495E
:1017A00008700020574908704948B0F90000022825
:1017B0000CDA002358A234211E2002F0CEFD0123B2
:1017C00056A23421562002F0C8FD0BE0002354A29B
:1017D00034211E2002F0C1FD012352A234215320E6
:1017E00002F0BBFDA5E04748007801284AD14FF040
:1017F00083404D490860002088604FF08140486177
:101800004FF0834088620021474801634FF08141D7
:10181000C1634FF083404449086500214248816517
:101820004FF0814141664FF083403F498867002176
:101830003D48C0F880104FF08141C0F88C10012065
:101840003A49086048608860C860002020490880E4
:1018500000F072FC00F04EFDFFF706FF642000F080
:10186000FBFD00F0A5FD002027490870274908600E
:10187000154908700120134908700020214900E033
:1018800056E008701248B0F9000002280CDA012373
:1018900021A234211E2002F060FD00231FA234216A
:1018A000562002F05AFD0BE001231DA234211E2018
:1018B00002F053FD00231BA23421532002F04DFD02
:1018C00037E000000E00002003000020150000207B
:1018D0000C000020BCF2CCE5D6D0CEC40000000045
:1018E000B7B1F377D6D0CEC400000000456E676C68
:1018F000697368000E07002008000020FC06002025
:101900000007002002000020F40600200407002049
:10191000D7040020B7060020B7F10000CAC70000B6
:101920004E4F00005945530050070020400700204B
:1019300000BF00BF10BD10B58D480078012801D050
:10194000012000E0002003468A48B0F90020112160
:10195000582002F0B5FF86480078032801D0012006
:1019600000E0002003468448B0F9000000EBC0010D
:1019700001EB00108149084400F10F0234210620D8
:1019800002F0EBFC10BD10B57D480078012828D18D
:10199000002002F01DFF7B480078C0EBC00101EB86
:1019A0004010794908447449B1F9001001EB8103F2
:1019B00003EBC101421801230021182002F0CDFCE5
:1019C00000F078FCFFF7B7FF032070490870012092
:1019D0006749087000206E4908606E4908606849D0
:1019E00008706B48006896280CDD00206849086084
:1019F0005F480078401E5E4908700846007808B9C4
:101A0000042008706248006810F1960F0DDA00207B
:101A10005F49086056480078401C554908700846E0
:101A20000078052801D101200870FFF784FF504895
:101A30000078012806D002282DD003282CD00428B5
:101A400057D144E05348006864280DDD4948B0F997
:101A50000000782805DA47480088401C00B2454954
:101A6000088000204B4908604A48006810F1640F64
:101A70000DDA4048B0F90000462805DD3D480088F1
:101A8000401E00B23B490880002042490860002007
:101A9000414908802EE02DE040480078012815D10A
:101AA00000F0EFFBFFF7EBF8642000F0D5FC00F04E
:101AB0007FFC002033490870012031490870002064
:101AC00036490870364908703649086012E03348D4
:101AD000007801280CD10020314908703149086094
:101AE0002849087001202649087000202B490870F9
:101AF00000E000BF00BF10BD10B5002409E004F1F4
:101B00000A00C2B201236A21162002F0E7FC601C21
:101B1000C4B2102CF3DB1848B0F90000C0EB001081
:101B2000214901EB800000F12D0200231A2116202B
:101B300002F013FC1C2409E004F10A00C2B20123E4
:101B40006A21162002F0CAFC601CC4B22C2CF3DB04
:101B500016480088801E154908800846008828B964
:101B600000200849087001200549087010BD0000D8
:101B700008000020100000200C0000208C04002031
:101B80000E00002003000020150000200E0700209A
:101B9000FC060020000700200000002002000020BA
:101BA000F406002004070020D704002012000020C3
:101BB00070B506460D4614462946304603F0E6FD4C
:101BC00001D2284670BD2146304603F0DFFC01D229
:101BD0002046F7E73046F5E710B543420B4413447F
:101BE000FE4C24686343FE4C2360431A1344FB4CB1
:101BF000A4686343FA4CA36043425B1A1344F74C56
:101C000064686343F64C636043181344F34CE46820
:101C10006343F34CE36010BD2DE9FF5FF148008A98
:101C200010F0010F7DD002F01BFFEF48B0F9040067
:101C3000444204EBD4735A10EB4BB3F900305942D1
:101C4000E94BB3F902305842FFF7C6FFE748007886
:101C5000401CE64908700846007804287ED1002020
:101C6000087001F044FBE2480078002877D000209B
:101C7000E04908700EE1E048DE49097830F91100CA
:101C8000D749DC4A127851F82210401AD94909780C
:101C900001EB8101D94A02EBC1010862D5490978FB
:101CA00001EB810102EBC101086A03F043FC044629
:101CB000D048007800EB8000D04A52F8301020461F
:101CC00003F098FCCB49097801EB8101CB4A02EB88
:101CD000C1014860C749097801EB810102EBC101EC
:101CE000086A03F05BF804460D46C249097801EB27
:101CF0008101C24A02EBC101886803F04FFA8046B5
:101D0000BF4AC04B03F062F8064622462B4603F05A
:101D10005DF882468B46B749097801EB8101B74AE5
:101D200000E02EE102EBC101086903F037FA5246E8
:101D30005B46CDE9000102F089FFCDE9020102F026
:101D400053FFAC49097801EB8101AC4A02EBC101B8
:101D50000861A849097801EB810101E0F2E0B9E0EE
:101D600002EBC101A84A0869A849FFF721FFA14970
:101D7000097801EB8101A14A02EBC10108619D498B
:101D8000097801EB810102EBC101096A994A1278D5
:101D900002EB8202994B03EBC202526A881A02F0EC
:101DA000FDFF04460D469349097801EB8101934AF2
:101DB00002EBC101486903F0F1F98046904A914B6A
:101DC00003F004F8064622462B4602F0FFFF824647
:101DD00002F00AFF8749097801EB8101874A02EB8B
:101DE000C10188618348007800EB8000114601EB57
:101DF000C000006A7F49097801EB810102EBC10153
:101E000048627C4A127802EB82027C4B03EBC202EE
:101E10001169784A127802EB820203EBC202506821
:101E200003F0E8F905467348007800EB8000734A38
:101E300002EBC0008169284603F0DCF904466D48D6
:101E4000007800EB80006D4A02EBC000C1692046BB
:101E500003F0D0F96749097801EB8101674A02EB89
:101E6000C101C8616349097801EB810102EBC1013D
:101E7000674AC8696749FFF79BFE5E49097801EB2D
:101E800081015E4A02EBC101C8615A480078401CDA
:101E900058490870574800780428FFF6ECAE5749B7
:101EA000D1F8940003F00AFB04465449C86E03F0CD
:101EB00005FB05465149486C03F000FB06464F49B7
:101EC000C86903F0FBFA074623462A46314601F06B
:101ED00029FB05E000231A461946184601F022FBAB
:101EE0004548B0F900004C49096808444A4908606F
:101EF0004148B0F902004949096808444749086067
:101F00004548006841F28831884202DD084642496E
:101F10000860414800684249884202DA08463E4962
:101F200008603E48006841F28831884202DD084678
:101F30003A490860394800683949884202DA084657
:101F40003649086000F0FBFF00F089FC3548006866
:101F5000401C3449086008460068FA2801D3002074
:101F600008600120304908703048006850B9304896
:101F70000088B0F5967F28DA2D480088401C2C494F
:101F8000088022E02A4800881E280DDD28480088A5
:101F9000B0F5967F08DA012026490870032026490B
:101FA000087001202549088021480088B0F5967FF7
:101FB00008D102201F49087003201F490870012022
:101FC0001E49088000201A4908800648008A20F02F
:101FD000010004490882BDE8FF9F0000400700207F
:101FE000300700200010004028070020F8060020DD
:101FF000F4060020F50600201E07002050070020F0
:102000009A9999999999A93F000048C300004843BB
:1020100000B88FC500B88F45FC06002000070020DF
:1020200078ECFFFF0407002008070020000122428F
:1020300000000020020000201207002014070020EA
:1020400010B500F0A6F838490868384903F002FADC
:102050000BD035498868354903F0FCF905D0324981
:102060004869324903F0F6F939D14FF083402E49DF
:102070000860002088604FF0814048614FF0834045
:1020800088620021284801634FF08141C1634FF00D
:102090008340254908650021234881654FF081412F
:1020A00041664FF083402049886700211E48C0F8F0
:1020B00080104FF08141C0F88C1001201C4908604D
:1020C00048608860C86000201A49088000F034F831
:1020D00000F010F9642000F0BFF900F069F9002069
:1020E000114908610021104881630166C0F8881019
:1020F00000200D49C86100210B484164C166C0F849
:102100009410002008490862002107488164016793
:10211000C0F8981000200449486200210248C164B8
:102120004167C0F89C1010BD5007002000FF7F479A
:10213000400700200C00002010B586B000240A22C1
:1021400001A9A44800F06CFDA349086803F0B6F9A2
:1021500082B22146641C01A820F811209E4988689B
:1021600003F0ACF982B22146641C01A820F81120CA
:102170009949486903F0A2F982B22146641C01A87A
:1021800020F811200A2201A9924800F05AFD06B059
:1021900010BD10B586B000240A2201A98D4800F0B8
:1021A0003FFD2246641C01A931F8120003F0DAF960
:1021B000894908602246641C01A931F8120003F025
:1021C000D1F9854988602246641C01A931F81200C2
:1021D00003F0C8F9804948610846006888620846EB
:1021E000816801638168C16300687B4908650846AE
:1021F000816881654169416600687749886708465A
:102200008168C0F880104169C0F88C1006B010BD1C
:1022100010B586B000240A2201A96E483C3000F0B7
:10222000FFFC6E48008882B22146641C01A820F899
:1022300011200A2201A967483C3000F002FD06B0D7
:1022400010BD10B586B000240A2201A961483C30B7
:1022500000F0E6FC2146641C01A830F8110000B231
:102260005E4908800846B0F90000022804DC0846F0
:10227000B0F90000002802DA00205849088006B0B2
:1022800010BD10B586B000240A2201A9514846307D
:1022900000F0C6FC5248008882B22146641C01A8A6
:1022A00020F811200A2201A94A48463000F0C9FC52
:1022B00006B010BD10B586B000240A2201A9454819
:1022C000463000F0ADFC2146641C01A830F8110036
:1022D00000B2434908800846B0F90000782804DCC1
:1022E0000846B0F90000412802DA46203C4908803F
:1022F00006B010BD1CB5042269463648283000F0EF
:102300008FFC38480068012801D0012000E000203F
:10231000ADF8000033484068012801D0012000E0FA
:102320000020ADF802002F488068012801D001206C
:1023300000E00020ADF804002A48C068012801D060
:10234000012000E00020ADF8060004226946214883
:10235000283000F076FC1CBD1CB5042269461D48DF
:10236000283000F05DFCBDF8000008B9012001E054
:102370004FF0FF301B490860BDF8020008B901208A
:1023800001E04FF0FF3017494860BDF8040008B97C
:10239000012001E04FF0FF3012498860BDF80600CF
:1023A00008B9012001E04FF0FF300E49C8601CBDA4
:1023B00010B50D48006820F008000B4908604FF484
:1023C000617000F049F80848006840F008000649CC
:1023D000086010BD28D00008500700200C00002025
:1023E0001000002040070020000401404FF0E021D1
:1023F000096921F004014FF0E0221161C21700EBDE
:102400005272D210224B1A701946097801EB410220
:10241000C2EBC1114FF6FF7202EAC1011D4A1180E1
:10242000704701461A4A12784A434FF0E0235A6136
:1024300000229A6101221A6100BF4FF0E022106968
:1024400010F0010F02D010F4803FF6D000224FF0C0
:10245000E0231A619A61704701460E4A12884A4386
:102460004FF0E0235A6100229A6101221A6100BFF5
:102470004FF0E022106910F0010F02D010F4803FFD
:10248000F6D000224FF0E0231A619A6170470000F5
:102490000A0700200C070020A24A0A400243A24B70
:1024A0001A6070470146072323EA010212029E4B7D
:1024B0001B1D18684FF6FF0318409C4B1843104330
:1024C000994B1B1D186070472DE9F041074688465F
:1024D00014461D462846FFF7E5FFC5F1040007FA3C
:1024E00000F60F20284100EA0800064306F00F0618
:1024F000202C0CDA8E4800684FF0010101FA04F13B
:1025000040EA01004FF0E021C1F800010DE08948E8
:102510000068A4F120014FF0010202FA01F240EA42
:1025200002004FF0E021C1F804018348005D40EA59
:102530000610C1B280480155BDE8F08170B504466F
:102540000B46CE1701EB9676B010CE1701EB9676C0
:10255000B610A1EB8606B606350E784B9B6943F0A4
:102560000103764EB3614FEAB63353F820300F269D
:10257000AE40B343724E46F82030334653F8203015
:1025800004FA05F633436E4E46F820306D4B1E6854
:1025900001238B401E436B4B1E6012F0010F08D0CD
:1025A000684B0C331B6801268E403343654E0C3656
:1025B000336012F0020F08D0624B08331B6801260B
:1025C0008E4033435F4E0836336070BD00B5002047
:1025D0005A490861C8601420486100208861C861B8
:1025E0000846006840F00100086008464068564907
:1025F00008405249486008460068544908404F491D
:1026000008600846006820F480200860084640689A
:1026100020F4FE0048600020886000214FF0006038
:10262000FFF73AFF00BD10B53F480830006840F0A2
:1026300004003D49083108604048C06940F08050BE
:102640003E49C8614248406840F480704049486053
:102650000846006840F0040008600846006840F042
:1026600002000860FDF7D6FD10BD3048001D2E4960
:10267000091D0860704701464906304A926942F0D8
:1026800001022E4B9A612E4A083A526822F0E0620B
:102690002B4B083B5A601A4652680A435A607047EF
:1026A00030B504460025FFF791FF2448006840F448
:1026B00080302249086000BF20480068400CFBD0F1
:1026C0004FF480601D494860A01EC4B208464068AF
:1026D00040EA844048600846406840F480304860E2
:1026E0001C48006840F032001A490860134800682E
:1026F00040F080701149086000BF10480068400E2B
:10270000FBD00E48406840F002000C49486005E0EC
:102710000A484068C0F3870505F00305022DF7D18C
:1027200030BD000080FFFF1F08ED00E00000FA054B
:1027300000E100E004E100E000E400E000100240FD
:1027400008000140000401400000FFF8FFFFF6FE12
:10275000007000400020024070470B4880470B4942
:1027600081F308880A480047FEE7FEE7FEE7FEE738
:10277000FEE7FEE7FEE7FEE7FEE7FEE7054806495F
:10278000044A064B7047000059270008601C0020CF
:102790003101000860140020601C0020601400203B
:1027A0003F48806940F001003D49886108468069E2
:1027B00040F0200088613B48006820F4706039498F
:1027C00008600846006840F44070086035480C30E6
:1027D000006840F0200033490C31086070473248EF
:1027E00000880A2190FBF1F201FB120038B92F4852
:1027F000006808B9012000E000202C4908607047FB
:1028000029480088282803D100202849086016E0BC
:1028100025480088322803D10120244908600EE0B1
:10282000214800883C2803D100202049086006E0A8
:102830001D480088462802D101201C4908607047C5
:102840001948008818B900201849086006E01648A1
:102850000088642802D1012014490860704700B53F
:1028600013480078012804D0022805D0032809D194
:1028700005E0FFF7E5FF06E0FFF7C2FF03E0FFF723
:10288000AEFF00E000BF00BF07480088401C0649BB
:10289000088008460088C82801DB0020088000BDA9
:1028A00000100240001401401007002088812242DD
:1028B0000E0700200D48806940F001000B49886137
:1028C0000846806940F0100088610948006820F0DF
:1028D0000F00074908600846006840F008000860DB
:1028E0000846C06840F00100C86070470010024010
:1028F0000010014070B505460C460D48C06940F017
:1029000010000B49C8610B4885850485808940F01B
:102910000100084988810846008840F001000880CD
:102920000223362203210120FFF7CEFD70BD0000F7
:1029300000100240001000402DE9F04104460F460F
:1029400015461E461548406940F00100134948618C
:102950000520FFF781FDA760E5606660002020602C
:102960002068206020682060206840F020002060FF
:1029700020682060206840F080002060206820608F
:1029800020682060206840F480502060206820602B
:10299000206840F001002060BDE8F0810010024096
:1029A0005548806940F004005349886153480068E5
:1029B00020F47020514908604F48806940F400704D
:1029C0004D4988610846C06840F40070C8600846F8
:1029D000C06820F40070C8600846406820F4404099
:1029E00048600846406840F4004048604448006839
:1029F00044490840424908600846006808600846A3
:102A0000006820F480700860081D006820F0020053
:102A1000091D08600846006820F460200860084628
:102A2000006840F4602008600846006840F48010A8
:102A300008600846006820F40060086030482830CC
:102A4000006820F470002E492831086008460068AC
:102A500008602B480C30006820F0030028490C3136
:102A600008600846006840F0380008602448001DEF
:102A7000006840F001002249091D0860084600680E
:102A800040F00800086000BF1D48001D006810F0FD
:102A9000080FF9D11A48001D006840F004001849D9
:102AA000091D086000BF1648001D006810F0040FE3
:102AB000F9D17047014612483030006820F01F00FD
:102AC0000F4A3032106010460068084310600C480E
:102AD000001D006840F48000094A121D106000BF0C
:102AE0000748001F006810F0020FF9D00448483072
:102AF000006880B2704700000010024000080140EA
:102B000004240140FFFFF0008A488B4948608B484D
:102B1000486070478848006940F080008649086135
:102B200070478548C16811F0010F01D0012070473E
:102B300011F0040F01D00220F9E711F0100F01D0BD
:102B40000320F4E70020F2E770B5044600BFFFF76A
:102B5000E8FF0546012D00D006E00120FFF761FCEB
:102B6000601E84B2002CF2D100BF04B9FF252846B4
:102B700070BD70B50546002445F6FF70FFF7E4FF11
:102B80000446C4B96C48006940F002006A49086113
:102B900008464561006940F04000086145F6FF7055
:102BA000FFF7D2FF0446012C05D06348006920F0EE
:102BB000020061490861204670BD70B505460E46A9
:102BC000FF20FFF7C1FF044694B95B48006940F05D
:102BD0000100594908612E80FF20FFF7B5FF044628
:102BE000012C05D05448006920F0010052490861C9
:102BF000204670BD0146088870472DE9F041054622
:102C00000E461746002407E036F814102846FFF752
:102C1000D4FFAD1C601C84B2BC42F5DBBDE8F08182
:102C200030B503460C461546002207E01846FFF76C
:102C3000E1FF24F812009B1C501C82B2AA42F5DB73
:102C400030BD2DE9F05F80468A461746B8F1006F27
:102C500002D33B48804501D3BDE8F09FFFF754FF06
:102C6000A8F1006B4FEADB25CBF34909C9F5806475
:102C7000A74200DC3C464EE04FF0006101EBC5206E
:102C80004A143049FFF7CCFF00260BE009EB0600A1
:102C90002C4931F81000A0F57F41FF3900D003E046
:102CA000701C86B2A642F1DB00BFA6421BDA4FF0D1
:102CB000006101EBC520FFF75CFF002608E03AF851
:102CC000160006EB09011F4A22F81100701C86B29B
:102CD000A642F4DB4FF0006101EBC5204A1419490C
:102CE000FFF78BFF04E0224651464046FFF785FF81
:102CF000A74200D110E06D1C4FF000090AEB440A16
:102D000008EB4408381B87B2B7F5806F02DD4FF43B
:102D1000806400E03C46AFE700BFFFF7FBFE00BF6A
:102D20009AE713B50446012201A92046FFF789FF5F
:102D30001CBD00002301674500200240AB89EFCD98
:102D400000000808F007002000BF3649098811F08C
:102D5000400FFAD03349091D088070472DE9F05F14
:102D600005460E46300102F0FDFB81462E4905FB6B
:102D700001F002F0F7FB8246494602F0A9FA074645
:102D8000384602F0B7FB84B2204602F0EBFB8346E4
:102D9000394602F02CFD82464FF0834102F02AFCB6
:102DA000814602F0A7FB80464FF6FF7000EA04144C
:102DB00004EB080084B21D48806940F008001B49FC
:102DC00088611B48006820F47F4019490860084664
:102DD000006840F4964008601448006940F4802080
:102DE000124908610846006920F4802008610846FD
:102DF000C06940F48020C8610A4808300480001D82
:102E0000008842F20C01084306490C31088005484D
:102E10001430008840F04000024914310880BDE8B9
:102E2000F09F00000048004040420F0000100240A8
:102E3000040C01405848806940F0010056498861FF
:102E40000846806940F0080088615448006820F412
:102E50007020524908600846006840F4403008601D
:102E600000204F490860704700204E490880052027
:102E70004D49087070474B4800880A2802D100204D
:102E8000474908607047474800880A2190FBF1F2E3
:102E900001FB1200012807D14148006808B9012050
:102EA00000E000203E49086070473E480088012845
:102EB00002D13B4908600AE03A480088052806D15B
:102EC0000020374908603749088037490870704743
:102ED00034480088282803D10120314908601AE0CD
:102EE00030480088322803D100202D49086012E0C4
:102EF0002C4800883C2803D10120294908600AE0B9
:102F000028480088462806D1002025490860254920
:102F1000088025490870704722480088012802D19E
:102F20001F4908600AE01F480088192806D10020C0
:102F30001B4908601B4908801B490870704700B591
:102F400019480078062813D2DFE800F012030609BA
:102F50000C0FFFF7E1FF0CE0FFF7BAFF09E0FFF706
:102F6000A4FF06E0FFF78FFF03E0FFF784FF00E018
:102F700000BF00BF0B480088002804DD0948008816
:102F8000401C0849088007480088642802DB0020AC
:102F90000449088000BD000000100240040C0140FC
:102FA000B08121421407002012070020F448C069B4
:102FB00040F00100F249C8610846C06940F00400D1
:102FC000C8610846806940F008008861ED480068E3
:102FD00020F07F40EB4908600846006840F08840D8
:102FE00008600020E84908804FF6FF70091D08803E
:102FF000E5482838008820F44070E34928390880E3
:103000000846008820F060000880DF4810380088FB
:1030100040F00100DC49103908800846008840F47F
:1030200080700880D8480838008820F00200D6490F
:10303000083908800846008820F020000880D2481F
:103040001038008840F03000CF4910390880084619
:10305000008840F440500880CB482038008840F079
:103060000300C94920390880C7482838008840F043
:103070000100C549283908807047C148C06940F03F
:103080000100BF49C8610846C06940F00200C8613C
:103090000846806940F004008861BC48006820F060
:1030A0007F40BA4908600846006840F088400860E0
:1030B0000020B74908804FF6FF70091D0880B4480A
:1030C0002838008820F44070B14928390880084623
:1030D000008820F060000880AD481038008840F07B
:1030E0000100AB49103908800846008840F4807020
:1030F0000880A7480838008820F00200A449083951
:1031000008800846008820F020000880A048103879
:10311000008840F030009E49103908800846008839
:1031200040F4405008809A482038008840F003005E
:1031300097492039088096482838008840F00100D7
:1031400093492839088070478D48C06940F00100D4
:103150008B49C8610846806940F0040088610846D0
:10316000806940F0080088618848001D006820F0F0
:1031700070408649091D08600846006840F080409C
:1031800008608048006820F470407E490860084666
:10319000006840F48040086000204FF080410885BE
:1031A0004FF6FF7088850846008820F4407008803C
:1031B0000846008820F0600008800846008B40F038
:1031C000010008830846008B40F48070088308469D
:1031D000008C20F0020008840846008C20F02000BB
:1031E00008840846008B40F0300008830846008BB6
:1031F00040F4405008830846008940F003000881ED
:103200000846008840F00100088070475C48C069AB
:1032100040F001005A49C8610846806940F40050F6
:1032200088610846806940F010008861594800684C
:1032300020F07F40574908600846006840F0884009
:1032400008600020544908804FF6FF70091D08806F
:1032500051482838008820F440704F4928390880A8
:103260000846008820F0600008804B48103800882D
:1032700040F001004849103908800846008840F4B1
:103280008070088044480838008820F002004249D5
:10329000083908800846008820F0200008803E4851
:1032A0001038008840F030003B491039088008464B
:1032B000008840F44050088037482038008840F0AB
:1032C000030035492039088033482838008840F009
:1032D0000100314928390880704700B5FFF796FF93
:1032E000FFF732FFFFF7C9FEFFF760FE00BD4FF0AA
:1032F0008040808C00B22949088000204FF0804136
:1033000088842548001F008800B224494880002096
:103310002149091F08801E48001F008800B21F496C
:10332000888000201A49091F08801748001F00885C
:1033300000B21A49C88000201349091F08801848A4
:10334000008816490988084400B2154908800846D3
:10335000408812494988084400B21149488008460B
:1033600080880E498988084400B20D498880084643
:10337000C0880A49C988084400B20949C880704712
:1033800000100240000C01402808004000080140E5
:103390002804004000100140283401401E0700208E
:1033A00016070020924AD26942F00802904BDA6177
:1033B0001A46926942F004029A618E4A12686FF3CB
:1033C0000F028C4B1A601A4612684BF6BB331A4335
:1033D000884B1A60884A1080121F1180864A143A5E
:1033E000128842F06002844B143B1A801A461288FD
:1033F00042F4C0421A801A1D128842F060021B1D5E
:103400001A801A46128842F4C0421A801A1F128883
:1034100042F008021B1F1A801A46128842F400620A
:103420001A801A1D128842F008021B1D1A801A46C3
:10343000128842F400621A801A1D128842F00102BA
:103440001B1D1A801A46128842F010021A801A4672
:10345000128842F480721A801A46128842F480520E
:103460001A80DA13644B2C3B1A801A46128842F0F9
:1034700001021A80704700B5012141F29310FFF755
:1034800091FF00205C4908310880091D0880091D52
:103490000880091D08805648806940F01000544992
:1034A00088615648006856490840544908600846F3
:1034B000006854490843514908600846C06840F014
:1034C0003C00C8604A48806940F00400484988616F
:1034D0004A48406820F0FF00484948600846406874
:1034E00040F0330048600846C06840F44070C8604F
:1034F0003F48806940F008003D49886142480068C3
:1035000020F47F00404908600846006840F44C10F1
:1035100008603D480C30006840F030003A490C31FA
:10352000086000BD30B500280ADD0024374D2C604E
:103530004FF00104364DC5F89041364D28800BE020
:103540000124324D2C604FF00004314DC5F89041FC
:10355000C0F100042F4D2C8000290ADD00242E4DDF
:103560002C604FF001042A4DC5F888412B4D29806D
:103570000BE00124284D2C604FF00004244DC5F8C9
:103580008841C1F10004254D2C80002A0ADD002469
:10359000234D2C604FF00104224DC5F89041224D7F
:1035A0002A800BE001241E4D2C604FF000041D4DBD
:1035B000C5F89041C2F100041B4D2C80002B0ADDA0
:1035C00000241A4D2C604FF00104114DC5F8A441A0
:1035D000174D2B800BE00124144D2C604FF000049C
:1035E0000B4DC5F8A441C3F10004114D2C8030BD32
:1035F00000100240000801402C0C00400010014067
:10360000FF0000FF00333300000C01409401224210
:1036100000002242380C00408C012242340C004051
:103620009481214200802142400C0040A0012242AE
:103630003C0C0040A448406820F47060A2494860F7
:103640000846406840F44070486000209F49086088
:103650009F49C1F8A8014FF001009C4908609C49AE
:10366000C1F8A801704700B500229748406820F4CF
:103670007060954948600846406840F400604860C2
:103680000120944908609249C1F8AC0107E0501C40
:10369000C2B2FA2A03DDFFF7CDFF012000BD8E483C
:1036A00000680028F3D18949086000BFF6E710B52B
:1036B00003468548406820F47060834948600846A6
:1036C000406840F44070486000208049086004462B
:1036D00012E0D8097F4908604FEA43604FEA10635F
:1036E0004FF001007A49C1F8AC014FF00000774972
:1036F000086004F10100C4B2082CEADBFFF7B3FF55
:1037000010BD7148406820F470606F4948600846F9
:10371000406840F44070486001206E4908606C4980
:10372000C1F8AC014FF000006A4908606849C1F86F
:10373000AC01704710B50446FFF7E3FF7820FFF7B0
:10374000B6FF0020FFF7B3FF2046FFF7B0FFFFF7FB
:1037500071FF10BD30B504460D4605F1B001C8B289
:10376000FFF7E8FF102141EA1410FFF7E3FF04F030
:103770000F00FFF7DFFF30BD10B50446FFF7C1FFB4
:103780007820FFF794FF4020FFF791FF2046FFF7D6
:103790008EFFFFF74FFF10BD70B50646002415E001
:1037A00004F1B001C8B2FFF7C5FF0120FFF7C2FF67
:1037B0001020FFF7BFFF002504E03046FFF7DCFFD5
:1037C000681CC5B2802DF8DB601CC4B2082CE7DB96
:1037D00070BD10B54148806940F001003F498861E3
:1037E0000846806940F0100088613748406820F43E
:1037F0007F40354948600846406840F44C50486076
:103800000846C06840F44060C8606420FEF724FEAB
:10381000AE20FFF78FFF0020FFF78CFF1020FFF78F
:1038200089FF4020FFF786FF8120FFF783FFCF202D
:10383000FFF780FFA120FFF77DFFC820FFF77AFF89
:10384000A620FFF777FFA820FFF774FF3F20FFF7C0
:1038500071FFD320FFF76EFF0020FFF76BFFD5202D
:10386000FFF768FF8020FFF765FFD920FFF762FFB1
:10387000F120FFF75FFFDA20FFF75CFF1220FFF770
:1038800059FFDB20FFF756FF4020FFF753FF2020B2
:10389000FFF750FF0220FFF74DFF8D20FFF74AFF93
:1038A0001420FFF747FFA420FFF744FFA620FFF7EF
:1038B00041FFAF20FFF73EFF0020FFF76DFF002123
:1038C0000846FFF747FF10BD00100140AC0122423F
:1038D00000002242A8012242280122420010024098
:1038E00070B5044621460020FFF734FF002507E0AD
:1038F000F84901EBC411485DFFF73EFF681CC5B2F3
:10390000802DF5DB70BD10B50020FFF7E9FF012029
:10391000FFF7E6FF0220FFF7E3FF0320FFF7E0FFDA
:103920000420FFF7DDFF0520FFF7DAFF0620FFF791
:10393000D7FF0720FFF7D4FF10BD00200FE00021C4
:1039400009E0E54A02EB8012525CE24B03EBC01344
:103950005A544A1CD1B24029F3DB421CD0B2082889
:10396000EDDB704770B503461546802B00DB70BD5C
:10397000402900DBFBE7CC1001F00702D54E06EB37
:10398000C416F05C25B1012D06D0022D0ED108E041
:1039900001269640B0430AE0012696400643F0B265
:1039A00005E0012696404640F0B200E000BF00BFAF
:1039B000C84E06EBC416F05400BFD8E72DE9FF4F00
:1039C00081B08046894615460498012803D1834674
:1039D0004FF0000A03E04FF0000B4FF0010A202DDA
:1039E00001DB7F2D00DD2025A5F12000C5B20024DC
:1039F00037E0002631E005EBC500B84901EB800057
:103A000004EB440106EB8101405C0090002720E0BC
:103A1000009810F0800F0BD009EB070202EBC402F4
:103A2000D1B208EB0602D0B25A46FFF79BFF0AE07C
:103A300009EB070202EBC402D1B208EB0602D0B2D6
:103A40005246FFF78FFF00984006000E0090781C4A
:103A5000C7B2082FDCDB701CC6B20C2ECBDB601C9F
:103A6000C4B2032CC5DB05B0BDE8F08F2DE9FF4FD4
:103A700081B08046894615460498012803D18346C3
:103A80004FF0000A03E04FF0000B4FF0010A202D29
:103A900001DB7F2D00DD2025A5F12000C5B200242B
:103AA00037E0002631E0C5EB05108D4901EB400001
:103AB00004EB840106EB4101405C0090002720E00C
:103AC000009810F0800F0BD009EB070202EBC40244
:103AD000D1B208EB0602D0B25A46FFF743FF0AE024
:103AE00009EB070202EBC402D1B208EB0602D0B226
:103AF0005246FFF737FF00984006000E0090781CF2
:103B0000C7B2082FDCDB701CC6B20A2ECBDB601CF0
:103B1000C4B2032CC5DB05B0BDE8F08F2DE9FF4F23
:103B20000746884615460398012803D182464FF080
:103B3000000903E04FF0000A4FF00109202D01DBDE
:103B40007F2D00DD2025A5F12000C5B2002424E052
:103B5000644800EB051010F804B0002619E01BF0D3
:103B6000800F08D008EB0402D1B2BA19D0B2524685
:103B7000FFF7F8FE07E008EB0402D1B2BA19D0B2A1
:103B80004A46FFF7EFFE4FEA4B604FEA106B701C9E
:103B9000C6B2082EE3DB601CC4B2102CD8DBBDE833
:103BA000FF8F2DE9FF4F07468846154603980128E9
:103BB00003D182464FF0000903E04FF0000A4FF0B6
:103BC0000109202D01DB7F2D00DD2025A5F120003E
:103BD000C5B2002426E0C5EBC500434901EB400017
:103BE00010F804B0002619E01BF0800F08D008EB95
:103BF0000402D1B2BA19D0B25246FFF7B3FE07E0C1
:103C000008EB0402D1B2BA19D0B24A46FFF7AAFEB5
:103C10004FEA4B604FEA106B701CC6B2072EE3DB15
:103C2000601CC4B20E2CD6DBBDE8FF8F2DE9FF4F20
:103C30000746884615460398012803D182464FF06F
:103C4000000903E04FF0000A4FF00109202D01DBCD
:103C50007F2D00DD2025A5F12000C5B2002426E03F
:103C600005EB4500214901EB800010F804B0002667
:103C700019E01BF0800F08D008EB0402D1B2BA198A
:103C8000D0B25246FFF76EFE07E008EB0402D1B255
:103C9000BA19D0B24A46FFF765FE4FEA4B604FEAC9
:103CA000106B701CC6B2062EE3DB601CC4B20C2C79
:103CB000D6DBBDE8FF8F2DE9FC4F80460E4615464A
:103CC0009B460096BBF1010F12D14FF0010A4FF055
:103CD000000911E0F00F0020EE58000804890008E8
:103CE000C47D0008C477000884720008046E0008D0
:103CF0004FF0000A4FF00109202D01DB7F2D00DD80
:103D00002025A5F12000C5B2002427E005EB8500A1
:103D1000FE490844005D01900098C6B2002719E0F2
:103D2000019810F0010F08D0F219D1B208EB04028B
:103D3000D0B25246FFF716FE07E0F219D1B208EBF7
:103D40000402D0B24A46FFF70DFE019840100190E0
:103D5000781CC7B2072FE3DB601CC4B2052CD5DB8F
:103D6000BDE8FC8F2DE9FF4F85B080468A4693461B
:103D70004FF000090020029003E00298401CC0B2FE
:103D8000029002981BF800000028F6D1089801283C
:103D900003D100900020019003E00020009001205A
:103DA000019000BF1BF80900049009F101001BF805
:103DB000000003900498802872DD002717E007EBCD
:103DC000870000EB4710D24911F810100498814287
:103DD0000BD107EB870000EB4710CD4901EB40000A
:103DE00041780398814200D103E0781CC7B2022FCA
:103DF000E5D300BF00266CE007EB870000EB47101F
:103E0000C34901EB4000801C06EB4601455C0024E1
:103E100012E015F0800F01D0009B00E0019B1A46D4
:103E20000AEB0603D9B208EB0403D8B2FFF79AFDF8
:103E30006806050E601CC4B2082CEADB07EB87009D
:103E400000EB4710B24901EB4000801C06EB460135
:103E5000491C455C002413E015F0800F01D0009B45
:103E600000E0019B1A460AEB0603D9B208EB0403F3
:103E70000833D8B2FFF776FD6806050E601CC4B2A1
:103E8000082CE9DB07EB870000EB4710A04901EBAA
:103E90004000801C06EB4601891C455C002414E0B0
:103EA00022E015F0800F01D0009B00E0019B1A4634
:103EB0000AEB0603D9B208EB04031033D8B2FFF7BC
:103EC00051FD6806050E601CC4B2082CE9DB701CAD
:103ED000C6B2182E90DB09F1020000F0FF0908F1CC
:103EE000180000F0FF080DE051464046089B049A78
:103EF000FFF764FD09F1010000F0FF0908F10C0073
:103F000000F0FF0802988145FFF64CAF09B0BDE80C
:103F1000F08F2DE9FF4F85B007468A4693464FF054
:103F200000090020029003E00298401CC0B20290F9
:103F300002981BF800000028F6D10898012803D148
:103F400000900020019003E00020009001200190EB
:103F500000BF1BF80900049009F101001BF80000E4
:103F600003900498802872DD002613E0C6EB46100B
:103F7000684911F810100498814209D1C6EB461027
:103F8000644901EB400041780398814200D103E08D
:103F9000701CC6B2022EE9D300BF00256CE0C6EB50
:103FA00046105C4901EB4000801C05EB450110F810
:103FB0000180002413E018F0800F01D0009B00E086
:103FC000019B1A460AEB0503D9B23B19D8B2FFF799
:103FD000C9FC4FEA48604FEA1068601CC4B2082C64
:103FE000E9DBC6EB46104B4901EB4000801C05EBBA
:103FF0004501491C10F80180002414E018F0800FDE
:1040000001D0009B00E0019B1A460AEB0503D9B2E0
:104010003B190833D8B2FFF7A5FC4FEA48604FEAD6
:104020001068601CC4B2082CE8DBC6EB46103949A6
:1040300001EB4000801C05EB4501891C10F8018054
:10404000002415E018F0800F02D0009B01E01DE075
:10405000019B1A460AEB0503D9B23B191033D8B2BB
:10406000FFF780FC4FEA48604FEA1068601CC4B25A
:10407000042CE7DB681CC5B2142D90DB09F10200AB
:1040800000F0FF0907F11400C7B20CE051463846B2
:10409000089B049AFFF7EAFC09F1010000F0FF0910
:1040A00007F10A00C7B202988145FFF652AF09B086
:1040B000BDE8F08F2DE9FF4F84B0074691464FF0E1
:1040C00000080020029003E00298401CC0B2029059
:1040D000029819F800000028F6D10798012803D1AA
:1040E00000900020019003E000200090012001904A
:1040F00000BF19F808A008F1010019F800000390AA
:10410000BAF1800F70DD002518E00000246C000873
:10411000906B0008146B000805EB0510FB4911F8C3
:104120001000504508D105EB051001EB4000417827
:104130000398814200D103E0681CC5B2022DEBD385
:1041400000BF002445E005EB0510F04901EB4000FD
:10415000801C10F814B0002613E01BF0800F01D073
:10416000009B00E0019B1A46059B2344D9B2BB1972
:10417000D8B2FFF7F7FB4FEA4B604FEA106B701CA9
:10418000C6B2082EE9DB05EB0510E04901EB400063
:10419000801C012101EB440110F801B0002614E05D
:1041A0001BF0800F01D0009B00E0019B1A46059B8D
:1041B0002344D9B2BB190833D8B2FFF7D3FB4FEA77
:1041C0004B604FEA106B701CC6B2082EE8DB601C17
:1041D000C4B2102CB7DB08F1020000F0FF0807F1B1
:1041E0001000C7B20DE0FFE752463846079B05991D
:1041F000FFF794FC08F1010000F0FF0807F1080048
:10420000C7B202988045FFF674AF08B0BDE8F08FE2
:104210002DE9FF4F84B0074691464FF0000800207B
:10422000029003E00298401CC0B20290029819F874
:1042300000000028F6D10798012803D10090002043
:10424000019003E0002000900120019000BF19F8C8
:1042500008A008F1010019F800000390BAF1800FDE
:1042600068DD002511E0C5EB0510A94911F8100023
:10427000504508D1C5EB051001EB4000417803988B
:10428000814200D103E0681CC5B2092DEBD300BF09
:10429000002445E0C5EB05109D4901EB4000801C62
:1042A00010F814B0002613E01BF0800F01D0009B23
:1042B00000E0019B1A46059B2344D9B2BB19D8B232
:1042C000FFF750FB4FEA4B604FEA106B701CC6B211
:1042D000082EE9DBC5EB05108D4901EB4000801C81
:1042E000012101EB440110F801B0002614E01BF09D
:1042F000800F01D0009B00E0019B1A46059B2344E0
:10430000D9B2BB190833D8B2FFF72CFB4FEA4B6088
:104310004FEA106B701CC6B2062EE8DB601CC4B2FC
:104320000E2CB7DB08F1020000F0FF0807F10E00C9
:10433000C7B20BE052463846079B0599FFF731FCA0
:1043400008F1010000F0FF08F81DC7B2029880458F
:10435000FFF67DAF08B0BDE8F08F2DE9FF4F84B0C8
:10436000804692464FF000090020029003E0029838
:10437000401CC0B2029002981AF800000028F6D142
:104380000798012803D100900020019003E000204D
:1043900000900120019000BF1AF809B009F1010056
:1043A0001AF800000390BBF1800F6FDD002615E0C6
:1043B00006EB860000EBC600564911F81000584580
:1043C0000AD106EB860000EBC60001EB4000417805
:1043D0000398814200D103E0701CC6B2922EE7D34D
:1043E00000BF002446E006EB860000EBC60049490A
:1043F00001EB4000801C10F81470002512E017F04B
:10440000800F01D0009B00E0019B1A46059B2344CE
:10441000D9B208EB0503D8B2FFF7A4FA7806070E65
:10442000681CC5B2082DEADB06EB860000EBC6006F
:10443000384901EB4000801C012101EB4401475C3D
:10444000002513E017F0800F01D0009B00E0019BD6
:104450001A46059B2344D9B208EB05030833D8B2AA
:10446000FFF780FA7806070E681CC5B2042DE9DB59
:10447000601CC4B20C2CB6DB09F1020000F0FF098D
:1044800008F10C0000F0FF080EE0FFE75A46404636
:10449000079B0599FFF7CAFB09F1010000F0FF092E
:1044A00008F1060000F0FF0802988145FFF674AF9E
:1044B00008B0BDE8F08FF0B505460E4614461F461D
:1044C00008E022783B4631462846FFF7F4FB641C9F
:1044D000A81DC5B220780028F3D1F0BD2DE9F04128
:1044E00004460D4616461F46AC4202DDA846254648
:1044F000444606E03A4631462046FFF733FA601C50
:10450000C4B2AC42F6DBBDE8F0810000D06A00081E
:10451000C2690008EE5A00082DE9F04180460C46B9
:1045200015461E46AC4202DD2F4625463C4606E0B7
:10453000324621464046FFF715FA601CC4B2AC4231
:10454000F6DBBDE8F0812DE9F04F85B004460D465D
:1045500092469B46DDF83890002003900290AAEB2B
:10456000040007B2ABEB05000FFA80F8002F02DD64
:10457000012001900EE057B909F0FF030BF0FF0294
:10458000E9B2E0B2FFF7C8FF05B0BDE8F08F4FF029
:10459000FF300190B8F1000F02DD012000900EE025
:1045A000B8F1000F08D109F0FF03EAB20AF0FF01E9
:1045B000E0B2FFF793FFE7E74FF0FF300090381EBF
:1045C00001DB014600E041420FB2B8F1000001DB1F
:1045D000014600E041420FFA81F8474501DD3E46C1
:1045E00000E0464609F0FF02E9B2E0B2FFF7BAF98F
:1045F0000020049025E009F0FF02E9B2E0B2FFF7E5
:10460000B1F90398384400B203900298404400B2D4
:1046100002900398B04206DD0398801B00B203901D
:104620000198204404B20298B04206DD0298801B33
:1046300000B202900098284405B20498401C00B2D1
:104640000490711C04988842D5DD00BF9CE72DE9D9
:10465000F84180460D4616461F46079CB04501DCD2
:10466000BD4201DDBDE8F8812B4632462946404671
:104670000094FFF768FF3B463246394640460094B7
:10468000FFF761FF3B464246294640460094FFF74C
:104690005AFF3B463246294630460094FFF753FF07
:1046A00000BFDFE72DE9F04306460F469046B8F11C
:1046B0001F0F02DCB8F1000F01D1BDE8F083002428
:1046C00045464FEA4800C0F103000FFA80F958E070
:1046D0003A1BD1B2721BD0B20122FFF743F93A1B49
:1046E000D1B27219D0B20122FFF73CF97A19D1B2D6
:1046F000321BD0B20122FFF735F93A1BD1B2721B3F
:10470000D0B20122FFF72EF97A1BD1B2321BD0B200
:104710000122FFF727F93A19D1B27219D0B201225A
:10472000FFF720F97A1BD1B23219D0B20122FFF77C
:1047300019F97A19D1B23219D0B20122FFF712F960
:104740003A19D1B2721BD0B20122FFF70BF9601CEB
:1047500004B2B9F1000F05DAA000801D48440FFA39
:1047600080F907E0601B80000A3048440FFA80F9A6
:10477000681E05B27A19D1B23219D0B20122FFF700
:10478000F1F8AC42A4DD00BF97E72DE9F0470546FC
:104790000E4617469846DDF820A0BD4201DC46458E
:1047A00001DDBDE8F0872C460EE0B14608E0524638
:1047B00049462046FFF7D6F809F1010000F0FF094D
:1047C000C145F4DB601CC4B2BC42EEDB00BFE8E7CD
:1047D000024600200BE0002105E0A04B03EBC013D4
:1047E0005A544B1CD9B28029F7DB431CD8B2082895
:1047F000F1DB70472DE9FC430746884614461E4608
:10480000DDF824900025002C06DA64422D2228468B
:10481000691CCDB20DF80020B4F57A7F0FDB4FF4A0
:104820007A7094FBF0F00A2190FBF1F201FB120088
:104830003030C2B22846691CCDB20DF80020632C7E
:104840000EDD642094FBF0F00A2190FBF1F201FBF5
:1048500012003030C2B22846691CCDB20DF80020DB
:10486000092C0EDD0A2094FBF0F00A2190FBF1F2F6
:1048700001FB12003030C2B22846691CCDB20DF8DF
:1048800000200A2094FBF0F100FB11403030C2B24E
:104890002846691CCDB20DF8002004E020200DF858
:1048A0000500681CC5B2B542F8DB00200DF8050014
:1048B0004B466A4641463846FFF74FFDBDE8FC834C
:1048C0002DE9FC4106460F46154698460024002D6A
:1048D00006DA6D422D222046611CCCB20DF8002074
:1048E000B5F57A7F0FDB4FF47A7095FBF0F00A2173
:1048F00090FBF1F201FB12003030C2B22046611C85
:10490000CCB20DF80020632D0EDD642095FBF0F095
:104910000A2190FBF1F201FB12003030C2B22046B6
:10492000611CCCB20DF800200A2095FBF0F00A21A2
:1049300090FBF1F201FB12003030C2B22046611C44
:10494000CCB20DF800202E222046611CCCB20DF80E
:1049500000200A2095FBF0F100FB11503030C2B26C
:104960002046611CCCB20DF8002004E020200DF898
:104970000400601CC4B2052CF8DB00200DF8040014
:1049800043466A4639463046FFF7E7FCBDE8FC81FE
:10499000FCB506460F4615460024002D06DA6D428A
:1049A0002D222046611CCCB20DF80020B5F57A7F8F
:1049B0000FDB4FF47A7095FBF0F00A2190FBF1F2D7
:1049C00001FB12003030C2B22046611CCCB20DF89F
:1049D0000020632D0EDD642095FBF0F00A2190FB92
:1049E000F1F201FB12003030C2B22046611CCCB2A1
:1049F0000DF800200A2095FBF0F00A2190FBF1F25F
:104A000001FB12003030C2B22046611CCCB20DF85E
:104A100000202E222046611CCCB20DF800200A2076
:104A200095FBF0F100FB11503030C2B22046611C02
:104A3000CCB20DF8002004E020200DF80400601C2A
:104A4000C4B2042CF8DB00200DF8040001236A46F0
:104A500039463046FFF72FFDFCBD0000F00F002067
:104A60001CB5002015E0404A125CAA2A0FD13E4B2B
:104A7000421C9A5CAA2A0AD133223C4B1A700022AB
:104A8000394B1A540023384C421CA35403E0421CF7
:104A900090B20F28E7DB00BF344A1278332A0FD0D8
:104AA000324A1278002A05DD304A1278521E2F4B06
:104AB0001A7004E000222E4B9A805A801A801CBD86
:104AC00032222A4B1A70002108E0274A145C0A4659
:104AD0004B1C99B20DF80240421C90B2102801DA2A
:104AE0000829F2DB002008E00246431C98B21E4B66
:104AF0009A5C0DF801204A1C91B20829F4DB9DF85C
:104B0000022012F0800F07D09DF80220C2F58072BB
:104B10005242174B9A8003E09DF80220144B9A8072
:104B20009DF8042012F0800F07D09DF80420C2F5F4
:104B3000807252420E4B5A8003E09DF804200C4BC9
:104B40005A809DF8052012F0800F07D09DF80520AF
:104B5000C2F580725242064B1A8003E09DF8052090
:104B6000034B1A8000BFAAE7F0130020260700209D
:104B700028070020704770477047754600F028F8F6
:104B8000AE4605006946534620F00700854618B03A
:104B900020B5FDF7F3FDBDE820404FF000064FF0D3
:104BA00000074FF000084FF0000B21F00701AC4662
:104BB000ACE8C009ACE8C009ACE8C009ACE8C00981
:104BC0008D4670470446AFF300802046FBF71BFB81
:104BD000004870470014002001491820ABBEFEE7D2
:104BE000260002007047000021F00042A2F160524E
:104BF000B2F5801F01F0004328BFD2F17F6C0BD9C2
:104C00005FEA001C43EAC20242EB507018BF7047D3
:104C100028BF20F001007047B2F5801FBCBF1846C6
:104C200070474FEA410C1CF5001F02D2084600F005
:104C3000A8BD70B500F074F900000089FFF7F6BF59
:104C40004FF00040A0F580007047000010B591EAD9
:104C5000030F48BF83F0004300F1BE81841A71EB5B
:104C6000030C05D2121943EB0C03001B61EB0C0182
:104C7000DFF824E14FEA1154A4EB135C1EEA430F62
:104C800018BF9EEA445F73D023EA0E03DCF1200EC6
:104C900021EA045143F4801332D322FA0CFE10EBC4
:104CA0000E0023FA0CFE41EB0E01CCF1200E03FAAC
:104CB0000EFE10EB0E0051F10001B1F5801FCCF19A
:104CC000200E32D201EB045112FA0EF2BDE8104070
:104CD00058BF7047401C38BF5FEA420218BF704798
:104CE000002814BF20F0010041F100014FEA410308
:104CF00013F5001F38BF7047A1F1C04100F05EB945
:104D0000012A43EB0302ACF1200CDCF11F0E32BF91
:104D10004FF0000E23FA0CF310EB030041EB0451AB
:104D2000B4EB115FD0D0A1EB045101F5801149081B
:104D30005FEA300001EB04510ED350F1000038BFA0
:104D400012FA0EFE08D1BDE81040C9E7401C38BF7A
:104D50005FEA4202CAD1C3E7BDE810404FEA41030F
:104D600013F5001F38BF7047A1F1C04100F026B90C
:104D70009EEA445F08D011EA5E0FBDE8104004BF10
:104D800001F0004100207047BDE8104070B500F010
:104D9000C7F800BF64FBBE3E0000E0FF10F0004219
:104DA00048BF4042B0FA80F310FA03F10AD0C3F1D1
:104DB0001D0303F580634FEA415002EB035202EBFF
:104DC000D12170474FF0000070470000DFF848C164
:104DD00070B51CEA111E1EBF1CEA13159EEA0C0FCB
:104DE00095EA0C0F00F06F8081EA030423EA4C136C
:104DF0004EEAD47E21EA4C1141F4801143F4801331
:104E0000AE44A1FB024CA0FB0365AEF17F7E3619D8
:104E100055EB0C05A1FB034C4CF10003A0FB021C5D
:104E200016EB0C06654153F10003094218BF46F02A
:104E3000010613F4007F0BD14FEA03314FEA05302E
:104E4000340341EA155140EA16506FF003020AE0BC
:104E50004FEAC3214FEAC520F40241EA555140EA26
:104E600056506FF0020202EB2E4201EB025585EA2A
:104E7000CE710AD05FEA440C18BF24F0004450F110
:104E8000000041F1000120EAD47040F2FE7C62454E
:104E900000D270BDA84214BF4FF080444FF0404490
:104EA000002E08BF0024BEF1806FA8BFA1F1C04151
:104EB000BDE8704080F282804FF0000001F1C041F7
:104EC00001F0004170479EEA0C0F0CEA131518BF61
:104ED00095EA0C0F06D04FF0000081EA030E0EF0A9
:104EE000004170BD00F01CF88900013E00F007B8D9
:104EF00000F009B84FEA430C5FEA5C5C08D081EA35
:104F0000030100F05BB84FEA410C5FEA5C5CF6D14C
:104F10004FF00000014970470000FF070000F87FD4
:104F20000EF1020E2EF0030E5EF8046B364205D42D
:104F3000012A43EB030515F5001F12D8012841EBA8
:104F4000010C1CF5001F0CD80ED14FEAD17C15F5D1
:104F5000001F0CEB4C0C0CF1020C08BF4CEBD37C8B
:104F600004E04FF0080C01E04FEAD37C0CEB4C0559
:104F700026FA05F606F00706B6F1040C06D20EEB8B
:104F8000860CBDE870404CF0010C6047DFE80CF087
:104F9000090B02024FF000414FF00000A1F5002183
:104FA00070BD19461046012851EB010418BFD4F515
:104FB000001484BF002001F0004170BD0808A0F576
:104FC00000114FEA3101704710B591EA030F48BF55
:104FD00083F000433FF542AE841A71EB030C07D215
:104FE00012198CF0004C43EB0C03001B61EB0C011D
:104FF000DFF8A4E14FEA1154A4EB135C1EEA430F5F
:1050000018BF9EEA445F00F0B08023EA6E0352426C
:1050100021EA0451C3EB6E0338BF5B1EDCF1200EA6
:1050200025D322FA0CFE10EB0E0043FA0CFE41EBE6
:105030000E01CCF1200E03FA0EFE10EB0E0051F122
:105040000001CCF1200E29D412FA0EF201EB04512A
:10505000BDE8104058BF7047401C1CBFB2F1004F64
:10506000704700280CBF491C20F00100704712EB6C
:10507000020E43EB030218BF4FF0010E4EEA42024C
:10508000ACF1200CDCF11E0E54D943FA0CFE10EBEF
:105090000E0051F1FF31CCF11E0ED5D50EF1010EEF
:1050A00012FA0EFE404141EB010101EB445C5FEA64
:1050B0005C5C10D910EBDE7001EB045138BFBEF11F
:1050C000004FBDE8104018BF704700280CBF491CB6
:1050D00020F00100704730D24FEAD42C11F50011B6
:1050E00024F400641BD0B1FA81F20B3AA41AA41E76
:1050F000D2F12003914030FA03F31943904001EBC1
:10510000CC71002C01EB0451BDE81040A8BF7047E2
:1051100001F1C0414FF0000001F000417047B0FACA
:1051200080F310FA03F100D110BDE41A173C4805D2
:10513000C90AE4E701EB045110BD491001EB045129
:10514000BDE810404FEA300002E04FF00001704728
:105150004A0008BF0042F8D0B2F5001F28BF7047D0
:1051600001F000414FF0000070479EEA445F07D015
:1051700011EA5E0FBDE8104004BF00210020704717
:10518000BDE8104070B5FFF7CBFE00BF40DFF63E34
:1051900083F00041104670470000E0FF43004FEAF3
:1051A000D30C4FEA3C0C43401FBF40070CF1605149
:1051B00013F0FE4F70471CF0006F03D100200CF07D
:1051C000004170470CF0004343EA507010B540EACC
:1051D000CC0000F090FA00BF000000924FEA0001FE
:1051E000FFF7ECBE4FF000414FF00000A1F50021A9
:1051F0007047000090EA010F48BF81F0004100F1C4
:105200000883421A3CBF801A89184FEAD0524FF0E7
:105210007F4C1CEA410FA2EBD15318BF9CEA026FEE
:1052200000F03B804FF0004C4CEA00204CEA01219A
:1052300021FA03FC10EB0C0C1ED202F1FF325FEAE4
:105240001C2040EBC25038BF70471CF07F0F4FEA64
:10525000400C18BFBCF17F4F38BF7047C3F120032B
:10526000994008BF20F00100BCF17F4F38BF704764
:10527000A0F1C04000F085BA4FEA3C00000A40EBC4
:10528000C25028BF1CF0FF0F4FEA400CE6D018BFF9
:10529000BCF17F4F38BF7047EAE79CEA026F05D048
:1052A00010EA5C0F08BF00F00040704710B500F036
:1052B00022FA00BF64FBBE3E401058BFC0F1404020
:1052C000491058BFC1F140418142EFF3008070475F
:1052D0004FF47F0C1CEAD0121EBF1CEAD11392EAD5
:1052E0000C0F93EA0C0F00F0858090EA010F48BF85
:1052F00042F4807240F4000C41F400002CF07F4135
:1053000020F07F4000B58142A2EB03020FF2081C9F
:10531000ACEB504EC0F100009EF800E04FEA4E0E9C
:1053200000FB0EFC38BF49004FEA2C1C02F5FA02C4
:105330000CFB0EF34FEACE1E4FEA112C4FEAC121AF
:105340000EEB635E42EB22420EFB0CFC4FEA1C5359
:1053500000FB03114FEA112C4FEA01310EFB0CFC4C
:105360004FEADC4C00FB0C11C14228BF09184CEB82
:1053700003335DF804EB10EB410143EBC250B2F58F
:105380007C0F38BF704729D512F0F00F1CBF00F119
:10539000C04000F00040704700818283848586878A
:1053A00088898B8C8D8E8F919293959697999A9CE4
:1053B0009D9FA0A2A3A5A7A8AAACAEB0B2B3B5B753
:1053C000B9BCBEC0C2C5C7C9CCCED1D4D7D9DCDF29
:1053D000E2E6E9ECF0F3F7FAFE0000004FEA400CD9
:1053E0000CF1807CBCF17E4F28BF7047B0F1C0400B
:1053F00000F0C7B990EA010F0CEAD11348BF42F49C
:105400008072624538BF634507D213F47F0F16D010
:1054100080EA010000F00040704710B500F06BF921
:10542000097EFC3E00F005B880EA010000F0004073
:10543000704780EA010000F0004000F0A2B912F4C9
:105440007F0F04BF0248704780EA010000F099B95D
:105450000000C07F50EA010C00F113801CF5000F22
:1054600058BFBCF5000F01D48842704707D710F52C
:10547000000F58BF11F5000F15D4884270478942BC
:1054800070471CF5000F04D5BCF5000FF7D581421D
:1054900070474FF0807C1CEB400F38BF1CEB410F76
:1054A00001D28142704710B500F025F992244900DD
:1054B0004FF000504FF08051FFF7FEBE41000B0E41
:1054C000D3F19E0208D950F400034FEA032323FAD4
:1054D00002F048BF4042704710B500F00CF900BF21
:1054E00049922480002070476FF0004282EA200039
:1054F00070470000C10DD1F19E0206DB4FEA002388
:1055000043F0004323FA02F07047004207D54FEA08
:105510004001B1F1FE4F02D24FF00000704710B5CC
:1055200000F0E9F849922480002070476FEA2000DB
:105530007047000010F0004148BF4042B0FA80F3CD
:1055400010FA03F2C3F19D030BD051EAC35101EBF2
:105550001220530638BF704700F1010008BF20F049
:1055600001007047B0FA80F310FA03F2C3F19D0313
:105570000AD0D90501EB1220530638BF704700F15D
:10558000010008BF20F001007047000050EA010C44
:1055900000F113801CF5000F58BFBCF5000F01D4BB
:1055A0008842704707D710F5000F58BF11F5000F5C
:1055B00015D488427047894270471CF5000F04D506
:1055C000BCF5000FF7D5814270474FF0807C1CEB93
:1055D000400F38BF1CEB410F01D28142704710B51C
:1055E00000F089F8922449004FF000504FF08051AC
:1055F000FFF762BE4FF47F0C1CEAD0121EBF1CEAFC
:10560000D11392EA0C0F93EA0C0F00F0478090EA56
:10561000010F48BF42F480724FF0004C4CEA00206A
:105620004CEA012102EB0302A0FB0113A2F50002E8
:10563000002918BF43F001035B0028BF4FEA330382
:1056400042EB22425FEA132C4CEBC2502EBFBCEB64
:10565000436FB2F57C0F70474FEA036CBCF1004F0B
:1056600008BF20F00100B2F57C0F38BF70470BD5A2
:1056700082F0FF0212F5803FC8BF704700F1C040C2
:10568000D8BF00F00040704700F5000C5FEA4C0CFA
:1056900048BF7047B0F1C04000F073B890EA010F06
:1056A0000CEAD11348BF42F48072624538BF6345AB
:1056B00004D280EA010000F00040704710B500F00D
:1056C0001AF800BF8900013E00F007B800F009B8E1
:1056D0005FEA410C5FEA1C6C08D080EA010000F030
:1056E00050B85FEA400C5FEA1C6CF6D14FF0004006
:1056F000A0F5800070470EF1020E2EF0030E5EF84A
:10570000044B244204D44FEA4102B2F17F4F11D836
:105710004FEA4003B3F17F4F0CD80ED14FEAD07C53
:10572000B2F17F4F0CEB4C0C0CF1020C08BF4CEBB0
:10573000D17C04E04FF0080C01E04FEAD17C0CEB87
:105740004C0324FA03F404F00704B4F1040C06D269
:105750000EEB840CBDE810404CF0010C6047DFE814
:105760000CF0070802024FF00040A0F5800010BDC9
:105770000846420018BFD2F1807288BF00F0004096
:1057800010BDFF2141EAD050C005704751EA000C1E
:1057900000F113801CF5000F58BFBCF5000F01D4B9
:1057A0008142704707D711F5000F58BF10F5000F61
:1057B00015D481427047894270471CF5000F04D50B
:1057C000BCF5000FF7D5884270474FF0807C1CEB8A
:1057D000410F38BF1CEB400F01D28842704780EA6E
:1057E000010081EA000180EA0100FFF7F8BE80F0C5
:1057F000004090EA010F7FF504AD81F0004100F018
:1058000008B8000090EA010F48BF81F000413FF561
:10581000F8AC421A04D882F00042A0EB0200114416
:105820004FEAD0524FF07F4C1CEA410FA2EBD1530C
:1058300018BF9CEA026F4AD04FF0004C4CEA00209F
:105840004CEA012121FA03FCB0EB0C0C0FD412F04E
:10585000FE0F36D05FEA4C001DD5001240EBC2505F
:1058600038BF70471CF03F0F18BF70470BE0A2F124
:1058700001025FEA1C2040EBC25038BF70471CF0A9
:105880007F0F18BF7047C3F12003994014BF401E1B
:1058900020F00100704780084FEA122308BF7047CC
:1058A000B0FA80FCA2EB0C02CCF1280C60FA0CF0F0
:1058B00093EA122F04BF00EBC25070474FEAC37047
:1058C0007047130A5FEADC1008BF7047F6E79CEAEE
:1058D000026F04D010EA5C0F08BF0020704710B5BB
:1058E000FFF709FF40DFF63E81F0004070470000FF
:1058F00000000000000000000000000000000000A8
:105900000000C0E0E0E0C00000000080F8FCFCFC0B
:10591000F88000000000C0E0E0E0C00000000000EF
:105920000000000000000000000000000000000077
:1059300000000000000000000000C0F0F0F0E0E017
:10594000C0E0F1FFFF7F3F1F1F0F0F0F8FEFFFCF53
:105950000F0F0F0F1F1F3F7FFFFFF1E0C0E0E0F0D0
:10596000F0F0C00000000000000000000000000097
:10597000000000000000000080C0C0C1C3F3FFFFB2
:10598000FF1F0701000000C0E0787C676361606171
:10599000676E7C7060C080000001071FFFFFFFF38F
:1059A000C3C18080800000000000000000000000F3
:1059B00000000000000000000707070F0F3FFFFF77
:1059C000FFE08070381E070100848E8EC6C6FEFE82
:1059D00086868CFC780103061C3800C0FFFFFF3F61
:1059E0000F0F070707000000000000000000000084
:1059F000000000000000000000000C3E3E3F1F1FA2
:105A00000F1F3FFEFCF8F0E0E7DFD9D8989898F830
:105A1000F0C1C1C1E0E0F0F8FCFE3F1F0F1F1F3FC7
:105A20003E3E0C00000000000000000000000000EE
:105A30000000000000000000000000000000000066
:105A4000000C1E1F3F1F0F07030303077FFFFFFF0D
:105A50007F1F7BE3C3030F1F3F3F1E0C00000000AE
:105A60000000000000000000000000000000000036
:105A7000000000000000F0F0303030300080800086
:105A800080000080C0C08080000080C0C080800096
:105A9000F0F000000100B0B0000080808080800045
:105AA00000F0F00080C0C000000000000000000016
:105AB0000000000000001F1F03030300001F1F0160
:105AC00001000F1F1A1A1A0B000F1F1A1A1A0B00C7
:105AD0001F1F181818001F1F00001F1F01011F1F84
