:020000040800F2
:1000000030770520ED0200084D84000867430008A2
:10001000F90200082B0A0008F9A3000800000000FC
:10002000000000000000000000000000798A0008C5
:10003000F50E000800000000D5880008318B00088C
:100040000703000807030008070300080703000868
:100050000703000807030008070300080703000858
:100060000703000807030008070300080703000848
:100070000703000807030008070300080703000838
:100080000703000807030008070300080703000828
:100090000703000807030008070300080703000818
:1000A0000703000807030008070300080703000808
:1000B000070300089D8B00080703000807030008DA
:1000C00007030008070300080703000807030008E8
:1000D0000703000859A300080703000807030008E6
:1000E00007030008070300080703000807030008C8
:1000F00007030008070300080703000807030008B8
:1001000007030008070300080703000807030008A7
:100110000703000807030008070300080703000897
:100120000703000807030008070300080703000887
:100130000703000807030008070300080703000877
:100140000703000807030008070300080703000867
:100150000703000807030008070300080703000857
:100160000703000807030008070300080703000847
:100170000703000807030008070300080000000049
:100180000703000807030008070300080703000827
:100190000703000807030008070300080703000817
:1001A0000703000807030008070300080703000807
:1001B00007030008070300080703000807030008F7
:1001C00007030008070300080000000007030008F9
:1001D00007030008070300080703000807030008D7
:1001E00007030008070300080703000807030008C7
:1001F000070300080703000800F002F800F067F8A2
:100200000AA090E8000C82448344AAF10107DA4571
:1002100001D100F05CF8AFF2090EBAE80F0013F05C
:10022000010F18BFFB1A43F001031847B42A050059
:10023000D42A05000A444FF0000C10F8013B13F0DB
:10024000070408BF10F8014B1D1108BF10F8015B2F
:10025000641E05D010F8016B641E01F8016BF9D122
:1002600013F0080F1EBF10F8014BAD1C0C1B09D179
:100270006D1E58BF01F801CBFAD505E014F8016BEB
:1002800001F8016B6D1EF9D59142D6D3704700007D
:100290000023002400250026103A28BF78C1FBD88F
:1002A000520728BF30C148BF0B607047642900F077
:1002B0001F81782900F05881732900F0CB8200203B
:1002C00070471FB539F07AFF1FBD10B510BD00F0A3
:1002D000FBFA1146FFF7F5FF33F0B6FA00F019FB11
:1002E00003B4FFF7F2FF03BC0BF0A6FF09488047F9
:1002F00009480047FEE7FEE7FEE7FEE7FEE7FEE708
:10030000FEE7FEE7FEE7FEE704480549054A064B1F
:1003100070470000398B0008F9010008306B052098
:10032000307705203071052030710520704753EA81
:10033000020C00F069802DE9F04B4FF00006002B15
:100340001FBFB3FA83F503FA05F424FA05F65E40FD
:1003500012BF1643B2FA82F502FA05F4C5F1200580
:100360001EBF22FA05FC44EA0C04203556EA044C70
:100370004FEA144418BF641C4FF000084FF0000906
:10038000904271EB030C39D3002919BFB1FA81F700
:1003900001FA07F6B0FA80F700FA07F6C7F120076E
:1003A0001EBF20FA07FC46EA0C062037B6FBF4FC19
:1003B000A7EB0507103F07F01F0BCBF120060CFA47
:1003C0000BFB2CFA06F644BFB3460026202FA4BF31
:1003D0005E464FF0000B5BEA060C08BF4FF0010BC6
:1003E00019EB0B09ABFB027C48EB0608C01B06FBB4
:1003F00002CC0BFB03CC71EB0C01C1E70B460246B0
:1004000041464846BDE8F08B13B54FF000004FF071
:100410000001AFF30080BDE81C4070470FB40449F1
:1004200010B503AA029800F019FA10BC5DF814FB8D
:10043000240002202DE9F0410E46044600202062EF
:100440002046E168884730B3252805D0D4E901214A
:100450009047206A401CF2E7E16820460027884761
:10046000050018D0A5F14100192802D820354FF415
:1004700000673246294620462760FFF717FF40B144
:10048000012804D0F61D26F007060836D8E7361DE9
:10049000D6E72846DAE7206ABDE8F08170B50C4659
:1004A0000546012A05D02878800600D5EA69002390
:1004B00002E0012305E05B1C934202D2E05C0028CD
:1004C000F9D1A869E618C01AA861286A18442862F8
:1004D0002846AFF3008004E0D5E9012114F8010BB0
:1004E0009047B442F8D32846AFF3008070BD0000B7
:1004F0002DE9F0410646002410687529314616A5FD
:1005000010D0AFF30080002802DA404213A507E0C4
:1005100031688A0701D512A502E0490704D511A563
:10052000012401E0AFF3008000210A2206F1240734
:1005300009E0B0FBF2FCB0FBF2F302FB1C00303030
:1005400078541846491C0028F3D123462A463046E1
:10055000BDE8F04100F013B9000000002D000000DC
:100560002B0000002000000070B504460D46214617
:100570001068AFF300802188090502D50F4A7A443C
:1005800002E00E4A7A440E32002104F1240305E011
:1005900000F00F060009965D5E54491C0028F7D153
:1005A00020780023000704D5702D02D009B1022362
:1005B00011322046BDE8704000F0E1B8EE210500A0
:1005C00040EA0103024630B59B0710D14FF00134D9
:1005D00000E008C208C91D1B9D4315EAC41FF8D0DE
:1005E00013F0FF0102F8011B0DD01B0AF8E711F808
:1005F000013B002B02F8013B05D011F8013B002B19
:1006000002F8013BF3D130BD10B5431C02E010F8F5
:10061000011B71B18107FAD14FF0013202C88C1A67
:100620008C4314EAC211F9D0C01A0A0603D0C01EC6
:1006300010BDC01A10BD0A0401D0801E10BD0902F1
:10064000FCD0401E10BD10B5203AC0F00B80B1E8C0
:100650001850203AA0E81850B1E81850A0E81850F7
:10066000BFF4F5AF5FEA027C24BFB1E81850A0E800
:10067000185044BF18C918C0BDE810405FEA827C1A
:1006800024BF51F8043B40F8043B08BF7047D20731
:1006900028BF31F8023B48BF11F8012B28BF20F8D2
:1006A000023B48BF00F8012B70474FF0000200B535
:1006B000134694469646203922BFA0E80C50A0E885
:1006C0000C50B1F12001BFF4F7AF090728BFA0E833
:1006D0000C5048BF0CC05DF804EB890028BF40F8FF
:1006E000042B08BF704748BF20F8022B11F0804F41
:1006F00018BF00F8012B70474FF0013C50F8042B55
:1007000051F8043B9A4215D1A2EB0C03934313EA30
:10071000CC130BD150F8042B51F8043B9A4209D169
:10072000A2EB0C03934313EACC13E7D04FF0000085
:10073000704700BFD01A01BAB1FA81F101F0180177
:1007400022FA01F0CB40C1F12001DBB2C0B2C01AE5
:100750002CFA01F3D11A914311EAC311E6D1704783
:10076000704770477047704710B500F089F800680F
:1007700010BD10B5044600F083F8046010BD2DE9EB
:10078000F0470D4699469246044600F12408016858
:10079000880604D5E06921F01001216000E0012005
:1007A000A84201DD471B00E00027A1697A1902EB8E
:1007B0000900081AA0612078C00602D42046AFF3D1
:1007C0000080002608E0D4E901211AF806009047CD
:1007D000206A401C761C20624E45F4DB2078C0065F
:1007E0000AD52046AFF3008006E0D4E9012130208D
:1007F0009047206A401C2062381EA7F10107F4DCF4
:1008000007E0D4E9012118F805009047206A401C50
:100810002062281EA5F10105F3DC2046AFF300801D
:100820002078000602D50220BDE8F0870120FBE712
:1008300010B5436913B1AFF3008001E0FFF72EFE5E
:10084000012010BD127800F124010A7000224A70C4
:100850000122EDE711684FF0FF32E9E7074B70B571
:100860000D467B4400F015F80446284600F024F8B5
:1008700010B14FF0FF3070BD204670BDCF87010032
:1008800000487047CC6A052001694A1C026108785B
:10089000704700B58FB0CDE90131002105910549C0
:1008A0007944CDE9031011466846FFF7C3FD0FB048
:1008B00000BD0000E5FFFFFF007B00F080007047F7
:1008C00000487047CC6A05207546FFF7F9FFAE4631
:1008D00005006946534620F00700854618B020B54C
:1008E000FFF712FDBDE820404FF000064FF0000773
:1008F0004FF000084FF0000B21F00701AC46ACE8C8
:10090000C009ACE8C009ACE8C009ACE8C0098D4634
:10091000704710B50446AFF300802046BDE8104094
:10092000FFF7DEBC10B503F04BFD10BD2DE9F04123
:1009300007460C460026002509E036023919491BF6
:10094000491E88B200F008F80644681CC5B2A542EA
:10095000F3DB3046BDE8F08170B50446002603F0B5
:10096000F9FD2546E11704EB11610912A02202EB03
:100970004101C8B203F0B0FD03F040FEE11704EB03
:1009800011610912A4EB0121C8B203F0A5FD03F027
:1009900035FE03F0DFFDA12003F09EFD03F02EFEE7
:1009A000002003F063FD064603F0FEFD304670BDF7
:1009B0002DE9F04105460E461746002409E0E20005
:1009C00026FA02F2D1B22A1990B200F006F8601CA1
:1009D000C4B2BC42F3DBBDE8F08170B504460E46FC
:1009E00003F0B8FD2546E11704EB11610912A022BE
:1009F00002EB4101C8B203F06FFD03F0FFFDE11708
:100A000004EB11610912A4EB0121C8B203F064FDEB
:100A100003F0F4FD304603F05FFD03F0EFFD03F05B
:100A2000C3FD0A200EF098FC70BD00BFFEE710B5B4
:100A300002200EF09DFC10BD10B5002208210D48CB
:100A400001F09AFCFFF7F3FF012240210A4801F070
:100A500093FCFFF7ECFF00224021074801F08CFCDB
:100A6000FFF7E5FF01220821024801F085FCFFF7AE
:100A7000DEFF10BD00200240001C024000B587B020
:100A800000BF1748006840F080001549086008461C
:100A9000006800F08000019000BF00BF00BF084662
:100AA000006840F4807008600846006800F48070B8
:100AB000019000BF00BF4020029011200390012050
:100AC00004900320059002A9064801F041FB08208C
:100AD000029002A9044801F03BFB07B000BD0000F2
:100AE00030380240001C02400020024010B50122B4
:100AF00008210A4801F040FCFFF799FF012240213C
:100B0000074801F039FCFFF792FF0022402104481A
:100B100001F032FCFFF78BFF10BD00000020024007
:100B2000001C024070B505460024002618E060064F
:100B3000040E012240210F4801F01EFCFFF777FF51
:100B400008210D4801F010FC08B1601CC4B200225D
:100B50004021084801F010FCFFF769FF701CC6B285
:100B6000082EE4DB15B9FFF7C1FF01E0FFF764FFD2
:100B7000204670BD001C02400020024070B50446B3
:100B800000251EE0E00928B101220821114801F0EA
:100B9000F3FB04E0002208210E4801F0EDFBFFF713
:100BA00046FF012240210C4801F0E6FBFFF73FFF22
:100BB00000224021084801F0DFFB6006040E681C9B
:100BC000C5B2082DDEDB01220821024801F0D4FB6A
:100BD00070BD000000200240001C024010B5012240
:100BE00008210C4801F0C8FB012240210A4801F00D
:100BF000C3FBFFF71CFF00220821064801F0BCFBE5
:100C0000FFF715FF00224021034801F0B5FBFFF775
:100C10000EFF10BD00200240001C024010B5002253
:100C200008210A4801F0A8FBFFF701FF012240213B
:100C3000074801F0A1FBFFF7FAFE01220821034853
:100C400001F09AFBFFF7F3FE10BD00000020024008
:100C5000001C024070B50024002501220821134821
:100C600001F08AFBFFF7E3FE01224021104801F06A
:100C700083FBFFF7DCFE09E0601CC4B2FA2C03DD45
:100C8000FFF7CCFF012507E0FFF7D1FE0821074859
:100C900001F06AFB0028EFD100BF00224021044888
:100CA00001F06AFBFFF7C3FE284670BD002002403A
:100CB000001C024010B500BF00BF00BF00BF00BF56
:100CC000BFF34F8F00BF00BF00BF00BF00BF00BF1A
:100CD000BFF36F8F00BF00BF00BF00201149086045
:100CE0001148006840F400300F49086000BF00BFA1
:100CF00000BFBFF34F8F00BF00BF00BF00BF00BFEA
:100D000000BFBFF36F8F00BF00BF00BF00BF07F081
:100D1000E3FD04484C30006840F0040001494C31C8
:100D2000086010BD50EF00E014ED00E010B50024A5
:100D30001748006820F040701549086008460068B0
:100D4000086004E0601CC4B201200EF011FB4FF4F7
:100D500080510F4801F008FB08B1642CF2DB642CD1
:100D600001DB012010BD002404E0601CC4B201209E
:100D70000EF0FEFA4FF48051054801F0F5FA08B97B
:100D8000642CF2DB642C01DB0120EBE70020E9E7B7
:100D90000004024000B587B000BF0F48006840F073
:100DA00002000D4908600846006800F0020001904A
:100DB00000BF00BF8814029001200390049003201C
:100DC000059002A9054801F0C3F900F073F8FFF798
:100DD000ADFF07B000BD0000303802400004024003
:100DE00010B5002404E0601CC4B201200EF0C0FA6B
:100DF0004FF48051104801F0B7FA08B1642CF2DBCF
:100E0000002404E0601CC4B201200EF0B1FA4FF4DB
:100E10008051094801F0A8FA08B9642CF2DB2820B7
:100E20000EF0A6FA4FF48051034801F09DFA08B184
:100E3000012010BD0020FCE70004024070B5002432
:100E4000002506E06006040EFFF7CAFF0443681C95
:100E5000C5B2082DF6DB204670BD7CB505460E46B2
:100E600000F028F8FFF762FFF8B9002405E0FFF76B
:100E7000E5FF0DF80400601CC4B2052CF7DB9DF8FB
:100E800000009DF8011008449DF8021008449DF8E8
:100E9000031008449DF80410884208D19DF8000012
:100EA00030709DF80200287001E001207CBD002018
:100EB000FCE7000010B50E48006820F040700C49B7
:100EC00008600846006840F08070086000228914BD
:100ED000074801F051FA14200EF03EFA01221103E6
:100EE000034801F049FA1E200EF042FA10BD00003E
:100EF000000402407047000070B504461D46002300
:100F0000B5F5804F13D154F822300C480340D1E995
:100F1000000640EA06108E6840EA06208E8940EA04
:100F200006408E693043034344F8223003E06FF0FB
:100F3000704044F82200002070BD00000000F0CF97
:100F400010B502460023086852F820301B480340C1
:100F5000D1E901042043CC6820430C6920434C694B
:100F600020438C692043CC6920430C6A20434C6A9F
:100F700020438C6A2043CC6A20430C6B20438C6B4B
:100F800020434C6B204303438868082801D143F079
:100F90004003086842F82030086BB0F5801F05D187
:100FA000086818B110680C6B20431060086818B10D
:100FB00010684C6B20431060002010BD8004C0FFFF
:100FC00030B5034614460022601C53F8202002F07E
:100FD0004042D1E9000540EA05108D6840EA05204D
:100FE0008D8940EA0545088A401E45EA0055087D7E
:100FF000801E45EA00608D6928430243601C43F867
:101000002020186800F4801038B1586820F470026D
:10101000088A401E42EA00525A60002030BD30B5B6
:101020000246002300240868012816D013686FF3D5
:101030000E03D1E901052843CD6828430D692843F3
:101040004D6928438D692843CD6928430D6A28439B
:101050004D6A28430343136019E0136823F4F843EF
:10106000D1E9070528434D6A2843034354686FF3C9
:101070000E04D1E901052843CD6828430D692843B2
:101080004D6928438D692843044313605460002050
:1010900030BD0246506940EA41005061002070476F
:1010A000F8B506460C461546002000900027D4E906
:1010B00000010843A168491E40EA4110E16840EA86
:1010C000412000900098306101F05CF9074609E08A
:1010D000681C38B125B101F055F9C01BA84201D9EF
:1010E0000320F8BDB06900F020000028F0D100BF57
:1010F000F7E7000070B50346154600220024012DD5
:101100001FD09A6802F070420868401E4E68761E32
:1011100040EA06168868401E46EA0026C868401E57
:1011200046EA0036088A401E46EA0046888A401E83
:1011300046EA0056087E401E46EA006002439A6076
:1011400022E09A6811480240C868401E0603888A57
:10115000401E46EA00500243DC6804F07044086810
:10116000401E4E68761E40EA06168868401E46EA13
:101170000026088A401E46EA0046087E401E46EACF
:10118000006004439A60DC60002070BDFF0F0FFF19
:1011900010B588B0012400BF5548006840F08000B9
:1011A000534908600846006800F08000009000BFC6
:1011B00000BF00BF0846006840F480700860084621
:1011C000006800F48070009000BF00BF8020019094
:1011D00000200290012003900320049001A94548BB
:1011E00000F0B6FF200201900120029001A94248C0
:1011F00000F0AEFFFFF742FC002221023E4801F062
:10120000BBF814200EF0A8F8012211023A4801F0B0
:10121000B3F832200EF0A0F800208DF8180002225A
:1012200006A9A12000F078F89DF81800302803D115
:101230009DF81900032807D09DF81900012803D054
:101240009DF81900022824D19DF819009DF8182056
:1012500000EB022129A0FFF7E1F8012206A90020F6
:1012600000F03AFA012206A9A42000F035FA16206F
:101270008DF81800012206A9802000F02DFA0C201C
:101280008DF81800012206A9882000F025FA002414
:101290002BE0042206A948F2401000F0FBFA0020DF
:1012A0008DF81C0006A918A0FFF7B8F81948069990
:1012B000016002208DF81800012206A948F24000C2
:1012C00000F0C0FC012206A948F2470000F0E2FA53
:1012D0000A200EF041F800208DF81800012206A91E
:1012E00048F2400000F0AEFC0024204608B010BDDB
:1012F00030380240001C024000200240435450207D
:1013000049443A25780D0A004354502049443A256F
:10131000730D0A003C0002202DE9F04106460F46FD
:101320001546FFF75BFC7020FFF728FCFFF792FCE7
:10133000F0B2FFF723FCFFF78DFCFFF74FFC7120A5
:10134000FFF71CFCFFF786FC00240BE0691EA1429E
:1013500001D0012100E000210846FFF7E3FB3855EA
:10136000601CC4B2AC42F1DBFFF758FCBDE8F08171
:1013700071B583B0002001900026CF480078401C52
:10138000CD490870084600780A2190FBF1F201FB74
:10139000120018B1C84800780A287DDAC7A1C848E9
:1013A000FFF7AAF9D8B9012203A948F24E1000F0BC
:1013B00071FA9DF80C0000F08000A8B19DF80C00B7
:1013C00000F00F00BF49097888420DDC0020019031
:1013D000012201A948F24E1000F034FC04E0012281
:1013E00003A90220FFF798FF9DF80C0000F00F0002
:1013F000002851D09DF80C0000F00F00B149097889
:10140000884249DC9DF80C0000F00F01FF20884065
:10141000C4B2AD48858EE04380B240F0C000AA4916
:10142000888608468289A7480078401E0C3121F83A
:101430001020A548028CA3480078401E143121F8E2
:10144000102004200DF088FF00200190AAE09E48A3
:10145000808E9DF8042001219140084000282FD063
:1014600096A19748FFF748F9E8BB98499DF80420F2
:1014700031F81200042202A900F00CFA924890F808
:10148000440000F00100E0B19DF808009DF809104B
:1014900000EB012081B200E0C2E08B480C309DF8E7
:1014A000042020F812109DF80A009DF80B1000EBA4
:1014B000012081B2844820309DF8042020F81210C9
:1014C0006BE09DF808009DF8091000EB012081B247
:1014D0007D4820309DF8042020F812109DF80A0065
:1014E0009DF80B1000E00CE000EB01207849098822
:1014F000081A81B274480C309DF8042020F81210AC
:101500004BE074499DF8042031F81200042202A92E
:10151000FFF702FF6C4890F8440000F00100E0B1D2
:101520009DF809009DF8081001F00F0100EB012063
:10153000654920319DF8042021F812009DF80B0028
:101540009DF80A1001F00F0100EB01205E490C31FB
:101550009DF8042021F812001FE09DF809009DF875
:10156000081001F00F0100EB012059490988081A01
:1015700081B255480C309DF8042020F812109DF8D7
:101580000B009DF80A1001F00F0100EB01204E49FD
:1015900020319DF8042021F812009DF80400401C21
:1015A000C0B201909DF80400464909788842FFF6D0
:1015B0004EAF01264448808945490988884205DCA8
:1015C0004148008C42494988884226DD9DF80C003C
:1015D00000F00F0001280ADD3B48C0893A498881A4
:1015E0000846408C088400203349087018E03548CC
:1015F0000078401E34490C3131F810000C398881D4
:1016000030480078401E203131F81000203908841D
:10161000802003900846858602E000202649087055
:1016200026A12748FFF768F8F0B99DF80C0000F0F4
:101630008F00802835D1244890F8340000F08000D5
:1016400030B12148808E20F080001F49888628E034
:101650004FF6FF701C4988810884084690F83400D2
:1016600000F0E00088861CE09DF80C0000F01F00F0
:10167000B8B9154890F8340000F0800030B1124835
:10168000808E20F08000104988860AE04FF6FF70B7
:101690000D4988810884084690F8340000F0E00085
:1016A000888605480078F02802DD0A200249087083
:1016B000304604B070BD00004200022039313100D4
:1016C0003C000220410002204800022028E90308D3
:1016D000400402201EE903082DE9F04105460E46AC
:1016E00017464FF00008FFF779FA7020FFF746FA27
:1016F000FFF7B0FAE8B2FFF741FAFFF7ABFA0024C0
:101700000BE0305DFFF73AFAFFF7A4FA8046B8F134
:10171000000F00D003E0601CC4B2BC42F1DB00BF8C
:10172000FFF77CFA4046BDE8F081000000B589B0C3
:1017300000BF4A48006840F08000484908600846F9
:10174000006800F08000019000BF00BF00BF0846A5
:10175000006840F4807008600846006800F48070FB
:10176000019000BF00BF8020029000200390012064
:1017700004900320059002A9394800F0E9FC4FF4D9
:10178000807002900120039002A9364800F0E0FC2E
:10179000FFF774F900224FF48071324800F0ECFD3D
:1017A0000A200DF0D9FD012211022E4800F0E4FDBF
:1017B0000A200DF0D1FD80200290002003900490BB
:1017C0000320059002A9264800F0C2FC64200DF019
:1017D000C3FD042207A948F2401000F05BF8002086
:1017E0008DF8200007A920A0FEF718FE21A107A868
:1017F000FEF782FF78BB02208DF81C00012207A9AA
:1018000048F2400000F01EFA012207A948F2470002
:1018100000F040F89DF81C0060280DDA9DF81C10BF
:1018200016A0FEF7FBFD1A48808845F21051884249
:1018300002D1012000F0D8F90A200DF08DFD002022
:101840008DF81C00012207A948F2400000F0FAF9C7
:10185000002009B000BDFFE70020FAE73038024061
:10186000001C0240002002404354502049443A25C5
:10187000730D0A0039313437000000004465666199
:10188000756C74205665723A25640D0A00000000DC
:10189000400402202DE9F04105460F461646FFF7A9
:1018A0009DF92820FFF76AF9FFF7D4F92812FFF70E
:1018B00065F9FFF7CFF9E8B2FFF760F9FFF7CAF96A
:1018C000FFF78CF92920FFF759F9FFF7C3F9002436
:1018D0000BE0711EA14201D0012100E00021084669
:1018E000FFF720F93855601CC4B2B442F1DBFFF7B2
:1018F00095F9BDE8F081000071B583B000240026A1
:10190000B5480078401CB4490870084600780A21A0
:1019100090FBF1F201FB120018B1AF4800780A28E1
:1019200071DA012203A948F24E10FFF7B3FF9DF8C8
:101930000C0000F0800068B19DF80C0000F00F0072
:10194000062807DA00200190012201A948F24E1072
:1019500000F078F99DF80C0000F00F00002852D03C
:101960009DF80C0000F00F000628D9DA9DF80C0055
:1019700000F00F01FF208840C0B20190974890F816
:1019800034509DF80400C04380B240F0C000934939
:101990008886084681898182018C01850024C3E004
:1019A0008E48808E0121A140084000282AD08C4911
:1019B00031F81400042202A9FFF76CFF89488088DF
:1019C00045F21051884236D1844890F8440000F026
:1019D0000100C8B19DF808009DF8091000EB012036
:1019E00081B27E48203020F814109DF80A009DF83E
:1019F0000B1000EB0120C0F5487081B277480C3025
:101A000020F814108EE0BFE09DF808009DF8091042
:101A100000EB012081B271480C3020F814109DF8C1
:101A20000A009DF80B1000EB012081B26B482030BA
:101A300020F8141076E06B48808844F242318842E6
:101A400035D1664890F8440000F00100B0B19DF82F
:101A500008009DF8091000EB012081B25F480C30AE
:101A600020F814109DF80A009DF80B1000EB0120DF
:101A700081B25A48203020F8141053E09DF8080035
:101A80009DF8091000EB012081B25448203020F865
:101A900014109DF80A009DF80B1000EB0120C0F512
:101AA000887081B24D480C3020F814103AE04D484F
:101AB000808844F28431884234D1484890F8440008
:101AC00000F00100B0B19DF808009DF8091000EB8E
:101AD000012081B241480C3020F814109DF80A0012
:101AE0009DF80B1000EB012081B23C48203020F81B
:101AF000141017E09DF808009DF8091000EB012074
:101B000081B23648203020F814109DF80A009DF864
:101B10000B1000EB0120C0F5F07081B22F480C30A3
:101B200020F81410601CC4B2052CFFF639AF012652
:101B30002A4880892B490988884205DC2748008C7F
:101B40002849498888421CDD9DF80C0000F00F00F0
:101B500001280ADD2148C089204988810846408C37
:101B6000088400201C4908700EE01C48808A1B492C
:101B700088810846008D0884802003900846858669
:101B800002E00020144908709DF80C0000F08F005E
:101B9000802817D1114890F8340000F0800030B14F
:101BA0000E48808E20F080000C4988860AE04FF6AF
:101BB000FF700A4988810884084690F8340000F0D4
:101BC000E000888604480078F02802DD0A200249F7
:101BD0000870304604B070BD430002204800022067
:101BE000EAE903084004022038B505460024002035
:101BF0008DF800008DF8015000BF09E09DF800004D
:101C00000F49095D0844C0B28DF80000601CC4B2E1
:101C1000B82CF3D39DF80000C043401CC0B28DF82F
:101C20000000B822064948F2470000F00BF80222F3
:101C3000694648F2FF0000F005F8002038BD0000BA
:101C400032E903082DE9F04104460E4617464FF0ED
:101C50000008FEF7C3FF2820FEF790FFFEF7FAFF0B
:101C60002012FEF78BFFFEF7F5FFE0B2FEF786FFCE
:101C7000FEF7F0FF00250BE0705DFEF77FFFFEF73B
:101C8000E9FF8046B8F1000F00D003E0681CC5B240
:101C9000BD42F1DB00BFFEF7C1FF4046BDE8F08169
:101CA00000B589B000BF4748006840F08000454952
:101CB00008600846006800F08000019000BF00BF87
:101CC00000BF0846006840F480700860084600685D
:101CD00000F48070019000BF00BF802002900020BF
:101CE0000390012004900320059002A9364800F0DB
:101CF0002FFA4FF4807002900120039002A933481C
:101D000000F026FAFEF7BAFE00224FF480712F4849
:101D100000F032FB0A200DF01FFB012211022B48BC
:101D200000F02AFB0A200DF017FB80200290002013
:101D3000039004900320059002A9234800F008FABC
:101D400064200DF009FB042207A948F2401000F0BE
:101D500055F800208DF8200007A91DA0FEF75EFBB6
:101D60001FA107A8FEF7C8FC48BB02208DF81C0085
:101D7000012207A948F24000FFF764FF012207A9EA
:101D800048F24700FFF786FD9DF81C00412807DA5E
:101D90009DF81C1014A0FEF741FB012000F068F92B
:101DA0000A200DF0D9FA00208DF81C00012207A9A5
:101DB00048F24000FFF746FF002009B000BD0120B7
:101DC000FBE7000030380240001C024000200240C7
:101DD0004354502049443A25730D0A0D0A0000006F
:101DE000393237310000000044656661756C74203B
:101DF0005665723A25640D0A000000002DE9F04195
:101E000005460F461646FEF7E9FE2820FEF7B6FE09
:101E1000FEF720FF2812FEF7B1FEFEF71BFFE8B227
:101E2000FEF7ACFEFEF716FFFEF7D8FE2920FEF700
:101E3000A5FEFEF70FFF00240BE0711EA14201D0AA
:101E4000012100E000210846FEF76CFE3855601CB9
:101E5000C4B2B442F1DBFEF7E1FEBDE8F081000060
:101E600071B583B00020019000267D480078401CA9
:101E70007B490870084600780A2190FBF1F201FBCB
:101E8000120018B1764800780A286EDA012203A9F8
:101E900048F24E10FFF7B2FF9DF80C0000F08000F2
:101EA00068B19DF80C0000F00F000B2807DA002045
:101EB0000190012201A948F24E1000F007F99DF8A7
:101EC0000C0000F00F0000284FD09DF80C0000F02F
:101ED0000F000B28D9DA9DF80C0000F00F014FF627
:101EE000FF70884084B25F48858EE04380B240F046
:101EF000C0005C49888608468189C183018C41867F
:101F00000020019053E05748808E9DF80420012165
:101F10009140084040B354499DF8042031F8120024
:101F2000062202A9FFF76AFF4E4890F8440000F02D
:101F30000100D8B19DF80A009DF80B1000EB0120BC
:101F400081B2484820309DF8042020F812109DF8F6
:101F500008009DF8091000EB012081B241480C30C7
:101F60009DF8042020F812101CE051E09DF80A00B2
:101F70009DF80B1000EB0120C0F5487081B2394884
:101F80000C309DF8042020F812109DF808009DF8F0
:101F9000091000EB012081B2324820309DF8042066
:101FA00020F812109DF80400401CC0B201909DF86A
:101FB00004000A28A7DB01262A4880892B490988C2
:101FC000884205DC2748008C2849498888421CDD66
:101FD0009DF80C0000F00F0001280ADD2148C0899F
:101FE000204988810846408C088400201C490870DC
:101FF0000EE01C48C08B1B4988810846408E08842F
:10200000802003900846858602E00020144908706D
:102010009DF80C0000F08F00802816D1114890F830
:10202000340000F0800030B10E48808E20F0800037
:102030000C49888609E04FF6FF700A4988810884B8
:102040000846808E00F46040888605480078F028B5
:1020500002DD0A2002490870304604B070BD00005D
:102060004400022048000220AEEA03084004022097
:1020700038B50546002400208DF800008DF8015089
:1020800000BF09E09DF800000F49095D0844C0B297
:102090008DF80000601CC4B2B82CF3D39DF800008A
:1020A000C043401CC0B28DF80000BA22064948F275
:1020B000470000F00BF80222694648F2FF0000F0EA
:1020C00005F8002038BD0000F4E903082DE9F041CF
:1020D00004460E4617464FF00008FEF77FFD282005
:1020E000FEF74CFDFEF7B6FD2012FEF747FDFEF7AA
:1020F000B1FDE0B2FEF742FDFEF7ACFD00250BE0BE
:10210000705DFEF73BFDFEF7A5FD8046B8F1000FC0
:1021100000D003E0681CC5B2BD42F1DB00BFFEF792
:102120007DFD4046BDE8F081014691F8350002286A
:1021300003D08020486501207047052081F83500D4
:102140000868006820F001000A6810600020F3E7CA
:10215000F8B502460B46002100250024002000BFF0
:10216000E4E0012606FA01F51E6806EA0504AC4221
:1021700071D15E68022E02D05E68122E13D1CF0894
:1021800002F1200656F827004E07F70E0F26BE4034
:10219000B0434F07FF0E1E69BE403043CF0802F127
:1021A000200646F8270010684F000326BE40B043C3
:1021B0001E7906F003064F00BE40304310605E6893
:1021C000012E08D05E68022E05D05E68112E02D066
:1021D0005E68122E13D190684F000326BE40B043B4
:1021E0004F00DE68BE4030439060506801268E404C
:1021F000B0431E79C6F300168E4030435060D0685D
:102200004F000326BE40B0434F009E68BE4030439F
:10221000D0605E6806F08056B6F1805FA8D100BF3E
:10222000444E366846F48046424F3E603E4636682D
:1022300006F48046009600BF00BF3F4E8F0856F858
:1022400027008E07370F0F26BE40B0433B4EB242E9
:1022500002D100262EE068E0394EB24201D10126BB
:1022600028E0384EB24201D1022623E0364EB24277
:1022700001D103261EE0354EB24201D1042619E0F9
:10228000334EB24201D1052614E0324EB24201D1A2
:1022900006260FE0304EB24201D107260AE02F4E4B
:1022A000B24201D1082605E02D4EB24201D10926E5
:1022B00000E00A268F073F0FBE4030431E4E8F08B6
:1022C00046F82700274E3068A0435E6806F4803643
:1022D000B6F5803F00D12043224E3060361D306875
:1022E000A0435E6806F40036B6F5003F00D12043F7
:1022F0001C4E361D3060361D3068A0435E6806F403
:102300008016B6F5801F00D12043164E0836306087
:10231000361D3068A0435E6806F40016B6F5001F4F
:1023200000D120430F4E0C363060491C1029FFF4B9
:1023300018AFF8BD443802400838014000000240A0
:102340000004024000080240000C0240001002405D
:102350000014024000180240001C0240002002400D
:1023600000240240003C0140024613690B400BB1BF
:10237000012000E0002070470AB1816101E00B04F8
:102380008361704701480068704700001C0002200C
:1023900002480068401C0149086070471C00022088
:1023A00010B50848006840F4007006490860052030
:1023B00000F06CFA0F2000F007F800F01BFA002084
:1023C00010BD0000003C024070B50446074800689C
:1023D0004FF47A71B0FBF1F5284601F0ADFC002214
:1023E0002146501E00F014FA002070BD1800022093
:1023F00070B504460E46154600BF94F8A0000128AB
:1024000001D1022070BD012084F8A00000BF02208D
:1024100084F8A10005EB850101EBC50204F1380148
:1024200001EB820034223146FEF70DF92A4631468F
:10243000204605F0F1FE01202168486284F8A100E1
:1024400000BF002084F8A00000BF00BFDAE7000052
:1024500070B50446002500260CB9012070BD94F823
:10246000A10028B9002084F8A000204600F084F8DC
:10247000022084F8A1002068806920F07040216863
:102480008861D4E901010843E168084321690843F0
:102490002168896908432168886120688068354916
:1024A000084021688860A08A050420688068A169C6
:1024B00029430843216888602068C0682D49084086
:1024C0002168C860A08B05042068C068216A294380
:1024D00008432168C86020680069264908402168CF
:1024E0000861A08C050420680069A16A294308439B
:1024F00021680861206840691E49084021684861D8
:10250000A08D050420684069216B29430843216898
:10251000486194F83500050294F8360006042068F6
:10252000C06A00F07F402168C86246EA050094F85E
:10253000341008432168C96A08432168C8622068CA
:10254000406B40F00400216848632068406B40F015
:102550000200216848632068806940F0010021681A
:1025600088610020C4F8A400012084F8A1000020A4
:1025700074E7000000F800F010B586B0044600BF14
:102580004748006840F08060454908600846006898
:1025900000F08060009000BF00BF00BF40481438CA
:1025A000006840F400003E4914390860084600689D
:1025B00000F40000009000BF00BF00BF08460068A4
:1025C00040F0020008600846006800F00200009039
:1025D00000BF00BF00BF0846006840F02000086050
:1025E0000846006800F02000009000BF00BF00BF58
:1025F0000846006840F0400008600846006800F0A7
:102600004000009000BF00BF00BF0846006840F0D7
:10261000800008600846006800F08000009000BF5D
:1026200000BF00BF0846006840F48070086008469C
:10263000006800F48070009000BF00BF202001906F
:102640000120029003900320049001A91548FFF790
:102650007FFD4FF4806001900220029000200390E3
:10266000032004900E20059001A90F48FFF770FD8C
:102670004FF40C60019001A90C48FFF769FD4FF47D
:102680007E40019001A90A48FFF762FD40F2F76021
:10269000019001A90748FFF75BFD06B010BD0000DF
:1026A0004438024000040240001402400018024076
:1026B000001C0240002002402DE9F04104460E4675
:1026C0001746984600BF94F8A000012802D10220C6
:1026D000BDE8F081012084F8A00000BF022084F84A
:1026E000A10008EB880000EBC80104F1380000EB02
:1026F00081052E60A86A30446860AF60E86A38449B
:10270000E86042462946204605F086FD0120216802
:10271000486284F8A10000BF002084F8A00000BF38
:1027200000BFD5E72DE9F04105460E46174698460D
:1027300000BF95F8A000012802D10220BDE8F08179
:10274000012085F8A00000BF022085F8A10008EB59
:10275000880000EBC80105F1380000EB810400207F
:1027600020602068304460600020A060A068384489
:10277000E060A662E76242462146284605F04CFD2D
:1027800001202968486285F8A10000BF002085F873
:10279000A00000BF00BFD1E74178154A1160017861
:1027A000F9B1121D41681160017B0907C27A41EA43
:1027B0000261827A41EAC241427B41EA8241827BE4
:1027C00041EA4241C27B41EA0241427A41EA0221A6
:1027D000027A41EA420102781143054A0832116047
:1027E00005E00021024A121D1160121D11607047A0
:1027F00098ED00E0704700BF00F01F0201219140FA
:102800004209920002F1E022C2F8001100BF7047B5
:102810002DE9F05F80460D461646002705F018FEAC
:10282000074639462A46334601F00700C0F1070A39
:10283000BAF1040F02D94FF0040A01E0C0F1070A0F
:10284000D14600F1040ABAF1070F02D24FF0000A94
:1028500001E0A0F1030AD4464FF0010A0AFA09FA8E
:10286000AAF1010A0AEA020A0AFA0CFA4FF0010B6D
:102870000BFA0CFBABF1010B0BEA030B4AEA0B045E
:102880002146404605F0ECFDBDE8F09F00BF00F09A
:102890000702064B19684FF6FF031940044B0B4320
:1028A00043EA0221014B196000BF70470CED00E0C4
:1028B0000000FA0538B5002400BF2048006840F049
:1028C00080501E4908600846006800F08050009063
:1028D00000BF00BF1A48006840F480301849086003
:1028E000FFF750FD044607E0FFF74CFD001BB0F575
:1028F0007A7F01D9032038BD1148406800F4803048
:10290000B0F5803FF0D10E48006840F400300C492B
:102910000860FFF737FD044607E0FFF733FD001BB3
:10292000B0F57A7F01D90320E5E70548406800F457
:102930000030B0F5003FF0D10020DCE74038024025
:10294000007000402DE9F8430446002600250027CA
:10295000A846A946207800F0010088B100BFFE48D3
:10296000006820F40000FC49086008460068616BBC
:102970000843F949086000BF606B08B94FF00108CF
:10298000206800F40020B0F5002F13D1F248843005
:10299000006820F44010E16B0843EF49843108607F
:1029A000E06BB0F5801F01D14FF00108E06B08B972
:1029B0004FF00109206800F48010B0F5801F13D19A
:1029C000E5488430006820F44000216C0843E24967
:1029D00084310860206CB0F5800F01D14FF0010800
:1029E000206C08B94FF00109206800F08070B0F148
:1029F000807F01D14FF00108207800F020002028CE
:102A000070D100BFD4483830006840F08050D249BF
:102A1000383108600846006800F08050009000BF20
:102A200000BFCE48006840F48070CC490860FFF7D2
:102A3000A9FC064607E0FFF7A5FC801B642802D925
:102A40000320BDE8F883C548006800F480700028C2
:102A5000F1D0C1486830006800F4407585B3208E1D
:102A600000F44070A8422BD0BB486830006820F4C6
:102A70004075B9486830006840F48030B649683124
:102A800008600846006820F4803008600846056049
:102A9000006800F0010098B1FFF774FC064608E0FA
:102AA000FFF770FC801B41F28831884201D9032076
:102AB000C7E7A94868300068C0F340000028EFD09D
:102AC00000BF208E00F44070B0F5407F0BD1A248CB
:102AD000006820F4F810A24A216B114008439E4977
:102AE000086006E010E09C48006820F4F8109A495D
:102AF0000860994868300068218EC1F30B010843D3
:102B000095496831086000BF207800F01000102857
:102B100010D100BF90488430006820F080708E494A
:102B20008431086008460068A16B08438A498431F3
:102B3000086000BF208800F48040B0F5804F09D1C4
:102B400085488830006820F44030616E084382492F
:102B500088310860208800F40040B0F5004F09D1AA
:102B60007D488830006820F44020A16E08437A49EF
:102B700088310860206800F48030B0F5803F09D1CA
:102B800075488830006820F44010E16E08437249AF
:102B900088310860206800F40030B0F5003F09D1AA
:102BA0006D488830006820F44000216F08436A496E
:102BB00088310860207800F04000402809D166483C
:102BC0008830006820F00300616C08436249883156
:102BD0000860207800F08000802809D15E488830A5
:102BE000006820F00C00A16C08435B498831086044
:102BF000208800F48070B0F5807F09D15648883075
:102C0000006820F03000E16C0843534988310860C7
:102C1000208800F40070B0F5007F09D14E4888305C
:102C2000006820F0C000216D08434B4988310860DE
:102C3000208800F48060B0F5806F09D14648883064
:102C4000006820F44070616D084343498831086092
:102C5000208800F40060B0F5006F09D13E4888304C
:102C6000006820F44060A16D08433B49883108604A
:102C7000208800F48050B0F5805F09D13648883054
:102C8000006820F44050E16D084333498831086002
:102C9000208800F40050B0F5005F09D12E4888303C
:102CA000006820F44040216E08432B4988310860B9
:102CB000206800F48000B0F5800F09D126488830E4
:102CC000006820F08060A16F0843234988310860C4
:102CD000206800F40010B0F5001F0FD11E488830A6
:102CE000006820F00060E16F08431B4988310860EC
:102CF000E06FB0F1006F01D14FF00109207800F0D2
:102D00000800082801D14FF00109206800F4802054
:102D1000B0F5802F09D110488830006820F040704D
:102D2000616F08430C4988310860206800F4000096
:102D3000B0F5000F0AD108488830006820F08050B4
:102D4000D4F880100843044988310860206800F0F6
:102D50008060B0F1806F05E00838024000700040EC
:102D6000FFFCFF0F08D1FE48006820F00050D4F8A7
:102D700084100843FA490860206800F00060B0F150
:102D8000006F0AD1F648001F006820F00070D4F8E8
:102D900088100843F249091F0860206800F080503D
:102DA000B0F1805F0AD1EE48001F006820F080601B
:102DB000D4F88C100843EA49091F0860B8F1010FE4
:102DC00003D02068B0F1007F7DD1E54890380068DD
:102DD00020F08060E24990390860FFF7D3FA064698
:102DE00006E0FFF7CFFA801B642801D9032028E60C
:102DF000DB4890380068C0F3C0600028F1D120782B
:102E000000F00100F0B3606BE0BBD5480C380068FF
:102E100000F440304FF4403191FAA1F1B1FA81F160
:102E200020FA01F5CE480C38006800F070604FF0D1
:102E3000706191FAA1F1B1FA81F120FA01F747F638
:102E4000C07191FAA1F1B1FA81F1606888404FF444
:102E5000403191FAA1F1B1FA81F105FA01F108438B
:102E60004FF0706191FAA1F1B1FA81F107FA01F125
:102E700008434FF0E04292FAA2F2B2FA82F2A1685D
:102E8000914000E003E00843B5490C390860206830
:102E900000F40020B0F5002F03D1E06BB0F5801FE7
:102EA00009D0206800F48010B0F5801F50D1206C4C
:102EB000B0F5800F4CD1AA480C38006800F44030BF
:102EC0004FF4403100E0CFE091FAA1F1B1FA81F185
:102ED00020FA01F5A2480C38006800F0E0404FF0FD
:102EE000E04191FAA1F1B1FA81F120FA01F747F638
:102EF000C07191FAA1F1B1FA81F1606888404FF494
:102F0000403191FAA1F1B1FA81F105FA01F10843DA
:102F10004FF0706292FAA2F2B2FA82F2E168914046
:102F200008434FF0E04191FAA1F1B1FA81F107FABB
:102F300001F108438A490C3908608948001F00687C
:102F400020F01F00616A491E08438549091F086077
:102F5000206800F08070B0F1807F3FD180480C384D
:102F6000006800F070604FF0706191FAA1F1B1FA61
:102F700081F120FA01F57A480C38006800F0E04051
:102F80004FF0E04191FAA1F1B1FA81F120FA01F795
:102F900047F6C07191FAA1F1B1FA81F160688840F9
:102FA0004FF4403292FAA2F2B2FA82F221699140D1
:102FB00008434FF0706191FAA1F1B1FA81F105FA7D
:102FC00001F108434FF0E04191FAA1F1B1FA81F12A
:102FD00007FA01F1084362490C390860206800F0E3
:102FE0000070B0F1007F25D147F6C07191FAA1F1D0
:102FF000B1FA81F1606888404FF4403292FAA2F24F
:10300000B2FA82F22169914008434FF0706292FA5D
:10301000A2F2B2FA82F2E168914008434FF0E04236
:1030200092FAA2F2B2FA82F2A168914008434C49A6
:103030000C3908604A489038006840F08060484980
:1030400090390860FFF79EF9064606E0FFF79AF907
:10305000801B642801D90320F3E4414890380068BC
:10306000C0F3C0600028F1D0B9F1010F69D13C482C
:103070009038006820F08050394990390860FFF797
:1030800081F9064606E0FFF77DF9801B642801D927
:103090000320D6E4324890380068C0F3407000281E
:1030A000F1D1206800F40020B0F5002F01D1E06BD1
:1030B00038B1206800F48010B0F5801F4FD1206C2B
:1030C000F0BB27480838006800F440304FF4403126
:1030D00091FAA1F1B1FA81F120FA01F520480838FE
:1030E000006800F0E0404FF0E04191FAA1F1B1FA40
:1030F00081F120FA01F747F6C07191FAA1F1B1FA16
:1031000081F1606988404FF4403191FAA1F1B1FA40
:1031100081F105FA01F108434FF0706292FAA2F2D0
:10312000B2FA82F2A169914008434FF0E04191FA6E
:10313000A1F1B1FA81F107FA01F10843084901E070
:103140000DE0BBE008390860081D006820F4F85164
:10315000A06A401E41EA00200149091F086001E001
:1031600090380240206800F40010B0F5001F40D1F4
:10317000E06FB0F1006F3CD15148006800F0706022
:103180004FF0706191FAA1F1B1FA81F120FA01F5E5
:103190004B48006800F0E0404FF0E04191FAA1F1A7
:1031A000B1FA81F120FA01F747F6C07191FAA1F165
:1031B000B1FA81F1606988404FF4403292FAA2F28C
:1031C000B2FA82F2216A914008434FF0706191FA9D
:1031D000A1F1B1FA81F105FA01F108434FF0E041A4
:1031E00091FAA1F1B1FA81F107FA01F108433449EA
:1031F0000860207800F00800082845D130480068B1
:1032000000F070604FF0706191FAA1F1B1FA81F1B4
:1032100020FA01F52A48006800F440304FF44031AC
:1032200091FAA1F1B1FA81F120FA01F747F6C071E4
:1032300091FAA1F1B1FA81F1606988404FF440310F
:1032400091FAA1F1B1FA81F107FA01F108434FF0C7
:10325000706191FAA1F1B1FA81F105FA01F1084327
:103260004FF0E04292FAA2F2B2FA82F2E1699140A2
:10327000084313490860081D006820F44030E16AE3
:1032800008430F49091D08600D488838006840F060
:1032900080500B4988390860FFF774F8064606E04D
:1032A000FFF770F8801B642801D903209FE50448CC
:1032B00088380068C0F340700028F1D0002096E5FF
:1032C0008838024070B504460D46002666480068FE
:1032D00000F00F00A8420ED26348006820F00F00F3
:1032E0002843614908600846006800F00F00A842C2
:1032F00001D0012070BD207800F00200022807D123
:103300005A48006820F0F000A16808435749086057
:10331000207800F00100002860D06068012807D103
:10332000524808380068C0F34040A0B90120E1E7E6
:103330006068022807D14D4808380068C0F3406033
:1033400048B90120D6E7494808380068C0F3400072
:1033500008B90120CEE74548006820F00300616805
:10336000084342490860FFF70DF8064660680128E7
:1033700010D108E0FFF706F8801B41F2883188423F
:1033800001D90320B6E73948006800F00C00042892
:10339000F0D123E06068022810D108E0FEF7F2FFC8
:1033A000801B41F28831884201D90320A2E72F48CF
:1033B000006800F00C000828F0D10FE008E0FEF7EC
:1033C000E1FF801B41F28831884201D9032091E757
:1033D0002648006800F00C000028F0D12248006860
:1033E00000F00F00A8420ED91F48006820F00F001F
:1033F00028431D4908600846006800F00F00A842F5
:1034000001D0012076E7207800F00400042807D1DD
:103410001648006820F4E050E1680843134908604A
:10342000207800F00800082808D11048006820F42F
:103430006040216940EAC1000C49086000F04EF884
:103440000A49096801F0F001F02292FAA2F2B2FAF8
:1034500082F2D140064A515CC840064908600F20FC
:10346000FEF7B2FF002045E7003C0240083802406A
:10347000C6A1030818000220014800687047000038
:103480001800022000B5FFF7F7FF0749096801F4AB
:10349000E0514FF4E05292FAA2F2B2FA82F2D14035
:1034A000024A515CC84000BD08380240D6A103085A
:1034B00000B5FFF7E1FF0749096801F460414FF4E7
:1034C000604292FAA2F2B2FA82F2D140024A515C10
:1034D000C84000BD08380240D6A1030870B50021DD
:1034E000002200230020274C246804F00C0424B19F
:1034F000042C04D0082C41D103E0234840E02348A9
:103500003EE0204C241F246804F03F011D4C241F82
:10351000246804F4800484B11C4CB4FBF1F5194C0C
:10352000241F246847F6C076344096FAA6F6B6FA09
:1035300086F6F44005FB04F20FE0134CB4FBF1F502
:10354000104C241F246847F6C076344096FAA6F63D
:10355000B6FA86F6F44005FB04F20A4C241F2468F0
:1035600004F440344FF4403595FAA5F5B5FA85F5E5
:10357000EC40641C6300B2FBF3F001E0024800BFC2
:1035800000BF70BD083802400024F40040787D017F
:1035900038B504460025207800F00100002871D0DD
:1035A000FE48006800F00C0004280DD0FB480068BD
:1035B00000F00C00082813D1F848001F006800F440
:1035C0008000B0F5800F0BD1F44808380068C0F3D4
:1035D0004040002869D06068002866D1012038BDCD
:1035E00000BF6068B0F5803F08D1EC48083800683B
:1035F00040F48030E949083908602EE0606868B915
:10360000E6480838006820F48030E449083908604A
:103610000846006820F4802008601EE06068B0F56D
:10362000A02F0DD1DD480838006840F48020DB4928
:10363000083908600846006840F4803008600CE0F3
:10364000D6480838006820F48030D449083908602A
:103650000846006820F48020086000BF606890B1D0
:10366000FEF790FE054606E0FEF78CFE401B642840
:1036700001D90320B3E7C94808380068C0F34040C7
:103680000028F1D011E0FEF77DFE054606E0FEF7CA
:1036900079FE401B642801D90320A0E7BF48083801
:1036A0000068C0F340400028F1D1207800F002000B
:1036B000022873D1B948006800F00C0058B1B7482F
:1036C000006800F00C00082821D1B448001F0068F1
:1036D00000F48000D8B9B14808380068C0F3400051
:1036E00020B1E068012801D0012078E7AB48083814
:1036F000006820F0F800F82292FAA2F2B2FA82F200
:10370000216991400843A5490839086046E0E0680E
:1037100050B3A2480838006840F001009F490839BA
:103720000860FEF72FFE054606E0FEF72BFE401B65
:10373000022801D9032052E7984808380068C0F3EE
:1037400040000028F1D095480838006820F0F800C3
:10375000F82292FAA2F2B2FA82F221699140084369
:103760008E490839086019E08C480838006820F054
:1037700001008A4908390860FEF704FE054606E0A4
:10378000FEF700FE401B022801D9032027E78348EB
:1037900008380068C0F340000028F1D1207800F01C
:1037A0000800082836D16069D0B17C486C300068C8
:1037B00040F0010079496C310860FEF7E3FD0546F1
:1037C00006E0FEF7DFFD401B022801D9032006E7D3
:1037D00072486C300068C0F340000028F1D019E056
:1037E0006E486C30006820F001006C496C31086054
:1037F000FEF7C8FD054606E0FEF7C4FD401B0228A3
:1038000001D90320EBE665486C300068C0F3400046
:103810000028F1D1207800F00400042871D100BF05
:103820005E483830006840F080505C4938310860AC
:103830000846006800F08050009000BF00BF584864
:10384000006840F4807056490860FEF79BFD05460D
:1038500006E0FEF797FD401B642801D90320BEE671
:103860004F48006800F480700028F2D000BFA068C4
:10387000012808D149486830006840F001004749F4
:10388000683108602DE0A06868B944486830006875
:1038900020F001004149683108600846006820F0C6
:1038A000040008601DE0A06805280DD13B48683081
:1038B000006840F004003949683108600846006833
:1038C00040F0010008600CE034486830006820F0E7
:1038D00001003249683108600846006820F00400A1
:1038E000086000BFA068A8B1FEF74CFD054609E0DE
:1038F000FEF748FD401B41F28831884202D903207F
:103900006DE61BE0254868300068C0F340000028E1
:10391000EED013E0FEF736FD054608E0FEF732FD77
:10392000401B41F28831884201D9032057E61B48E9
:1039300068300068C0F340000028EFD1A06988B368
:103940001648006800F00C00082873D0A06902280F
:1039500064D112480838006820F080700F49083997
:103960000860FEF70FFD054606E0FEF70BFD401B65
:10397000022801D9032032E6084808380068C0F35D
:1039800040600028F1D1D4E90701084347F6C0722E
:1039900092FAA2F2B2FA82F2616A04E008380240B6
:1039A0000070004058E0914008430122A16AC2EB38
:1039B00051014FF4403292FAA2F2B2FA82F29140EF
:1039C00008434FF0706292FAA2F2B2FA82F2E16A10
:1039D000914008434FF0E04292FAA2F2B2FA82F22A
:1039E000216B914008431D490860081F006840F0A2
:1039F0008070091F0860FEF7C5FC054606E0FEF76B
:103A0000C1FC401B022801D90320E8E51348001F30
:103A10000068C0F340600028F1D01DE00F48001F8F
:103A2000006820F080700D49091F0860FEF7AAFCAD
:103A3000054607E00EE0FEF7A5FC401B022801D971
:103A40000320CCE50548001F0068C0F34060002853
:103A5000F1D101E00120C2E50020C0E504380240B8
:103A600070B504460D460CB9012070BD94F82C00C9
:103A700028B9002084F82D00204600F011F802201B
:103A800084F82C00211D2068FDF7C9FA2946D4E9E5
:103A90000002FDF72FFB012084F82C000020E4E752
:103AA00010B586B0044600BF3E48006840F00100F3
:103AB0003C4908600846006800F00100009000BF23
:103AC00000BF00BF37480838006840F0040035499F
:103AD000083908600846006800F00400009000BF44
:103AE00000BF00BF0846006840F0080008600846B4
:103AF000006800F00800009000BF00BF00BF08464B
:103B0000006840F0100008600846006800F01000EF
:103B1000009000BF00BF00BF0846006840F02000D2
:103B200008600846006800F02000009000BF00BF59
:103B300000BF0846006840F0400008600846006882
:103B400000F04000009000BF00BF0D200190022057
:103B5000029001200390032004900C20059001A9FD
:103B60001148FEF7F5FA4CF20370019001A90F48D5
:103B7000FEF7EEFA4FF68370019001A90C48FEF7AC
:103B8000E7FA4FF63F00019001A90A48FEF7E0FA74
:103B900048F23710019001A90748FEF7D9FA06B09C
:103BA00010BD00003838024000080240000C0240FE
:103BB00000100240001402400018024070B5044694
:103BC0000D4694F82C00022800D170BD022084F824
:103BD0002C0029462068FDF75CFA012084F82C00AF
:103BE0000020F2E770B504460D46164694F82C0006
:103BF000022800D170BD022084F82C0032462946EC
:103C00002068FDF74DFA2868022803D1052084F8C2
:103C10002C0002E0012084F82C000020EAE770B5B7
:103C200004460E4615460CB9012070BD94F84500B7
:103C300028B9002084F84400204600F01DF804F163
:103C400008012068FDF77CF93146A2682068FDF77D
:103C5000B7F92946E36AD4E90102FDF74DF9A168F5
:103C6000206850F8210040F00100A268216841F866
:103C700022000020D9E7000010B586B0044600BF3E
:103C80002048006840F001001E49086008460068AE
:103C900000F00100009000BF00BF00BF19480838C5
:103CA000006840F0080017490839086008460068B5
:103CB00000F00800009000BF00BF00BF0846006889
:103CC00040F0100008600846006800F01000009006
:103CD00000BF00BF4EF2B37001900220029001209D
:103CE0000390032004900C20059001A90648FEF7DC
:103CF0002FFA4FF68070019001A90448FEF728FAC8
:103D000006B010BD38380240000C024000100240DE
:103D1000042808D14FF0E021096941F004014FF077
:103D2000E022116107E04FF0E021096921F0040170
:103D30004FF0E0221161704770B504462546681EB9
:103D4000B0F1807F01D301200FE0681E4FF0E02129
:103D500048610F214FF0FF3004F082FB00204FF04C
:103D6000E021886107200861002070BD704770471E
:103D700010B504460CB9012010BD94F8390010B9F3
:103D8000204600F00DF8022084F83900211D20683B
:103D900004F022FF012084F839000020ECE7000045
:103DA00038B504460D492068884215D100BF0C483B
:103DB000006840F002000A4908600846006800F008
:103DC0000200009000BF00BF032201211D20FEF76A
:103DD0001FFD1D20FEF70FFD38BD00000004004050
:103DE0004038024001460868C06840F001000A6897
:103DF000D0600868006840F001000A681060002088
:103E00007047704710B5044620680069C0F3400051
:103E1000D8B12068C068C0F34000B0B16FF00200B4
:103E200021680861012020762068806900F0030085
:103E300018B12046FFF7E5FF05E0204600F0BEF888
:103E4000204600F0BCF80020207620680069C0F30E
:103E50008000D8B12068C068C0F38000B0B16FF0B6
:103E6000040021680861022020762068806900F43F
:103E7000407018B12046FFF7C4FF05E0204600F06F
:103E80009DF8204600F09BF800202076206800690D
:103E9000C0F3C000D8B12068C068C0F3C000B0B1A2
:103EA0006FF0080021680861042020762068C0694E
:103EB00000F0030018B12046FFF7A3FF05E02046FD
:103EC00000F07CF8204600F07AF800202076206888
:103ED0000069C0F30010D8B12068C068C0F30010BA
:103EE000B0B16FF0100021680861082020762068CA
:103EF000C06900F4407018B12046FFF782FF05E06A
:103F0000204600F05BF8204600F059F800202076AB
:103F10002068006900F0010058B12068C06800F016
:103F2000010030B16FF0010021680861204600F007
:103F300047F820680069C0F3C01058B12068C06815
:103F4000C0F3C01030B16FF08000216808612046D6
:103F5000FFF70CFF20680069C0F3002058B120680B
:103F6000C068C0F3C01030B16FF0800021680861F4
:103F70002046FFF7FBFE20680069C0F3801058B1AF
:103F80002068C068C0F3801030B16FF04000216835
:103F90000861204600F020F820680069C0F3401056
:103FA00058B12068C068C0F3401030B16FF02000F5
:103FB000216808612046FFF7DAFE10BD70477047A0
:103FC00010B504460348844202D101202EF01AFDA8
:103FD00010BD000070050220704770472DE9F041C8
:103FE00004462068C569206806682068876805F06F
:103FF0000F08B8F1000F0AD105F0200038B106F023
:10400000200020B1204605F030FFBDE8F081B8F176
:10401000000F79D040F201103840002874D005F02C
:10402000010048B106F4807030B1012021680862B7
:10403000E06E40F00100E06605F0020048B107F0D4
:10404000010030B1022021680862E06E40F00400F7
:10405000E06605F0040048B107F0010030B104202B
:1040600021680862E06E40F00200E06605F008009A
:1040700060B106F0200010B907F0010030B108204F
:1040800021680862E06E40F00800E066E06E58B318
:1040900005F0200028B106F0200010B1204605F000
:1040A000E4FEE06E00F0080020B92068806800F0AF
:1040B000400018B3204605F0B8FE2068806800F084
:1040C0004000B8B12068806820F040002168886016
:1040D000606E50B11748616E0865606EFEF724F897
:1040E00010B1606E016D88470DE02046FFF775FF47
:1040F00009E009E02046FFF770FF04E02046FFF7E3
:104100006CFF0020E06680E705F0800030B106F02B
:10411000800018B1204606F0B3F876E705F04000BD
:1041200030B106F0400018B1204605F08EFE6CE775
:1041300000BF6AE7139E000810B504460CB90120C1
:1041400010BDA06900B100E000BF94F8690028B973
:10415000002084F86800204600F02AF8242084F823
:1041600069002068006820F001002168086020468E
:1041700005F0C0FE012800D1E2E7606A10B12046D8
:1041800005F098FD2068406820F490402168486060
:104190002068806820F02A00216888602068006814
:1041A00040F0010021680860204605F0F8FDC7E7EF
:1041B00010B586B0044623492068884240D100BF2C
:1041C0002148006840F001001F4908600846006867
:1041D00000F00100009000BF00BF00BF1A4814307B
:1041E000006840F010001849143108600846006863
:1041F00000F01000009000BF00BF481501900220A1
:10420000029001200390022004900720059001A94C
:104210000E48FDF79DFF4FF48060019001A90B4807
:10422000FDF796FF2068006840F0200021680860D4
:104230002520FEF7E0FA032211462520FEF7E8FAD2
:1042400006B010BD001001403038024000000240AE
:104250002DE9F84F04460D46164699464FF0000AE0
:1042600094F86A0020287AD105B116B90120BDE87A
:10427000F88F00BF94F86800012801D10220F6E70A
:10428000012084F8680000BF0020583460612220BB
:10429000A074FEF777F8824626806680583C00BFFF
:1042A000A068B0F5805F0AD1206920B940F2FF1004
:1042B000A4F85C001CE0FF20A4F85C0018E0A068F3
:1042C00048B9206918B9FF20A4F85C0010E07F20ED
:1042D000A4F85C000CE0A068B0F1805F08D1206910
:1042E00018B97F20A4F85C0002E03F20A4F85C002D
:1042F00000BFB4F85C8024E0B4F85A00401EA4F873
:104300005A005346002220212046CDF8009005F0A7
:10431000ECFF08B10320AAE7A068B0F5805F09D1DF
:10432000206938B92F462068406A00EA08003880C2
:10433000AD1C06E02068406A08F0FF01084005F85F
:10434000010BB4F85A000028D6D1202084F86A0066
:1043500000BF002084F8680000BF88E7FFE7022064
:1043600085E77047704700BFFEE7000010B50022E8
:1043700010211248FEF700F81048006820F4406051
:104380000E4908600846006840F48060086000221A
:1043900020210A48FDF7F0FF02200AF0E9FF012280
:1043A00010210648FDF7E8FF02200AF0E1FF002295
:1043B00010210248FDF7E0FF10BD0000001C024084
:1043C00000B587B000BF1248006840F08000104977
:1043D00008600846006800F08000019000BF00BF40
:1043E000302002900120039004900220059002A941
:1043F0000848FDF7ADFE012220210648FDF7BCFF6D
:10440000012210210348FDF7B7FF07B000BD0000EF
:1044100030380240001C024010B500221021124822
:10442000FDF7AAFF1048006820F440600E490860BC
:104430000846006840F480600860012220210A4894
:10444000FDF79AFF02200AF093FF0122102106488F
:10445000FDF792FF02200AF08BFF00221021024894
:10446000FDF78AFF10BD0000001C024070B5054634
:1044700000241848006820F4406016490860084687
:104480000068086000261AE0002210211148FDF79C
:1044900073FF02200AF06CFF012210210D48FDF786
:1044A0006BFF6006040E20210A48FDF75DFF08B18E
:1044B000601CC4B201200AF05BFF701CC6B2082E5B
:1044C000E2DB15B9FFF7A8FF01E0FFF74FFF204639
:1044D00070BD0000001C024070B504461C48006816
:1044E00020F440601A4908600846006840F4806083
:1044F0000860002210211648FDF73EFF002523E04A
:10450000E00928B1012220211148FDF735FF04E020
:10451000002220210E48FDF72FFF6006040E022026
:104520000AF026FF012210210948FDF725FF02208D
:104530000AF01EFF002210210548FDF71DFF022092
:104540000AF016FF681CC5B2082DD9DB70BD00004B
:10455000001C024010B51348006820F44060114967
:1045600008600846006840F480600860012220214D
:104570000C48FDF701FF012210210A48FDF7FCFE5F
:1045800004200AF0F5FE002220210648FDF7F4FE83
:1045900004200AF0EDFE002210210248FDF7ECFE97
:1045A00010BD0000001C024010B51348006820F444
:1045B0004060114908600846006840F48060086067
:1045C000002210210C48FDF7D7FE002220210A48C6
:1045D000FDF7D2FE04200AF0CBFE0122102106488E
:1045E000FDF7CAFE04200AF0C3FE01222021024882
:1045F000FDF7C2FE10BD0000001C024010B50024F3
:104600001748006820F440601549086008460068B3
:104610000860012220211248FDF7AEFE01200AF0B9
:10462000A7FE012210210E48FDF7A6FE01200AF088
:104630009FFE07E0601CC4B2FA2C03DDFFF7B4FF55
:10464000012010BD20210648FDF78EFE0028F1D183
:10465000002210210248FDF78FFE0020F1E7000044
:10466000001C024000B587B000BF2448006840F03D
:104670000100224908600846006800F0010001902E
:1046800000BF00BF00BF0846006840F0040008609B
:104690000846006800F00400019000BF00BF00BFA2
:1046A0000846006840F0800008600846006800F096
:1046B0008000019000BF00BF012002900020039005
:1046C000022004900320059002A90D48FDF740FD4B
:1046D0004FF400500290002003900120049003202A
:1046E000059002A90748FDF733FD0C20029002A9AE
:1046F0000548FDF72DFD07B000BD00003038024031
:104700000000024000080240001C024070B5044650
:1047100000260D4805880D48006818B1204603F0B2
:10472000B5F90FE00848408845430021084602F0EB
:1047300099FF03F06DF9002602E005490C80761C14
:10474000AE42FAD370BD00004004022050050220A2
:10475000000008602DE9FF4F81B080460D4691466C
:10476000DDF838A01848006840B1CDF800A04A46EE
:1047700029464046049B03F0AFF921E0A9EB08006D
:10478000401C86B20498401B401C1FFA80FB00248A
:1047900014E0281981B2404602F064FF03F038F9B2
:1047A000002707E004FB06703AF81000074908806C
:1047B000781C87B2B742F5DB601C84B25C45E8DB4D
:1047C00005B0BDE8F08F0000500502200000086031
:1047D00010B50446624884716248006850B12046B2
:1047E00003F022FA5F48C08A5D4908805D48008B6B
:1047F000488010BD002C57D1F020594908804FF453
:10480000A07048800846808849F2413188420BD028
:104810005348808845F21031884205D0504880883E
:1048200047F28971884214D12C204D4908812A20F1
:1048300048812B2088810846808845F210318842C3
:1048400006D14FF4A070464908804FF4F0704880BC
:1048500081E04348808845F21051884210D14FF4DE
:1048600030503F4908814FF4285048814FF42C5074
:1048700088814FF4F07008804FF4487048806AE0F7
:104880003748808841F66311884264D12C2034492E
:1048900008812B2048812A2088814FF4F0700880FD
:1048A0004FF44870488056E04FF4A0702C490880BF
:1048B000F02048800846808849F2413188420BD078
:1048C0002748808845F21031884205D024488088E6
:1048D00047F28971884207D12C20214908812A207A
:1048E00048812B20888129E01D48808845F210519D
:1048F000884210D14FF43050194908814FF42850A4
:1049000048814FF42C5088814FF4487008804FF450
:10491000F070488012E01248808841F663118842A6
:104920000CD12C200E4908812A2048812B20888117
:104930004FF4487008804FF4F07048800848808831
:1049400045F21031884206D14FF4F07004490880D6
:104950004FF4A0704880002002F044FD00BF48E7FB
:1049600040040220500502202DE9FF4F85B081460A
:104970008A460020049003900798A0EB0905089848
:10498000A0EB0A06CDF80890CDF804A0002D01DDBB
:10499000012705E00DB9002702E04FF0FF376D4217
:1049A000002E02DD4FF0010806E016B94FF00008B6
:1049B00002E04FF0FF387642B54201DD2C4600E0C0
:1049C00034464FF0000B21E0019A91B2029A90B266
:1049D00000F022F80498284404900398304403908F
:1049E0000498A04205DD0498001B04900298384406
:1049F00002900398A04205DD0398001B03900198E4
:104A0000404401900BF101001FFA80FB601C8345BC
:104A1000DADD09B0BDE8F08F70B504460D460A48EE
:104A2000006830B1094829460268204603F012F9AF
:104A300009E02946204602F015FE02F0E9FF03488E
:104A400000880349088070BD500502202C00022018
:104A5000000008602DE9F04706460F469046002406
:104A600045460320A0EB48093CE07A1B91B232197D
:104A700090B2FFF7D1FF3A1B91B2721990B2FFF7D3
:104A8000CBFF3A1991B2721990B2FFF7C5FF7A19AC
:104A900091B2321990B2FFF7BFFF7A1991B2321B6F
:104AA00090B2FFF7B9FF3A1991B2721B90B2FFF7BB
:104AB000B3FF7A1B91B2321B90B2FFF7ADFF3A1BE6
:104AC00091B2721B90B2FFF7A7FF641CB9F1000FFF
:104AD00003DAA000801D814404E0601B80000A30DE
:104AE00081446D1EAC42C0DDBDE8F08770B5044660
:104AF0000D4616464648006828B1324629462046EB
:104B000003F0A8F870BD4348808849F241318842DB
:104B10000BD04048808845F21031884205D03D488E
:104B2000808847F28971884214D13A49488902F055
:104B300063FF201202F054FFE0B202F051FF35494A
:104B4000888902F059FF281202F04AFFE8B202F009
:104B500047FF54E02F48808845F21051884220D109
:104B60002C49488902F048FF201202F039FF2949F8
:104B70004989491C88B202F03FFFE0B202F030FFE1
:104B80002449888902F038FF281202F029FF2149C0
:104B90008989491C88B202F02FFFE8B202F020FF99
:104BA0002DE01C48808841F66311884227D11948BE
:104BB000807920B917480088401E001B84B215492F
:104BC000488902F019FF201202F00AFFE0B202F059
:104BD00007FF201202F004FFE0B202F001FF0D49CE
:104BE000888902F009FF281202F0FAFEE8B202F00A
:104BF000F7FE281202F0F4FEE8B202F0F1FE0548DA
:104C0000008905490880891C0E8000BF7AE70000F2
:104C10005005022040040220FEFF076000B595B059
:104C200003F08EFAFE4988800846808818B103F0A8
:104C3000DDF802F002BB00BFFA48006840F0020055
:104C4000F84908600846006800F00200019000BFC3
:104C500000BF20201090012011901290032013908B
:104C600010A9F148FDF774FA02F03CFB4FF0204028
:104C7000EE490860EE484860002088600021EB485B
:104C8000C160016110214161090241628900C16274
:104C90000F20099000200A9050200B9000200F90C8
:104CA0000F200290002003900F2004900020089015
:104CB00002AA09A9DD48FEF7B2FF32200AF04CFB38
:104CC000D32002F099FE02F05BFBD549888002F008
:104CD00057FBD349888002F053FBD14988800846AE
:104CE00080884FF6FF7101EA0020CD49888002F0EC
:104CF00047FBCB4989880843C94988800846808892
:104D000049F2413188427DD0042002F075FE02F064
:104D100037FBC349888002F033FBC149888002F029
:104D20002FFBBF498880084680884FF6FF7101EA53
:104D30000020BB49888002F023FBB94989880843D9
:104D4000B74988800846808848F25251884203D18A
:104D500047F28970B2498880B148808847F28971EA
:104D60008842D0D0D42002F047FE02F009FBAC49C3
:104D7000888002F005FBAA49888002F001FBA8495F
:104D80008880084680884FF6FF7101EA0020A44918
:104D9000888002F0F5FAA24989880843A0498880F2
:104DA0000846808845F2103188426BD055214FF477
:104DB000704002F037FEAA214FF2010002F032FEED
:104DC00052214FF2020002F02DFE08214FF20300A3
:104DD00002F028FE01214FF2040002F023FE4FF4FE
:104DE000454002F009FE02F0CBFA8D498880084662
:104DF00080884FF6FF7101EA0020894988804CF2D3
:104E0000015000E03EE002F0F7FD02F0B9FA8449FB
:104E1000898808438249888005200AF09DFA8048E5
:104E20008088B0F5004F03D145F210507C4988804E
:104E30007B48808845F21051884223D0A12002F09F
:104E4000DBFD02F09DFA7649888002F099FA7449F8
:104E50008880084680884FF6FF7101EA002070497B
:104E6000888002F08DFA6E49898808436C498880F1
:104E70000846808845F26171884203D141F663108B
:104E800067498880664881886AA0FBF7C7FA64484A
:104E9000808849F2413188427ED1CF2002F0ACFDBA
:104EA000002002F09DFDC12002F09AFD302002F0AA
:104EB00097FDED2002F0A0FD642002F091FD03209B
:104EC00002F08EFD122002F08BFD812002F088FDA1
:104ED000E82002F091FD852002F082FD102002F012
:104EE0007FFD7A2002F07CFDCB2002F085FD392089
:104EF00002F076FD2C2002F073FD002002F070FD20
:104F0000342002F06DFD022002F06AFDF72002F06D
:104F100073FD202002F064FDEA2002F06DFD002008
:104F200002F05EFD002002F05BFDC02002F064FD97
:104F30001B2002F055FDC12002F05EFD012002F0B1
:104F40004FFDC52002F058FD302002F049FD302011
:104F500002F046FDC72002F04FFDB72002F040FDF1
:104F6000362002F049FD482002F03AFD3A2002F0D6
:104F700043FD552002F034FDB12002F03DFD00203C
:104F800002F02EFD1A2002F02BFDB62002F034FDB7
:104F90000A2002F025FD00E0A9E0A22002F020FD99
:104FA000F22002F029FD002002F01AFD262002F076
:104FB00023FD012002F014FDE02002F01DFD0F2072
:104FC00002F00EFD2A2002F00BFD282002F008FD61
:104FD000082002F005FD0E2002F002FD082002F07C
:104FE000FFFC542002F0FCFCA92002F0F9FC432055
:104FF00002F0F6FC0A2002F0F3FC0F2002F0F0FCB5
:10500000002002F0EDFC002002F0EAFC002002F09B
:10501000E7FC002002F0E4FCE12002F0EDFC11E0EE
:10502000400402203038024000040240F403022011
:10503000040100A0204C43442049443A25780D0A3D
:1050400000000000002002F0CBFC152002F0C8FC9C
:10505000172002F0C5FC072002F0C2FC112002F06C
:10506000BFFC062002F0BCFC2B2002F0B9FC56204D
:1050700002F0B6FC3C2002F0B3FC052002F0B0FCCC
:10508000102002F0ADFC0F2002F0AAFC3F2002F03D
:10509000A7FC3F2002F0A4FC0F2002F0A1FC2B2073
:1050A00002F0AAFC002002F09BFC002002F098FC19
:1050B000012002F095FC3F2002F092FC2A2002F031
:1050C0009BFC002002F08CFC002002F089FC0020F8
:1050D00002F086FCEF2002F083FC112002F08CFC31
:1050E00078200AF039F9292002F086FCA1E5FE4873
:1050F000808847F2897188427ED1112002F07CFCC1
:1051000078200AF029F9362002F076FC002002F01F
:1051100067FC3A2002F070FC052002F061FCB2202E
:1051200002F06AFC0C2002F05BFC0C2002F058FC40
:10513000002002F055FC332002F052FC332002F034
:105140004FFCB72002F058FC352002F049FCBB2090
:1051500002F052FC322002F043FCC02002F04CFC72
:105160000C2002F03DFCC22002F046FC012002F0BF
:1051700037FCC32002F040FC102002F031FCC420B8
:1051800002F03AFC202002F02BFCC62002F034FC96
:105190000F2002F025FCD02002F02EFCA42002F00B
:1051A0001FFCA12002F01CFCE02002F025FCD02016
:1051B00002F016FC002002F013FC022002F010FCAA
:1051C000072002F00DFC0A2002F00AFC282002F061
:1051D00007FC322002F004FC442002F001FC4220D3
:1051E00002F0FEFB062002F0FBFB0E2002F0F8FBB3
:1051F000122002F0F5FB00E054E0142002F0F0FB76
:10520000172002F0EDFBE12002F0F6FBD02002F0C7
:10521000E7FB002002F0E4FB022002F0E1FB0720A4
:1052200002F0DEFB0A2002F0DBFB282002F0D8FBB4
:10523000312002F0D5FB542002F0D2FB472002F0CF
:10524000CFFB0E2002F0CCFB1C2002F0C9FB172084
:1052500002F0C6FB1B2002F0C3FB1E2002F0C0FBC5
:105260002A2002F0C9FB002002F0BAFB002002F065
:10527000B7FB002002F0B4FBEF2002F0B1FB2B20C3
:1052800002F0BAFB002002F0ABFB002002F0A8FB0A
:10529000012002F0A5FB3F2002F0A2FB292002F032
:1052A000ABFBC6E49048808845F21031884240F05C
:1052B0007C87ED2002F0A0FB012002F091FBFE2094
:1052C00002F08EFBEE2002F097FBDE2002F088FB5E
:1052D000212002F085FBF12002F08EFB012002F07C
:1052E0007FFBDF2002F088FB102002F079FBC42056
:1052F00002F082FB8F2002F073FBC62002F07CFBE1
:10530000002002F06DFBE22002F06AFBE22002F0D6
:1053100067FBE22002F064FBBF2002F06DFBAA20D5
:1053200002F05EFBB02002F067FB0D2002F058FB9C
:10533000002002F055FB0D2002F052FB002002F08D
:105340004FFB112002F04CFB002002F049FB19201A
:1053500002F046FB002002F043FB212002F040FB5C
:10536000002002F03DFB2D2002F03AFB002002F06D
:1053700037FB3D2002F034FB002002F031FB5D20C2
:1053800002F02EFB002002F02BFB5D2002F028FB38
:10539000002002F025FBB12002F02EFB802002F05D
:1053A0001FFB002002F01CFB8B2002F019FB0020E9
:1053B00002F016FB962002F013FB002002F010FB17
:1053C000B22002F019FB002002F00AFB002002F0DC
:1053D00007FB022002F004FB002002F001FB032087
:1053E00002F0FEFA002002F0FBFAB32002F004FB08
:1053F000002002F0F5FA002002F0F2FA002002F09C
:10540000EFFA002002F0ECFA002002F0E9FA0020A6
:1054100002F0E6FA002002F0E3FA002002F0E0FADF
:10542000002002F0DDFA002002F0DAFA002002F09B
:10543000D7FA002002F0D4FA002002F0D1FA0020BE
:1054400002F0CEFA002002F0CBFA002002F0C8FAF7
:10545000002002F0C5FA002002F0C2FA002002F09B
:10546000BFFA002002F0BCFA002002F0B9FA0020D6
:1054700002F0B6FA002002F0B3FA002002F0B0FA0F
:10548000B42002F0B9FA8B2002F0AAFA002002F050
:10549000A7FA962002F0A4FA002002F0A1FAA120B7
:1054A00002F09EFA002002F09BFAB52002F0A4FA66
:1054B000022002F095FA002002F092FA032002F096
:1054C0008FFA002002F08CFA042002F089FA002002
:1054D00002F086FAB62002F08FFA002002F080FA7D
:1054E000002002F07DFA01E040040220B72002F023
:1054F00083FA002002F074FA002002F071FA3F20D3
:1055000002F06EFA002002F06BFA5E2002F068FAF8
:10551000002002F065FA642002F062FA002002F036
:105520005FFA8C2002F05CFA002002F059FAAC20FD
:1055300002F056FA002002F053FADC2002F050FA92
:10554000002002F04DFA702002F04AFA002002F02A
:1055500047FA902002F044FA002002F041FAEB20D2
:1055600002F03EFA002002F03BFADC2002F038FAAA
:10557000002002F035FAB82002F03EFA002002F0D6
:105580002FFA002002F02CFA002002F029FA002065
:1055900002F026FA002002F023FA002002F020FA9E
:1055A000002002F01DFA002002F01AFABA2002F0E0
:1055B00023FA242002F014FA002002F011FA00204D
:1055C00002F00EFA002002F00BFAC12002F014FAE9
:1055D000202002F005FA002002F002FA542002F026
:1055E000FFF9002002F0FCF9FF2002F0F9F9002099
:1055F00002F0F6F9C22002F0FFF90A2002F0F0F9F9
:10560000002002F0EDF9042002F0EAF9002002F097
:10561000E7F9C32002F0F0F93C2002F0E1F90020A4
:1056200002F0DEF93A2002F0DBF9002002F0D8F9AE
:10563000392002F0D5F9002002F0D2F9372002F02B
:10564000CFF9002002F0CCF93C2002F0C9F900208B
:1056500002F0C6F9362002F0C3F9002002F0C0F9CA
:10566000322002F0BDF9002002F0BAF92F2002F03A
:10567000B7F9002002F0B4F92C2002F0B1F90020B3
:1056800002F0AEF9292002F0ABF9002002F0A8F9EF
:10569000262002F0A5F9002002F0A2F9242002F051
:1056A0009FF9002002F09CF9242002F099F90020D3
:1056B00002F096F9232002F093F9002002F090F90D
:1056C0003C2002F08DF9002002F08AF9362002F029
:1056D00087F9002002F084F9322002F081F90020DD
:1056E00002F07EF92F2002F07BF9002002F078F919
:1056F0002C2002F075F9002002F072F9292002F046
:105700006FF9002002F06CF9262002F069F9002000
:1057100002F066F9242002F063F9002002F060F93B
:10572000242002F05DF9002002F05AF9232002F053
:1057300057F9002002F054F9C42002F05DF962200C
:1057400002F04EF9002002F04BF9052002F048F972
:10575000002002F045F9842002F042F9002002F016
:105760003FF9F02002F03CF9002002F039F918204E
:1057700002F036F9002002F033F9A42002F030F9EB
:10578000002002F02DF9182002F02AF9002002F082
:1057900027F9502002F024F9002002F021F90C2012
:1057A00002F01EF9002002F01BF9172002F018F990
:1057B000002002F015F9952002F012F9002002F005
:1057C0000FF9F32002F00CF9002002F009F9E620AD
:1057D00002F006F9002002F003F9C52002F00CF9EE
:1057E000322002F0FDF8002002F0FAF8442002F026
:1057F000F7F8002002F0F4F8652002F0F1F800203C
:1058000002F0EEF8762002F0EBF8002002F0E8F863
:10581000882002F0E5F8002002F0E2F8C62002F04D
:10582000EBF8202002F0DCF8002002F0D9F8172075
:1058300002F0D6F8002002F0D3F8012002F0D0F8F0
:10584000002002F0CDF8C72002F0D6F8002002F0C8
:10585000C7F8002002F0C4F8002002F0C1F80020D0
:1058600002F0BEF8C82002F0C7F8002002F0B8F835
:10587000002002F0B5F8002002F0B2F8002002F09B
:10588000AFF8C92002F0B8F8002002F0A9F8002013
:1058900002F0A6F8002002F0A3F8002002F0A0F821
:1058A000002002F09DF8002002F09AF8002002F09B
:1058B00097F8002002F094F8002002F091F8002000
:1058C00002F08EF8002002F08BF8002002F088F839
:1058D000002002F085F8002002F082F8002002F09B
:1058E0007FF8002002F07CF8E02002F085F8162016
:1058F00002F076F8002002F073F81C2002F070F835
:10590000002002F06DF8212002F06AF8002002F079
:1059100067F8362002F064F8002002F061F84620B3
:1059200002F05EF8002002F05BF8522002F058F816
:10593000002002F055F8642002F052F8002002F036
:105940004FF87A2002F04CF8002002F049F88B2042
:1059500002F046F8002002F043F8992002F040F8E7
:10596000002002F03DF8A82002F03AF8002002F0F2
:1059700037F8B92002F034F8002002F031F8C420E2
:1059800002F02EF8002002F02BF8CA2002F028F8CE
:10599000002002F025F8D22002F022F8002002F0C8
:1059A0001FF8D92002F01CF8002002F019F8E020BE
:1059B00002F016F8002002F013F8F32002F010F8BD
:1059C000002002F00DF8E12002F016F8162002F097
:1059D00007F8002002F004F81C2002F001F8002073
:1059E00001F0FEFF222001F0FBFF002001F0F8FF94
:1059F000362001F0F5FF002001F0F2FF452001F014
:105A0000EFFF002001F0ECFF522001F0E9FF002041
:105A100001F0E6FF642001F0E3FF002001F0E0FF69
:105A20007A2001F0DDFF002001F0DAFF8B2001F089
:105A3000D7FF002001F0D4FF992001F0D1FF002012
:105A400001F0CEFFA82001F0CBFF002001F0C8FF3D
:105A5000B92001F0C5FF002001F0C2FFC42001F011
:105A6000BFFF002001F0BCFFCA2001F0B9FF0020F9
:105A700001F0B6FFD22001F0B3FF002001F0B0FF2B
:105A8000D82001F0ADFF002001F0AAFFE02001F0D6
:105A9000A7FF002001F0A4FFF32001F0A1FF0020E8
:105AA00001F09EFFE22001F0A7FF052001F098FF22
:105AB000002001F095FF0B2001F092FF002001F083
:105AC0008FFF1B2001F08CFF002001F089FF3420A4
:105AD00001F086FF002001F083FF442001F080FFE9
