:020000040800F2
:10000000000400209F050008AD050008AF050008AA
:10001000B1050008B3050008B505000800000000A0
:10002000000000000000000000000000B70500080C
:10003000B905000800000000BB050008BD05000868
:10004000BF050008BF050008BF050008BF05000880
:10005000BF050008BF050008F1010008BF05000842
:10006000BF050008BF050008BF050008BF05000860
:10007000BF050008BF050008BF050008BF05000850
:10008000BF050008BF050008BF050008BF05000840
:10009000BF050008BF050008BF050008BF05000830
:1000A000BF050008BF050008BF050008BF05000820
:1000B000BF050008BF050008BF050008BF05000810
:1000C000BF050008BF050008BF050008BF05000800
:1000D000BF050008BF050008BF050008BF050008F0
:1000E000BF050008BF050008BF050008BF050008E0
:1000F000BF050008BF050008BF050008BF050008D0
:10010000BF050008BF050008BF050008BF050008BF
:10011000BF050008BF050008BF050008BF050008AF
:10012000BF050008BF050008BF050008BF0500089F
:1001300000F002F800F03AF80AA090E8000C8244BF
:100140008344AAF10107DA4501D100F02FF8AFF29C
:10015000090EBAE80F0013F0010F18BFFB1A43F0A5
:100160000103184794050000B4050000103A24BFAD
:1001700078C878C1FAD8520724BF30C830C144BF0C
:1001800004680C607047000000230024002500264E
:10019000103A28BF78C1FBD8520728BF30C148BFEA
:1001A0000B6070471FB51FBD10B510BD00F06DFA94
:1001B0001146FFF7F7FF00F00FF800F08BFA03B4D9
:1001C000FFF7F2FF03BC00F08FFA000030BF72B6F9
:1001D00062B680F308887047092000F083F9482050
:1001E00000F026F800F0FEF900F020FA00BFFEE76C
:1001F00010B5052000F052F80948006818B1012038
:100200000849086010BD084800686FEA0000074907
:10021000C1F888014FF001000249086000BFF1E712
:1002200000012242140401408881224200802242BF
:100230004FF0E021096921F004014FF0E022116143
:10024000C21700EB5272D210224B1A70194609786D
:1002500001EB4102C2EBC1114FF6FF7202EAC1018C
:100260001D4A1180704701461A4A12784A434FF0DE
:10027000E0235A6100229A6101221A6100BF4FF007
:10028000E022106910F0010F02D010F4803FF6D088
:1002900000224FF0E0231A619A61704701460E4A2E
:1002A00012884A434FF0E0235A6100229A610122EA
:1002B0001A6100BF4FF0E022106910F0010F02D068
:1002C00010F4803FF6D000224FF0E0231A619A61CB
:1002D000704700000000002002000020A24A0A40EF
:1002E0000243A24B1A6070470146072323EA01022A
:1002F00012029E4B1B1D18684FF6FF0318409C4BC3
:1003000018431043994B1B1D186070472DE9F041AD
:100310000746884614461D462846FFF7E5FFC5F107
:10032000040007FA00F60F20284100EA08000643FF
:1003300006F00F06202C0CDA8E4800684FF0010101
:1003400001FA04F140EA01004FF0E021C1F8000198
:100350000DE089480068A4F120014FF0010202FA83
:1003600001F240EA02004FF0E021C1F804018348A5
:10037000005D40EA0610C1B280480155BDE8F08139
:1003800070B504460B46CE1701EB9676B010CE172B
:1003900001EB9676B610A1EB8606B606350E784BC5
:1003A0009B6943F00103764EB3614FEAB63353F8CD
:1003B00020300F26AE40B343724E46F8203033460D
:1003C00053F8203004FA05F633436E4E46F82030D9
:1003D0006D4B1E6801238B401E436B4B1E6012F059
:1003E000010F08D0684B0C331B6801268E40334345
:1003F000654E0C36336012F0020F08D0624B0833A2
:100400001B6801268E4033435F4E0836336070BD53
:1004100000B500205A490861C860142048610020D6
:100420008861C8610846006840F00100086008461D
:100430004068564908405249486008460068544997
:1004400008404F4908600846006820F48020086092
:100450000846406820F4FE004860002088600021C3
:100460004FF00060FFF73AFF00BD10B53F4808307D
:10047000006840F004003D49083108604048C06908
:1004800040F080503E49C8614248406840F4807066
:10049000404948600846006840F00400086008468B
:1004A000006840F002000860FFF790FE10BD304881
:1004B000001D2E49091D0860704701464906304A53
:1004C000926942F001022E4B9A612E4A083A526814
:1004D00022F0E0622B4B083B5A601A4652680A43EE
:1004E0005A60704730B504460025FFF791FF244855
:1004F000006840F480302249086000BF204800684E
:10050000400CFBD04FF480601D494860A01EC4B26F
:100510000846406840EA844048600846406840F425
:10052000803048601C48006840F032001A4908607A
:100530001348006840F080701149086000BF1048FF
:100540000068400EFBD00E48406840F002000C49A5
:10055000486005E00A484068C0F3870505F00305D8
:10056000022DF7D130BD000080FFFF1F08ED00E035
:100570000000FA0500E100E004E100E000E400E032
:100580000010024008000140000401400000FFF894
:10059000FFFFF6FE007000400020024070470B484D
:1005A00080470B4981F308880A480047FEE7FEE7C9
:1005B000FEE7FEE7FEE7FEE7FEE7FEE7FEE7FEE713
:1005C00005480649044A064B704700009D0500088F
:1005D0006808002031010008680000206808002039
:1005E000680000200F48806940F001000D498861D3
:1005F0000846806940F0200088610B48006820F4BC
:100600007060094908600846006840F4407008605E
:1006100005480C30006840F0040003490C310860C4
:1006200070470000001002400014014010B513484C
:10063000806940F00100114988610846806940F0F6
:10064000100088610E48006820F00F000C49086017
:100650000846006840F0080008600846C06840F09E
:100660000100C860012200210220FFF789FE022359
:10067000062200210846FFF749FE10BD0010024087
:1006800000100140704770477047754600F028F829
:10069000AE4605006946534620F00700854618B06F
:1006A00020B5FFF78DFFBDE820404FF000064FF06A
:1006B00000074FF000084FF0000B21F00701AC4697
:1006C000ACE8C009ACE8C009ACE8C009ACE8C009B6
:1006D0008D4670470446AFF300802046FFF76FFD5C
:1006E000004870470400002001491820ABBEFEE717
:1006F00026000200704700001807000800000020D4
:10070000040000006C0100081C0700080400002021
:0C071000640800008801000800000000E0
:0400000508000131BD
:00000001FF
