:020000040800F2
:1000000000040020D3050008E1050008E30500080E
:10001000E5050008E7050008E90500080000000004
:10002000000000000000000000000000EB050008D8
:10003000ED05000800000000EF050008F1050008CC
:10004000F3050008F3050008F3050008F3050008B0
:10005000F3050008F3050008F3050008F3050008A0
:10006000F3050008F3050008F3050008F305000890
:10007000F3050008F3050008F3050008F305000880
:10008000F3050008F3050008F3050008F305000870
:10009000F3050008F3050008F3050008F305000860
:1000A000F3050008F3050008F3050008F305000850
:1000B000F3050008F3050008F3050008F305000840
:1000C000F3050008F3050008F3050008F305000830
:1000D000F3050008FF010008F3050008F305000818
:1000E000F3050008F3050008F3050008F305000810
:1000F000F3050008F3050008F3050008F305000800
:10010000F3050008F3050008F3050008F3050008EF
:10011000F3050008F3050008F3050008F3050008DF
:10012000F3050008F3050008F3050008F3050008CF
:1001300000F002F800F03AF80AA090E8000C8244BF
:100140008344AAF10107DA4501D100F02FF8AFF29C
:10015000090EBAE80F0013F0010F18BFFB1A43F0A5
:1001600001031847800B0000A00B0000103A24BFC9
:1001700078C878C1FAD8520724BF30C830C144BF0C
:1001800004680C607047000000230024002500264E
:10019000103A28BF78C1FBD8520728BF30C148BFEA
:1001A0000B6070471FB51FBD10B510BD00F0BFFA42
:1001B0001146FFF7F7FF00F00FF800F0DDFA03B487
:1001C000FFF7F2FF03BC00F0E1FA000030BF72B6A7
:1001D00062B680F308887047092000F09DF9482036
:1001E00000F040F84FF4E131482000F015FA0BA080
:1001F00000F087FA0FA000F084FA00BFFEE710B508
:100200001748008810F0200F06D01548001D008800
:10021000C4B2204600F06AFA10BD000053544D33BA
:100220003220555341525431CAD5B7A2CAB5D1E98B
:100230000D0A0000B4AEBFDABBD8CFD4A3ACBDABBF
:10024000BDD3CADCB5BDB5C4CAFDBEDDA3ACD4AD5B
:10025000D1F9B7A2CBCDBBD8C0B40D0A00000000C5
:10026000003801404FF0E021096921F004014FF00E
:10027000E0221161C21700EB5272D210224B1A70A9
:100280001946097801EB4102C2EBC1114FF6FF722A
:1002900002EAC1011D4A1180704701461A4A1278CC
:1002A0004A434FF0E0235A6100229A6101221A6109
:1002B00000BF4FF0E022106910F0010F02D010F4DF
:1002C000803FF6D000224FF0E0231A619A61704718
:1002D00001460E4A12884A434FF0E0235A61002239
:1002E0009A6101221A6100BF4FF0E022106910F0FC
:1002F000010F02D010F4803FF6D000224FF0E0232F
:100300001A619A617047000000000020020000207E
:10031000A24A0A400243A24B1A60704701460723D3
:1003200023EA010212029E4B1B1D18684FF6FF03C1
:1003300018409C4B18431043994B1B1D1860704785
:100340002DE9F0410746884614461D462846FFF72A
:10035000E5FFC5F1040007FA00F60F20284100EA86
:100360000800064306F00F06202C0CDA8E480068C1
:100370004FF0010101FA04F140EA01004FF0E021E1
:10038000C1F800010DE089480068A4F120014FF098
:10039000010202FA01F240EA02004FF0E021C1F846
:1003A00004018348005D40EA0610C1B2804801554F
:1003B000BDE8F08170B504460B46CE1701EB96768A
:1003C000B010CE1701EB9676B610A1EB8606B606F6
:1003D000350E784B9B6943F00103764EB3614FEACB
:1003E000B63353F820300F26AE40B343724E46F872
:1003F0002030334653F8203004FA05F633436E4E6E
:1004000046F820306D4B1E6801238B401E436B4B1A
:100410001E6012F0010F08D0684B0C331B680126D8
:100420008E403343654E0C36336012F0020F08D015
:10043000624B08331B6801268E4033435F4E0836FB
:10044000336070BD00B500205A490861C8601420AF
:10045000486100208861C8610846006840F00100DA
:1004600008600846406856490840524948600846B6
:100470000068544908404F4908600846006820F465
:10048000802008600846406820F4FE004860002094
:10049000886000214FF00060FFF73AFF00BD10B503
:1004A0003F480830006840F004003D4908310860CA
:1004B0004048C06940F080503E49C86142484068A9
:1004C00040F48070404948600846006840F00400ED
:1004D00008600846006840F002000860FFF776FEFA
:1004E00010BD3048001D2E49091D086070470146A7
:1004F0004906304A926942F001022E4B9A612E4A17
:10050000083A526822F0E0622B4B083B5A601A46C8
:1005100052680A435A60704730B504460025FFF719
:1005200091FF2448006840F480302249086000BFF1
:1005300020480068400CFBD04FF480601D494860A3
:10054000A01EC4B20846406840EA8440486008469D
:10055000406840F4803048601C48006840F0320039
:100560001A4908601348006840F08070114908601B
:1005700000BF10480068400EFBD00E48406840F0B5
:1005800002000C49486005E00A484068C0F387054E
:1005900005F00305022DF7D130BD000080FFFF1FDD
:1005A00008ED00E00000FA0500E100E004E100E0F1
:1005B00000E400E000100240080001400004014097
:1005C0000000FFF8FFFFF6FE007000400020024030
:1005D00070470B4880470B4981F308880A48004759
:1005E000FEE7FEE7FEE7FEE7FEE7FEE7FEE7FEE7E3
:1005F000FEE7FEE705480649044A064B704700003F
:10060000D1050008680800203101000868000020BA
:1006100068080020680000202DE9F05F05460E46BE
:10062000300100F0FFF981463B4905FB01F000F085
:10063000F9F98246494600F013F90746384600F0BA
:10064000D1F984B2204600F0EDF98346394600F036
:10065000C9FA82464FF0834100F0F8F9814600F074
:10066000C1F980464FF6FF7000EA041404EB08005D
:1006700084B22A48806940F004002849886108460D
:10068000806940F4804088612548006820F47F60DC
:10069000234908600846006840F4966008601F48D7
:1006A000C06840F480401D49C8600846C06820F416
:1006B0008040C8601B480480001D008842F20C0185
:1006C00008431849091D08800846008840F48070D6
:1006D00008800846008840F0200008800223252278
:1006E00003210846FFF72CFEBDE8F09F00BF0D492F
:1006F0000839098811F0400FF9D00A49091F08800C
:10070000704700B5024603E012F8010BFFF7EEFF59
:1007100010780028F8D100BD40420F0000100240C0
:10072000040801400838014070477047704775461B
:1007300000F028F8AE4605006946534620F0070051
:10074000854618B020B5FFF755FFBDE820404FF0B3
:1007500000064FF000074FF000084FF0000B21F0AB
:100760000701AC46ACE8C009ACE8C009ACE8C00978
:10077000ACE8C0098D4670470446AFF300802046C0
:10078000FFF71DFD004870470400002001491820B4
:10079000ABBEFEE7260002007047000090EA010FA2
:1007A00048BF81F0004100F12E82421A3CBF801AFE
:1007B00089184FEAD0524FF07F4C1CEA410FA2EB50
:1007C000D15318BF9CEA026F00F03B804FF0004C01
:1007D0004CEA00204CEA012121FA03FC10EB0C0C3E
:1007E0001ED202F1FF325FEA1C2040EBC25038BF3C
:1007F00070471CF07F0F4FEA400C18BFBCF17F4FD1
:1008000038BF7047C3F12003994008BF20F00100B2
:10081000BCF17F4F38BF7047A0F1C04000F0DDB998
:100820004FEA3C00000A40EBC25028BF1CF0FF0F0B
:100830004FEA400CE6D018BFBCF17F4F38BF70477D
:10084000EAE79CEA026F05D010EA5C0F08BF00F0EF
:100850000040704710B500F07AF900BF64FBBE3E5F
:100860004FF47F0C1CEAD0121EBF1CEAD11392EA8F
:100870000C0F93EA0C0F00F0858090EA010F48BF3F
:1008800042F4807240F4000C41F400002CF07F41EF
:1008900020F07F4000B58142A2EB03020FF2081C5A
:1008A000ACEB504EC0F100009EF800E04FEA4E0E57
:1008B00000FB0EFC38BF49004FEA2C1C02F5FA027F
:1008C0000CFB0EF34FEACE1E4FEA112C4FEAC1216A
:1008D0000EEB635E42EB22420EFB0CFC4FEA1C5314
:1008E00000FB03114FEA112C4FEA01310EFB0CFC07
:1008F0004FEADC4C00FB0C11C14228BF09184CEB3D
:1009000003335DF804EB10EB410143EBC250B2F549
:100910007C0F38BF704729D512F0F00F1CBF00F1D3
:10092000C04000F000407047008182838485868744
:1009300088898B8C8D8E8F919293959697999A9C9E
:100940009D9FA0A2A3A5A7A8AAACAEB0B2B3B5B70D
:10095000B9BCBEC0C2C5C7C9CCCED1D4D7D9DCDFE3
:10096000E2E6E9ECF0F3F7FAFE0000004FEA400C93
:100970000CF1807CBCF17E4F28BF7047B0F1C040C5
:1009800000F02BB990EA010F0CEAD11348BF42F4F2
:100990008072624538BF634507D213F47F0F16D0CB
:1009A00080EA010000F00040704710B500F0CFF879
:1009B000097EFC3E00F005B880EA010000F000402E
:1009C000704780EA010000F0004000F006B912F420
:1009D0007F0F04BF0248704780EA010000F0FDB8B5
:1009E0000000C07FC10DD1F19E0206DB4FEA00235B
:1009F00043F0004323FA02F07047004207D54FEA64
:100A00004001B1F1FE4F02D24FF00000704710B527
:100A100000F09DF849922480002070476FEA200082
:100A200070470000B0FA80F310FA03F2C3F19D039F
:100A30000AD0D90501EB1220530638BF704700F1E8
:100A4000010008BF20F00100704700004FF47F0C48
:100A50001CEAD0121EBF1CEAD11392EA0C0F93EAD3
:100A60000C0F00F0478090EA010F48BF42F48072FB
:100A70004FF0004C4CEA00204CEA012102EB03024B
:100A8000A0FB0113A2F50002002918BF43F00103E7
:100A90005B0028BF4FEA330342EB22425FEA132C8C
:100AA0004CEBC2502EBFBCEB436FB2F57C0F7047CE
:100AB0004FEA036CBCF1004F08BF20F00100B2F513
:100AC0007C0F38BF70470BD582F0FF0212F5803FD4
:100AD000C8BF704700F1C040D8BF00F00040704769
:100AE00000F5000C5FEA4C0C48BF7047B0F1C04005
:100AF00000F073B890EA010F0CEAD11348BF42F43A
:100B00008072624538BF634504D280EA010000F07C
:100B10000040704710B500F01AF800BF8900013E90
:100B200000F007B800F009B85FEA410C5FEA1C6CFE
:100B300008D080EA010000F050B85FEA400C5FEA9C
:100B40001C6CF6D14FF00040A0F5800070470EF10C
:100B5000020E2EF0030E5EF8044B244204D44FEA3A
:100B60004102B2F17F4F11D84FEA4003B3F17F4FFA
:100B70000CD80ED14FEAD07CB2F17F4F0CEB4C0C6D
:100B80000CF1020C08BF4CEBD17C04E04FF0080CD8
:100B900001E04FEAD17C0CEB4C0324FA03F404F09F
:100BA0000704B4F1040C06D20EEB840CBDE810402F
:100BB0004CF0010C6047DFE80CF0070802024FF030
:100BC0000040A0F5800010BD0846420018BFD2F1D9
:100BD000807288BF00F0004010BDFF2141EAD05074
:100BE000C005704780F0004090EA010F7FF5DDAD51
:100BF00081F0004100F007B890EA010F48BF81F092
:100C000000413FF5D2AD421A04D882F00042A0EB79
:100C1000020011444FEAD0524FF07F4C1CEA410FC2
:100C2000A2EBD15318BF9CEA026F4AD04FF0004CA0
:100C30004CEA00204CEA012121FA03FCB0EB0C0C39
:100C40000FD412F0FE0F36D05FEA4C001DD5001213
:100C500040EBC25038BF70471CF03F0F18BF7047C1
:100C60000BE0A2F101025FEA1C2040EBC25038BF4A
:100C700070471CF07F0F18BF7047C3F120039940E5
:100C800014BF401E20F00100704780084FEA122375
:100C900008BF7047B0FA80FCA2EB0C02CCF1280C24
:100CA00060FA0CF093EA122F04BF00EBC2507047B9
:100CB0004FEAC3707047130A5FEADC1008BF704741
:100CC000F6E79CEA026F04D010EA5C0F08BF002030
:100CD000704710B5FFF73BFF40DFF63E81F0004064
:100CE00070470000040D0008000000200400000010
:100CF0006C010008080D00080400002064080000D2
:080D000088010008000000005A
:0400000508000131BD
:00000001FF
