:020000040800F2
:1000000000040020EB060008F9060008FB060008C3
:10001000FD060008FF0600080107000800000000B8
:1000200000000000000000000000000003070008BE
:10003000050700080000000007070008090700087E
:100040000B0700080B0700080B0700080B07000848
:100050000B0700080B0700080B0700080B07000838
:100060000B0700080B0700080B0700080B07000828
:100070000B0700080B0700080B0700080B07000818
:100080000B0700080B0700080B0700080B07000808
:100090000B0700080B0700080B0700080B070008F8
:1000A0000B0700080B0700080B0700080B070008E8
:1000B0000B0700080B0700080B0700080B070008D8
:1000C0000B0700080B0700080B0700080B070008C8
:1000D0000B0700080B0700080B0700080B070008B8
:1000E0000B0700080B0700080B0700080B070008A8
:1000F0000B0700080B0700080B0700080B07000898
:100100000B0700080B0700080B0700080B07000887
:100110000B0700080B0700080B0700080B07000877
:100120000B0700080B0700080B0700080B07000867
:1001300000F002F800F03AF80AA090E8000C8244BF
:100140008344AAF10107DA4501D100F02FF8AFF29C
:10015000090EBAE80F0013F0010F18BFFB1A43F0A5
:1001600001031847385B0000585B0000103A24BFB9
:1001700078C878C1FAD8520724BF30C830C144BF0C
:1001800004680C607047000000230024002500264E
:10019000103A28BF78C1FBD8520728BF30C148BFEA
:1001A0000B6070471FB51FBD10B510BD01F0CBFD32
:1001B0001146FFF7F7FF00F00FF801F0E9FD03B477
:1001C000FFF7F2FF03BC01F0EDFD000030BF72B697
:1001D00062B680F30888704708B5092000F028FA55
:1001E000022000F010FA5848406840F480705649E8
:1001F0004860012000F007FA482000F0BFF801F045
:100200005FFD00231A461946184601F086FD00F0EE
:100210005EFB01234DA20021282001F01CF90123DF
:100220004DA21021002001F016F901234CA220213B
:10023000002001F010F901234BA21021422001F00F
:100240000AF901234AA22021422001F004F97AE0B0
:100250004FF47A70484908604FF49660486040F265
:10026000DC5088604FF4FA60C8600C46E368A2680E
:100270006168206801F051FD0120009020460523AF
:1002800010210268202001F033FB0120009020465D
:10029000052320214268084601F02AFB0120009036
:1002A0002046052310218268622001F021FB0120F5
:1002B0000090204605232021C268622001F018FB2F
:1002C00000F09FFB4FF4FA7000F08EF840F2DC5023
:1002D000214608604FF4E16048604FF47A7088600E
:1002E0004FF49660C860E368A2686168206801F016
:1002F00014FD0120009020460523102102682020D3
:1003000001F0F6FA012000902046052320214268E2
:10031000084601F0EDFA0120009020460523102147
:100320008268622001F0E4FA012000902046052353
:100330002021C268622001F0DBFA00F062FB4FF47A
:10034000FA7000F051F883E700000140B6E6BBFA0E
:10035000CAB5D1E90000000050574D313A00000005
:1003600050574D323A00000050574D333A000000CC
:1003700050574D343A000000040000204FF0E021B7
:10038000096921F004014FF0E0221161C21700EB6E
:100390005272D210224B1A701946097801EB4102B1
:1003A000C2EBC1114FF6FF7202EAC1011D4A118072
:1003B000704701461A4A12784A434FF0E0235A61C7
:1003C00000229A6101221A6100BF4FF0E0221069F9
:1003D00010F0010F02D010F4803FF6D000224FF051
:1003E000E0231A619A61704701460E4A12884A4317
:1003F0004FF0E0235A6100229A6101221A6100BF86
:100400004FF0E022106910F0010F02D010F4803F8D
:10041000F6D000224FF0E0231A619A617047000085
:100420000000002002000020A24A0A400243A24B22
:100430001A6070470146072323EA010212029E4B0D
:100440001B1D18684FF6FF0318409C4B18431043C0
:10045000994B1B1D186070472DE9F04107468846EF
:1004600014461D462846FFF7E5FFC5F1040007FACC
:1004700000F60F20284100EA0800064306F00F06A8
:10048000202C0CDA8E4800684FF0010101FA04F1CB
:1004900040EA01004FF0E021C1F800010DE0894879
:1004A0000068A4F120014FF0010202FA01F240EAD3
:1004B00002004FF0E021C1F804018348005D40EAEA
:1004C0000610C1B280480155BDE8F08170B5044600
:1004D0000B46CE1701EB9676B010CE1701EB967651
:1004E000B610A1EB8606B606350E784B9B6943F035
:1004F0000103764EB3614FEAB63353F820300F262E
:10050000AE40B343724E46F82030334653F82030A5
:1005100004FA05F633436E4E46F820306D4B1E68E4
:1005200001238B401E436B4B1E6012F0010F08D05D
:10053000684B0C331B6801268E403343654E0C36E6
:10054000336012F0020F08D0624B08331B6801269B
:100550008E4033435F4E0836336070BD00B50020D7
:100560005A490861C8601420486100208861C86148
:100570000846006840F00100086008464068564997
:1005800008405249486008460068544908404F49AD
:1005900008600846006820F480200860084640682B
:1005A00020F4FE0048600020886000214FF00060C9
:1005B000FFF73AFF00BD10B53F480830006840F033
:1005C00004003D49083108604048C06940F080504F
:1005D0003E49C8614248406840F4807040494860E4
:1005E0000846006840F0040008600846006840F0D3
:1005F00002000860FFF7EAFD10BD3048001D2E49DB
:10060000091D0860704701464906304A926942F068
:1006100001022E4B9A612E4A083A526822F0E0629B
:100620002B4B083B5A601A4652680A435A6070477F
:1006300030B504460025FFF791FF2448006840F4D8
:1006400080302249086000BF20480068400CFBD081
:100650004FF480601D494860A01EC4B2084640683F
:1006600040EA844048600846406840F48030486072
:100670001C48006840F032001A49086013480068BE
:1006800040F080701149086000BF10480068400EBB
:10069000FBD00E48406840F002000C49486005E07D
:1006A0000A484068C0F3870505F00305022DF7D11D
:1006B00030BD000080FFFF1F08ED00E00000FA05DC
:1006C00000E100E004E100E000E400E0001002408E
:1006D00008000140000401400000FFF8FFFFF6FEA3
:1006E000007000400020024070470B4880470B49D3
:1006F00081F308880A480047FEE7FEE7FEE7FEE7C9
:10070000FEE7FEE7FEE7FEE7FEE7FEE705480649EF
:10071000044A064B70470000E9060008780C0020E8
:100720003101000878040020780C002078040020B3
:10073000A448406820F47060A249486008464068B8
:1007400040F44070486000209F4908609F49C1F80C
:10075000A8014FF001009C4908609C49C1F8A8011C
:10076000704700B500229748406820F470609549B2
:1007700048600846406840F40060486001209449A1
:1007800008609249C1F8AC0107E0501CC2B2FA2AD5
:1007900003DDFFF7CDFF012000BD8E480068002873
:1007A000F3D18949086000BFF6E710B503468548D4
:1007B000406820F47060834948600846406840F40F
:1007C00040704860002080490860044612E0D80963
:1007D0007F4908604FEA43604FEA10634FF0010021
:1007E0007A49C1F8AC014FF000007749086004F184
:1007F0000100C4B2082CEADBFFF7B3FF10BD71485B
:10080000406820F470606F4948600846406840F4D2
:100810004070486001206E4908606C49C1F8AC0125
:100820004FF000006A4908606849C1F8AC017047A0
:1008300010B50446FFF7E3FF7820FFF7B6FF00206E
:10084000FFF7B3FF2046FFF7B0FFFFF771FF10BDC2
:1008500030B504460D4605F1B001C8B2FFF7E8FF18
:10086000102141EA1410FFF7E3FF04F00F00FFF737
:10087000DFFF30BD10B50446FFF7C1FF7820FFF75A
:1008800094FF4020FFF791FF2046FFF78EFFFFF710
:100890004FFF10BD70B50646002415E004F1B0010D
:1008A000C8B2FFF7C5FF0120FFF7C2FF1020FFF716
:1008B000BFFF002504E03046FFF7DCFF681CC5B22F
:1008C000802DF8DB601CC4B2082CE7DB70BD10B5CE
:1008D0004148806940F001003F49886108468069CD
:1008E00040F0100088613748406820F47F40354967
:1008F00048600846406840F44C5048600846C0686C
:1009000040F44060C8606420FFF76EFDAE20FFF742
:100910008FFF0020FFF78CFF1020FFF789FF40209A
:10092000FFF786FF8120FFF783FFCF20FFF780FFCF
:10093000A120FFF77DFFC820FFF77AFFA620FFF771
:1009400077FFA820FFF774FF3F20FFF771FFD32048
:10095000FFF76EFF0020FFF76BFFD520FFF768FF62
:100960008020FFF765FFD920FFF762FFF120FFF736
:100970005FFFDA20FFF75CFF1220FFF759FFDB2053
:10098000FFF756FF4020FFF753FF2020FFF750FFEF
:100990000220FFF74DFF8D20FFF74AFF1420FFF7DD
:1009A00047FFA420FFF744FFA620FFF741FFAF2039
:1009B000FFF73EFF0020FFF76DFF00210846FFF71D
:1009C00047FF10BD00100140AC012242000022424E
:1009D000A8012242280122420010024070B50446BC
:1009E00021460020FFF734FF002507E0F84901EB1E
:1009F000C411485DFFF73EFF681CC5B2802DF5DBD2
:100A000070BD10B50020FFF7E9FF0120FFF7E6FFFA
:100A10000220FFF7E3FF0320FFF7E0FF0420FFF7CA
:100A2000DDFF0520FFF7DAFF0620FFF7D7FF0720DD
:100A3000FFF7D4FF10BD00200FE0002109E0E54AD8
:100A400002EB8012525CE24B03EBC0135A544A1C77
:100A5000D1B24029F3DB421CD0B20828EDDB70474D
:100A600070B503461546802B00DB70BD402900DBC6
:100A7000FBE7CC1001F00702D54E06EBC416F05C84
:100A800025B1012D06D0022D0ED108E00126964099
:100A9000B0430AE0012696400643F0B205E0012685
:100AA00096404640F0B200E000BF00BFC84E06EBE3
:100AB000C416F05400BFD8E72DE9FF4F81B080463F
:100AC000894615460498012803D183464FF0000A51
:100AD00003E04FF0000B4FF0010A202D01DB7F2DCA
:100AE00000DD2025A5F12000C5B2002437E0002656
:100AF00031E005EBC500B84901EB800004EB44018F
:100B000006EB8101405C0090002720E0009810F087
:100B1000800F0BD009EB070202EBC402D1B208EB45
:100B20000602D0B25A46FFF79BFF0AE009EB070224
:100B300002EBC402D1B208EB0602D0B25246FFF774
:100B40008FFF00984006000E0090781CC7B2082F57
:100B5000DCDB701CC6B20C2ECBDB601CC4B2032CD9
:100B6000C5DB05B0BDE8F08F2DE9FF4F81B08046B1
:100B7000894615460498012803D183464FF0000AA0
:100B800003E04FF0000B4FF0010A202D01DB7F2D19
:100B900000DD2025A5F12000C5B2002437E00026A5
:100BA00031E0C5EB05108D4901EB400004EB8401F9
:100BB00006EB4101405C0090002720E0009810F017
:100BC000800F0BD009EB070202EBC402D1B208EB95
:100BD0000602D0B25A46FFF743FF0AE009EB0702CC
:100BE00002EBC402D1B208EB0602D0B25246FFF7C4
:100BF00037FF00984006000E0090781CC7B2082FFF
:100C0000DCDB701CC6B20A2ECBDB601CC4B2032C2A
:100C1000C5DB05B0BDE8F08F2DE9FF4F07468846DC
:100C200015460398012803D182464FF0000903E0DE
:100C30004FF0000A4FF00109202D01DB7F2D00DD70
:100C40002025A5F12000C5B2002424E0644800EB73
:100C5000051010F804B0002619E01BF0800F08D032
:100C600008EB0402D1B2BA19D0B25246FFF7F8FE2F
:100C700007E008EB0402D1B2BA19D0B24A46FFF736
:100C8000EFFE4FEA4B604FEA106B701CC6B2082EA5
:100C9000E3DB601CC4B2102CD8DBBDE8FF8F2DE96C
:100CA000FF4F0746884615460398012803D1824620
:100CB0004FF0000903E04FF0000A4FF00109202D2A
:100CC00001DB7F2D00DD2025A5F12000C5B2002429
:100CD00026E0C5EBC500434901EB400010F804B025
:100CE000002619E01BF0800F08D008EB0402D1B2F7
:100CF000BA19D0B25246FFF7B3FE07E008EB040280
:100D0000D1B2BA19D0B24A46FFF7AAFE4FEA4B60F9
:100D10004FEA106B701CC6B2072EE3DB601CC4B236
:100D20000E2CD6DBBDE8FF8F2DE9FF4F0746884626
:100D300015460398012803D182464FF0000903E0CD
:100D40004FF0000A4FF00109202D01DB7F2D00DD5F
:100D50002025A5F12000C5B2002426E005EB4500C2
:100D6000214901EB800010F804B0002619E01BF0C7
:100D7000800F08D008EB0402D1B2BA19D0B25246A3
:100D8000FFF76EFE07E008EB0402D1B2BA19D0B249
:100D90004A46FFF765FE4FEA4B604FEA106B701C46
:100DA000C6B2062EE3DB601CC4B20C2CD6DBBDE859
:100DB000FF8F2DE9FC4F80460E4615469B46009658
:100DC000BBF1010F12D14FF0010A4FF0000911E001
:100DD00014000020B21D00081A4F0008DA43000872
:100DE000DA3D00089A3800081A3400084FF0000A6B
:100DF0004FF00109202D01DB7F2D00DD2025A5F11D
:100E00002000C5B2002427E005EB8500FE49084418
:100E1000005D01900098C6B2002719E0019810F01B
:100E2000010F08D0F219D1B208EB0402D0B2524639
:100E3000FFF716FE07E0F219D1B208EB0402D0B2B8
:100E40004A46FFF70DFE019840100190781CC7B28A
:100E5000072FE3DB601CC4B2052CD5DBBDE8FC8F9B
:100E60002DE9FF4F85B080468A4693464FF0000932
:100E70000020029003E00298401CC0B20290029849
:100E80001BF800000028F6D10898012803D1009033
:100E90000020019003E0002000900120019000BF9D
:100EA0001BF80900049009F101001BF800000390F1
:100EB0000498802872DD002717E007EB870000EB1D
:100EC0004710D24911F81010049881420BD107EB5A
:100ED000870000EB4710CD4901EB400041780398B3
:100EE000814200D103E0781CC7B2022FE5D300BFD6
:100EF00000266CE007EB870000EB4710C34901EBCD
:100F00004000801C06EB4601455C002412E015F011
:100F1000800F01D0009B00E0019B1A460AEB0603FC
:100F2000D9B208EB0403D8B2FFF79AFD6806050EA4
:100F3000601CC4B2082CEADB07EB870000EB47100B
:100F4000B24901EB4000801C06EB4601491C455CA0
:100F5000002413E015F0800F01D0009B00E0019BFE
:100F60001A460AEB0603D9B208EB04030833D8B2D9
:100F7000FFF776FD6806050E601CC4B2082CE9DB9D
:100F800007EB870000EB4710A04901EB4000801CF5
:100F900006EB4601891C455C002414E022E015F0B4
:100FA000800F01D0009B00E0019B1A460AEB06036C
:100FB000D9B208EB04031033D8B2FFF751FD68062D
:100FC000050E601CC4B2082CE9DB701CC6B2182EDA
:100FD00090DB09F1020000F0FF0908F1180000F0B1
:100FE000FF080DE051464046089B049AFFF764FD58
:100FF00009F1010000F0FF0908F10C0000F0FF0802
:1010000002988145FFF64CAF09B0BDE8F08F2DE99D
:10101000FF4F85B007468A4693464FF000090020EF
:10102000029003E00298401CC0B2029002981BF8A4
:1010300000000028F6D10898012803D10090002074
:10104000019003E0002000900120019000BF1BF8F8
:101050000900049009F101001BF8000003900498B6
:10106000802872DD002613E0C6EB4610684911F8AF
:1010700010100498814209D1C6EB4610644901EB77
:10108000400041780398814200D103E0701CC6B251
:10109000022EE9D300BF00256CE0C6EB46105C4988
:1010A00001EB4000801C05EB450110F80180002495
:1010B00013E018F0800F01D0009B00E0019B1A465E
:1010C0000AEB0503D9B23B19D8B2FFF7C9FC4FEAC6
:1010D00048604FEA1068601CC4B2082CE9DBC6EB1C
:1010E00046104B4901EB4000801C05EB4501491CB3
:1010F00010F80180002414E018F0800F01D0009B4C
:1011000000E0019B1A460AEB0503D9B23B190833EC
:10111000D8B2FFF7A5FC4FEA48604FEA1068601CA0
:10112000C4B2082CE8DBC6EB4610394901EB40009D
:10113000801C05EB4501891C10F80180002415E096
:1011400018F0800F02D0009B01E01DE0019B1A46C1
:101150000AEB0503D9B23B191033D8B2FFF780FC74
:101160004FEA48604FEA1068601CC4B2042CE7DB09
:10117000681CC5B2142D90DB09F1020000F0FF09D4
:1011800007F11400C7B20CE051463846089B049A98
:10119000FFF7EAFC09F1010000F0FF0907F10A007E
:1011A000C7B202988145FFF652AF09B0BDE8F08F93
:1011B0002DE9FF4F84B0074691464FF0000800200C
:1011C000029003E00298401CC0B20290029819F805
:1011D00000000028F6D10798012803D100900020D4
:1011E000019003E0002000900120019000BF19F859
:1011F00008A008F1010019F800000390BAF1800F6F
:1012000070DD002518E000003A320008A631000821
:101210002A31000805EB0510FB4911F81000504574
:1012200008D105EB051001EB40004178039881429D
:1012300000D103E0681CC5B2022DEBD300BF00242F
:1012400045E005EB0510F04901EB4000801C10F86B
:1012500014B0002613E01BF0800F01D0009B00E0CB
:10126000019B1A46059B2344D9B2BB19D8B2FFF79C
:10127000F7FB4FEA4B604FEA106B701CC6B2082EAA
:10128000E9DB05EB0510E04901EB4000801C012182
:1012900001EB440110F801B0002614E01BF0800FB0
:1012A00001D0009B00E0019B1A46059B2344D9B264
:1012B000BB190833D8B2FFF7D3FB4FEA4B604FEAB4
:1012C000106B701CC6B2082EE8DB601CC4B2102C78
:1012D000B7DB08F1020000F0FF0807F11000C7B209
:1012E0000DE0FFE752463846079B0599FFF794FC4F
:1012F00008F1010000F0FF0807F10800C7B20298EA
:101300008045FFF674AF08B0BDE8F08F2DE9FF4FC0
:1013100084B0074691464FF000080020029003E099
:101320000298401CC0B20290029819F800000028F0
:10133000F6D10798012803D100900020019003E026
:10134000002000900120019000BF19F808A008F1CA
:10135000010019F800000390BAF1800F68DD002544
:1013600011E0C5EB0510A94911F81000504508D14E
:10137000C5EB051001EB400041780398814200D194
:1013800003E0681CC5B2092DEBD300BF002445E083
:10139000C5EB05109D4901EB4000801C10F814B00E
:1013A000002613E01BF0800F01D0009B00E0019BA2
:1013B0001A46059B2344D9B2BB19D8B2FFF750FB9C
:1013C0004FEA4B604FEA106B701CC6B2082EE9DB87
:1013D000C5EB05108D4901EB4000801C012101EB9C
:1013E000440110F801B0002614E01BF0800F01D07A
:1013F000009B00E0019B1A46059B2344D9B2BB1910
:101400000833D8B2FFF72CFB4FEA4B604FEA106B62
:10141000701CC6B2062EE8DB601CC4B20E2CB7DB13
:1014200008F1020000F0FF0807F10E00C7B20BE060
:1014300052463846079B0599FFF731FC08F1010039
:1014400000F0FF08F81DC7B202988045FFF67DAF97
:1014500008B0BDE8F08F2DE9FF4F84B0804692467A
:101460004FF000090020029003E00298401CC0B237
:10147000029002981AF800000028F6D10798012877
:1014800003D100900020019003E000200090012093
:10149000019000BF1AF809B009F101001AF8000024
:1014A0000390BBF1800F6FDD002615E006EB860090
:1014B00000EBC600564911F8100058450AD106EB5A
:1014C000860000EBC60001EB4000417803988142A2
:1014D00000D103E0701CC6B29F2EE7D300BF0024EA
:1014E00046E006EB860000EBC600494901EB4000F0
:1014F000801C10F81470002512E017F0800F01D046
:10150000009B00E0019B1A46059B2344D9B208EBDF
:101510000503D8B2FFF7A4FA7806070E681CC5B217
:10152000082DEADB06EB860000EBC600384901EB2C
:101530004000801C012101EB4401475C002513E0C1
:1015400017F0800F01D0009B00E0019B1A46059B1D
:101550002344D9B208EB05030833D8B2FFF780FA69
:101560007806070E681CC5B2042DE9DB601CC4B206
:101570000C2CB6DB09F1020000F0FF0908F10C00A9
:1015800000F0FF080EE0FFE75A464046079B05992A
:10159000FFF7CAFB09F1010000F0FF0908F106009E
:1015A00000F0FF0802988145FFF674AF08B0BDE86F
:1015B000F08FF0B505460E4614461F4608E0227827
:1015C0003B4631462846FFF7F4FB641CA81DC5B214
:1015D00020780028F3D1F0BD2DE9F04104460D46F6
:1015E00016461F46AC4202DDA8462546444606E0A4
:1015F0003A4631462046FFF733FA601CC4B2AC428B
:10160000F6DBBDE8F0810000E6300008D82F0008C6
:10161000B21F00082DE9F04180460C4615461E46D3
:10162000AC4202DD2F4625463C4606E032462146C6
:101630004046FFF715FA601CC4B2AC42F6DBBDE8C9
:10164000F0812DE9F04F85B004460D4692469B4649
:10165000DDF83890002003900290AAEB040007B256
:10166000ABEB05000FFA80F8002F02DD012001909E
:101670000EE057B909F0FF030BF0FF02E9B2E0B248
:10168000FFF7C8FF05B0BDE8F08F4FF0FF300190C5
:10169000B8F1000F02DD012000900EE0B8F1000F5C
:1016A00008D109F0FF03EAB20AF0FF01E0B2FFF748
:1016B00093FFE7E74FF0FF300090381E01DB014653
:1016C00000E041420FB2B8F1000001DB014600E04A
:1016D00041420FFA81F8474501DD3E4600E04646AB
:1016E00009F0FF02E9B2E0B2FFF7BAF90020049076
:1016F00025E009F0FF02E9B2E0B2FFF7B1F9039883
:10170000384400B203900298404400B2029003981B
:10171000B04206DD0398801B00B20390019820447C
:1017200004B20298B04206DD0298801B00B202901B
:101730000098284405B20498401C00B20490711C23
:1017400004988842D5DD00BF9CE72DE9F84180462A
:101750000D4616461F46079CB04501DCBD4201DD23
:10176000BDE8F8812B463246294640460094FFF7F3
:1017700068FF3B463246394640460094FFF761FF1A
:101780003B464246294640460094FFF75AFF3B46F7
:101790003246294630460094FFF753FF00BFDFE78B
:1017A0002DE9F04306460F469046B8F11F0F02DCC4
:1017B000B8F1000F01D1BDE8F083002445464FEA9F
:1017C0004800C0F103000FFA80F958E03A1BD1B28B
:1017D000721BD0B20122FFF743F93A1BD1B2721942
:1017E000D0B20122FFF73CF97A19D1B2321BD0B244
:1017F0000122FFF735F93A1BD1B2721BD0B2012298
:10180000FFF72EF97A1BD1B2321BD0B20122FFF7BB
:1018100027F93A19D1B27219D0B20122FFF720F993
:101820007A1BD1B23219D0B20122FFF719F97A1915
:10183000D1B23219D0B20122FFF712F93A19D1B25E
:10184000721BD0B20122FFF70BF9601C04B2B9F190
:10185000000F05DAA000801D48440FFA80F907E068
:10186000601B80000A3048440FFA80F9681E05B2F8
:101870007A19D1B23219D0B20122FFF7F1F8AC4295
:10188000A4DD00BF97E72DE9F04705460E46174651
:101890009846DDF820A0BD4201DC464501DDBDE8EB
:1018A000F0872C460EE0B14608E0524649462046F5
:1018B000FFF7D6F809F1010000F0FF09C145F4DB9C
:1018C000601CC4B2BC42EEDB00BFE8E70246002069
:1018D0000BE0002105E0A04B03EBC0135A544B1C56
:1018E000D9B28029F7DB431CD8B20828F1DB704756
:1018F0002DE9FC430746884614461E46DDF8249031
:101900000025002C06DA64422D222846691CCDB23F
:101910000DF80020B4F57A7F0FDB4FF47A7094FB5A
:10192000F0F00A2190FBF1F201FB12003030C2B25C
:101930002846691CCDB20DF80020632C0EDD642012
:1019400094FBF0F00A2190FBF1F201FB1200303021
:10195000C2B22846691CCDB20DF80020092C0EDD5C
:101960000A2094FBF0F00A2190FBF1F201FB120037
:101970003030C2B22846691CCDB20DF800200A20D2
:1019800094FBF0F100FB11403030C2B22846691CD4
:10199000CDB20DF8002004E020200DF80500681CF1
:1019A000C5B2B542F8DB00200DF805004B466A468B
:1019B00041463846FFF74FFDBDE8FC832DE9FC4169
:1019C00006460F46154698460024002D06DA6D425D
:1019D0002D222046611CCCB20DF80020B5F57A7F8F
:1019E0000FDB4FF47A7095FBF0F00A2190FBF1F2D7
:1019F00001FB12003030C2B22046611CCCB20DF89F
:101A00000020632D0EDD642095FBF0F00A2190FB91
:101A1000F1F201FB12003030C2B22046611CCCB2A0
:101A20000DF800200A2095FBF0F00A2190FBF1F25E
:101A300001FB12003030C2B22046611CCCB20DF85E
:101A400000202E222046611CCCB20DF800200A2076
:101A500095FBF0F100FB11503030C2B22046611C02
:101A6000CCB20DF8002004E020200DF80400601C2A
:101A7000C4B2052CF8DB00200DF8040043466A468A
:101A800039463046FFF7E7FCBDE8FC81FCB5064669
:101A90000F4615460024002D06DA6D422D22204601
:101AA000611CCCB20DF80020B5F57A7F0FDB4FF446
:101AB0007A7095FBF0F00A2190FBF1F201FB120025
:101AC0003030C2B22046611CCCB20DF80020632D2C
:101AD0000EDD642095FBF0F00A2190FBF1F201FB92
:101AE00012003030C2B22046611CCCB20DF800208A
:101AF0000A2095FBF0F00A2190FBF1F201FB1200A5
:101B00003030C2B22046611CCCB20DF800202E222B
:101B10002046611CCCB20DF800200A2095FBF0F1A4
:101B200000FB11503030C2B22046611CCCB20DF81F
:101B3000002004E020200DF80400601CC4B2042C36
:101B4000F8DB00200DF8040001236A4639463046D0
:101B5000FFF72FFDFCBD00001400002010B5744AF3
:101B6000926942F40062724B9A611A46926942F09D
:101B700004029A611A46926942F001029A616D4A22
:101B800012686FF30F026B4B1A601A4612684BF61D
:101B9000BB331A43674B1A60664A0832126842F434
:101BA0007062644B08331A60634A1080121F118000
:101BB000614A143A128842F070025F4B143B1A805B
:101BC0001A46128842F008021A801A46128842F415
:101BD000E0421A801A46128842F400621A801A1DE6
:101BE000128842F070021B1D1A801A46128842F0B9
:101BF00008021A801A46128842F4E0421A801A46F5
:101C0000128842F400621A804B4A2C3A128842F041
:101C10008002494B2C3B1A801A46128842F010026F
:101C20001A80454A0C3A128842F00302424B0C3BA0
:101C30001A801A46128842F030021A801A46128818
:101C400042F440721A801A46128842F440521A80B6
:101C5000394A1832128842F40042374B18331A803E
:101C6000421C02EBD273C3F34F03334C083423807E
:101C700002EBD273C3F34F03241D238002EBD27314
:101C8000C3F34F03241D238002EBD273C3F34F032E
:101C9000241D2380284A183A128842F00102264B5C
:101CA000183B1A80244A2C3A128842F00102224B37
:101CB0002C3B1A801A46128842F001021A8010BD8D
:101CC00000B51B48806940F0010019498861084649
:101CD000806940F0040088611648001F006820F405
:101CE00070001449091F08600846006840F440105D
:101CF00008600120114908604FF0470142F20F705F
:101D0000FFF72CFF00200C4908310880091D0880CE
:101D1000091D0880091D088000BD30B5064D083535
:101D200028802D1D29802D1D2A802D1D2B8030BD42
:101D300000100240040801402C2C01409401214273
:101D4000704770477047754600F028F8AE460500AA
:101D50006946534620F00700854618B020B5FEF7C7
:101D6000D5FCBDE820404FF000064FF000074FF0D3
:101D700000084FF0000B21F00701AC46ACE8C009A9
:101D8000ACE8C009ACE8C009ACE8C0098D467047B2
:101D90000446AFF300802046FEF711FA0048704772
:101DA0001404002001491820ABBEFEE72600020003
:101DB000704700000000000000000000000000006C
:101DC000000000000000C0E0E0E0C0000000008073
:101DD000F8FCFCFCF88000000000C0E0E0E0C0007F
:101DE00000000000000000000000000000000000F3
:101DF0000000000000000000000000000000C0F033
:101E0000F0F0E0E0C0E0F1FFFF7F3F1F1F0F0F0F7A
:101E10008FEFFFCF0F0F0F0F1F1F3F7FFFFFF1E06F
:101E2000C0E0E0F0F0F0C0000000000000000000A2
:101E300000000000000000000000000080C0C0C1E1
:101E4000C3F3FFFFFF1F0701000000C0E0787C67BD
:101E500063616061676E7C7060C080000001071F75
:101E6000FFFFFFF3C3C1808080000000000000007E
:101E70000000000000000000000000000707070F3E
:101E80000F3FFFFFFFE08070381E070100848E8E39
:101E9000C6C6FEFE86868CFC780103061C3800C090
:101EA000FFFFFF3F0F0F07070700000000000000C3
:101EB00000000000000000000000000000000C3ED8
:101EC0003E3F1F1F0F1F3FFEFCF8F0E0E7DFD9D8B1
:101ED000989898F8F0C1C1C1E0E0F0F8FCFE3F1F0F
:101EE0000F1F1F3F3E3E0C000000000000000000DE
:101EF00000000000000000000000000000000000E2
:101F000000000000000C1E1F3F1F0F070303030704
:101F10007FFFFFFF7F1F7BE3C3030F1F3F3F1E0CAD
:101F200000000000000000000000000000000000B1
:101F300000000000000000000000F0F03030303001
:101F40000080800080000080C0C08080000080C0D1
:101F5000C0808000F0F000000100B0B00000808080
:101F60008080800000F0F00080C0C0000000000011
:101F7000000000000000000000001F1F030303001A
:101F8000001F1F0101000F1F1A1A1A0B000F1F1A42
:101F90001A1A0B001F1F181818001F1F00001F1F00
:101FA00001011F1F001F1F070F1D18000000000068
:101FB0000000B7B403C07C00400040007FC0504028
:101FC00050404880450042004D80B060B5E70800B1
:101FD0000800FF8088808880FF8088808880FF805C
:101FE0008820082007E0D1B900007FE040004200CF
:101FF000420042005FC04200428042404200BFE0D7
:10200000A3BA000000000000000030003000000013
:1020100000003000300000000000BBFA20002780E4
:102020002480F480248074806C80A480248024A088
:1020300028A03060D7F308000800FFE00800100077
:1020400010001FC022002200420082003FE0D3D2D5
:1020500004000400FFE00800080010001FC030402A
:10206000504090401FC01040CBD982005FE002007A
:102070001FC0D24052405FC047004A8052404200D9
:10208000BFE0B6C802007FE048807FE048804F8014
:1020900040005FC04840448043009CE0BDC7200032
:1020A0003F00410082007FC044407FC044407FC069
:1020B0004440444080C0C6F4040002003FE02020B9
:1020C00020203FE020003FE0302050205FE09020C3
:1020D000B6AF01007100010003E0F920212041208A
:1020E00051208920FA20022004C0C9E847802480BA
:1020F00004800480E86020002FC02440228031004A
:1021000022800C60D6C37FC04A407FC00400FFE03D
:1021100004003F802080208024802480FFE0D6B50A
:1021200022002FE042004FC0C8404FC048404FC07F
:1021300048404FC048405FE0C6BD00007FC004007B
:102140004440244024800400FFE004000400040014
:102150000400BAE228004EE092003F0055E0DF4064
:1021600055405F4044405F404A4051C0D7AA4100BB
:102170004100EFC04200A200AFE0F40027C03040B1
:10218000E68021802040CFF208001000FFE0802090
:1021900080209F209120912091209F20802080E00E
:1021A000CDCB4FC028400FC00840EFC02A202940A7
:1021B0002A802C40284050008FE0B3F604004440B1
:1021C000444044407FC004000400842084208420D4
:1021D000FFE00020C4A322802FE02280F7C024402B
:1021E00067C07440A7C021002FE022802C60CABDC8
:1021F000014001200100FFE0010001007D0011000D
:10220000108010A01E60E020B4FD1100210047C026
:1022100091002FE06080AFE0208024802280208029
:102220002380CEE401007D4001200100FFE0110089
:1022300011005D00508050A05C60E020BABA8000C0
:102240005FC00840084088404880048005002200A4
:10225000450088803060B7C90000FE00024002805F
:102260000300028002400100012000A00060002065
:10227000C1EE04000A0011002080C86004007F80C5
:102280000080010032000C000300C6F77BC04A400A
:102290007BC004800440FFE00A003180C0607BC046
:1022A0004A407BC0C8CB04000400040004000400C2
:1022B0000A000A0011001100208040408020BFC6A3
:1022C0001080E48022802080FC802280708068E082
:1022D000A780208020802080BCBC210021002FE02E
:1022E000F10021002FC03440E440228021002280F0
:1022F0006C60D3D008000800FFE010003FC06040D1
:10230000BFC020403FC02040204020C0CFDEF7C0EB
:1023100094409440A7C0A440944097C09520954015
:10232000E48086408420B9AB1100110011002080A8
:102330002480444088200800110020807FC0004095
:10234000CBBE00007FC00040FF4000407E404240C6
:10235000424042407E4040400380C2D621002100DE
:10236000F28044406820A400F44025803600E42038
:10237000242023E0C6AB21002FE048204FE0C80016
:102380004FE04AA05AA06FE04AA04AA04860D7EEAA
:102390003F8020803F802080FFE048007BC0494094
:1023A00079404C80F9400A20B4F304000400040092
:1023B0000400FFE004000A000A0011001100208060
:1023C000C060D0A3220021002FE0F00022807440E2
:1023D0006AA0A2802280210022802C60D7BC050048
:1023E00004808FE0490019002FC0090009002FC0A8
:1023F000490089000FE0C7E3200027E0508051002A
:10240000D3E05A2052A052A052A0588051404220FE
:10241000B1A3100017C02440244067C0A1002FE0E2
:1024200021002380254029202100B4E6080008006F
:10243000FFE0100027C020806100AFE021002100F4
:1024400021002300A3AC00000000000000000000F9
:102450000000300030001000200000000000B6CC6A
:1024600040004FE07000A7C024402440F7C0200087
:102470002440528050008FE0B0B42100208027E03B
:10248000F4202100210037E0E24022402180224058
:102490006C20B3A4100010C013001C001000FFE05B
:1024A000120012001100148018601000CDA311005A
:1024B0001FE0200027C06440A7C020002FE0282094
:1024C00027C021002300D6B902000200020022002A
:1024D00023C0220022002200220022002200FFE06E
:1024E000B0B208000400FFE088200800FFE0108080
:1024F0002080390006001980E040C8AB04000A00C3
:1025000011002080C0603F80040004007FC00400F0
:102510000400FFE0B3B508000800FFE0100024004D
:1025200044007FC004000400FFE004000400C7B0C2
:1025300020801100FFE000007C4045407D40454088
:102540007D40454044404CC0BAF301C03E002000ED
:1025500020003FE0200020002FE0282048204FE00E
:102560008820B2CE100020807FC00800FFE02280CB
:102570004C40B1200600784003807C00CAFD110069
:1025800055001100FDE03240594095402140F9408E
:1025900048803140CA20D2D100007FC000400040B6
:1025A000404040407FC040004000402040203FE08D
:1025B000A3A10000300030003000300030000000E7
:1025C00000003000300000000000C7EB82005FE038
:1025D00002000FC0C2005FE048404FC048404FC0FB
:1025E000684048C0BDAB220023C0A4406A802100DF
:1025F00026403FE06040A4402240204021C0BEB2BF
:102600002200FB802480790027C0F94057E0714008
:1026100057C0714051005300D6B9020002000200B9
:10262000220023C0220022002200220022002200D9
:10263000FFE0B7C5410021000100F9E042404540FC
:10264000794049404940488049409A20D6C37FC0DC
:102650004A407FC00400FFE004003F8020802080CB
:1026600024802480FFE0A3AC0000000000000000F4
:1026700000000000300030001000200000000000CA
:10268000D6A480005FE001000100C100490049E0DC
:1026900049005900690049001FE0D6F7080004000E
:1026A00000007FC00400040004007FC00400040098
:1026B0000400FFE0B0E5206027802400F40027E05C
:1026C00075206D20A5402540248029403220D3EB81
:1026D000200020003FE0400040007FC0004000405C
:1026E000FF40004000400380CBAE04000400042003
:1026F00076401680150015002480248044408420F4
:102700001C00C6BD00007FC004004440244024805B
:102710000400FFE00400040004000400C3E600001D
:10272000FFE0040008007FE049204F2049204F20AF
:1027300049207FE04020D0D0100027C0400090000A
:102740002FE06080A0802080208020802080238057
:10275000BFAA00007FC01100110011001100FFE0AE
:1027600011001100210021004100CABC21002100FC
:102770002200F44057E0502057C094405440244079
:1027800057C09440BCFC410063C099400FE0E94051
:1027900053C05900EFC049005FE0690057E0D5FD24
:1027A00000007FC0040004000400240027C02400AF
:1027B000240024002400FFE0D4DA08000800FFE031
:1027C0001000110021006100A7C02100210021009C
:1027D0002FE0A1AD0000000000000000CCC0CCC084
:1027E000000000000000000000000000C3EB11002A
:1027F000E10021402520F520252069007120A0401E
:10280000208023002C00A1A3000000000000000095
:102810000000180024002400180000000000000040
:10282000C0B62080FFE02080120053E0548050406A
:1028300000007FC04A404A40FFE0D1C000007FC096
:102840000100210041007FE0030005000900310084
:10285000C1000700B6CF102055C0B9009100FDE0BF
:102860009140B940D54091409140FD400240BFAAFF
:1028700000007FC01100110011001100FFE01100E5
:102880001100210021004100D2D100007FC0004092
:102890000040404040407FC0400040004020402079
:1028A0003FE0C1AC820042001FE004000900CFC03D
:1028B000410041005FE041004100BFE0BDD3220084
:1028C00021002FE0F44022802FE03100EFE0224091
:1028D000264021806E60D3EF9FE042000FC004408D
:1028E000C4405FE040004FC0484068404FC00840CF
:1028F000D1D408000400FFE000007FC000007FC0CA
:1029000000007FC040407FC04040C6E4208020805F
:10291000FFE020803F8020803F802080FFE000009B
:1029200020804040CBFB11001100256025A06720CE
:10293000AD202520256025002420242023E0B3F6A7
:1029400004004440444044407FC00400040084200C
:1029500084208420FFE00020B3A700007FE0400037
:102960004000400040004000400040004000400067
:102970008000BCF242007BE094804FC020401F40AA
:1029800051405F4051405F40404041C0CCE5220093
:10299000220042005FC0C20047004A8052406220CD
:1029A0004F8042004200D6D00400040004007FC0E3
:1029B0004440444044407FC04440040004000400BC
:1029C000CEC408000400FFE0208020801100110028
:1029D0000A0004000A003180C060B7B141007DE008
:1029E000D6407D4054807D4011203E0008807FC04D
:1029F00024804C40CAC73F8020803F8020803F8099
:102A00000000FFE0040027C0240054008FE0B7F16D
:102A1000FFE004000D803440C420040000007FC0AB
:102A2000404040407FC04040BBD6240024002FE0FF
:102A3000B400A480A4A0AAC02A80288029403240E3
:102A40002420B8B43FE04000BFC020403FC0204039
:102A50003FC010003FC050800F0070E0A3BF1800BF
:102A60002400660066000C00180018001800000022
:102A7000180018000000B5CD10C01F002900290063
:102A80006900AFE0290029002AA02CA02A6021209B
:102A9000BEAF4900FDE04A407D40D48075400A2029
:102AA000FFE000007FC020803F80B3E40800040006
:102AB000FFE00800110020807FC0114011001120AC
:102AC0002120C0E0CFE0200027E02420F42027E0F0
:102AD00064207420A7E02420242027E02420B1E0F3
:102AE00041004FE08820AFE0C8004FE08AA0DAA0A4
:102AF0000FE02AA0CAA00860C2EB0FC0F04024403B
:102B00002440444077E0D02050205FA07020502027
:102B100000C0C6F77BC04A407BC004800440FFE091
:102B20000A003180C0607BC04A407BC0BDE223E028
:102B30003920492092607C0055407DE056407C4021
:102B400055E054408C40B5DA42007BE094800000B0
:102B50007FC004407FC044007FE014202420C4C014
:102B6000C2B70200F3C094409A80F10022802C602A
:102B7000B7C0A440A440B7C0C440D6C6102050205F
:102B80007D209120FF2011207D20552055205420AC
:102B90005C2010E0B6E62100708057E07420500001
:102BA000F22052407280530052205220B1E0CAB548
:102BB0000400FFE0802012000A0022001200FFE063
:102BC000040009803040C020D1E90100E1002280EA
:102BD000A440A820A7C0F00012403940D54014807E
:102BE0006FE0CEDE00007FC0040004000400FFE0C0
:102BF0000A000A0012002220422081E0CBA27E209F
:102C0000422042A07EA048A048A07EA06AA0AAA020
:102C10002A202E20086088F3200027C0744024401A
:102C2000FCC0540027C075402540FC80254026206C
:102C3000F37772805FE05AA0FFE08AA07FE0500047
:102C40007FE0544077C052805FE0F37772805FE0AE
:102C50005AA0FFE08AA07FE050007FE0544077C098
:102C600052805FE0D58841002FE0F10007C0F100FD
:102C70000FE0F44007C0F44097C0F44094C08CA229
:102C8000110051E05220554072801140F7E0504051
:102C900052405140504091C0DC870400FFE00400E6
:102CA0007FC044407FC044407FC00400FFE0040078
:102CB0000400EC6F20C0FF002540728027C0F9405F
:102CC00057E0714057C0714051005300D7438EA068
:102CD00042C0EA8004A0EB401020EFC00840EFC0E3
:102CE000A840E480BFE0C56328C04E40484068C0AB
:102CF0004E4042406AC04A40FFE000002080404011
:102D0000E6494100A3C01940EFE0494053C0F90033
:102D10004FC06900DFE06900D7E0E95FF1E0912092
:102D2000F1E09120F1E080209F208A20BFA08A203E
:102D30008A2092609CCA45002FE099004FE009006C
:102D40002FE049008FE00400FFE004000400E1E10F
:102D5000110022404780910022406FE0A22023C052
:102D600024402A8021002EE08341200023E050806F
:102D700053E0DE2053E0522053E056205BE0514008
:102D80004220D44F400023C0F2400240F4600000D3
:102D9000F7C00240F2809100F2809460DE4420800F
:102DA000F9E02080FBE0AAA0FBE0AAA0FBE0204025
:102DB000FBE0214020C0D55A4FE02100F7C002407F
:102DC000F2400FE0F00007C0F4409440F7C0944098
:102DD0008F530400FFE08880AA808880BFE0A24073
:102DE000BB40AB40BA80A3402620EB8A7FC00400E2
:102DF000FFE0A4A000007FC044407FC044407FC0EB
:102E0000442003E089BA7FE054805CA043E05C800A
:102E100055405D40562042005FC04200BFE0CB7B82
:102E20002080FFE02080790051007BE04C807840DA
:102E300050007FC04A40FFE0DD862100FA80244038
:102E4000FBA0A800FFE0AAA0FAA02FE0FAA02AA009
:102E5000286099434940494055A0E94055A05DE0AC
:102E6000E940DFE049404CA04960522086A22100A1
:102E700011007D0045E046407D4041407D40654079
:102E8000A4803D40222084D30C80708011E0FEA0FD
:102E900054A07CA054A07CA010A07CA01120FE60B7
:102EA000E94C3FC020003F8020003F802000FFE031
:102EB0004440428051006080406094E0A420CAC039
:102EC000A480CA80FEE0A4A0CAA0A4A0CAA0EEA0CC
:102ED00080A0FF20DF4282005FC002001FC0D240FE
:102EE0005FC052405FC042005FE04200BFE085A289
:102EF000100020807FC040809120F5E00A003180E2
:102F0000C660380003807C0094B510807C805480BB
:102F1000FEE055207CA010A0FCA02440684018A032
:102F2000E520DF62820047C01A800B00CC007FC022
:102F300052007FE052405FC04000BFE0BFD8420077
:102F400041004FE0E820428044406820C7C0410073
:102F500041004100CFE0D2A380E05F000A2005409D
:102F6000C7C049005FE0410049204FE04000BFE09A
:102F7000BFD8420041004FE0E82042804440682032
:102F8000C7C0410041004100CFE0C7D0200027E08A
:102F900021203920E1202120212021202A20322037
:102FA000242008C0BBBB220023802480F90027C056
:102FB00025403540E5402FE0228024406820935191
:102FC00044004780E8805FE04AA04C606920C1006F
:102FD0004FE041004280CC60CEE400A07E900090A3
:102FE0000080FFF8088008804E80488048404848AC
:102FF0004F28F0180008BABA000047F0221012104B
:1030000002108210422011201140208021404220D5
:1030100044100808B7C90000FF800080009000A09D
:1030200000C000A000900080004000480028001868
:103030000008C1EE02000500088010402420C218DC
:1030400002003FE00020004000801D00030000C09F
:10305000BBFA200023E02220FA2022202220722026
:103060006A20A22022202220242824282818C6F7FB
:103070007DF0451045107DF000400220FFF80880EB
:103080003060C0187DF0451045107DF0C8CB0200BF
:103090000200020002000200020005000500050017
:1030A0000880088010402020C018BFC600200D20D6
:1030B00070A010A01220FD20112030383BE05420D9
:1030C0009020102010201020BCBC20802080208068
:1030D000F7F02080208027E03220E220214020806D
:1030E00021402220EC18B7C90000FFC00040004476
:1030F00000480050006000500048004400200020BC
:103100000012000A00060002C1EE01000100028068
:1031100004400A2011102108C0061FF000100020F2
:1031200004400280010000800080B7C90000000058
:1031300000007FF000007380007780007600007C44
:1031400000007800007C00007F0000738000738026
:103150000030000038C00038C0001CC0000EE00085
:1031600007E0000060000000C1EE00000000F00079
:1031700000F00001F00001D800039C0007CE000E13
:10318000E7001C73C03871F0700700DFFF80000E8D
:1031900000001C0007180001F0000070000038005B
:1031A000001800000000B7C900000000000000087F
:1031B000007FFC00001C70001CF8001CE0001DC01B
:1031C000001F80001F00001F00001FC0001CF00037
:1031D0001C70001C30000C00000E0C000E0C0007D0
:1031E0000C00079C0003FC0000FC00003E000000F7
:1031F000C1EE000000001800003C00003C00007C14
:103200000000760000E70001C38003E1C007B9E0D9
:103210000E1C781C1E3E380C5CE000E00FFFF00036
:1032200001C000038003070001E600007C00001ECF
:1032300000000F0000070000000000000000000078
:10324000005F00000007000700147F147F14242A89
:10325000072A1223130864623749552250000503D8
:103260000000001C2241000041221C00082A1C2AE8
:103270000808083E08080050300000080808080840
:10328000006060000020100804023E5149453E00E5
:10329000427F400042615149462141454B3118145B
:1032A000127F1027454545393C4A4949300171098B
:1032B00005033649494936064949291E0036360074
:1032C000000056360000000814224114141414148F
:1032D00041221408000201510906324979413E7E1B
:1032E0001111117E7F494949363E414141227F41BA
:1032F00041221C7F494949417F090901013E414161
:1033000051327F0808087F00417F41002040413F43
:10331000017F081422417F404040407F0204027F29
:103320007F0408107F3E4141413E7F090909063E66
:103330004151215E7F091929464649494931010118
:103340007F01013F4040403F1F2040201F7F201849
:10335000207F631408146303047804036151494512
:103360004300007F4141020408102041417F0000DA
:1033700004020102044040404040000102040020D9
:10338000545454787F4844443838444444203844A2
:1033900044487F3854545418087E090102081454D4
:1033A000543C7F0804047800447D40002040443DA4
:1033B00000007F10284400417F40007C04180478FE
:1033C0007C0804047838444444387C1414140808F5
:1033D0001414187C7C080404084854545420043FF6
:1033E0004440203C4040207C1C2040201C3C40307D
:1033F000403C44281028440C5050503C4464544CE9
:1034000044000836410000007F00000041360800FB
:103410000201020402FFFFFFFFFF000000000000A6
:1034200000000000000000002020202020200020BC
:1034300000000028505000000000000000000000C4
:103440002828FC2850FC50500000002078A8A060DC
:103450003028A8F02000000048A8B0502834544874
:103460000000000020505078A8A8906C0000004098
:103470004080000000000000000000040810101050
:103480001010100804000040201010101010102020
:10349000400000000020A87070A82000000000007C
:1034A000202020F820202000000000000000000064
:1034B0000000004040800000000000F80000000014
:1034C00000000000000000000000004000000008B4
:1034D0001010102020404040800000007088888834
:1034E0008888887000000000206020202020207044
:1034F0000000000070888810204080F80000000064
:1035000070880830080888700000000010305050A3
:103510009078101800000000F88080F0080888708B
:1035200000000000709080F0888888700000000023
:10353000F890102020202020000000007088887063
:103540008888887000000000708888887808487033
:10355000000000000000200000000020000000002B
:10356000000000200000002020000004081020407F
:1035700020100804000000000000F80000F800001F
:103580000000004020100804081020400000000047
:10359000708888102020002000000000708898A803
:1035A000A8B880780000000020203050507848CC27
:1035B00000000000F0484870484848F00000000053
:1035C000788880808080887000000000F04848483B
:1035D000484848F000000000F8485070504048F853
:1035E00000000000F8485070504040E0000000002B
:1035F000384880809C88483000000000CC484878DB
:10360000484848CC00000000F8202020202020F866
:10361000000000007C10101010101090E00000005E
:10362000EC485060505048EC00000000E040404042
:10363000404044FC00000000D8D8D8D8A8A8A8A8CA
:1036400000000000DC486868585848E800000000A6
:10365000708888888888887000000000F04848706A
:10366000404040E0000000007088888888E898703A
:1036700018000000F0484870504848EC0000000076
:1036800078888060100888F000000000F8A82020EA
:103690002020207000000000CC48484848484830AE
:1036A00000000000CC4848505030202000000000AE
:1036B000A8A8A8705050505000000000D8505020CA
:1036C000205050D800000000D850502020202070FA
:1036D00000000000F8901020204048F8000000385A
:1036E00020202020202020203800004040402020A2
:1036F00010101008000000701010101010101010A2
:1037000070000020500000000000000000000000D9
:10371000000000000000000000FC40A418000000B1
:103720000000000000000000000000304838483C65
:1037300000000000C0404070484848700000000091
:1037400000000038484040380000000018080838E1
:103750004848483C000000000000003048784038ED
:10376000000000001C2020782020207800000000AD
:103770000000003C4830407844380000C0404070B1
:10378000484848EC00000000200000602020207025
:1037900000000000100000301010101010E00000B9
:1037A000C040405C507048EC00000000E020202049
:1037B000202020F800000000000000F0A8A8A8A821
:1037C00000000000000000F0484848EC0000000045
:1037D000000000304848483000000000000000F0C1
:1037E0004848487040E00000000000384848483829
:1037F000081C0000000000D8604040E0000000000D
:1038000000000078403008780000000000202070A0
:103810002020201800000000000000D84848483C44
:1038200000000000000000EC4850302000000000C4
:10383000000000A8A870505000000000000000D850
:10384000502050D800000000000000EC485030200C
:1038500020C0000000000078102020780000001830
:103860001010102010101010180010101010101050
:103870001010101010100060202020102020202098
:10388000600040A418000000000000000000FFFFDE
:10389000FFFFFFFFFFFFFFFFFFFF00000000000032
:1038A00000000000000000000000001010101010C8
:1038B0001010001000000000285050000000000010
:1038C000000000000000002828FC284850FC505050
:1038D00000000000103C54503018145454381000AC
:1038E00000000044A8A8B0683454548800000000C8
:1038F000002050506058A8A8906C00000000602084
:103900004000000000000000000000000408081053
:1039100010101010080804000000402020101010A3
:1039200010102020400000000000001054383854CF
:103930001000000000000000101010FE1010100019
:10394000000000000000000000000000606020C0D7
:1039500000000000000000FC00000000000000006B
:10396000000000000000000060600000000004088B
:10397000081010202040408080000000003844449F
:10398000444444444438000000000010301010103B
:1039900010101038000000000038444404081020C3
:1039A000407C00000000003844041804040444383B
:1039B000000000000008182848488878081C00000B
:1039C0000000007C4040784404444438000000007B
:1039D000001C244058644444443800000000007C2B
:1039E000480808101010101000000000003844446F
:1039F0002838444444380000000000384444444C13
:103A00003404487000000000000000003030000066
:103A10003030000000000000000010000000001026
:103A200010000000000408102040201008040000CE
:103A3000000000000000FC0000FC0000000000008E
:103A4000004020100804081020400000000000384A
:103A50004444040810100010000000000038449A8C
:103A6000AAAAAAB4423C000000000010102828288E
:103A7000384444EE0000000000F8444478444444D4
:103A800044F800000000003C44808080808044387E
:103A90000000000000F048444444444448F0000062
:103AA000000000FC44404878484044FC000000000E
:103AB00000FC44404878484040E0000000000038E6
:103AC000488080809C8848300000000000EE44441C
:103AD000447C444444EE00000000007C10101010B0
:103AE0001010107C00000000007C1010101010104E
:103AF0001090E000000000EC48506070504848EC26
:103B00000000000000E040404040404044FC000015
:103B1000000000EE6C6C6C54545454D6000000004D
:103B200000EE64645454544C4CE400000000003037
:103B300048848484848448300000000000F84444B1
:103B40004478404040E00000000000304884848415
:103B500084B448380C00000000F8444478504848C9
:103B600044E600000000003C44402018040444786F
:103B700000000000007C54101010101010380000DD
:103B8000000000EE44444444444444380000000033
:103B900000EE44442828282810100000000000D619
:103BA000545454546C2828280000000000DC484875
:103BB0003030304848EC0000000000EE4428281067
:103BC0001010103800000000007C48081010102071
:103BD000247C000000001C10101010101010101099
:103BE0001C000000004040202010101008080400B5
:103BF0000000701010101010101010107000000055
:103C0000102800000000000000000000000000007C
:103C1000000000000000000000FC0020520C00002A
:103C20000000000000000000000000000000384418
:103C30001C24443E0000000000C04040784444443E
:103C4000447800000000000000003C44404044383C
:103C500000000000000C04043C444444443E0000C6
:103C600000000000000038447C40443800000000A0
:103C7000001C2420F82020202078000000000000F4
:103C800000003C48483040784438000000C04040C4
:103C90005864444444E60000000000100000701026
:103CA0001010107C00000000000800003808080810
:103CB00008080870000000C040405C48507048ECA4
:103CC000000000000070101010101010107C000098
:103CD000000000000000F854545454D600000000C6
:103CE00000000000D864444444E6000000000000E6
:103CF0000000384444444438000000000000000044
:103D0000F8444444447840E00000000000003C4493
:103D10004444443C040E0000000000006C302020AD
:103D2000207800000000000000003C443008447887
:103D30000000000000002020F820202020180000B3
:103D4000000000000000CC444444443E0000000059
:103D500000000000EE44442828100000000000008D
:103D60000000D65454542828000000000000000031
:103D7000DC48303048EC0000000000000000EE4459
:103D80002828101020E00000000000007C481010DF
:103D9000247C000000000C08080808100808080827
:103DA0000C00001010101010101010101010101037
:103DB0000000602020202010202020206000002013
:103DC000520C00000000000000000000FFFFFFFF99
:103DD000FFFFFFFFFFFFFFFFFFFF000000000000ED
:103DE00000000000000000000000000000101010A3
:103DF000101010100000181800000012362448009F
:103E00000000000000000000000000000024242446
:103E1000FE484848FE484848000000001038545406
:103E20005030181414545438101000000044A4A842
:103E3000A8A8541A2A2A2A44000000000030484842
:103E400048506EA494888976000000606020C0000D
:103E5000000000000000000000000002040808103C
:103E60001010101010080804020000402010100864
:103E7000080808080810102040000000000010107A
:103E8000D63838D6101000000000000000001010D6
:103E90001010FE10101010000000000000000000C4
:103EA000000000000000606020C000000000000072
:103EB00000007F0000000000000000000000000083
:103EC0000000000000006060000000000102020429
:103ED0000408081010202040400000000018244270
:103EE000424242424242241800000000001070107A
:103EF000101010101010107C00000000003C424216
:103F0000420404081020427E00000000003C4242AF
:103F100004180402024244380000000000040C149B
:103F2000242444447E04041E00000000007E40401F
:103F3000405864020242443800000000001C244043
:103F4000405864424242241800000000007E44446D
:103F5000080810101010101000000000003C424231
:103F6000422418244242423C00000000001824422F
:103F70004242261A0202243800000000000000001D
:103F800018180000000018180000000000000000D1
:103F900000100000000000101020000000020408C3
:103FA0001020402010080402000000000000000063
:103FB000FE000000FE000000000000000040201095
:103FC000080402040810204000000000003C4242A7
:103FD0006202040808001818000000000038445A63
:103FE000AAAAAAAAB442443800000000001010187F
:103FF0002828243C444242E70000000000F84444E2
:1040000044784442424244F800000000003E4242EC
:1040100080808080804244380000000000F84442E4
:1040200042424242424244F80000000000FC424842
:1040300048784848404242FC0000000000FC4248EA
:1040400048784848404040E000000000003C4444BC
:104050008080808E844444380000000000E74242A3
:1040600042427E42424242E700000000007C1010C3
:10407000101010101010107C00000000003E080806
:10408000080808080808080888F0000000EE4448FE
:1040900050705048484444EE0000000000E04040AA
:1040A00040404040404042FE0000000000EE6C6C8A
:1040B0006C6C5454545454D60000000000C7626223
:1040C00052524A4A4A4646E2000000000038448202
:1040D00082828282828244380000000000FC4242D8
:1040E00042427C40404040E00000000000384482F2
:1040F00082828282B2CA4C380600000000FC424232
:10410000427C4848444442E300000000003E4242F2
:10411000402018040242427C0000000000FE921081
:1041200010101010101010380000000000E742427C
:10413000424242424242423C0000000000E742420A
:1041400044242428281810100000000000D6929261
:104150009292AAAA6C4444440000000000E7422462
:1041600024181818242442E70000000000EE4444FC
:10417000282810101010103800000000007E840461
:1041800008081020204242FC0000001E10101010F1
:1041900010101010101010101E00000040402020C1
:1041A0001010100808040404020200780808080827
:1041B00008080808080808087800001C2200000009
:1041C00000000000000000000000000000000000EF
:1041D000000000000000000000FF304C4300000021
:1041E00000000000000000000000000000000000CF
:1041F000003C421E2242423F0000000000C04040FE
:104200004058644242426458000000000000000030
:10421000001C22404040221C000000000006020258
:10422000021E22424242261B000000000000000045
:10423000003C427E4040423C00000000000F111054
:10424000107E10101010107C000000000000000014
:10425000003E444438403C42423C000000C04040E4
:10426000405C6242424242E7000000000030300001
:10427000007010101010107C00000000000C0C00EA
:10428000001C0404040404044478000000C04040FE
:10429000404E4850684844EE000000000070101086
:1042A000101010101010107C000000000000000022
:1042B00000FE4949494949ED0000000000000000A6
:1042C00000DC6242424242E70000000000000000C1
:1042D000003C42424242423C00000000000000001C
:1042E00000D864424242447840E0000000000000F0
:1042F000001E22424242221E02070000000000006F
:1043000000EE3220202020F8000000000000000015
:10431000003E42403C02427C0000000000000010D1
:10432000107C10101010100C0000000000000000A5
:1043300000C642424242463B00000000000000002E
:1043400000E74224242810100000000000000000B4
:1043500000D79292AAAA4444000000000000000086
:10436000006E2418181824760000000000000000D9
:1043700000E742242428181010E00000000000008C
:10438000007E44081010227E000000030404040490
:1043900004080404040404040300080808080808C6
:1043A000080808080808080808080060101010101D
:1043B00010081010101010106000304C4300000066
:1043C00000000000000000000000FFFFFFFFFFFFF3
:1043D000FFFFFFFFFFFFFFFFFFFF000000000000E7
:1043E00000000000000000000000000000000000CD
:1043F00000000000000000000000001E1F1F0C0055
:10440000000000000001F9F9010000000000008038
:10441000808080000000000C3C787C7C787060001C
:10442000000000000000000000000000000000008C
:104430000000000001010F0F0101070F0D0004072C
:10444000FFFE0404FFFF0400008080000000808065
:1044500000000007070F1F1F0F0F07000087C7C7C7
:10446000FFFF3F1F0F0000008080E0E08080000021
:104470000F0F080F07010F0E0800E0E067FFFCFFB9
:10448000BF203F0000808000000080808000000787
:104490000F0C0F0F070000001FFFF1FCFF8FFFFD47
:1044A00081000080808080808080800004647C782F
:1044B00020000000000000000000000000000000DC
:1044C0000000000000000000000000000000030FDA
:1044D0003F78600000000000FCFF0F0100000000BA
:1044E00000000000C0E060004060381F0F030000C3
:1044F00000000000010FFFFC000000002060E080D1
:104500000000000000000101010007070601010092
:10451000989898F0FEFEF2989800000000000000C5
:1045200000000000000000000707000000004040FD
:104530004040FCFC40404000000000000000000043
:104540000000000000000000000000000001010168
:104550000000000000001090F0E08000000000006B
:1045600000000000000000000000404040404040CB
:10457000404040000000000000000000000000007B
:104580000000000000000000000101010000000028
:10459000000000808080000000000000000000009B
:1045A00000030F3C700000030F3EF8E080000000A5
:1045B00040C080000000000000000003070F0C0C4A
:1045C0000F070300F8FEFF07010107FFFE000000D0
:1045D0000080808080000000000404040F0F0000B1
:1045E000000000000000FFFF01000000008080804C
:1045F00080808080800000070F0C08080E0F0700E5
:104600000083878E1C38F0E3C30080808080808028
:104610008080800000070F0D080C0F0F07000207B5
:10462000074740E0F3BF3F0000008080808080802B
:10463000000000000001071F1F1F00001838F8C805
:1046400008FFFFFF0800000000808080808080005D
:10465000000F0F0808080808080002E7E765404057
:10466000637F3F0000008080808080800000000326
:10467000070E0C080E0E0600FCFFFF634140617F31
:104680003F0000008080808080800000000E0E08C7
:1046900008080B0F0C000000000F3FFFE0000000B7
:1046A0000000008080800000000003070F0C080855
:1046B0000C0F07000E9FFFF1602071FF9F000000AC
:1046C000808080808080000003070F0C08080E0F98
:1046D0000700C0E3F33310317FFFFE00000080804D
:1046E0008080800000000000000101010100000046
:1046F0000000008181818100000000000080808036
:104700008000000000000000000000000000000029
:10471000008080808000000000000090F0F08000A9
:1047200000000000000103060C1810004040E0B03B
:10473000180C06030100000000000000000000004B
:104740000101010101010101010010101010101000
:104750001010100000000000000000000000001019
:10476000180C060301000000000103060C18B0E05D
:10477000400000000000000000000000070F1F1BA9
:104780001010181F0F00000000013D3DE1C0C000E7
:10479000000000808080800000000003070F0F0BE6
:1047A0000B0F0700FCFEFFFFFC1CFCFDFF000000E0
:1047B00000808080808000800000000F0F0F0700C5
:1047C0000000011FFFF808F8FF7F0700808080804D
:1047D000008080808000080F0F0F08080C0F070072
:1047E00000FFFFFF4040E1BFBF00808080808080ED
:1047F000808000000103070E0C080C0E0F00FCFF68
:10480000FF0300000103070000008080808080809B
:104810000000080F0F0F080C0E07070000FFFFFF36
:10482000000103FFFF008080808080808000000006
:10483000080F0F0F0808090D0E0000FFFFFF404092
:10484000F0F1030080808080808080808000080FED
:104850000F0F0808090D0E0000FFFFFF4040F0F0A9
:104860000000808080808000000000000107070EAB
:104870000C0C0C0F0F00FCFFFF0300101F1F1F008C
:1048800000008080808080800000080F0F080808EA
:10489000080F0F0000FFFF20202020FFFF00808076
:1048A0008080808080808000000808080F0F080842
:1048B000080000000000FFFF000000000080808072
:1048C00080808080800000000808080F0F0F08001B
:1048D0000000000000FFFFFF0000C0E0E02060E0FB
:1048E000C0800000080F0F0F080B0F0E0C0000FF18
:1048F000FFFFF0FC3F0F030080808080808080807D
:104900008000080F0F0F08000000000800FFFFFFE5
:104910000000000103008080808080808080808093
:104920000F0F0F0700000F0F0F08FFFFF8FF3FFFEB
:10493000F8FFFF0080808080808080808080080F6A
:104940000F070300080F0F0000FFFFC0F0F83EFF45
:10495000FF008080808000000080800001070F0E33
:1049600008080C0F0700FCFFFF03000001FFFF0019
:1049700000000080808080800000080F0F0F080872
:104980000C0F070000FFFFFF202060E0C0008080C8
:10499000808080000000000001070F0E08080E0F45
:1049A0000700FCFFFF07060707FFFF0000008080ED
:1049B00080C0E0E06000080F0F0F08080C0F070030
:1049C00000FFFFFF6078FFDF830080808080800031
:1049D0000080800003070F0C08080C060E0007C7B4
:1049E000C3616070313F1F000080808080808080C4
:1049F00000000E0E0C080F0F080C0E000000000047
:104A0000FFFF0000000000008080808080800000A8
:104A1000080F0F080800080F0F0000FFFF03000039
:104A200001FFFF0000008080808080800000080F70
:104A30000F0F00000B0F0E080080F0FF7F3FFCE01F
:104A40000000000000008080000000000E0F0F0832
:104A50000F0F0B0B0F0000F8FF7FFEFFFFFFF000B2
:104A600000008080000080800000080C0F0F090902
:104A70000F0F0C00000107DEF8FCFF0F0300808021
:104A80008080008080808000080E0F0F08000B0FD0
:104A90000E00000080F0FFFFE0800000000080803A
:104AA000808080800000020E0E0C080B0F0F0E009D
:104AB00000030F3FFCF0C0010300808080808080F5
:104AC000808080000000007F7F7F40404000000029
:104AD00000FFFFFF00000000000000C0C0C0404019
:104AE000400000303E1F0300000000000000008076
:104AF000F0FC1F07000000000000000080E0E00064
:104B0000004040407F7F7F00000000000000FFFF6A
:104B1000FF00000000404040C0C0C0000000000096
:104B20003070606070300000000000000000000085
:104B30000000000000000000000000100000000065
:104B40000000000000000000000000000000000065
:104B50001010101010101010100060E0C0C0E070B5
:104B60003010700000000000000000000000000095
:104B70000000000000000000000000000000000035
:104B80000000076FEFD89891FFFF7F0000808080C2
:104B9000808080808000080F1F1F00000000000040
:104BA00000FFFFFFC080C1FF7F0000808080808009
:104BB0008080000000000000000000000000087F6E
:104BC0007FE38080E1E3630000008080808080805C
:104BD00000000000000000080F1F1F000C7FFFE115
:104BE0008080FFFFFF000000808080808080800048
:104BF00000000000000000000000087F7FD39190BB
:104C0000D1F373000000808080808080000000006D
:104C100000070F0C080C0C00808080FFFF80808054
:104C20008000008080808080808000000000000084
:104C3000000000000000007BFFFD85CDFDF9B00005
:104C400060E0F010101090F0E000080F1F1F00004F
:104C50000000000000FFFFFFC080FFFF7F0080809A
:104C600080808080808080000000000C0C0C0C0094
:104C7000000000808080FFFF000000000080808036
:104C800080808080800000000000000C0C0C0C0074
:104C9000000000008080FFFFFF0000303030103047
:104CA000F0E00000080F1F1F00000000000000FFE0
:104CB000FFFF38FEEF8381008080808080808080CD
:104CC0008000000808080F0F00000000000000002E
:104CD000FFFF0000008000808080808080808080D6
:104CE00000000000000000000000FFFFFF80FFFF49
:104CF000C0FFFF0080808080808080808000000076
:104D0000000000000000000080FFFFFFC080FFFFE8
:104D10007F00808080808080808080000000000094
:104D20000000000000001C7FFFC18080C1FF7F00E9
:104D30000000808080808080000000000000000073
:104D40000000000080FFFFFFC080C1FF7F0010F067
:104D5000F0F0908080800000000000000000000063
:104D600000001C7FFFC18080FFFFFF0000008080EB
:104D70008090F0F0F0000000000000000000000053
:104D80008080FFFFFFE0C0C0C00080808080808006
:104D90008000000000000000000000000000006330
:104DA000F3F99888CDEFE7000080808080808080D4
:104DB000000000000007070700000000808080FF5F
:104DC000FFFF80838300000000008080808000005F
:104DD0000000000000000000000080FFFFFF0081D5
:104DE000FFFFFF0000008080808080808000000046
:104DF000000000000000000080C0F8FF9F0FFEF8D8
:104E0000C080000000008080000000000000000062
:104E1000000000000000C0FCFF8FFFFFBFFFFC0090
:104E20000000808000808080000000000000000002
:104E30000000000080C1E3F7BCBEF7C381008080A2
:104E400080808080808080000000000000000000E2
:104E5000000080C0F8FF9F8FFFF8C0000010101006
:104E6000F0E0000000000000000000000000000072
:104E700000E1E78F9EF8F0C383000080808080808F
:104E80008080800000000000003F7F604000000044
:104E9000004040FFBF0000000000000000C0E060D4
:104EA000200000000000FFFF0000000000000000E4
:104EB000FFFF0000000000000000F0F00000000014
:104EC0000040607F3F0000000000000000BFFF4086
:104ED00040000000002060E0C0000000000060E032
:104EE000C0C0E070301070600000000000000000E2
:104EF000000000000000000000000000FFFFFFFFB6
:104F0000FFFFFFFFFFFFFFFFFFFFFFFFFFFFFFFFB1
:104F1000FFFFFFFFFFFFFFFFFFFF0000000000009B
:104F20000000000000000000000000000000000081
:104F30000000000000000000000000000000000071
:104F400000000F0F0F0F000000000000000080FEA7
:104F5000FE00000000000000000038383838000073
:104F600000000001071E3C3B3F3E3C383000000083
:104F70000000000000000000000000000000000031
:104F80000000000000000000000707000000070705
:104F9000000061617FFFF9616167FFFF6100808050
:104FA000F8F8808080F8F880800000000307061F72
:104FB0001F070703010000C0E0F078FFFF8F878321
:104FC000010000E0F0F848FEFE18F8F0E0000307EA
:104FD00006070703000307060000F8FC0CFCFFFFB0
:104FE0007FFF8C0E0F00000038F8E000F0F8183852
:104FF000F80000010307040707030000000003C7CF
:10500000FFFE1FF7E1FF3F3E2000F0F8F81888D8B8
:10501000F8F8F818380001313F3E3C00000000006D
:105020000000000000000000000000000000000080
:105030000000000000000000000000000000000070
:10504000030F1E383000000000001CFFFFE30000CB
:1050500000000000000000C0E0F83C0E0600203018
:10506000381E0F0300000000000000000000E3FFF6
:10507000FF1C0000000002060E3CF8E0C00000002B
:10508000000000000000030303030000000042666C
:1050900066663CFFFFBD6666660000000000C0C09B
:1050A000C0C000000000000000000001010000007E
:1050B00000000808080808FFFF08080808000000AA
:1050C000000000C0C0000000000000000000000060
:1050D00000000000000000000000000000000000D0
:1050E000000001313F3E3C000000000000000000D5
:1050F0000000000000000000000008080808080880
:105100000808080808000000000000000000000077
:10511000000000000000000000000000000000008F
:10512000000000000000000000000038383838009F
:105130000000000000000000000000000001073F28
:10514000380000000001071F7CF0C0000000020EC4
:105150007EF0C0000000000000000000030707040C
:105160000407070300001EFFFFFF00000000FFFF11
:10517000FF0000C0F0F838080838F8F0C000000060
:10518000010101030707000000000000000000FF0C
:10519000FFFF000000000000080818F8F8F80808F1
:1051A000000000010307060404060703010000C015
:1051B000C0C00103071EFCF8E000183878D8981822
:1051C000181838F8F800000103070404060707035D
:1051D000000000C0C0C0080818FCF7E7C30000F0DA
:1051E000F0F818080818F8F0E000000000000001CE
:1051F000070F0F00000001071F3DF1C1FFFFFF0176
:105200000100000000000808F8F8F8180800000085
:1052100007070606060606060600000CFCFC18102A
:1052200010181F0F070000F0F0F808080818F8F031
:10523000E0000000010307060407070700001FFF46
:10524000FFFF181010181F0F070000E0F0F81808F3
:105250000818F8F0E000000707070606060607072B
:10526000060000C0C00001071F7CE08000000000B5
:105270000000F8F8F8000000000000010307060431
:1052800004060703010000E3F7FE3C1C0C1EFFF7B9
:10529000E300C0F0F03818080818F8F0E00000014A
:1052A0000307060404060703010070FCFEFE060265
:1052B0000606FFFFFF000030383838081878F0E0A5
:1052C000800000000000000000000000000000005E
:1052D000000070707070000000000000000038389E
:1052E000383800000000000000000000000000004E
:1052F00000000000000030303030000000000000EE
:1053000000001A1E1E18000000000000000000002F
:105310000103060C080000081C3663C18000000071
:105320000000000000000080C0603018080000008D
:1053300000000000000000000000212121212121A7
:1053400021212121210000000000000000000000B8
:10535000000000080C06030100000000000000002F
:1053600000000080C163361C08000008183060C0CF
:105370008000000000000003070C0C08080C0F0759
:10538000070000C0C0C0000F1F18F0F0E0000000D0
:10539000000038383838000000000000030306061B
:1053A0000404060303003FFFFF9F7FF9C3FFFFF3E1
:1053B000FF0000C0F0F09888888898B0700800005E
:1053C0000000070707030000000000000FFFFA823B
:1053D000FAFF3F03000008F8F888000000C8F8F85A
:1053E000780004070707040404060703030000FF0E
:1053F000FFFF0808081CFEF7E70008F8F8F808089F
:10540000081838F8F0000001030307060404060733
:1054100007003FFFFFC0000000000000800080E0A8
:10542000F0F8180808081870E000040707070404DB
:1054300006070303010000FFFFFF00000000C0FF9C
:10544000FF0008F8F8F808081838F0F0E000040742
:105450000707040404040607070000FFFFFF08080D
:10546000083E3E00000008F8F8F808080808183858
:10547000780004070707040404040607070000FF78
:10548000FFFF0808081C3E3E800008F8F8F80808EE
:1054900000000000000000010307070404060707DE
:1054A00001007FFFFFC0000002020383830080E051
:1054B000F0F818080818F8F0F000040707070400CF
:1054C00000040707070000FFFFFF08080808FFFFA8
:1054D000FF0008F8F8F808000008F8F8F8000004E1
:1054E0000404070707070404040000000000FFFF8E
:1054F000FFFF0000000000080808F8F8F8F80808A6
:10550000080000000004040407070704040000006A
:1055100000000000FFFFFF00000006070705010371
:10552000FFFEFC0000000407070704040407070649
:10553000040000FFFFFF1C7EFFC78100000008F889
:10554000F8F8080880E8F878180004070707070447
:1055500000000000000000FFFFFFFF00000000004F
:10556000000008F8F8F8F808080818387800040768
:105570000707000000010707070400FFFFFF7F0780
:105580000FFFFFFFFF0008F8F888F8F8F888F8F830
:10559000F80804070707030000040407070000FFDA
:1055A000FFE0F0FC3F0F03FFFF0008F8F8080800D9
:1055B00000C0F0F8F8000001030706040406070322
:1055C00001003FFFFFC00000000080FFFF0000E07F
:1055D000F0F81808081878F0E0000407070704043A
:1055E00004060703030000FFFFFF0404040C1CF87B
:1055F000F80008F8F8F808080000000000000001B2
:10560000030706040406070301007FFFFFC0000034
:10561000000080FFFF0080E0F0F8F8C8F8FE7EFE92
:10562000E60004070707040404060707030000FF59
:10563000FFFF080C0F1FFBF0E00008F8F8F808085F
:1056400000E0F8F818000003030704040406070745
:10565000070000E0F038181C0C0E0787830080F864
:10566000F8381808081878F0E0000307070407075F
:1056700007040407070080800000FFFFFF00000010
:10568000800000000008F8F8F8080800000004078F
:105690000707040000040407070000FFFFFF0000E5
:1056A000000000FFFF0000E0F0F81808081838F0CC
:1056B000E000040707070400000407070604008051
:1056C000F8FF7F0F033FFEE0000000000080F8F8C5
:1056D000F8C00000000007070704040707070407D5
:1056E000070000FCFF7F3FFFFFFF1FFFF0000000EF
:1056F000F0F8F880E0F8F8C0000004040707070499
:10570000000507070400000080E0FB7F3FF7C100B1
:105710000000081838F8C80080E8F8781800040776
:10572000070704000004070706000000C0F0FF3F61
:105730001F7CF080000000000008F8F8F80808005E
:105740000000000307060404040507070600000024
:105750000001071F7EF8E08000000838F8F8E888AC
:10576000080818787800000000003F3F2020202023
:10577000200000000000FFFF00000000000000000B
:105780000000FEFE02020202020000080E0F0300EB
:10579000000000000000000000C0F0FE1F07000035
:1057A000000000000000000080F0FC3F0700002027
:1057B000202020203F3F00000000000000000000EB
:1057C000FFFF00000000000202020202FEFE0000D5
:1057D00000000000081838303038180800000000B9
:1057E00000000000000000000000000000000000B9
:1057F00000000000000100000000000000000000A8
:105800000000000000000000000000000000010196
:1058100001010101010101010100083870406078B7
:105820003C1C0C0C1C0000000000000000000000EC
:105830000000000000000000000000000000000068
:105840000000000000000000000000193B3B222681
:1058500024343F1F000060F0F8F808081818F8F822
:10586000180004070F0F000000000000000000FFF8
:10587000FFFF383020303F3F1F0000F8F8F81808CD
:105880000818F8F0E0000000000000000000000030
:105890000000000F1F3F3820203C3C1C0C0000E0A3
:1058A000F0F81808080818706000000000000000F8
:1058B0000404070F0F00000F1F3F30202030FFFFB0
:1058C000FF0000E0F0F818080818F8F8F0000000F1
:1058D00000000000000000000000000F1F3F322207
:1058E00022323E1E0E0000E0F0F8180808081830BA
:1058F0002000000000000307060404070700002042
:10590000207FFFFF202020200000000808F8F8F882
:10591000080808000000000000000000000000006F
:105920000000000E1F3F3120203F3F3F3000004E5F
:10593000FFF3B1B1B1919B1F1E0004070F0F0000D0
:1059400000000000000000FFFFFF383020303F3F24
:105950000F0008F8F8F808000008F8F8F800000050
:105960000000060606060000000000002020203F80
:105970003F00000000000000080808F8F8080808C8
:105980000000000000000000000606060000000005
:1059900000002020203F3F3F0000000203030101E0
:1059A00003FFFEFC000004070F0F000000000000D2
:1059B000000000FFFFFF03072F393020200008F808
:1059C000F8F88808C0F8F838180000000404040F3C
:1059D0000F00000000000000000000FFFF000000BA
:1059E00000000000080808F8F80808080000000097
:1059F000000000000000000000003F3F3F30203F5B
:105A00003F3F203F3F00F8F8F80808F8F8F808F89A
:105A1000F800000000000000000000000000203F2F
:105A20003F3F383020303F3F0F0008F8F8F80800BB
:105A30000008F8F8F8000000000000000000000076
:105A40000000030F1F3C302020303C1F0F0080E07F
:105A5000F0781808081878F0E00000000000000056
:105A6000000000000000203F3F3F383020303C1F46
:105A70001F0001FFFFFF1909081878F0E00000007F
:105A800000000000000000000000010F1F3F302058
:105A900020303F3F3F0000E0F0F818080919FFFFF1
:105AA000FF000000000000000000000000002020B7
:105AB000203F3F3F183030303000080808F8F8F831
:105AC00008080800000000000000000000000000BE
:105AD000000000001E3E33232131393818000078C1
